{
	"token协议/ERC20/contracts/ERC20.sol": {
		"ERC20": {
			"abi": [
				{
					"anonymous": false,
					"inputs": [
						{
							"indexed": false,
							"internalType": "address",
							"name": "owner",
							"type": "address"
						},
						{
							"indexed": false,
							"internalType": "address",
							"name": "_spender",
							"type": "address"
						},
						{
							"indexed": false,
							"internalType": "uint256",
							"name": "value",
							"type": "uint256"
						}
					],
					"name": "Approval",
					"type": "event"
				},
				{
					"anonymous": false,
					"inputs": [
						{
							"indexed": false,
							"internalType": "address",
							"name": "from",
							"type": "address"
						},
						{
							"indexed": false,
							"internalType": "address",
							"name": "to",
							"type": "address"
						},
						{
							"indexed": false,
							"internalType": "uint256",
							"name": "value",
							"type": "uint256"
						}
					],
					"name": "Transfer",
					"type": "event"
				},
				{
					"inputs": [
						{
							"internalType": "address",
							"name": "",
							"type": "address"
						},
						{
							"internalType": "address",
							"name": "",
							"type": "address"
						}
					],
					"name": "allowance",
					"outputs": [
						{
							"internalType": "uint256",
							"name": "",
							"type": "uint256"
						}
					],
					"stateMutability": "view",
					"type": "function"
				},
				{
					"inputs": [
						{
							"internalType": "address",
							"name": "_spender",
							"type": "address"
						},
						{
							"internalType": "uint256",
							"name": "amount",
							"type": "uint256"
						}
					],
					"name": "approval",
					"outputs": [
						{
							"internalType": "bool",
							"name": "",
							"type": "bool"
						}
					],
					"stateMutability": "nonpayable",
					"type": "function"
				},
				{
					"inputs": [
						{
							"internalType": "address",
							"name": "",
							"type": "address"
						}
					],
					"name": "balanceOf",
					"outputs": [
						{
							"internalType": "uint256",
							"name": "",
							"type": "uint256"
						}
					],
					"stateMutability": "view",
					"type": "function"
				},
				{
					"inputs": [
						{
							"internalType": "uint256",
							"name": "amount",
							"type": "uint256"
						}
					],
					"name": "burn",
					"outputs": [],
					"stateMutability": "nonpayable",
					"type": "function"
				},
				{
					"inputs": [],
					"name": "decimals",
					"outputs": [
						{
							"internalType": "uint8",
							"name": "",
							"type": "uint8"
						}
					],
					"stateMutability": "view",
					"type": "function"
				},
				{
					"inputs": [
						{
							"internalType": "uint256",
							"name": "amount",
							"type": "uint256"
						}
					],
					"name": "mint",
					"outputs": [],
					"stateMutability": "nonpayable",
					"type": "function"
				},
				{
					"inputs": [],
					"name": "name",
					"outputs": [
						{
							"internalType": "string",
							"name": "",
							"type": "string"
						}
					],
					"stateMutability": "view",
					"type": "function"
				},
				{
					"inputs": [],
					"name": "symbol",
					"outputs": [
						{
							"internalType": "string",
							"name": "",
							"type": "string"
						}
					],
					"stateMutability": "view",
					"type": "function"
				},
				{
					"inputs": [],
					"name": "totalSupply",
					"outputs": [
						{
							"internalType": "uint256",
							"name": "",
							"type": "uint256"
						}
					],
					"stateMutability": "view",
					"type": "function"
				},
				{
					"inputs": [
						{
							"internalType": "address",
							"name": "to",
							"type": "address"
						},
						{
							"internalType": "uint256",
							"name": "value",
							"type": "uint256"
						}
					],
					"name": "transfer",
					"outputs": [
						{
							"internalType": "bool",
							"name": "",
							"type": "bool"
						}
					],
					"stateMutability": "nonpayable",
					"type": "function"
				},
				{
					"inputs": [
						{
							"internalType": "address",
							"name": "from",
							"type": "address"
						},
						{
							"internalType": "address",
							"name": "to",
							"type": "address"
						},
						{
							"internalType": "uint256",
							"name": "value",
							"type": "uint256"
						}
					],
					"name": "transferFrom",
					"outputs": [
						{
							"internalType": "bool",
							"name": "",
							"type": "bool"
						}
					],
					"stateMutability": "nonpayable",
					"type": "function"
				}
			],
			"devdoc": {
				"kind": "dev",
				"methods": {},
				"version": 1
			},
			"evm": {
				"assembly": "    /* \"token\\xe5\\x8d\\x8f\\xe8\\xae\\xae/ERC20/contracts/ERC20.sol\":82:1421  contract ERC20 is IERC20{\r... */\n  mstore(0x40, 0x80)\n    /* \"token\\xe5\\x8d\\x8f\\xe8\\xae\\xae/ERC20/contracts/ERC20.sol\":277:313  string public override  name = 'eth' */\n  mload(0x40)\n  dup1\n  0x40\n  add\n  0x40\n  mstore\n  dup1\n  0x03\n  dup2\n  mstore\n  0x20\n  add\n  0x6574680000000000000000000000000000000000000000000000000000000000\n  dup2\n  mstore\n  pop\n  0x03\n  swap1\n  dup1\n  mload\n  swap1\n  0x20\n  add\n  swap1\n  tag_1\n  swap3\n  swap2\n  swap1\n  tag_2\n  jump\t// in\ntag_1:\n  pop\n    /* \"token\\xe5\\x8d\\x8f\\xe8\\xae\\xae/ERC20/contracts/ERC20.sol\":317:354  string public override symbol =\"weth\" */\n  mload(0x40)\n  dup1\n  0x40\n  add\n  0x40\n  mstore\n  dup1\n  0x04\n  dup2\n  mstore\n  0x20\n  add\n  0x7765746800000000000000000000000000000000000000000000000000000000\n  dup2\n  mstore\n  pop\n  0x04\n  swap1\n  dup1\n  mload\n  swap1\n  0x20\n  add\n  swap1\n  tag_3\n  swap3\n  swap2\n  swap1\n  tag_2\n  jump\t// in\ntag_3:\n  pop\n    /* \"token\\xe5\\x8d\\x8f\\xe8\\xae\\xae/ERC20/contracts/ERC20.sol\":390:392  18 */\n  0x12\n    /* \"token\\xe5\\x8d\\x8f\\xe8\\xae\\xae/ERC20/contracts/ERC20.sol\":358:392  uint8 public  override decimals=18 */\n  0x05\n  exp(0x0100, 0x00)\n  dup2\n  sload\n  dup2\n  0xff\n  mul\n  not\n  and\n  swap1\n  dup4\n  0xff\n  and\n  mul\n  or\n  swap1\n  sstore\n  pop\n    /* \"token\\xe5\\x8d\\x8f\\xe8\\xae\\xae/ERC20/contracts/ERC20.sol\":82:1421  contract ERC20 is IERC20{\r... */\n  callvalue\n  dup1\n  iszero\n  tag_4\n  jumpi\n  0x00\n  dup1\n  revert\ntag_4:\n  pop\n  jump(tag_5)\ntag_2:\n  dup3\n  dup1\n  sload\n  tag_6\n  swap1\n  tag_7\n  jump\t// in\ntag_6:\n  swap1\n  0x00\n  mstore\n  keccak256(0x00, 0x20)\n  swap1\n  0x1f\n  add\n  0x20\n  swap1\n  div\n  dup2\n  add\n  swap3\n  dup3\n  tag_9\n  jumpi\n  0x00\n  dup6\n  sstore\n  jump(tag_8)\ntag_9:\n  dup3\n  0x1f\n  lt\n  tag_10\n  jumpi\n  dup1\n  mload\n  not(0xff)\n  and\n  dup4\n  dup1\n  add\n  or\n  dup6\n  sstore\n  jump(tag_8)\ntag_10:\n  dup3\n  dup1\n  add\n  0x01\n  add\n  dup6\n  sstore\n  dup3\n  iszero\n  tag_8\n  jumpi\n  swap2\n  dup3\n  add\ntag_11:\n  dup3\n  dup2\n  gt\n  iszero\n  tag_12\n  jumpi\n  dup3\n  mload\n  dup3\n  sstore\n  swap2\n  0x20\n  add\n  swap2\n  swap1\n  0x01\n  add\n  swap1\n  jump(tag_11)\ntag_12:\ntag_8:\n  pop\n  swap1\n  pop\n  tag_13\n  swap2\n  swap1\n  tag_14\n  jump\t// in\ntag_13:\n  pop\n  swap1\n  jump\t// out\ntag_14:\ntag_15:\n  dup1\n  dup3\n  gt\n  iszero\n  tag_16\n  jumpi\n  0x00\n  dup2\n  0x00\n  swap1\n  sstore\n  pop\n  0x01\n  add\n  jump(tag_15)\ntag_16:\n  pop\n  swap1\n  jump\t// out\n    /* \"#utility.yul\":7:327   */\ntag_7:\n    /* \"#utility.yul\":51:57   */\n  0x00\n    /* \"#utility.yul\":88:89   */\n  0x02\n    /* \"#utility.yul\":82:86   */\n  dup3\n    /* \"#utility.yul\":78:90   */\n  div\n    /* \"#utility.yul\":68:90   */\n  swap1\n  pop\n    /* \"#utility.yul\":135:136   */\n  0x01\n    /* \"#utility.yul\":129:133   */\n  dup3\n    /* \"#utility.yul\":125:137   */\n  and\n    /* \"#utility.yul\":156:174   */\n  dup1\n    /* \"#utility.yul\":146:227   */\n  tag_19\n  jumpi\n    /* \"#utility.yul\":212:216   */\n  0x7f\n    /* \"#utility.yul\":204:210   */\n  dup3\n    /* \"#utility.yul\":200:217   */\n  and\n    /* \"#utility.yul\":190:217   */\n  swap2\n  pop\n    /* \"#utility.yul\":146:227   */\ntag_19:\n    /* \"#utility.yul\":274:276   */\n  0x20\n    /* \"#utility.yul\":266:272   */\n  dup3\n    /* \"#utility.yul\":263:277   */\n  lt\n    /* \"#utility.yul\":243:261   */\n  dup2\n    /* \"#utility.yul\":240:278   */\n  eq\n    /* \"#utility.yul\":237:321   */\n  iszero\n  tag_20\n  jumpi\n    /* \"#utility.yul\":293:311   */\n  tag_21\n  tag_22\n  jump\t// in\ntag_21:\n    /* \"#utility.yul\":237:321   */\ntag_20:\n    /* \"#utility.yul\":58:327   */\n  pop\n    /* \"#utility.yul\":7:327   */\n  swap2\n  swap1\n  pop\n  jump\t// out\n    /* \"#utility.yul\":333:513   */\ntag_22:\n    /* \"#utility.yul\":381:458   */\n  0x4e487b7100000000000000000000000000000000000000000000000000000000\n    /* \"#utility.yul\":378:379   */\n  0x00\n    /* \"#utility.yul\":371:459   */\n  mstore\n    /* \"#utility.yul\":478:482   */\n  0x22\n    /* \"#utility.yul\":475:476   */\n  0x04\n    /* \"#utility.yul\":468:483   */\n  mstore\n    /* \"#utility.yul\":502:506   */\n  0x24\n    /* \"#utility.yul\":499:500   */\n  0x00\n    /* \"#utility.yul\":492:507   */\n  revert\n    /* \"token\\xe5\\x8d\\x8f\\xe8\\xae\\xae/ERC20/contracts/ERC20.sol\":82:1421  contract ERC20 is IERC20{\r... */\ntag_5:\n  dataSize(sub_0)\n  dup1\n  dataOffset(sub_0)\n  0x00\n  codecopy\n  0x00\n  return\nstop\n\nsub_0: assembly {\n        /* \"token\\xe5\\x8d\\x8f\\xe8\\xae\\xae/ERC20/contracts/ERC20.sol\":82:1421  contract ERC20 is IERC20{\r... */\n      mstore(0x40, 0x80)\n      callvalue\n      dup1\n      iszero\n      tag_1\n      jumpi\n      0x00\n      dup1\n      revert\n    tag_1:\n      pop\n      jumpi(tag_2, lt(calldatasize, 0x04))\n      shr(0xe0, calldataload(0x00))\n      dup1\n      0x70a08231\n      gt\n      tag_14\n      jumpi\n      dup1\n      0x70a08231\n      eq\n      tag_8\n      jumpi\n      dup1\n      0x75247a58\n      eq\n      tag_9\n      jumpi\n      dup1\n      0x95d89b41\n      eq\n      tag_10\n      jumpi\n      dup1\n      0xa0712d68\n      eq\n      tag_11\n      jumpi\n      dup1\n      0xa9059cbb\n      eq\n      tag_12\n      jumpi\n      dup1\n      0xdd62ed3e\n      eq\n      tag_13\n      jumpi\n      jump(tag_2)\n    tag_14:\n      dup1\n      0x06fdde03\n      eq\n      tag_3\n      jumpi\n      dup1\n      0x18160ddd\n      eq\n      tag_4\n      jumpi\n      dup1\n      0x23b872dd\n      eq\n      tag_5\n      jumpi\n      dup1\n      0x313ce567\n      eq\n      tag_6\n      jumpi\n      dup1\n      0x42966c68\n      eq\n      tag_7\n      jumpi\n    tag_2:\n      0x00\n      dup1\n      revert\n        /* \"token\\xe5\\x8d\\x8f\\xe8\\xae\\xae/ERC20/contracts/ERC20.sol\":277:313  string public override  name = 'eth' */\n    tag_3:\n      tag_15\n      tag_16\n      jump\t// in\n    tag_15:\n      mload(0x40)\n      tag_17\n      swap2\n      swap1\n      tag_18\n      jump\t// in\n    tag_17:\n      mload(0x40)\n      dup1\n      swap2\n      sub\n      swap1\n      return\n        /* \"token\\xe5\\x8d\\x8f\\xe8\\xae\\xae/ERC20/contracts/ERC20.sol\":110:142  uint public override totalSupply */\n    tag_4:\n      tag_19\n      tag_20\n      jump\t// in\n    tag_19:\n      mload(0x40)\n      tag_21\n      swap2\n      swap1\n      tag_22\n      jump\t// in\n    tag_21:\n      mload(0x40)\n      dup1\n      swap2\n      sub\n      swap1\n      return\n        /* \"token\\xe5\\x8d\\x8f\\xe8\\xae\\xae/ERC20/contracts/ERC20.sol\":824:1092  function transferFrom(address from,address to,uint256 value)external override returns(bool){\r... */\n    tag_5:\n      tag_23\n      0x04\n      dup1\n      calldatasize\n      sub\n      dup2\n      add\n      swap1\n      tag_24\n      swap2\n      swap1\n      tag_25\n      jump\t// in\n    tag_24:\n      tag_26\n      jump\t// in\n    tag_23:\n      mload(0x40)\n      tag_27\n      swap2\n      swap1\n      tag_28\n      jump\t// in\n    tag_27:\n      mload(0x40)\n      dup1\n      swap2\n      sub\n      swap1\n      return\n        /* \"token\\xe5\\x8d\\x8f\\xe8\\xae\\xae/ERC20/contracts/ERC20.sol\":358:392  uint8 public  override decimals=18 */\n    tag_6:\n      tag_29\n      tag_30\n      jump\t// in\n    tag_29:\n      mload(0x40)\n      tag_31\n      swap2\n      swap1\n      tag_32\n      jump\t// in\n    tag_31:\n      mload(0x40)\n      dup1\n      swap2\n      sub\n      swap1\n      return\n        /* \"token\\xe5\\x8d\\x8f\\xe8\\xae\\xae/ERC20/contracts/ERC20.sol\":1264:1418  function burn(uint256 amount)external{\r... */\n    tag_7:\n      tag_33\n      0x04\n      dup1\n      calldatasize\n      sub\n      dup2\n      add\n      swap1\n      tag_34\n      swap2\n      swap1\n      tag_35\n      jump\t// in\n    tag_34:\n      tag_36\n      jump\t// in\n    tag_33:\n      stop\n        /* \"token\\xe5\\x8d\\x8f\\xe8\\xae\\xae/ERC20/contracts/ERC20.sol\":146:199  mapping(address => uint256) public override balanceOf */\n    tag_8:\n      tag_37\n      0x04\n      dup1\n      calldatasize\n      sub\n      dup2\n      add\n      swap1\n      tag_38\n      swap2\n      swap1\n      tag_39\n      jump\t// in\n    tag_38:\n      tag_40\n      jump\t// in\n    tag_37:\n      mload(0x40)\n      tag_41\n      swap2\n      swap1\n      tag_22\n      jump\t// in\n    tag_41:\n      mload(0x40)\n      dup1\n      swap2\n      sub\n      swap1\n      return\n        /* \"token\\xe5\\x8d\\x8f\\xe8\\xae\\xae/ERC20/contracts/ERC20.sol\":398:599  function approval(address _spender,uint256 amount) external override returns(bool){\r... */\n    tag_9:\n      tag_42\n      0x04\n      dup1\n      calldatasize\n      sub\n      dup2\n      add\n      swap1\n      tag_43\n      swap2\n      swap1\n      tag_44\n      jump\t// in\n    tag_43:\n      tag_45\n      jump\t// in\n    tag_42:\n      mload(0x40)\n      tag_46\n      swap2\n      swap1\n      tag_28\n      jump\t// in\n    tag_46:\n      mload(0x40)\n      dup1\n      swap2\n      sub\n      swap1\n      return\n        /* \"token\\xe5\\x8d\\x8f\\xe8\\xae\\xae/ERC20/contracts/ERC20.sol\":317:354  string public override symbol =\"weth\" */\n    tag_10:\n      tag_47\n      tag_48\n      jump\t// in\n    tag_47:\n      mload(0x40)\n      tag_49\n      swap2\n      swap1\n      tag_18\n      jump\t// in\n    tag_49:\n      mload(0x40)\n      dup1\n      swap2\n      sub\n      swap1\n      return\n        /* \"token\\xe5\\x8d\\x8f\\xe8\\xae\\xae/ERC20/contracts/ERC20.sol\":1097:1262  function mint(uint amount)external {\r... */\n    tag_11:\n      tag_50\n      0x04\n      dup1\n      calldatasize\n      sub\n      dup2\n      add\n      swap1\n      tag_51\n      swap2\n      swap1\n      tag_35\n      jump\t// in\n    tag_51:\n      tag_52\n      jump\t// in\n    tag_50:\n      stop\n        /* \"token\\xe5\\x8d\\x8f\\xe8\\xae\\xae/ERC20/contracts/ERC20.sol\":602:821  function transfer(address to,uint256 value) external override returns(bool){\r... */\n    tag_12:\n      tag_53\n      0x04\n      dup1\n      calldatasize\n      sub\n      dup2\n      add\n      swap1\n      tag_54\n      swap2\n      swap1\n      tag_44\n      jump\t// in\n    tag_54:\n      tag_55\n      jump\t// in\n    tag_53:\n      mload(0x40)\n      tag_56\n      swap2\n      swap1\n      tag_28\n      jump\t// in\n    tag_56:\n      mload(0x40)\n      dup1\n      swap2\n      sub\n      swap1\n      return\n        /* \"token\\xe5\\x8d\\x8f\\xe8\\xae\\xae/ERC20/contracts/ERC20.sol\":203:273  mapping(address => mapping(address=>uint256))public override allowance */\n    tag_13:\n      tag_57\n      0x04\n      dup1\n      calldatasize\n      sub\n      dup2\n      add\n      swap1\n      tag_58\n      swap2\n      swap1\n      tag_59\n      jump\t// in\n    tag_58:\n      tag_60\n      jump\t// in\n    tag_57:\n      mload(0x40)\n      tag_61\n      swap2\n      swap1\n      tag_22\n      jump\t// in\n    tag_61:\n      mload(0x40)\n      dup1\n      swap2\n      sub\n      swap1\n      return\n        /* \"token\\xe5\\x8d\\x8f\\xe8\\xae\\xae/ERC20/contracts/ERC20.sol\":277:313  string public override  name = 'eth' */\n    tag_16:\n      0x03\n      dup1\n      sload\n      tag_62\n      swap1\n      tag_63\n      jump\t// in\n    tag_62:\n      dup1\n      0x1f\n      add\n      0x20\n      dup1\n      swap2\n      div\n      mul\n      0x20\n      add\n      mload(0x40)\n      swap1\n      dup2\n      add\n      0x40\n      mstore\n      dup1\n      swap3\n      swap2\n      swap1\n      dup2\n      dup2\n      mstore\n      0x20\n      add\n      dup3\n      dup1\n      sload\n      tag_64\n      swap1\n      tag_63\n      jump\t// in\n    tag_64:\n      dup1\n      iszero\n      tag_65\n      jumpi\n      dup1\n      0x1f\n      lt\n      tag_66\n      jumpi\n      0x0100\n      dup1\n      dup4\n      sload\n      div\n      mul\n      dup4\n      mstore\n      swap2\n      0x20\n      add\n      swap2\n      jump(tag_65)\n    tag_66:\n      dup3\n      add\n      swap2\n      swap1\n      0x00\n      mstore\n      keccak256(0x00, 0x20)\n      swap1\n    tag_67:\n      dup2\n      sload\n      dup2\n      mstore\n      swap1\n      0x01\n      add\n      swap1\n      0x20\n      add\n      dup1\n      dup4\n      gt\n      tag_67\n      jumpi\n      dup3\n      swap1\n      sub\n      0x1f\n      and\n      dup3\n      add\n      swap2\n    tag_65:\n      pop\n      pop\n      pop\n      pop\n      pop\n      dup2\n      jump\t// out\n        /* \"token\\xe5\\x8d\\x8f\\xe8\\xae\\xae/ERC20/contracts/ERC20.sol\":110:142  uint public override totalSupply */\n    tag_20:\n      sload(0x00)\n      dup2\n      jump\t// out\n        /* \"token\\xe5\\x8d\\x8f\\xe8\\xae\\xae/ERC20/contracts/ERC20.sol\":824:1092  function transferFrom(address from,address to,uint256 value)external override returns(bool){\r... */\n    tag_26:\n        /* \"token\\xe5\\x8d\\x8f\\xe8\\xae\\xae/ERC20/contracts/ERC20.sol\":910:914  bool */\n      0x00\n        /* \"token\\xe5\\x8d\\x8f\\xe8\\xae\\xae/ERC20/contracts/ERC20.sol\":955:960  value */\n      dup2\n        /* \"token\\xe5\\x8d\\x8f\\xe8\\xae\\xae/ERC20/contracts/ERC20.sol\":926:935  allowance */\n      0x02\n        /* \"token\\xe5\\x8d\\x8f\\xe8\\xae\\xae/ERC20/contracts/ERC20.sol\":926:941  allowance[from] */\n      0x00\n        /* \"token\\xe5\\x8d\\x8f\\xe8\\xae\\xae/ERC20/contracts/ERC20.sol\":936:940  from */\n      dup7\n        /* \"token\\xe5\\x8d\\x8f\\xe8\\xae\\xae/ERC20/contracts/ERC20.sol\":926:941  allowance[from] */\n      0xffffffffffffffffffffffffffffffffffffffff\n      and\n      0xffffffffffffffffffffffffffffffffffffffff\n      and\n      dup2\n      mstore\n      0x20\n      add\n      swap1\n      dup2\n      mstore\n      0x20\n      add\n      0x00\n      keccak256\n        /* \"token\\xe5\\x8d\\x8f\\xe8\\xae\\xae/ERC20/contracts/ERC20.sol\":926:953  allowance[from][msg.sender] */\n      0x00\n        /* \"token\\xe5\\x8d\\x8f\\xe8\\xae\\xae/ERC20/contracts/ERC20.sol\":942:952  msg.sender */\n      caller\n        /* \"token\\xe5\\x8d\\x8f\\xe8\\xae\\xae/ERC20/contracts/ERC20.sol\":926:953  allowance[from][msg.sender] */\n      0xffffffffffffffffffffffffffffffffffffffff\n      and\n      0xffffffffffffffffffffffffffffffffffffffff\n      and\n      dup2\n      mstore\n      0x20\n      add\n      swap1\n      dup2\n      mstore\n      0x20\n      add\n      0x00\n      keccak256\n      0x00\n        /* \"token\\xe5\\x8d\\x8f\\xe8\\xae\\xae/ERC20/contracts/ERC20.sol\":926:960  allowance[from][msg.sender]-=value */\n      dup3\n      dup3\n      sload\n      tag_69\n      swap2\n      swap1\n      tag_70\n      jump\t// in\n    tag_69:\n      swap3\n      pop\n      pop\n      dup2\n      swap1\n      sstore\n      pop\n        /* \"token\\xe5\\x8d\\x8f\\xe8\\xae\\xae/ERC20/contracts/ERC20.sol\":988:993  value */\n      dup2\n        /* \"token\\xe5\\x8d\\x8f\\xe8\\xae\\xae/ERC20/contracts/ERC20.sol\":971:980  balanceOf */\n      0x01\n        /* \"token\\xe5\\x8d\\x8f\\xe8\\xae\\xae/ERC20/contracts/ERC20.sol\":971:986  balanceOf[from] */\n      0x00\n        /* \"token\\xe5\\x8d\\x8f\\xe8\\xae\\xae/ERC20/contracts/ERC20.sol\":981:985  from */\n      dup7\n        /* \"token\\xe5\\x8d\\x8f\\xe8\\xae\\xae/ERC20/contracts/ERC20.sol\":971:986  balanceOf[from] */\n      0xffffffffffffffffffffffffffffffffffffffff\n      and\n      0xffffffffffffffffffffffffffffffffffffffff\n      and\n      dup2\n      mstore\n      0x20\n      add\n      swap1\n      dup2\n      mstore\n      0x20\n      add\n      0x00\n      keccak256\n      0x00\n        /* \"token\\xe5\\x8d\\x8f\\xe8\\xae\\xae/ERC20/contracts/ERC20.sol\":971:993  balanceOf[from]-=value */\n      dup3\n      dup3\n      sload\n      tag_71\n      swap2\n      swap1\n      tag_70\n      jump\t// in\n    tag_71:\n      swap3\n      pop\n      pop\n      dup2\n      swap1\n      sstore\n      pop\n        /* \"token\\xe5\\x8d\\x8f\\xe8\\xae\\xae/ERC20/contracts/ERC20.sol\":1019:1024  value */\n      dup2\n        /* \"token\\xe5\\x8d\\x8f\\xe8\\xae\\xae/ERC20/contracts/ERC20.sol\":1004:1013  balanceOf */\n      0x01\n        /* \"token\\xe5\\x8d\\x8f\\xe8\\xae\\xae/ERC20/contracts/ERC20.sol\":1004:1017  balanceOf[to] */\n      0x00\n        /* \"token\\xe5\\x8d\\x8f\\xe8\\xae\\xae/ERC20/contracts/ERC20.sol\":1014:1016  to */\n      dup6\n        /* \"token\\xe5\\x8d\\x8f\\xe8\\xae\\xae/ERC20/contracts/ERC20.sol\":1004:1017  balanceOf[to] */\n      0xffffffffffffffffffffffffffffffffffffffff\n      and\n      0xffffffffffffffffffffffffffffffffffffffff\n      and\n      dup2\n      mstore\n      0x20\n      add\n      swap1\n      dup2\n      mstore\n      0x20\n      add\n      0x00\n      keccak256\n      0x00\n        /* \"token\\xe5\\x8d\\x8f\\xe8\\xae\\xae/ERC20/contracts/ERC20.sol\":1004:1024  balanceOf[to]+=value */\n      dup3\n      dup3\n      sload\n      tag_72\n      swap2\n      swap1\n      tag_73\n      jump\t// in\n    tag_72:\n      swap3\n      pop\n      pop\n      dup2\n      swap1\n      sstore\n      pop\n        /* \"token\\xe5\\x8d\\x8f\\xe8\\xae\\xae/ERC20/contracts/ERC20.sol\":1040:1065  Transfer(from, to, value) */\n      0xddf252ad1be2c89b69c2b068fc378daa952ba7f163c4a11628f55a4df523b3ef\n        /* \"token\\xe5\\x8d\\x8f\\xe8\\xae\\xae/ERC20/contracts/ERC20.sol\":1049:1053  from */\n      dup5\n        /* \"token\\xe5\\x8d\\x8f\\xe8\\xae\\xae/ERC20/contracts/ERC20.sol\":1055:1057  to */\n      dup5\n        /* \"token\\xe5\\x8d\\x8f\\xe8\\xae\\xae/ERC20/contracts/ERC20.sol\":1059:1064  value */\n      dup5\n        /* \"token\\xe5\\x8d\\x8f\\xe8\\xae\\xae/ERC20/contracts/ERC20.sol\":1040:1065  Transfer(from, to, value) */\n      mload(0x40)\n      tag_74\n      swap4\n      swap3\n      swap2\n      swap1\n      tag_75\n      jump\t// in\n    tag_74:\n      mload(0x40)\n      dup1\n      swap2\n      sub\n      swap1\n      log1\n        /* \"token\\xe5\\x8d\\x8f\\xe8\\xae\\xae/ERC20/contracts/ERC20.sol\":1083:1087  true */\n      0x01\n        /* \"token\\xe5\\x8d\\x8f\\xe8\\xae\\xae/ERC20/contracts/ERC20.sol\":1076:1087  return true */\n      swap1\n      pop\n        /* \"token\\xe5\\x8d\\x8f\\xe8\\xae\\xae/ERC20/contracts/ERC20.sol\":824:1092  function transferFrom(address from,address to,uint256 value)external override returns(bool){\r... */\n      swap4\n      swap3\n      pop\n      pop\n      pop\n      jump\t// out\n        /* \"token\\xe5\\x8d\\x8f\\xe8\\xae\\xae/ERC20/contracts/ERC20.sol\":358:392  uint8 public  override decimals=18 */\n    tag_30:\n      0x05\n      0x00\n      swap1\n      sload\n      swap1\n      0x0100\n      exp\n      swap1\n      div\n      0xff\n      and\n      dup2\n      jump\t// out\n        /* \"token\\xe5\\x8d\\x8f\\xe8\\xae\\xae/ERC20/contracts/ERC20.sol\":1264:1418  function burn(uint256 amount)external{\r... */\n    tag_36:\n        /* \"token\\xe5\\x8d\\x8f\\xe8\\xae\\xae/ERC20/contracts/ERC20.sol\":1331:1337  amount */\n      dup1\n        /* \"token\\xe5\\x8d\\x8f\\xe8\\xae\\xae/ERC20/contracts/ERC20.sol\":1308:1317  balanceOf */\n      0x01\n        /* \"token\\xe5\\x8d\\x8f\\xe8\\xae\\xae/ERC20/contracts/ERC20.sol\":1308:1329  balanceOf[msg.sender] */\n      0x00\n        /* \"token\\xe5\\x8d\\x8f\\xe8\\xae\\xae/ERC20/contracts/ERC20.sol\":1318:1328  msg.sender */\n      caller\n        /* \"token\\xe5\\x8d\\x8f\\xe8\\xae\\xae/ERC20/contracts/ERC20.sol\":1308:1329  balanceOf[msg.sender] */\n      0xffffffffffffffffffffffffffffffffffffffff\n      and\n      0xffffffffffffffffffffffffffffffffffffffff\n      and\n      dup2\n      mstore\n      0x20\n      add\n      swap1\n      dup2\n      mstore\n      0x20\n      add\n      0x00\n      keccak256\n      0x00\n        /* \"token\\xe5\\x8d\\x8f\\xe8\\xae\\xae/ERC20/contracts/ERC20.sol\":1308:1337  balanceOf[msg.sender]-=amount */\n      dup3\n      dup3\n      sload\n      tag_77\n      swap2\n      swap1\n      tag_70\n      jump\t// in\n    tag_77:\n      swap3\n      pop\n      pop\n      dup2\n      swap1\n      sstore\n      pop\n        /* \"token\\xe5\\x8d\\x8f\\xe8\\xae\\xae/ERC20/contracts/ERC20.sol\":1357:1363  amount */\n      dup1\n        /* \"token\\xe5\\x8d\\x8f\\xe8\\xae\\xae/ERC20/contracts/ERC20.sol\":1344:1355  totalSupply */\n      0x00\n      dup1\n        /* \"token\\xe5\\x8d\\x8f\\xe8\\xae\\xae/ERC20/contracts/ERC20.sol\":1344:1363  totalSupply-=amount */\n      dup3\n      dup3\n      sload\n      tag_78\n      swap2\n      swap1\n      tag_70\n      jump\t// in\n    tag_78:\n      swap3\n      pop\n      pop\n      dup2\n      swap1\n      sstore\n      pop\n        /* \"token\\xe5\\x8d\\x8f\\xe8\\xae\\xae/ERC20/contracts/ERC20.sol\":1375:1414  Transfer(msg.sender,address(0), amount) */\n      0xddf252ad1be2c89b69c2b068fc378daa952ba7f163c4a11628f55a4df523b3ef\n        /* \"token\\xe5\\x8d\\x8f\\xe8\\xae\\xae/ERC20/contracts/ERC20.sol\":1384:1394  msg.sender */\n      caller\n        /* \"token\\xe5\\x8d\\x8f\\xe8\\xae\\xae/ERC20/contracts/ERC20.sol\":1403:1404  0 */\n      0x00\n        /* \"token\\xe5\\x8d\\x8f\\xe8\\xae\\xae/ERC20/contracts/ERC20.sol\":1407:1413  amount */\n      dup4\n        /* \"token\\xe5\\x8d\\x8f\\xe8\\xae\\xae/ERC20/contracts/ERC20.sol\":1375:1414  Transfer(msg.sender,address(0), amount) */\n      mload(0x40)\n      tag_79\n      swap4\n      swap3\n      swap2\n      swap1\n      tag_75\n      jump\t// in\n    tag_79:\n      mload(0x40)\n      dup1\n      swap2\n      sub\n      swap1\n      log1\n        /* \"token\\xe5\\x8d\\x8f\\xe8\\xae\\xae/ERC20/contracts/ERC20.sol\":1264:1418  function burn(uint256 amount)external{\r... */\n      pop\n      jump\t// out\n        /* \"token\\xe5\\x8d\\x8f\\xe8\\xae\\xae/ERC20/contracts/ERC20.sol\":146:199  mapping(address => uint256) public override balanceOf */\n    tag_40:\n      mstore(0x20, 0x01)\n      dup1\n      0x00\n      mstore\n      keccak256(0x00, 0x40)\n      0x00\n      swap2\n      pop\n      swap1\n      pop\n      sload\n      dup2\n      jump\t// out\n        /* \"token\\xe5\\x8d\\x8f\\xe8\\xae\\xae/ERC20/contracts/ERC20.sol\":398:599  function approval(address _spender,uint256 amount) external override returns(bool){\r... */\n    tag_45:\n        /* \"token\\xe5\\x8d\\x8f\\xe8\\xae\\xae/ERC20/contracts/ERC20.sol\":475:479  bool */\n      0x00\n        /* \"token\\xe5\\x8d\\x8f\\xe8\\xae\\xae/ERC20/contracts/ERC20.sol\":520:526  amount */\n      dup2\n        /* \"token\\xe5\\x8d\\x8f\\xe8\\xae\\xae/ERC20/contracts/ERC20.sol\":487:496  allowance */\n      0x02\n        /* \"token\\xe5\\x8d\\x8f\\xe8\\xae\\xae/ERC20/contracts/ERC20.sol\":487:508  allowance[msg.sender] */\n      0x00\n        /* \"token\\xe5\\x8d\\x8f\\xe8\\xae\\xae/ERC20/contracts/ERC20.sol\":497:507  msg.sender */\n      caller\n        /* \"token\\xe5\\x8d\\x8f\\xe8\\xae\\xae/ERC20/contracts/ERC20.sol\":487:508  allowance[msg.sender] */\n      0xffffffffffffffffffffffffffffffffffffffff\n      and\n      0xffffffffffffffffffffffffffffffffffffffff\n      and\n      dup2\n      mstore\n      0x20\n      add\n      swap1\n      dup2\n      mstore\n      0x20\n      add\n      0x00\n      keccak256\n        /* \"token\\xe5\\x8d\\x8f\\xe8\\xae\\xae/ERC20/contracts/ERC20.sol\":487:518  allowance[msg.sender][_spender] */\n      0x00\n        /* \"token\\xe5\\x8d\\x8f\\xe8\\xae\\xae/ERC20/contracts/ERC20.sol\":509:517  _spender */\n      dup6\n        /* \"token\\xe5\\x8d\\x8f\\xe8\\xae\\xae/ERC20/contracts/ERC20.sol\":487:518  allowance[msg.sender][_spender] */\n      0xffffffffffffffffffffffffffffffffffffffff\n      and\n      0xffffffffffffffffffffffffffffffffffffffff\n      and\n      dup2\n      mstore\n      0x20\n      add\n      swap1\n      dup2\n      mstore\n      0x20\n      add\n      0x00\n      keccak256\n      0x00\n        /* \"token\\xe5\\x8d\\x8f\\xe8\\xae\\xae/ERC20/contracts/ERC20.sol\":487:526  allowance[msg.sender][_spender]+=amount */\n      dup3\n      dup3\n      sload\n      tag_81\n      swap2\n      swap1\n      tag_73\n      jump\t// in\n    tag_81:\n      swap3\n      pop\n      pop\n      dup2\n      swap1\n      sstore\n      pop\n        /* \"token\\xe5\\x8d\\x8f\\xe8\\xae\\xae/ERC20/contracts/ERC20.sol\":539:576  Approval(msg.sender,_spender, amount) */\n      0x8c5be1e5ebec7d5bd14f71427d1e84f3dd0314c0f7b2291e5b200ac8c7c3b925\n        /* \"token\\xe5\\x8d\\x8f\\xe8\\xae\\xae/ERC20/contracts/ERC20.sol\":548:558  msg.sender */\n      caller\n        /* \"token\\xe5\\x8d\\x8f\\xe8\\xae\\xae/ERC20/contracts/ERC20.sol\":559:567  _spender */\n      dup5\n        /* \"token\\xe5\\x8d\\x8f\\xe8\\xae\\xae/ERC20/contracts/ERC20.sol\":569:575  amount */\n      dup5\n        /* \"token\\xe5\\x8d\\x8f\\xe8\\xae\\xae/ERC20/contracts/ERC20.sol\":539:576  Approval(msg.sender,_spender, amount) */\n      mload(0x40)\n      tag_82\n      swap4\n      swap3\n      swap2\n      swap1\n      tag_75\n      jump\t// in\n    tag_82:\n      mload(0x40)\n      dup1\n      swap2\n      sub\n      swap1\n      log1\n        /* \"token\\xe5\\x8d\\x8f\\xe8\\xae\\xae/ERC20/contracts/ERC20.sol\":590:594  true */\n      0x01\n        /* \"token\\xe5\\x8d\\x8f\\xe8\\xae\\xae/ERC20/contracts/ERC20.sol\":583:594  return true */\n      swap1\n      pop\n        /* \"token\\xe5\\x8d\\x8f\\xe8\\xae\\xae/ERC20/contracts/ERC20.sol\":398:599  function approval(address _spender,uint256 amount) external override returns(bool){\r... */\n      swap3\n      swap2\n      pop\n      pop\n      jump\t// out\n        /* \"token\\xe5\\x8d\\x8f\\xe8\\xae\\xae/ERC20/contracts/ERC20.sol\":317:354  string public override symbol =\"weth\" */\n    tag_48:\n      0x04\n      dup1\n      sload\n      tag_83\n      swap1\n      tag_63\n      jump\t// in\n    tag_83:\n      dup1\n      0x1f\n      add\n      0x20\n      dup1\n      swap2\n      div\n      mul\n      0x20\n      add\n      mload(0x40)\n      swap1\n      dup2\n      add\n      0x40\n      mstore\n      dup1\n      swap3\n      swap2\n      swap1\n      dup2\n      dup2\n      mstore\n      0x20\n      add\n      dup3\n      dup1\n      sload\n      tag_84\n      swap1\n      tag_63\n      jump\t// in\n    tag_84:\n      dup1\n      iszero\n      tag_85\n      jumpi\n      dup1\n      0x1f\n      lt\n      tag_86\n      jumpi\n      0x0100\n      dup1\n      dup4\n      sload\n      div\n      mul\n      dup4\n      mstore\n      swap2\n      0x20\n      add\n      swap2\n      jump(tag_85)\n    tag_86:\n      dup3\n      add\n      swap2\n      swap1\n      0x00\n      mstore\n      keccak256(0x00, 0x20)\n      swap1\n    tag_87:\n      dup2\n      sload\n      dup2\n      mstore\n      swap1\n      0x01\n      add\n      swap1\n      0x20\n      add\n      dup1\n      dup4\n      gt\n      tag_87\n      jumpi\n      dup3\n      swap1\n      sub\n      0x1f\n      and\n      dup3\n      add\n      swap2\n    tag_85:\n      pop\n      pop\n      pop\n      pop\n      pop\n      dup2\n      jump\t// out\n        /* \"token\\xe5\\x8d\\x8f\\xe8\\xae\\xae/ERC20/contracts/ERC20.sol\":1097:1262  function mint(uint amount)external {\r... */\n    tag_52:\n        /* \"token\\xe5\\x8d\\x8f\\xe8\\xae\\xae/ERC20/contracts/ERC20.sol\":1166:1172  amount */\n      dup1\n        /* \"token\\xe5\\x8d\\x8f\\xe8\\xae\\xae/ERC20/contracts/ERC20.sol\":1143:1152  balanceOf */\n      0x01\n        /* \"token\\xe5\\x8d\\x8f\\xe8\\xae\\xae/ERC20/contracts/ERC20.sol\":1143:1164  balanceOf[msg.sender] */\n      0x00\n        /* \"token\\xe5\\x8d\\x8f\\xe8\\xae\\xae/ERC20/contracts/ERC20.sol\":1153:1163  msg.sender */\n      caller\n        /* \"token\\xe5\\x8d\\x8f\\xe8\\xae\\xae/ERC20/contracts/ERC20.sol\":1143:1164  balanceOf[msg.sender] */\n      0xffffffffffffffffffffffffffffffffffffffff\n      and\n      0xffffffffffffffffffffffffffffffffffffffff\n      and\n      dup2\n      mstore\n      0x20\n      add\n      swap1\n      dup2\n      mstore\n      0x20\n      add\n      0x00\n      keccak256\n      0x00\n        /* \"token\\xe5\\x8d\\x8f\\xe8\\xae\\xae/ERC20/contracts/ERC20.sol\":1143:1172  balanceOf[msg.sender]+=amount */\n      dup3\n      dup3\n      sload\n      tag_89\n      swap2\n      swap1\n      tag_73\n      jump\t// in\n    tag_89:\n      swap3\n      pop\n      pop\n      dup2\n      swap1\n      sstore\n      pop\n        /* \"token\\xe5\\x8d\\x8f\\xe8\\xae\\xae/ERC20/contracts/ERC20.sol\":1196:1202  amount */\n      dup1\n        /* \"token\\xe5\\x8d\\x8f\\xe8\\xae\\xae/ERC20/contracts/ERC20.sol\":1183:1194  totalSupply */\n      0x00\n      dup1\n        /* \"token\\xe5\\x8d\\x8f\\xe8\\xae\\xae/ERC20/contracts/ERC20.sol\":1183:1202  totalSupply+=amount */\n      dup3\n      dup3\n      sload\n      tag_90\n      swap2\n      swap1\n      tag_73\n      jump\t// in\n    tag_90:\n      swap3\n      pop\n      pop\n      dup2\n      swap1\n      sstore\n      pop\n        /* \"token\\xe5\\x8d\\x8f\\xe8\\xae\\xae/ERC20/contracts/ERC20.sol\":1218:1258  Transfer(address(0), msg.sender, amount) */\n      0xddf252ad1be2c89b69c2b068fc378daa952ba7f163c4a11628f55a4df523b3ef\n        /* \"token\\xe5\\x8d\\x8f\\xe8\\xae\\xae/ERC20/contracts/ERC20.sol\":1235:1236  0 */\n      0x00\n        /* \"token\\xe5\\x8d\\x8f\\xe8\\xae\\xae/ERC20/contracts/ERC20.sol\":1239:1249  msg.sender */\n      caller\n        /* \"token\\xe5\\x8d\\x8f\\xe8\\xae\\xae/ERC20/contracts/ERC20.sol\":1251:1257  amount */\n      dup4\n        /* \"token\\xe5\\x8d\\x8f\\xe8\\xae\\xae/ERC20/contracts/ERC20.sol\":1218:1258  Transfer(address(0), msg.sender, amount) */\n      mload(0x40)\n      tag_91\n      swap4\n      swap3\n      swap2\n      swap1\n      tag_75\n      jump\t// in\n    tag_91:\n      mload(0x40)\n      dup1\n      swap2\n      sub\n      swap1\n      log1\n        /* \"token\\xe5\\x8d\\x8f\\xe8\\xae\\xae/ERC20/contracts/ERC20.sol\":1097:1262  function mint(uint amount)external {\r... */\n      pop\n      jump\t// out\n        /* \"token\\xe5\\x8d\\x8f\\xe8\\xae\\xae/ERC20/contracts/ERC20.sol\":602:821  function transfer(address to,uint256 value) external override returns(bool){\r... */\n    tag_55:\n        /* \"token\\xe5\\x8d\\x8f\\xe8\\xae\\xae/ERC20/contracts/ERC20.sol\":672:676  bool */\n      0x00\n        /* \"token\\xe5\\x8d\\x8f\\xe8\\xae\\xae/ERC20/contracts/ERC20.sol\":703:708  value */\n      dup2\n        /* \"token\\xe5\\x8d\\x8f\\xe8\\xae\\xae/ERC20/contracts/ERC20.sol\":688:697  balanceOf */\n      0x01\n        /* \"token\\xe5\\x8d\\x8f\\xe8\\xae\\xae/ERC20/contracts/ERC20.sol\":688:701  balanceOf[to] */\n      0x00\n        /* \"token\\xe5\\x8d\\x8f\\xe8\\xae\\xae/ERC20/contracts/ERC20.sol\":698:700  to */\n      dup6\n        /* \"token\\xe5\\x8d\\x8f\\xe8\\xae\\xae/ERC20/contracts/ERC20.sol\":688:701  balanceOf[to] */\n      0xffffffffffffffffffffffffffffffffffffffff\n      and\n      0xffffffffffffffffffffffffffffffffffffffff\n      and\n      dup2\n      mstore\n      0x20\n      add\n      swap1\n      dup2\n      mstore\n      0x20\n      add\n      0x00\n      keccak256\n      0x00\n        /* \"token\\xe5\\x8d\\x8f\\xe8\\xae\\xae/ERC20/contracts/ERC20.sol\":688:708  balanceOf[to]+=value */\n      dup3\n      dup3\n      sload\n      tag_93\n      swap2\n      swap1\n      tag_73\n      jump\t// in\n    tag_93:\n      swap3\n      pop\n      pop\n      dup2\n      swap1\n      sstore\n      pop\n        /* \"token\\xe5\\x8d\\x8f\\xe8\\xae\\xae/ERC20/contracts/ERC20.sol\":742:747  value */\n      dup2\n        /* \"token\\xe5\\x8d\\x8f\\xe8\\xae\\xae/ERC20/contracts/ERC20.sol\":719:728  balanceOf */\n      0x01\n        /* \"token\\xe5\\x8d\\x8f\\xe8\\xae\\xae/ERC20/contracts/ERC20.sol\":719:740  balanceOf[msg.sender] */\n      0x00\n        /* \"token\\xe5\\x8d\\x8f\\xe8\\xae\\xae/ERC20/contracts/ERC20.sol\":729:739  msg.sender */\n      caller\n        /* \"token\\xe5\\x8d\\x8f\\xe8\\xae\\xae/ERC20/contracts/ERC20.sol\":719:740  balanceOf[msg.sender] */\n      0xffffffffffffffffffffffffffffffffffffffff\n      and\n      0xffffffffffffffffffffffffffffffffffffffff\n      and\n      dup2\n      mstore\n      0x20\n      add\n      swap1\n      dup2\n      mstore\n      0x20\n      add\n      0x00\n      keccak256\n      0x00\n        /* \"token\\xe5\\x8d\\x8f\\xe8\\xae\\xae/ERC20/contracts/ERC20.sol\":719:747  balanceOf[msg.sender]-=value */\n      dup3\n      dup3\n      sload\n      tag_94\n      swap2\n      swap1\n      tag_70\n      jump\t// in\n    tag_94:\n      swap3\n      pop\n      pop\n      dup2\n      swap1\n      sstore\n      pop\n        /* \"token\\xe5\\x8d\\x8f\\xe8\\xae\\xae/ERC20/contracts/ERC20.sol\":763:794  Transfer(msg.sender, to, value) */\n      0xddf252ad1be2c89b69c2b068fc378daa952ba7f163c4a11628f55a4df523b3ef\n        /* \"token\\xe5\\x8d\\x8f\\xe8\\xae\\xae/ERC20/contracts/ERC20.sol\":772:782  msg.sender */\n      caller\n        /* \"token\\xe5\\x8d\\x8f\\xe8\\xae\\xae/ERC20/contracts/ERC20.sol\":784:786  to */\n      dup5\n        /* \"token\\xe5\\x8d\\x8f\\xe8\\xae\\xae/ERC20/contracts/ERC20.sol\":788:793  value */\n      dup5\n        /* \"token\\xe5\\x8d\\x8f\\xe8\\xae\\xae/ERC20/contracts/ERC20.sol\":763:794  Transfer(msg.sender, to, value) */\n      mload(0x40)\n      tag_95\n      swap4\n      swap3\n      swap2\n      swap1\n      tag_75\n      jump\t// in\n    tag_95:\n      mload(0x40)\n      dup1\n      swap2\n      sub\n      swap1\n      log1\n        /* \"token\\xe5\\x8d\\x8f\\xe8\\xae\\xae/ERC20/contracts/ERC20.sol\":812:816  true */\n      0x01\n        /* \"token\\xe5\\x8d\\x8f\\xe8\\xae\\xae/ERC20/contracts/ERC20.sol\":805:816  return true */\n      swap1\n      pop\n        /* \"token\\xe5\\x8d\\x8f\\xe8\\xae\\xae/ERC20/contracts/ERC20.sol\":602:821  function transfer(address to,uint256 value) external override returns(bool){\r... */\n      swap3\n      swap2\n      pop\n      pop\n      jump\t// out\n        /* \"token\\xe5\\x8d\\x8f\\xe8\\xae\\xae/ERC20/contracts/ERC20.sol\":203:273  mapping(address => mapping(address=>uint256))public override allowance */\n    tag_60:\n      mstore(0x20, 0x02)\n      dup2\n      0x00\n      mstore\n      mstore(0x20, keccak256(0x00, 0x40))\n      dup1\n      0x00\n      mstore\n      keccak256(0x00, 0x40)\n      0x00\n      swap2\n      pop\n      swap2\n      pop\n      pop\n      sload\n      dup2\n      jump\t// out\n        /* \"#utility.yul\":7:146   */\n    tag_97:\n        /* \"#utility.yul\":53:58   */\n      0x00\n        /* \"#utility.yul\":91:97   */\n      dup2\n        /* \"#utility.yul\":78:98   */\n      calldataload\n        /* \"#utility.yul\":69:98   */\n      swap1\n      pop\n        /* \"#utility.yul\":107:140   */\n      tag_99\n        /* \"#utility.yul\":134:139   */\n      dup2\n        /* \"#utility.yul\":107:140   */\n      tag_100\n      jump\t// in\n    tag_99:\n        /* \"#utility.yul\":7:146   */\n      swap3\n      swap2\n      pop\n      pop\n      jump\t// out\n        /* \"#utility.yul\":152:291   */\n    tag_101:\n        /* \"#utility.yul\":198:203   */\n      0x00\n        /* \"#utility.yul\":236:242   */\n      dup2\n        /* \"#utility.yul\":223:243   */\n      calldataload\n        /* \"#utility.yul\":214:243   */\n      swap1\n      pop\n        /* \"#utility.yul\":252:285   */\n      tag_103\n        /* \"#utility.yul\":279:284   */\n      dup2\n        /* \"#utility.yul\":252:285   */\n      tag_104\n      jump\t// in\n    tag_103:\n        /* \"#utility.yul\":152:291   */\n      swap3\n      swap2\n      pop\n      pop\n      jump\t// out\n        /* \"#utility.yul\":297:626   */\n    tag_39:\n        /* \"#utility.yul\":356:362   */\n      0x00\n        /* \"#utility.yul\":405:407   */\n      0x20\n        /* \"#utility.yul\":393:402   */\n      dup3\n        /* \"#utility.yul\":384:391   */\n      dup5\n        /* \"#utility.yul\":380:403   */\n      sub\n        /* \"#utility.yul\":376:408   */\n      slt\n        /* \"#utility.yul\":373:492   */\n      iszero\n      tag_106\n      jumpi\n        /* \"#utility.yul\":411:490   */\n      tag_107\n      tag_108\n      jump\t// in\n    tag_107:\n        /* \"#utility.yul\":373:492   */\n    tag_106:\n        /* \"#utility.yul\":531:532   */\n      0x00\n        /* \"#utility.yul\":556:609   */\n      tag_109\n        /* \"#utility.yul\":601:608   */\n      dup5\n        /* \"#utility.yul\":592:598   */\n      dup3\n        /* \"#utility.yul\":581:590   */\n      dup6\n        /* \"#utility.yul\":577:599   */\n      add\n        /* \"#utility.yul\":556:609   */\n      tag_97\n      jump\t// in\n    tag_109:\n        /* \"#utility.yul\":546:609   */\n      swap2\n      pop\n        /* \"#utility.yul\":502:619   */\n      pop\n        /* \"#utility.yul\":297:626   */\n      swap3\n      swap2\n      pop\n      pop\n      jump\t// out\n        /* \"#utility.yul\":632:1106   */\n    tag_59:\n        /* \"#utility.yul\":700:706   */\n      0x00\n        /* \"#utility.yul\":708:714   */\n      dup1\n        /* \"#utility.yul\":757:759   */\n      0x40\n        /* \"#utility.yul\":745:754   */\n      dup4\n        /* \"#utility.yul\":736:743   */\n      dup6\n        /* \"#utility.yul\":732:755   */\n      sub\n        /* \"#utility.yul\":728:760   */\n      slt\n        /* \"#utility.yul\":725:844   */\n      iszero\n      tag_111\n      jumpi\n        /* \"#utility.yul\":763:842   */\n      tag_112\n      tag_108\n      jump\t// in\n    tag_112:\n        /* \"#utility.yul\":725:844   */\n    tag_111:\n        /* \"#utility.yul\":883:884   */\n      0x00\n        /* \"#utility.yul\":908:961   */\n      tag_113\n        /* \"#utility.yul\":953:960   */\n      dup6\n        /* \"#utility.yul\":944:950   */\n      dup3\n        /* \"#utility.yul\":933:942   */\n      dup7\n        /* \"#utility.yul\":929:951   */\n      add\n        /* \"#utility.yul\":908:961   */\n      tag_97\n      jump\t// in\n    tag_113:\n        /* \"#utility.yul\":898:961   */\n      swap3\n      pop\n        /* \"#utility.yul\":854:971   */\n      pop\n        /* \"#utility.yul\":1010:1012   */\n      0x20\n        /* \"#utility.yul\":1036:1089   */\n      tag_114\n        /* \"#utility.yul\":1081:1088   */\n      dup6\n        /* \"#utility.yul\":1072:1078   */\n      dup3\n        /* \"#utility.yul\":1061:1070   */\n      dup7\n        /* \"#utility.yul\":1057:1079   */\n      add\n        /* \"#utility.yul\":1036:1089   */\n      tag_97\n      jump\t// in\n    tag_114:\n        /* \"#utility.yul\":1026:1089   */\n      swap2\n      pop\n        /* \"#utility.yul\":981:1099   */\n      pop\n        /* \"#utility.yul\":632:1106   */\n      swap3\n      pop\n      swap3\n      swap1\n      pop\n      jump\t// out\n        /* \"#utility.yul\":1112:1731   */\n    tag_25:\n        /* \"#utility.yul\":1189:1195   */\n      0x00\n        /* \"#utility.yul\":1197:1203   */\n      dup1\n        /* \"#utility.yul\":1205:1211   */\n      0x00\n        /* \"#utility.yul\":1254:1256   */\n      0x60\n        /* \"#utility.yul\":1242:1251   */\n      dup5\n        /* \"#utility.yul\":1233:1240   */\n      dup7\n        /* \"#utility.yul\":1229:1252   */\n      sub\n        /* \"#utility.yul\":1225:1257   */\n      slt\n        /* \"#utility.yul\":1222:1341   */\n      iszero\n      tag_116\n      jumpi\n        /* \"#utility.yul\":1260:1339   */\n      tag_117\n      tag_108\n      jump\t// in\n    tag_117:\n        /* \"#utility.yul\":1222:1341   */\n    tag_116:\n        /* \"#utility.yul\":1380:1381   */\n      0x00\n        /* \"#utility.yul\":1405:1458   */\n      tag_118\n        /* \"#utility.yul\":1450:1457   */\n      dup7\n        /* \"#utility.yul\":1441:1447   */\n      dup3\n        /* \"#utility.yul\":1430:1439   */\n      dup8\n        /* \"#utility.yul\":1426:1448   */\n      add\n        /* \"#utility.yul\":1405:1458   */\n      tag_97\n      jump\t// in\n    tag_118:\n        /* \"#utility.yul\":1395:1458   */\n      swap4\n      pop\n        /* \"#utility.yul\":1351:1468   */\n      pop\n        /* \"#utility.yul\":1507:1509   */\n      0x20\n        /* \"#utility.yul\":1533:1586   */\n      tag_119\n        /* \"#utility.yul\":1578:1585   */\n      dup7\n        /* \"#utility.yul\":1569:1575   */\n      dup3\n        /* \"#utility.yul\":1558:1567   */\n      dup8\n        /* \"#utility.yul\":1554:1576   */\n      add\n        /* \"#utility.yul\":1533:1586   */\n      tag_97\n      jump\t// in\n    tag_119:\n        /* \"#utility.yul\":1523:1586   */\n      swap3\n      pop\n        /* \"#utility.yul\":1478:1596   */\n      pop\n        /* \"#utility.yul\":1635:1637   */\n      0x40\n        /* \"#utility.yul\":1661:1714   */\n      tag_120\n        /* \"#utility.yul\":1706:1713   */\n      dup7\n        /* \"#utility.yul\":1697:1703   */\n      dup3\n        /* \"#utility.yul\":1686:1695   */\n      dup8\n        /* \"#utility.yul\":1682:1704   */\n      add\n        /* \"#utility.yul\":1661:1714   */\n      tag_101\n      jump\t// in\n    tag_120:\n        /* \"#utility.yul\":1651:1714   */\n      swap2\n      pop\n        /* \"#utility.yul\":1606:1724   */\n      pop\n        /* \"#utility.yul\":1112:1731   */\n      swap3\n      pop\n      swap3\n      pop\n      swap3\n      jump\t// out\n        /* \"#utility.yul\":1737:2211   */\n    tag_44:\n        /* \"#utility.yul\":1805:1811   */\n      0x00\n        /* \"#utility.yul\":1813:1819   */\n      dup1\n        /* \"#utility.yul\":1862:1864   */\n      0x40\n        /* \"#utility.yul\":1850:1859   */\n      dup4\n        /* \"#utility.yul\":1841:1848   */\n      dup6\n        /* \"#utility.yul\":1837:1860   */\n      sub\n        /* \"#utility.yul\":1833:1865   */\n      slt\n        /* \"#utility.yul\":1830:1949   */\n      iszero\n      tag_122\n      jumpi\n        /* \"#utility.yul\":1868:1947   */\n      tag_123\n      tag_108\n      jump\t// in\n    tag_123:\n        /* \"#utility.yul\":1830:1949   */\n    tag_122:\n        /* \"#utility.yul\":1988:1989   */\n      0x00\n        /* \"#utility.yul\":2013:2066   */\n      tag_124\n        /* \"#utility.yul\":2058:2065   */\n      dup6\n        /* \"#utility.yul\":2049:2055   */\n      dup3\n        /* \"#utility.yul\":2038:2047   */\n      dup7\n        /* \"#utility.yul\":2034:2056   */\n      add\n        /* \"#utility.yul\":2013:2066   */\n      tag_97\n      jump\t// in\n    tag_124:\n        /* \"#utility.yul\":2003:2066   */\n      swap3\n      pop\n        /* \"#utility.yul\":1959:2076   */\n      pop\n        /* \"#utility.yul\":2115:2117   */\n      0x20\n        /* \"#utility.yul\":2141:2194   */\n      tag_125\n        /* \"#utility.yul\":2186:2193   */\n      dup6\n        /* \"#utility.yul\":2177:2183   */\n      dup3\n        /* \"#utility.yul\":2166:2175   */\n      dup7\n        /* \"#utility.yul\":2162:2184   */\n      add\n        /* \"#utility.yul\":2141:2194   */\n      tag_101\n      jump\t// in\n    tag_125:\n        /* \"#utility.yul\":2131:2194   */\n      swap2\n      pop\n        /* \"#utility.yul\":2086:2204   */\n      pop\n        /* \"#utility.yul\":1737:2211   */\n      swap3\n      pop\n      swap3\n      swap1\n      pop\n      jump\t// out\n        /* \"#utility.yul\":2217:2546   */\n    tag_35:\n        /* \"#utility.yul\":2276:2282   */\n      0x00\n        /* \"#utility.yul\":2325:2327   */\n      0x20\n        /* \"#utility.yul\":2313:2322   */\n      dup3\n        /* \"#utility.yul\":2304:2311   */\n      dup5\n        /* \"#utility.yul\":2300:2323   */\n      sub\n        /* \"#utility.yul\":2296:2328   */\n      slt\n        /* \"#utility.yul\":2293:2412   */\n      iszero\n      tag_127\n      jumpi\n        /* \"#utility.yul\":2331:2410   */\n      tag_128\n      tag_108\n      jump\t// in\n    tag_128:\n        /* \"#utility.yul\":2293:2412   */\n    tag_127:\n        /* \"#utility.yul\":2451:2452   */\n      0x00\n        /* \"#utility.yul\":2476:2529   */\n      tag_129\n        /* \"#utility.yul\":2521:2528   */\n      dup5\n        /* \"#utility.yul\":2512:2518   */\n      dup3\n        /* \"#utility.yul\":2501:2510   */\n      dup6\n        /* \"#utility.yul\":2497:2519   */\n      add\n        /* \"#utility.yul\":2476:2529   */\n      tag_101\n      jump\t// in\n    tag_129:\n        /* \"#utility.yul\":2466:2529   */\n      swap2\n      pop\n        /* \"#utility.yul\":2422:2539   */\n      pop\n        /* \"#utility.yul\":2217:2546   */\n      swap3\n      swap2\n      pop\n      pop\n      jump\t// out\n        /* \"#utility.yul\":2552:2670   */\n    tag_130:\n        /* \"#utility.yul\":2639:2663   */\n      tag_132\n        /* \"#utility.yul\":2657:2662   */\n      dup2\n        /* \"#utility.yul\":2639:2663   */\n      tag_133\n      jump\t// in\n    tag_132:\n        /* \"#utility.yul\":2634:2637   */\n      dup3\n        /* \"#utility.yul\":2627:2664   */\n      mstore\n        /* \"#utility.yul\":2552:2670   */\n      pop\n      pop\n      jump\t// out\n        /* \"#utility.yul\":2676:2785   */\n    tag_134:\n        /* \"#utility.yul\":2757:2778   */\n      tag_136\n        /* \"#utility.yul\":2772:2777   */\n      dup2\n        /* \"#utility.yul\":2757:2778   */\n      tag_137\n      jump\t// in\n    tag_136:\n        /* \"#utility.yul\":2752:2755   */\n      dup3\n        /* \"#utility.yul\":2745:2779   */\n      mstore\n        /* \"#utility.yul\":2676:2785   */\n      pop\n      pop\n      jump\t// out\n        /* \"#utility.yul\":2791:3155   */\n    tag_138:\n        /* \"#utility.yul\":2879:2882   */\n      0x00\n        /* \"#utility.yul\":2907:2946   */\n      tag_140\n        /* \"#utility.yul\":2940:2945   */\n      dup3\n        /* \"#utility.yul\":2907:2946   */\n      tag_141\n      jump\t// in\n    tag_140:\n        /* \"#utility.yul\":2962:3033   */\n      tag_142\n        /* \"#utility.yul\":3026:3032   */\n      dup2\n        /* \"#utility.yul\":3021:3024   */\n      dup6\n        /* \"#utility.yul\":2962:3033   */\n      tag_143\n      jump\t// in\n    tag_142:\n        /* \"#utility.yul\":2955:3033   */\n      swap4\n      pop\n        /* \"#utility.yul\":3042:3094   */\n      tag_144\n        /* \"#utility.yul\":3087:3093   */\n      dup2\n        /* \"#utility.yul\":3082:3085   */\n      dup6\n        /* \"#utility.yul\":3075:3079   */\n      0x20\n        /* \"#utility.yul\":3068:3073   */\n      dup7\n        /* \"#utility.yul\":3064:3080   */\n      add\n        /* \"#utility.yul\":3042:3094   */\n      tag_145\n      jump\t// in\n    tag_144:\n        /* \"#utility.yul\":3119:3148   */\n      tag_146\n        /* \"#utility.yul\":3141:3147   */\n      dup2\n        /* \"#utility.yul\":3119:3148   */\n      tag_147\n      jump\t// in\n    tag_146:\n        /* \"#utility.yul\":3114:3117   */\n      dup5\n        /* \"#utility.yul\":3110:3149   */\n      add\n        /* \"#utility.yul\":3103:3149   */\n      swap2\n      pop\n        /* \"#utility.yul\":2883:3155   */\n      pop\n        /* \"#utility.yul\":2791:3155   */\n      swap3\n      swap2\n      pop\n      pop\n      jump\t// out\n        /* \"#utility.yul\":3161:3279   */\n    tag_148:\n        /* \"#utility.yul\":3248:3272   */\n      tag_150\n        /* \"#utility.yul\":3266:3271   */\n      dup2\n        /* \"#utility.yul\":3248:3272   */\n      tag_151\n      jump\t// in\n    tag_150:\n        /* \"#utility.yul\":3243:3246   */\n      dup3\n        /* \"#utility.yul\":3236:3273   */\n      mstore\n        /* \"#utility.yul\":3161:3279   */\n      pop\n      pop\n      jump\t// out\n        /* \"#utility.yul\":3285:3397   */\n    tag_152:\n        /* \"#utility.yul\":3368:3390   */\n      tag_154\n        /* \"#utility.yul\":3384:3389   */\n      dup2\n        /* \"#utility.yul\":3368:3390   */\n      tag_155\n      jump\t// in\n    tag_154:\n        /* \"#utility.yul\":3363:3366   */\n      dup3\n        /* \"#utility.yul\":3356:3391   */\n      mstore\n        /* \"#utility.yul\":3285:3397   */\n      pop\n      pop\n      jump\t// out\n        /* \"#utility.yul\":3403:3845   */\n    tag_75:\n        /* \"#utility.yul\":3552:3556   */\n      0x00\n        /* \"#utility.yul\":3590:3592   */\n      0x60\n        /* \"#utility.yul\":3579:3588   */\n      dup3\n        /* \"#utility.yul\":3575:3593   */\n      add\n        /* \"#utility.yul\":3567:3593   */\n      swap1\n      pop\n        /* \"#utility.yul\":3603:3674   */\n      tag_157\n        /* \"#utility.yul\":3671:3672   */\n      0x00\n        /* \"#utility.yul\":3660:3669   */\n      dup4\n        /* \"#utility.yul\":3656:3673   */\n      add\n        /* \"#utility.yul\":3647:3653   */\n      dup7\n        /* \"#utility.yul\":3603:3674   */\n      tag_130\n      jump\t// in\n    tag_157:\n        /* \"#utility.yul\":3684:3756   */\n      tag_158\n        /* \"#utility.yul\":3752:3754   */\n      0x20\n        /* \"#utility.yul\":3741:3750   */\n      dup4\n        /* \"#utility.yul\":3737:3755   */\n      add\n        /* \"#utility.yul\":3728:3734   */\n      dup6\n        /* \"#utility.yul\":3684:3756   */\n      tag_130\n      jump\t// in\n    tag_158:\n        /* \"#utility.yul\":3766:3838   */\n      tag_159\n        /* \"#utility.yul\":3834:3836   */\n      0x40\n        /* \"#utility.yul\":3823:3832   */\n      dup4\n        /* \"#utility.yul\":3819:3837   */\n      add\n        /* \"#utility.yul\":3810:3816   */\n      dup5\n        /* \"#utility.yul\":3766:3838   */\n      tag_148\n      jump\t// in\n    tag_159:\n        /* \"#utility.yul\":3403:3845   */\n      swap5\n      swap4\n      pop\n      pop\n      pop\n      pop\n      jump\t// out\n        /* \"#utility.yul\":3851:4061   */\n    tag_28:\n        /* \"#utility.yul\":3938:3942   */\n      0x00\n        /* \"#utility.yul\":3976:3978   */\n      0x20\n        /* \"#utility.yul\":3965:3974   */\n      dup3\n        /* \"#utility.yul\":3961:3979   */\n      add\n        /* \"#utility.yul\":3953:3979   */\n      swap1\n      pop\n        /* \"#utility.yul\":3989:4054   */\n      tag_161\n        /* \"#utility.yul\":4051:4052   */\n      0x00\n        /* \"#utility.yul\":4040:4049   */\n      dup4\n        /* \"#utility.yul\":4036:4053   */\n      add\n        /* \"#utility.yul\":4027:4033   */\n      dup5\n        /* \"#utility.yul\":3989:4054   */\n      tag_134\n      jump\t// in\n    tag_161:\n        /* \"#utility.yul\":3851:4061   */\n      swap3\n      swap2\n      pop\n      pop\n      jump\t// out\n        /* \"#utility.yul\":4067:4380   */\n    tag_18:\n        /* \"#utility.yul\":4180:4184   */\n      0x00\n        /* \"#utility.yul\":4218:4220   */\n      0x20\n        /* \"#utility.yul\":4207:4216   */\n      dup3\n        /* \"#utility.yul\":4203:4221   */\n      add\n        /* \"#utility.yul\":4195:4221   */\n      swap1\n      pop\n        /* \"#utility.yul\":4267:4276   */\n      dup2\n        /* \"#utility.yul\":4261:4265   */\n      dup2\n        /* \"#utility.yul\":4257:4277   */\n      sub\n        /* \"#utility.yul\":4253:4254   */\n      0x00\n        /* \"#utility.yul\":4242:4251   */\n      dup4\n        /* \"#utility.yul\":4238:4255   */\n      add\n        /* \"#utility.yul\":4231:4278   */\n      mstore\n        /* \"#utility.yul\":4295:4373   */\n      tag_163\n        /* \"#utility.yul\":4368:4372   */\n      dup2\n        /* \"#utility.yul\":4359:4365   */\n      dup5\n        /* \"#utility.yul\":4295:4373   */\n      tag_138\n      jump\t// in\n    tag_163:\n        /* \"#utility.yul\":4287:4373   */\n      swap1\n      pop\n        /* \"#utility.yul\":4067:4380   */\n      swap3\n      swap2\n      pop\n      pop\n      jump\t// out\n        /* \"#utility.yul\":4386:4608   */\n    tag_22:\n        /* \"#utility.yul\":4479:4483   */\n      0x00\n        /* \"#utility.yul\":4517:4519   */\n      0x20\n        /* \"#utility.yul\":4506:4515   */\n      dup3\n        /* \"#utility.yul\":4502:4520   */\n      add\n        /* \"#utility.yul\":4494:4520   */\n      swap1\n      pop\n        /* \"#utility.yul\":4530:4601   */\n      tag_165\n        /* \"#utility.yul\":4598:4599   */\n      0x00\n        /* \"#utility.yul\":4587:4596   */\n      dup4\n        /* \"#utility.yul\":4583:4600   */\n      add\n        /* \"#utility.yul\":4574:4580   */\n      dup5\n        /* \"#utility.yul\":4530:4601   */\n      tag_148\n      jump\t// in\n    tag_165:\n        /* \"#utility.yul\":4386:4608   */\n      swap3\n      swap2\n      pop\n      pop\n      jump\t// out\n        /* \"#utility.yul\":4614:4828   */\n    tag_32:\n        /* \"#utility.yul\":4703:4707   */\n      0x00\n        /* \"#utility.yul\":4741:4743   */\n      0x20\n        /* \"#utility.yul\":4730:4739   */\n      dup3\n        /* \"#utility.yul\":4726:4744   */\n      add\n        /* \"#utility.yul\":4718:4744   */\n      swap1\n      pop\n        /* \"#utility.yul\":4754:4821   */\n      tag_167\n        /* \"#utility.yul\":4818:4819   */\n      0x00\n        /* \"#utility.yul\":4807:4816   */\n      dup4\n        /* \"#utility.yul\":4803:4820   */\n      add\n        /* \"#utility.yul\":4794:4800   */\n      dup5\n        /* \"#utility.yul\":4754:4821   */\n      tag_152\n      jump\t// in\n    tag_167:\n        /* \"#utility.yul\":4614:4828   */\n      swap3\n      swap2\n      pop\n      pop\n      jump\t// out\n        /* \"#utility.yul\":4915:5014   */\n    tag_141:\n        /* \"#utility.yul\":4967:4973   */\n      0x00\n        /* \"#utility.yul\":5001:5006   */\n      dup2\n        /* \"#utility.yul\":4995:5007   */\n      mload\n        /* \"#utility.yul\":4985:5007   */\n      swap1\n      pop\n        /* \"#utility.yul\":4915:5014   */\n      swap2\n      swap1\n      pop\n      jump\t// out\n        /* \"#utility.yul\":5020:5189   */\n    tag_143:\n        /* \"#utility.yul\":5104:5115   */\n      0x00\n        /* \"#utility.yul\":5138:5144   */\n      dup3\n        /* \"#utility.yul\":5133:5136   */\n      dup3\n        /* \"#utility.yul\":5126:5145   */\n      mstore\n        /* \"#utility.yul\":5178:5182   */\n      0x20\n        /* \"#utility.yul\":5173:5176   */\n      dup3\n        /* \"#utility.yul\":5169:5183   */\n      add\n        /* \"#utility.yul\":5154:5183   */\n      swap1\n      pop\n        /* \"#utility.yul\":5020:5189   */\n      swap3\n      swap2\n      pop\n      pop\n      jump\t// out\n        /* \"#utility.yul\":5195:5500   */\n    tag_73:\n        /* \"#utility.yul\":5235:5238   */\n      0x00\n        /* \"#utility.yul\":5254:5274   */\n      tag_173\n        /* \"#utility.yul\":5272:5273   */\n      dup3\n        /* \"#utility.yul\":5254:5274   */\n      tag_151\n      jump\t// in\n    tag_173:\n        /* \"#utility.yul\":5249:5274   */\n      swap2\n      pop\n        /* \"#utility.yul\":5288:5308   */\n      tag_174\n        /* \"#utility.yul\":5306:5307   */\n      dup4\n        /* \"#utility.yul\":5288:5308   */\n      tag_151\n      jump\t// in\n    tag_174:\n        /* \"#utility.yul\":5283:5308   */\n      swap3\n      pop\n        /* \"#utility.yul\":5442:5443   */\n      dup3\n        /* \"#utility.yul\":5374:5440   */\n      0xffffffffffffffffffffffffffffffffffffffffffffffffffffffffffffffff\n        /* \"#utility.yul\":5370:5444   */\n      sub\n        /* \"#utility.yul\":5367:5368   */\n      dup3\n        /* \"#utility.yul\":5364:5445   */\n      gt\n        /* \"#utility.yul\":5361:5468   */\n      iszero\n      tag_175\n      jumpi\n        /* \"#utility.yul\":5448:5466   */\n      tag_176\n      tag_177\n      jump\t// in\n    tag_176:\n        /* \"#utility.yul\":5361:5468   */\n    tag_175:\n        /* \"#utility.yul\":5492:5493   */\n      dup3\n        /* \"#utility.yul\":5489:5490   */\n      dup3\n        /* \"#utility.yul\":5485:5494   */\n      add\n        /* \"#utility.yul\":5478:5494   */\n      swap1\n      pop\n        /* \"#utility.yul\":5195:5500   */\n      swap3\n      swap2\n      pop\n      pop\n      jump\t// out\n        /* \"#utility.yul\":5506:5697   */\n    tag_70:\n        /* \"#utility.yul\":5546:5550   */\n      0x00\n        /* \"#utility.yul\":5566:5586   */\n      tag_179\n        /* \"#utility.yul\":5584:5585   */\n      dup3\n        /* \"#utility.yul\":5566:5586   */\n      tag_151\n      jump\t// in\n    tag_179:\n        /* \"#utility.yul\":5561:5586   */\n      swap2\n      pop\n        /* \"#utility.yul\":5600:5620   */\n      tag_180\n        /* \"#utility.yul\":5618:5619   */\n      dup4\n        /* \"#utility.yul\":5600:5620   */\n      tag_151\n      jump\t// in\n    tag_180:\n        /* \"#utility.yul\":5595:5620   */\n      swap3\n      pop\n        /* \"#utility.yul\":5639:5640   */\n      dup3\n        /* \"#utility.yul\":5636:5637   */\n      dup3\n        /* \"#utility.yul\":5633:5641   */\n      lt\n        /* \"#utility.yul\":5630:5664   */\n      iszero\n      tag_181\n      jumpi\n        /* \"#utility.yul\":5644:5662   */\n      tag_182\n      tag_177\n      jump\t// in\n    tag_182:\n        /* \"#utility.yul\":5630:5664   */\n    tag_181:\n        /* \"#utility.yul\":5689:5690   */\n      dup3\n        /* \"#utility.yul\":5686:5687   */\n      dup3\n        /* \"#utility.yul\":5682:5691   */\n      sub\n        /* \"#utility.yul\":5674:5691   */\n      swap1\n      pop\n        /* \"#utility.yul\":5506:5697   */\n      swap3\n      swap2\n      pop\n      pop\n      jump\t// out\n        /* \"#utility.yul\":5703:5799   */\n    tag_133:\n        /* \"#utility.yul\":5740:5747   */\n      0x00\n        /* \"#utility.yul\":5769:5793   */\n      tag_184\n        /* \"#utility.yul\":5787:5792   */\n      dup3\n        /* \"#utility.yul\":5769:5793   */\n      tag_185\n      jump\t// in\n    tag_184:\n        /* \"#utility.yul\":5758:5793   */\n      swap1\n      pop\n        /* \"#utility.yul\":5703:5799   */\n      swap2\n      swap1\n      pop\n      jump\t// out\n        /* \"#utility.yul\":5805:5895   */\n    tag_137:\n        /* \"#utility.yul\":5839:5846   */\n      0x00\n        /* \"#utility.yul\":5882:5887   */\n      dup2\n        /* \"#utility.yul\":5875:5888   */\n      iszero\n        /* \"#utility.yul\":5868:5889   */\n      iszero\n        /* \"#utility.yul\":5857:5889   */\n      swap1\n      pop\n        /* \"#utility.yul\":5805:5895   */\n      swap2\n      swap1\n      pop\n      jump\t// out\n        /* \"#utility.yul\":5901:6027   */\n    tag_185:\n        /* \"#utility.yul\":5938:5945   */\n      0x00\n        /* \"#utility.yul\":5978:6020   */\n      0xffffffffffffffffffffffffffffffffffffffff\n        /* \"#utility.yul\":5971:5976   */\n      dup3\n        /* \"#utility.yul\":5967:6021   */\n      and\n        /* \"#utility.yul\":5956:6021   */\n      swap1\n      pop\n        /* \"#utility.yul\":5901:6027   */\n      swap2\n      swap1\n      pop\n      jump\t// out\n        /* \"#utility.yul\":6033:6110   */\n    tag_151:\n        /* \"#utility.yul\":6070:6077   */\n      0x00\n        /* \"#utility.yul\":6099:6104   */\n      dup2\n        /* \"#utility.yul\":6088:6104   */\n      swap1\n      pop\n        /* \"#utility.yul\":6033:6110   */\n      swap2\n      swap1\n      pop\n      jump\t// out\n        /* \"#utility.yul\":6116:6202   */\n    tag_155:\n        /* \"#utility.yul\":6151:6158   */\n      0x00\n        /* \"#utility.yul\":6191:6195   */\n      0xff\n        /* \"#utility.yul\":6184:6189   */\n      dup3\n        /* \"#utility.yul\":6180:6196   */\n      and\n        /* \"#utility.yul\":6169:6196   */\n      swap1\n      pop\n        /* \"#utility.yul\":6116:6202   */\n      swap2\n      swap1\n      pop\n      jump\t// out\n        /* \"#utility.yul\":6208:6515   */\n    tag_145:\n        /* \"#utility.yul\":6276:6277   */\n      0x00\n        /* \"#utility.yul\":6286:6399   */\n    tag_191:\n        /* \"#utility.yul\":6300:6306   */\n      dup4\n        /* \"#utility.yul\":6297:6298   */\n      dup2\n        /* \"#utility.yul\":6294:6307   */\n      lt\n        /* \"#utility.yul\":6286:6399   */\n      iszero\n      tag_193\n      jumpi\n        /* \"#utility.yul\":6385:6386   */\n      dup1\n        /* \"#utility.yul\":6380:6383   */\n      dup3\n        /* \"#utility.yul\":6376:6387   */\n      add\n        /* \"#utility.yul\":6370:6388   */\n      mload\n        /* \"#utility.yul\":6366:6367   */\n      dup2\n        /* \"#utility.yul\":6361:6364   */\n      dup5\n        /* \"#utility.yul\":6357:6368   */\n      add\n        /* \"#utility.yul\":6350:6389   */\n      mstore\n        /* \"#utility.yul\":6322:6324   */\n      0x20\n        /* \"#utility.yul\":6319:6320   */\n      dup2\n        /* \"#utility.yul\":6315:6325   */\n      add\n        /* \"#utility.yul\":6310:6325   */\n      swap1\n      pop\n        /* \"#utility.yul\":6286:6399   */\n      jump(tag_191)\n    tag_193:\n        /* \"#utility.yul\":6417:6423   */\n      dup4\n        /* \"#utility.yul\":6414:6415   */\n      dup2\n        /* \"#utility.yul\":6411:6424   */\n      gt\n        /* \"#utility.yul\":6408:6509   */\n      iszero\n      tag_194\n      jumpi\n        /* \"#utility.yul\":6497:6498   */\n      0x00\n        /* \"#utility.yul\":6488:6494   */\n      dup5\n        /* \"#utility.yul\":6483:6486   */\n      dup5\n        /* \"#utility.yul\":6479:6495   */\n      add\n        /* \"#utility.yul\":6472:6499   */\n      mstore\n        /* \"#utility.yul\":6408:6509   */\n    tag_194:\n        /* \"#utility.yul\":6257:6515   */\n      pop\n        /* \"#utility.yul\":6208:6515   */\n      pop\n      pop\n      pop\n      jump\t// out\n        /* \"#utility.yul\":6521:6841   */\n    tag_63:\n        /* \"#utility.yul\":6565:6571   */\n      0x00\n        /* \"#utility.yul\":6602:6603   */\n      0x02\n        /* \"#utility.yul\":6596:6600   */\n      dup3\n        /* \"#utility.yul\":6592:6604   */\n      div\n        /* \"#utility.yul\":6582:6604   */\n      swap1\n      pop\n        /* \"#utility.yul\":6649:6650   */\n      0x01\n        /* \"#utility.yul\":6643:6647   */\n      dup3\n        /* \"#utility.yul\":6639:6651   */\n      and\n        /* \"#utility.yul\":6670:6688   */\n      dup1\n        /* \"#utility.yul\":6660:6741   */\n      tag_196\n      jumpi\n        /* \"#utility.yul\":6726:6730   */\n      0x7f\n        /* \"#utility.yul\":6718:6724   */\n      dup3\n        /* \"#utility.yul\":6714:6731   */\n      and\n        /* \"#utility.yul\":6704:6731   */\n      swap2\n      pop\n        /* \"#utility.yul\":6660:6741   */\n    tag_196:\n        /* \"#utility.yul\":6788:6790   */\n      0x20\n        /* \"#utility.yul\":6780:6786   */\n      dup3\n        /* \"#utility.yul\":6777:6791   */\n      lt\n        /* \"#utility.yul\":6757:6775   */\n      dup2\n        /* \"#utility.yul\":6754:6792   */\n      eq\n        /* \"#utility.yul\":6751:6835   */\n      iszero\n      tag_197\n      jumpi\n        /* \"#utility.yul\":6807:6825   */\n      tag_198\n      tag_199\n      jump\t// in\n    tag_198:\n        /* \"#utility.yul\":6751:6835   */\n    tag_197:\n        /* \"#utility.yul\":6572:6841   */\n      pop\n        /* \"#utility.yul\":6521:6841   */\n      swap2\n      swap1\n      pop\n      jump\t// out\n        /* \"#utility.yul\":6847:7027   */\n    tag_177:\n        /* \"#utility.yul\":6895:6972   */\n      0x4e487b7100000000000000000000000000000000000000000000000000000000\n        /* \"#utility.yul\":6892:6893   */\n      0x00\n        /* \"#utility.yul\":6885:6973   */\n      mstore\n        /* \"#utility.yul\":6992:6996   */\n      0x11\n        /* \"#utility.yul\":6989:6990   */\n      0x04\n        /* \"#utility.yul\":6982:6997   */\n      mstore\n        /* \"#utility.yul\":7016:7020   */\n      0x24\n        /* \"#utility.yul\":7013:7014   */\n      0x00\n        /* \"#utility.yul\":7006:7021   */\n      revert\n        /* \"#utility.yul\":7033:7213   */\n    tag_199:\n        /* \"#utility.yul\":7081:7158   */\n      0x4e487b7100000000000000000000000000000000000000000000000000000000\n        /* \"#utility.yul\":7078:7079   */\n      0x00\n        /* \"#utility.yul\":7071:7159   */\n      mstore\n        /* \"#utility.yul\":7178:7182   */\n      0x22\n        /* \"#utility.yul\":7175:7176   */\n      0x04\n        /* \"#utility.yul\":7168:7183   */\n      mstore\n        /* \"#utility.yul\":7202:7206   */\n      0x24\n        /* \"#utility.yul\":7199:7200   */\n      0x00\n        /* \"#utility.yul\":7192:7207   */\n      revert\n        /* \"#utility.yul\":7342:7459   */\n    tag_108:\n        /* \"#utility.yul\":7451:7452   */\n      0x00\n        /* \"#utility.yul\":7448:7449   */\n      dup1\n        /* \"#utility.yul\":7441:7453   */\n      revert\n        /* \"#utility.yul\":7465:7567   */\n    tag_147:\n        /* \"#utility.yul\":7506:7512   */\n      0x00\n        /* \"#utility.yul\":7557:7559   */\n      0x1f\n        /* \"#utility.yul\":7553:7560   */\n      not\n        /* \"#utility.yul\":7548:7550   */\n      0x1f\n        /* \"#utility.yul\":7541:7546   */\n      dup4\n        /* \"#utility.yul\":7537:7551   */\n      add\n        /* \"#utility.yul\":7533:7561   */\n      and\n        /* \"#utility.yul\":7523:7561   */\n      swap1\n      pop\n        /* \"#utility.yul\":7465:7567   */\n      swap2\n      swap1\n      pop\n      jump\t// out\n        /* \"#utility.yul\":7573:7695   */\n    tag_100:\n        /* \"#utility.yul\":7646:7670   */\n      tag_207\n        /* \"#utility.yul\":7664:7669   */\n      dup2\n        /* \"#utility.yul\":7646:7670   */\n      tag_133\n      jump\t// in\n    tag_207:\n        /* \"#utility.yul\":7639:7644   */\n      dup2\n        /* \"#utility.yul\":7636:7671   */\n      eq\n        /* \"#utility.yul\":7626:7689   */\n      tag_208\n      jumpi\n        /* \"#utility.yul\":7685:7686   */\n      0x00\n        /* \"#utility.yul\":7682:7683   */\n      dup1\n        /* \"#utility.yul\":7675:7687   */\n      revert\n        /* \"#utility.yul\":7626:7689   */\n    tag_208:\n        /* \"#utility.yul\":7573:7695   */\n      pop\n      jump\t// out\n        /* \"#utility.yul\":7701:7823   */\n    tag_104:\n        /* \"#utility.yul\":7774:7798   */\n      tag_210\n        /* \"#utility.yul\":7792:7797   */\n      dup2\n        /* \"#utility.yul\":7774:7798   */\n      tag_151\n      jump\t// in\n    tag_210:\n        /* \"#utility.yul\":7767:7772   */\n      dup2\n        /* \"#utility.yul\":7764:7799   */\n      eq\n        /* \"#utility.yul\":7754:7817   */\n      tag_211\n      jumpi\n        /* \"#utility.yul\":7813:7814   */\n      0x00\n        /* \"#utility.yul\":7810:7811   */\n      dup1\n        /* \"#utility.yul\":7803:7815   */\n      revert\n        /* \"#utility.yul\":7754:7817   */\n    tag_211:\n        /* \"#utility.yul\":7701:7823   */\n      pop\n      jump\t// out\n\n    auxdata: 0xa264697066735822122037a20ea6c47d68afe863b8219ce9019fdc65b8ffeecac6e8e2290ddd17ba7fa464736f6c63430008070033\n}\n",
				"bytecode": {
					"linkReferences": {},
					"object": "60806040526040518060400160405280600381526020017f65746800000000000000000000000000000000000000000000000000000000008152506003908051906020019062000051929190620000d0565b506040518060400160405280600481526020017f7765746800000000000000000000000000000000000000000000000000000000815250600490805190602001906200009f929190620000d0565b506012600560006101000a81548160ff021916908360ff160217905550348015620000c957600080fd5b50620001e5565b828054620000de9062000180565b90600052602060002090601f0160209004810192826200010257600085556200014e565b82601f106200011d57805160ff19168380011785556200014e565b828001600101855582156200014e579182015b828111156200014d57825182559160200191906001019062000130565b5b5090506200015d919062000161565b5090565b5b808211156200017c57600081600090555060010162000162565b5090565b600060028204905060018216806200019957607f821691505b60208210811415620001b057620001af620001b6565b5b50919050565b7f4e487b7100000000000000000000000000000000000000000000000000000000600052602260045260246000fd5b610d1c80620001f56000396000f3fe608060405234801561001057600080fd5b50600436106100a95760003560e01c806370a082311161007157806370a082311461015457806375247a581461018457806395d89b41146101b4578063a0712d68146101d2578063a9059cbb146101ee578063dd62ed3e1461021e576100a9565b806306fdde03146100ae57806318160ddd146100cc57806323b872dd146100ea578063313ce5671461011a57806342966c6814610138575b600080fd5b6100b661024e565b6040516100c39190610a8c565b60405180910390f35b6100d46102dc565b6040516100e19190610aae565b60405180910390f35b61010460048036038101906100ff9190610905565b6102e2565b6040516101119190610a71565b60405180910390f35b610122610469565b60405161012f9190610ac9565b60405180910390f35b610152600480360381019061014d9190610998565b61047c565b005b61016e60048036038101906101699190610898565b610529565b60405161017b9190610aae565b60405180910390f35b61019e60048036038101906101999190610958565b610541565b6040516101ab9190610a71565b60405180910390f35b6101bc61061b565b6040516101c99190610a8c565b60405180910390f35b6101ec60048036038101906101e79190610998565b6106a9565b005b61020860048036038101906102039190610958565b610756565b6040516102159190610a71565b60405180910390f35b610238600480360381019061023391906108c5565b610849565b6040516102459190610aae565b60405180910390f35b6003805461025b90610c12565b80601f016020809104026020016040519081016040528092919081815260200182805461028790610c12565b80156102d45780601f106102a9576101008083540402835291602001916102d4565b820191906000526020600020905b8154815290600101906020018083116102b757829003601f168201915b505050505081565b60005481565b600081600260008673ffffffffffffffffffffffffffffffffffffffff1673ffffffffffffffffffffffffffffffffffffffff16815260200190815260200160002060003373ffffffffffffffffffffffffffffffffffffffff1673ffffffffffffffffffffffffffffffffffffffff16815260200190815260200160002060008282546103709190610b56565b9250508190555081600160008673ffffffffffffffffffffffffffffffffffffffff1673ffffffffffffffffffffffffffffffffffffffff16815260200190815260200160002060008282546103c69190610b56565b9250508190555081600160008573ffffffffffffffffffffffffffffffffffffffff1673ffffffffffffffffffffffffffffffffffffffff168152602001908152602001600020600082825461041c9190610b00565b925050819055507fddf252ad1be2c89b69c2b068fc378daa952ba7f163c4a11628f55a4df523b3ef84848460405161045693929190610a3a565b60405180910390a1600190509392505050565b600560009054906101000a900460ff1681565b80600160003373ffffffffffffffffffffffffffffffffffffffff1673ffffffffffffffffffffffffffffffffffffffff16815260200190815260200160002060008282546104cb9190610b56565b92505081905550806000808282546104e39190610b56565b925050819055507fddf252ad1be2c89b69c2b068fc378daa952ba7f163c4a11628f55a4df523b3ef3360008360405161051e93929190610a3a565b60405180910390a150565b60016020528060005260406000206000915090505481565b600081600260003373ffffffffffffffffffffffffffffffffffffffff1673ffffffffffffffffffffffffffffffffffffffff16815260200190815260200160002060008573ffffffffffffffffffffffffffffffffffffffff1673ffffffffffffffffffffffffffffffffffffffff16815260200190815260200160002060008282546105cf9190610b00565b925050819055507f8c5be1e5ebec7d5bd14f71427d1e84f3dd0314c0f7b2291e5b200ac8c7c3b92533848460405161060993929190610a3a565b60405180910390a16001905092915050565b6004805461062890610c12565b80601f016020809104026020016040519081016040528092919081815260200182805461065490610c12565b80156106a15780601f10610676576101008083540402835291602001916106a1565b820191906000526020600020905b81548152906001019060200180831161068457829003601f168201915b505050505081565b80600160003373ffffffffffffffffffffffffffffffffffffffff1673ffffffffffffffffffffffffffffffffffffffff16815260200190815260200160002060008282546106f89190610b00565b92505081905550806000808282546107109190610b00565b925050819055507fddf252ad1be2c89b69c2b068fc378daa952ba7f163c4a11628f55a4df523b3ef6000338360405161074b93929190610a3a565b60405180910390a150565b600081600160008573ffffffffffffffffffffffffffffffffffffffff1673ffffffffffffffffffffffffffffffffffffffff16815260200190815260200160002060008282546107a79190610b00565b9250508190555081600160003373ffffffffffffffffffffffffffffffffffffffff1673ffffffffffffffffffffffffffffffffffffffff16815260200190815260200160002060008282546107fd9190610b56565b925050819055507fddf252ad1be2c89b69c2b068fc378daa952ba7f163c4a11628f55a4df523b3ef33848460405161083793929190610a3a565b60405180910390a16001905092915050565b6002602052816000526040600020602052806000526040600020600091509150505481565b60008135905061087d81610cb8565b92915050565b60008135905061089281610ccf565b92915050565b6000602082840312156108ae576108ad610ca2565b5b60006108bc8482850161086e565b91505092915050565b600080604083850312156108dc576108db610ca2565b5b60006108ea8582860161086e565b92505060206108fb8582860161086e565b9150509250929050565b60008060006060848603121561091e5761091d610ca2565b5b600061092c8682870161086e565b935050602061093d8682870161086e565b925050604061094e86828701610883565b9150509250925092565b6000806040838503121561096f5761096e610ca2565b5b600061097d8582860161086e565b925050602061098e85828601610883565b9150509250929050565b6000602082840312156109ae576109ad610ca2565b5b60006109bc84828501610883565b91505092915050565b6109ce81610b8a565b82525050565b6109dd81610b9c565b82525050565b60006109ee82610ae4565b6109f88185610aef565b9350610a08818560208601610bdf565b610a1181610ca7565b840191505092915050565b610a2581610bc8565b82525050565b610a3481610bd2565b82525050565b6000606082019050610a4f60008301866109c5565b610a5c60208301856109c5565b610a696040830184610a1c565b949350505050565b6000602082019050610a8660008301846109d4565b92915050565b60006020820190508181036000830152610aa681846109e3565b905092915050565b6000602082019050610ac36000830184610a1c565b92915050565b6000602082019050610ade6000830184610a2b565b92915050565b600081519050919050565b600082825260208201905092915050565b6000610b0b82610bc8565b9150610b1683610bc8565b9250827fffffffffffffffffffffffffffffffffffffffffffffffffffffffffffffffff03821115610b4b57610b4a610c44565b5b828201905092915050565b6000610b6182610bc8565b9150610b6c83610bc8565b925082821015610b7f57610b7e610c44565b5b828203905092915050565b6000610b9582610ba8565b9050919050565b60008115159050919050565b600073ffffffffffffffffffffffffffffffffffffffff82169050919050565b6000819050919050565b600060ff82169050919050565b60005b83811015610bfd578082015181840152602081019050610be2565b83811115610c0c576000848401525b50505050565b60006002820490506001821680610c2a57607f821691505b60208210811415610c3e57610c3d610c73565b5b50919050565b7f4e487b7100000000000000000000000000000000000000000000000000000000600052601160045260246000fd5b7f4e487b7100000000000000000000000000000000000000000000000000000000600052602260045260246000fd5b600080fd5b6000601f19601f8301169050919050565b610cc181610b8a565b8114610ccc57600080fd5b50565b610cd881610bc8565b8114610ce357600080fd5b5056fea264697066735822122037a20ea6c47d68afe863b8219ce9019fdc65b8ffeecac6e8e2290ddd17ba7fa464736f6c63430008070033",
					"opcodes": "PUSH1 0x80 PUSH1 0x40 MSTORE PUSH1 0x40 MLOAD DUP1 PUSH1 0x40 ADD PUSH1 0x40 MSTORE DUP1 PUSH1 0x3 DUP2 MSTORE PUSH1 0x20 ADD PUSH32 0x6574680000000000000000000000000000000000000000000000000000000000 DUP2 MSTORE POP PUSH1 0x3 SWAP1 DUP1 MLOAD SWAP1 PUSH1 0x20 ADD SWAP1 PUSH3 0x51 SWAP3 SWAP2 SWAP1 PUSH3 0xD0 JUMP JUMPDEST POP PUSH1 0x40 MLOAD DUP1 PUSH1 0x40 ADD PUSH1 0x40 MSTORE DUP1 PUSH1 0x4 DUP2 MSTORE PUSH1 0x20 ADD PUSH32 0x7765746800000000000000000000000000000000000000000000000000000000 DUP2 MSTORE POP PUSH1 0x4 SWAP1 DUP1 MLOAD SWAP1 PUSH1 0x20 ADD SWAP1 PUSH3 0x9F SWAP3 SWAP2 SWAP1 PUSH3 0xD0 JUMP JUMPDEST POP PUSH1 0x12 PUSH1 0x5 PUSH1 0x0 PUSH2 0x100 EXP DUP2 SLOAD DUP2 PUSH1 0xFF MUL NOT AND SWAP1 DUP4 PUSH1 0xFF AND MUL OR SWAP1 SSTORE POP CALLVALUE DUP1 ISZERO PUSH3 0xC9 JUMPI PUSH1 0x0 DUP1 REVERT JUMPDEST POP PUSH3 0x1E5 JUMP JUMPDEST DUP3 DUP1 SLOAD PUSH3 0xDE SWAP1 PUSH3 0x180 JUMP JUMPDEST SWAP1 PUSH1 0x0 MSTORE PUSH1 0x20 PUSH1 0x0 KECCAK256 SWAP1 PUSH1 0x1F ADD PUSH1 0x20 SWAP1 DIV DUP2 ADD SWAP3 DUP3 PUSH3 0x102 JUMPI PUSH1 0x0 DUP6 SSTORE PUSH3 0x14E JUMP JUMPDEST DUP3 PUSH1 0x1F LT PUSH3 0x11D JUMPI DUP1 MLOAD PUSH1 0xFF NOT AND DUP4 DUP1 ADD OR DUP6 SSTORE PUSH3 0x14E JUMP JUMPDEST DUP3 DUP1 ADD PUSH1 0x1 ADD DUP6 SSTORE DUP3 ISZERO PUSH3 0x14E JUMPI SWAP2 DUP3 ADD JUMPDEST DUP3 DUP2 GT ISZERO PUSH3 0x14D JUMPI DUP3 MLOAD DUP3 SSTORE SWAP2 PUSH1 0x20 ADD SWAP2 SWAP1 PUSH1 0x1 ADD SWAP1 PUSH3 0x130 JUMP JUMPDEST JUMPDEST POP SWAP1 POP PUSH3 0x15D SWAP2 SWAP1 PUSH3 0x161 JUMP JUMPDEST POP SWAP1 JUMP JUMPDEST JUMPDEST DUP1 DUP3 GT ISZERO PUSH3 0x17C JUMPI PUSH1 0x0 DUP2 PUSH1 0x0 SWAP1 SSTORE POP PUSH1 0x1 ADD PUSH3 0x162 JUMP JUMPDEST POP SWAP1 JUMP JUMPDEST PUSH1 0x0 PUSH1 0x2 DUP3 DIV SWAP1 POP PUSH1 0x1 DUP3 AND DUP1 PUSH3 0x199 JUMPI PUSH1 0x7F DUP3 AND SWAP2 POP JUMPDEST PUSH1 0x20 DUP3 LT DUP2 EQ ISZERO PUSH3 0x1B0 JUMPI PUSH3 0x1AF PUSH3 0x1B6 JUMP JUMPDEST JUMPDEST POP SWAP2 SWAP1 POP JUMP JUMPDEST PUSH32 0x4E487B7100000000000000000000000000000000000000000000000000000000 PUSH1 0x0 MSTORE PUSH1 0x22 PUSH1 0x4 MSTORE PUSH1 0x24 PUSH1 0x0 REVERT JUMPDEST PUSH2 0xD1C DUP1 PUSH3 0x1F5 PUSH1 0x0 CODECOPY PUSH1 0x0 RETURN INVALID PUSH1 0x80 PUSH1 0x40 MSTORE CALLVALUE DUP1 ISZERO PUSH2 0x10 JUMPI PUSH1 0x0 DUP1 REVERT JUMPDEST POP PUSH1 0x4 CALLDATASIZE LT PUSH2 0xA9 JUMPI PUSH1 0x0 CALLDATALOAD PUSH1 0xE0 SHR DUP1 PUSH4 0x70A08231 GT PUSH2 0x71 JUMPI DUP1 PUSH4 0x70A08231 EQ PUSH2 0x154 JUMPI DUP1 PUSH4 0x75247A58 EQ PUSH2 0x184 JUMPI DUP1 PUSH4 0x95D89B41 EQ PUSH2 0x1B4 JUMPI DUP1 PUSH4 0xA0712D68 EQ PUSH2 0x1D2 JUMPI DUP1 PUSH4 0xA9059CBB EQ PUSH2 0x1EE JUMPI DUP1 PUSH4 0xDD62ED3E EQ PUSH2 0x21E JUMPI PUSH2 0xA9 JUMP JUMPDEST DUP1 PUSH4 0x6FDDE03 EQ PUSH2 0xAE JUMPI DUP1 PUSH4 0x18160DDD EQ PUSH2 0xCC JUMPI DUP1 PUSH4 0x23B872DD EQ PUSH2 0xEA JUMPI DUP1 PUSH4 0x313CE567 EQ PUSH2 0x11A JUMPI DUP1 PUSH4 0x42966C68 EQ PUSH2 0x138 JUMPI JUMPDEST PUSH1 0x0 DUP1 REVERT JUMPDEST PUSH2 0xB6 PUSH2 0x24E JUMP JUMPDEST PUSH1 0x40 MLOAD PUSH2 0xC3 SWAP2 SWAP1 PUSH2 0xA8C JUMP JUMPDEST PUSH1 0x40 MLOAD DUP1 SWAP2 SUB SWAP1 RETURN JUMPDEST PUSH2 0xD4 PUSH2 0x2DC JUMP JUMPDEST PUSH1 0x40 MLOAD PUSH2 0xE1 SWAP2 SWAP1 PUSH2 0xAAE JUMP JUMPDEST PUSH1 0x40 MLOAD DUP1 SWAP2 SUB SWAP1 RETURN JUMPDEST PUSH2 0x104 PUSH1 0x4 DUP1 CALLDATASIZE SUB DUP2 ADD SWAP1 PUSH2 0xFF SWAP2 SWAP1 PUSH2 0x905 JUMP JUMPDEST PUSH2 0x2E2 JUMP JUMPDEST PUSH1 0x40 MLOAD PUSH2 0x111 SWAP2 SWAP1 PUSH2 0xA71 JUMP JUMPDEST PUSH1 0x40 MLOAD DUP1 SWAP2 SUB SWAP1 RETURN JUMPDEST PUSH2 0x122 PUSH2 0x469 JUMP JUMPDEST PUSH1 0x40 MLOAD PUSH2 0x12F SWAP2 SWAP1 PUSH2 0xAC9 JUMP JUMPDEST PUSH1 0x40 MLOAD DUP1 SWAP2 SUB SWAP1 RETURN JUMPDEST PUSH2 0x152 PUSH1 0x4 DUP1 CALLDATASIZE SUB DUP2 ADD SWAP1 PUSH2 0x14D SWAP2 SWAP1 PUSH2 0x998 JUMP JUMPDEST PUSH2 0x47C JUMP JUMPDEST STOP JUMPDEST PUSH2 0x16E PUSH1 0x4 DUP1 CALLDATASIZE SUB DUP2 ADD SWAP1 PUSH2 0x169 SWAP2 SWAP1 PUSH2 0x898 JUMP JUMPDEST PUSH2 0x529 JUMP JUMPDEST PUSH1 0x40 MLOAD PUSH2 0x17B SWAP2 SWAP1 PUSH2 0xAAE JUMP JUMPDEST PUSH1 0x40 MLOAD DUP1 SWAP2 SUB SWAP1 RETURN JUMPDEST PUSH2 0x19E PUSH1 0x4 DUP1 CALLDATASIZE SUB DUP2 ADD SWAP1 PUSH2 0x199 SWAP2 SWAP1 PUSH2 0x958 JUMP JUMPDEST PUSH2 0x541 JUMP JUMPDEST PUSH1 0x40 MLOAD PUSH2 0x1AB SWAP2 SWAP1 PUSH2 0xA71 JUMP JUMPDEST PUSH1 0x40 MLOAD DUP1 SWAP2 SUB SWAP1 RETURN JUMPDEST PUSH2 0x1BC PUSH2 0x61B JUMP JUMPDEST PUSH1 0x40 MLOAD PUSH2 0x1C9 SWAP2 SWAP1 PUSH2 0xA8C JUMP JUMPDEST PUSH1 0x40 MLOAD DUP1 SWAP2 SUB SWAP1 RETURN JUMPDEST PUSH2 0x1EC PUSH1 0x4 DUP1 CALLDATASIZE SUB DUP2 ADD SWAP1 PUSH2 0x1E7 SWAP2 SWAP1 PUSH2 0x998 JUMP JUMPDEST PUSH2 0x6A9 JUMP JUMPDEST STOP JUMPDEST PUSH2 0x208 PUSH1 0x4 DUP1 CALLDATASIZE SUB DUP2 ADD SWAP1 PUSH2 0x203 SWAP2 SWAP1 PUSH2 0x958 JUMP JUMPDEST PUSH2 0x756 JUMP JUMPDEST PUSH1 0x40 MLOAD PUSH2 0x215 SWAP2 SWAP1 PUSH2 0xA71 JUMP JUMPDEST PUSH1 0x40 MLOAD DUP1 SWAP2 SUB SWAP1 RETURN JUMPDEST PUSH2 0x238 PUSH1 0x4 DUP1 CALLDATASIZE SUB DUP2 ADD SWAP1 PUSH2 0x233 SWAP2 SWAP1 PUSH2 0x8C5 JUMP JUMPDEST PUSH2 0x849 JUMP JUMPDEST PUSH1 0x40 MLOAD PUSH2 0x245 SWAP2 SWAP1 PUSH2 0xAAE JUMP JUMPDEST PUSH1 0x40 MLOAD DUP1 SWAP2 SUB SWAP1 RETURN JUMPDEST PUSH1 0x3 DUP1 SLOAD PUSH2 0x25B SWAP1 PUSH2 0xC12 JUMP JUMPDEST DUP1 PUSH1 0x1F ADD PUSH1 0x20 DUP1 SWAP2 DIV MUL PUSH1 0x20 ADD PUSH1 0x40 MLOAD SWAP1 DUP2 ADD PUSH1 0x40 MSTORE DUP1 SWAP3 SWAP2 SWAP1 DUP2 DUP2 MSTORE PUSH1 0x20 ADD DUP3 DUP1 SLOAD PUSH2 0x287 SWAP1 PUSH2 0xC12 JUMP JUMPDEST DUP1 ISZERO PUSH2 0x2D4 JUMPI DUP1 PUSH1 0x1F LT PUSH2 0x2A9 JUMPI PUSH2 0x100 DUP1 DUP4 SLOAD DIV MUL DUP4 MSTORE SWAP2 PUSH1 0x20 ADD SWAP2 PUSH2 0x2D4 JUMP JUMPDEST DUP3 ADD SWAP2 SWAP1 PUSH1 0x0 MSTORE PUSH1 0x20 PUSH1 0x0 KECCAK256 SWAP1 JUMPDEST DUP2 SLOAD DUP2 MSTORE SWAP1 PUSH1 0x1 ADD SWAP1 PUSH1 0x20 ADD DUP1 DUP4 GT PUSH2 0x2B7 JUMPI DUP3 SWAP1 SUB PUSH1 0x1F AND DUP3 ADD SWAP2 JUMPDEST POP POP POP POP POP DUP2 JUMP JUMPDEST PUSH1 0x0 SLOAD DUP2 JUMP JUMPDEST PUSH1 0x0 DUP2 PUSH1 0x2 PUSH1 0x0 DUP7 PUSH20 0xFFFFFFFFFFFFFFFFFFFFFFFFFFFFFFFFFFFFFFFF AND PUSH20 0xFFFFFFFFFFFFFFFFFFFFFFFFFFFFFFFFFFFFFFFF AND DUP2 MSTORE PUSH1 0x20 ADD SWAP1 DUP2 MSTORE PUSH1 0x20 ADD PUSH1 0x0 KECCAK256 PUSH1 0x0 CALLER PUSH20 0xFFFFFFFFFFFFFFFFFFFFFFFFFFFFFFFFFFFFFFFF AND PUSH20 0xFFFFFFFFFFFFFFFFFFFFFFFFFFFFFFFFFFFFFFFF AND DUP2 MSTORE PUSH1 0x20 ADD SWAP1 DUP2 MSTORE PUSH1 0x20 ADD PUSH1 0x0 KECCAK256 PUSH1 0x0 DUP3 DUP3 SLOAD PUSH2 0x370 SWAP2 SWAP1 PUSH2 0xB56 JUMP JUMPDEST SWAP3 POP POP DUP2 SWAP1 SSTORE POP DUP2 PUSH1 0x1 PUSH1 0x0 DUP7 PUSH20 0xFFFFFFFFFFFFFFFFFFFFFFFFFFFFFFFFFFFFFFFF AND PUSH20 0xFFFFFFFFFFFFFFFFFFFFFFFFFFFFFFFFFFFFFFFF AND DUP2 MSTORE PUSH1 0x20 ADD SWAP1 DUP2 MSTORE PUSH1 0x20 ADD PUSH1 0x0 KECCAK256 PUSH1 0x0 DUP3 DUP3 SLOAD PUSH2 0x3C6 SWAP2 SWAP1 PUSH2 0xB56 JUMP JUMPDEST SWAP3 POP POP DUP2 SWAP1 SSTORE POP DUP2 PUSH1 0x1 PUSH1 0x0 DUP6 PUSH20 0xFFFFFFFFFFFFFFFFFFFFFFFFFFFFFFFFFFFFFFFF AND PUSH20 0xFFFFFFFFFFFFFFFFFFFFFFFFFFFFFFFFFFFFFFFF AND DUP2 MSTORE PUSH1 0x20 ADD SWAP1 DUP2 MSTORE PUSH1 0x20 ADD PUSH1 0x0 KECCAK256 PUSH1 0x0 DUP3 DUP3 SLOAD PUSH2 0x41C SWAP2 SWAP1 PUSH2 0xB00 JUMP JUMPDEST SWAP3 POP POP DUP2 SWAP1 SSTORE POP PUSH32 0xDDF252AD1BE2C89B69C2B068FC378DAA952BA7F163C4A11628F55A4DF523B3EF DUP5 DUP5 DUP5 PUSH1 0x40 MLOAD PUSH2 0x456 SWAP4 SWAP3 SWAP2 SWAP1 PUSH2 0xA3A JUMP JUMPDEST PUSH1 0x40 MLOAD DUP1 SWAP2 SUB SWAP1 LOG1 PUSH1 0x1 SWAP1 POP SWAP4 SWAP3 POP POP POP JUMP JUMPDEST PUSH1 0x5 PUSH1 0x0 SWAP1 SLOAD SWAP1 PUSH2 0x100 EXP SWAP1 DIV PUSH1 0xFF AND DUP2 JUMP JUMPDEST DUP1 PUSH1 0x1 PUSH1 0x0 CALLER PUSH20 0xFFFFFFFFFFFFFFFFFFFFFFFFFFFFFFFFFFFFFFFF AND PUSH20 0xFFFFFFFFFFFFFFFFFFFFFFFFFFFFFFFFFFFFFFFF AND DUP2 MSTORE PUSH1 0x20 ADD SWAP1 DUP2 MSTORE PUSH1 0x20 ADD PUSH1 0x0 KECCAK256 PUSH1 0x0 DUP3 DUP3 SLOAD PUSH2 0x4CB SWAP2 SWAP1 PUSH2 0xB56 JUMP JUMPDEST SWAP3 POP POP DUP2 SWAP1 SSTORE POP DUP1 PUSH1 0x0 DUP1 DUP3 DUP3 SLOAD PUSH2 0x4E3 SWAP2 SWAP1 PUSH2 0xB56 JUMP JUMPDEST SWAP3 POP POP DUP2 SWAP1 SSTORE POP PUSH32 0xDDF252AD1BE2C89B69C2B068FC378DAA952BA7F163C4A11628F55A4DF523B3EF CALLER PUSH1 0x0 DUP4 PUSH1 0x40 MLOAD PUSH2 0x51E SWAP4 SWAP3 SWAP2 SWAP1 PUSH2 0xA3A JUMP JUMPDEST PUSH1 0x40 MLOAD DUP1 SWAP2 SUB SWAP1 LOG1 POP JUMP JUMPDEST PUSH1 0x1 PUSH1 0x20 MSTORE DUP1 PUSH1 0x0 MSTORE PUSH1 0x40 PUSH1 0x0 KECCAK256 PUSH1 0x0 SWAP2 POP SWAP1 POP SLOAD DUP2 JUMP JUMPDEST PUSH1 0x0 DUP2 PUSH1 0x2 PUSH1 0x0 CALLER PUSH20 0xFFFFFFFFFFFFFFFFFFFFFFFFFFFFFFFFFFFFFFFF AND PUSH20 0xFFFFFFFFFFFFFFFFFFFFFFFFFFFFFFFFFFFFFFFF AND DUP2 MSTORE PUSH1 0x20 ADD SWAP1 DUP2 MSTORE PUSH1 0x20 ADD PUSH1 0x0 KECCAK256 PUSH1 0x0 DUP6 PUSH20 0xFFFFFFFFFFFFFFFFFFFFFFFFFFFFFFFFFFFFFFFF AND PUSH20 0xFFFFFFFFFFFFFFFFFFFFFFFFFFFFFFFFFFFFFFFF AND DUP2 MSTORE PUSH1 0x20 ADD SWAP1 DUP2 MSTORE PUSH1 0x20 ADD PUSH1 0x0 KECCAK256 PUSH1 0x0 DUP3 DUP3 SLOAD PUSH2 0x5CF SWAP2 SWAP1 PUSH2 0xB00 JUMP JUMPDEST SWAP3 POP POP DUP2 SWAP1 SSTORE POP PUSH32 0x8C5BE1E5EBEC7D5BD14F71427D1E84F3DD0314C0F7B2291E5B200AC8C7C3B925 CALLER DUP5 DUP5 PUSH1 0x40 MLOAD PUSH2 0x609 SWAP4 SWAP3 SWAP2 SWAP1 PUSH2 0xA3A JUMP JUMPDEST PUSH1 0x40 MLOAD DUP1 SWAP2 SUB SWAP1 LOG1 PUSH1 0x1 SWAP1 POP SWAP3 SWAP2 POP POP JUMP JUMPDEST PUSH1 0x4 DUP1 SLOAD PUSH2 0x628 SWAP1 PUSH2 0xC12 JUMP JUMPDEST DUP1 PUSH1 0x1F ADD PUSH1 0x20 DUP1 SWAP2 DIV MUL PUSH1 0x20 ADD PUSH1 0x40 MLOAD SWAP1 DUP2 ADD PUSH1 0x40 MSTORE DUP1 SWAP3 SWAP2 SWAP1 DUP2 DUP2 MSTORE PUSH1 0x20 ADD DUP3 DUP1 SLOAD PUSH2 0x654 SWAP1 PUSH2 0xC12 JUMP JUMPDEST DUP1 ISZERO PUSH2 0x6A1 JUMPI DUP1 PUSH1 0x1F LT PUSH2 0x676 JUMPI PUSH2 0x100 DUP1 DUP4 SLOAD DIV MUL DUP4 MSTORE SWAP2 PUSH1 0x20 ADD SWAP2 PUSH2 0x6A1 JUMP JUMPDEST DUP3 ADD SWAP2 SWAP1 PUSH1 0x0 MSTORE PUSH1 0x20 PUSH1 0x0 KECCAK256 SWAP1 JUMPDEST DUP2 SLOAD DUP2 MSTORE SWAP1 PUSH1 0x1 ADD SWAP1 PUSH1 0x20 ADD DUP1 DUP4 GT PUSH2 0x684 JUMPI DUP3 SWAP1 SUB PUSH1 0x1F AND DUP3 ADD SWAP2 JUMPDEST POP POP POP POP POP DUP2 JUMP JUMPDEST DUP1 PUSH1 0x1 PUSH1 0x0 CALLER PUSH20 0xFFFFFFFFFFFFFFFFFFFFFFFFFFFFFFFFFFFFFFFF AND PUSH20 0xFFFFFFFFFFFFFFFFFFFFFFFFFFFFFFFFFFFFFFFF AND DUP2 MSTORE PUSH1 0x20 ADD SWAP1 DUP2 MSTORE PUSH1 0x20 ADD PUSH1 0x0 KECCAK256 PUSH1 0x0 DUP3 DUP3 SLOAD PUSH2 0x6F8 SWAP2 SWAP1 PUSH2 0xB00 JUMP JUMPDEST SWAP3 POP POP DUP2 SWAP1 SSTORE POP DUP1 PUSH1 0x0 DUP1 DUP3 DUP3 SLOAD PUSH2 0x710 SWAP2 SWAP1 PUSH2 0xB00 JUMP JUMPDEST SWAP3 POP POP DUP2 SWAP1 SSTORE POP PUSH32 0xDDF252AD1BE2C89B69C2B068FC378DAA952BA7F163C4A11628F55A4DF523B3EF PUSH1 0x0 CALLER DUP4 PUSH1 0x40 MLOAD PUSH2 0x74B SWAP4 SWAP3 SWAP2 SWAP1 PUSH2 0xA3A JUMP JUMPDEST PUSH1 0x40 MLOAD DUP1 SWAP2 SUB SWAP1 LOG1 POP JUMP JUMPDEST PUSH1 0x0 DUP2 PUSH1 0x1 PUSH1 0x0 DUP6 PUSH20 0xFFFFFFFFFFFFFFFFFFFFFFFFFFFFFFFFFFFFFFFF AND PUSH20 0xFFFFFFFFFFFFFFFFFFFFFFFFFFFFFFFFFFFFFFFF AND DUP2 MSTORE PUSH1 0x20 ADD SWAP1 DUP2 MSTORE PUSH1 0x20 ADD PUSH1 0x0 KECCAK256 PUSH1 0x0 DUP3 DUP3 SLOAD PUSH2 0x7A7 SWAP2 SWAP1 PUSH2 0xB00 JUMP JUMPDEST SWAP3 POP POP DUP2 SWAP1 SSTORE POP DUP2 PUSH1 0x1 PUSH1 0x0 CALLER PUSH20 0xFFFFFFFFFFFFFFFFFFFFFFFFFFFFFFFFFFFFFFFF AND PUSH20 0xFFFFFFFFFFFFFFFFFFFFFFFFFFFFFFFFFFFFFFFF AND DUP2 MSTORE PUSH1 0x20 ADD SWAP1 DUP2 MSTORE PUSH1 0x20 ADD PUSH1 0x0 KECCAK256 PUSH1 0x0 DUP3 DUP3 SLOAD PUSH2 0x7FD SWAP2 SWAP1 PUSH2 0xB56 JUMP JUMPDEST SWAP3 POP POP DUP2 SWAP1 SSTORE POP PUSH32 0xDDF252AD1BE2C89B69C2B068FC378DAA952BA7F163C4A11628F55A4DF523B3EF CALLER DUP5 DUP5 PUSH1 0x40 MLOAD PUSH2 0x837 SWAP4 SWAP3 SWAP2 SWAP1 PUSH2 0xA3A JUMP JUMPDEST PUSH1 0x40 MLOAD DUP1 SWAP2 SUB SWAP1 LOG1 PUSH1 0x1 SWAP1 POP SWAP3 SWAP2 POP POP JUMP JUMPDEST PUSH1 0x2 PUSH1 0x20 MSTORE DUP2 PUSH1 0x0 MSTORE PUSH1 0x40 PUSH1 0x0 KECCAK256 PUSH1 0x20 MSTORE DUP1 PUSH1 0x0 MSTORE PUSH1 0x40 PUSH1 0x0 KECCAK256 PUSH1 0x0 SWAP2 POP SWAP2 POP POP SLOAD DUP2 JUMP JUMPDEST PUSH1 0x0 DUP2 CALLDATALOAD SWAP1 POP PUSH2 0x87D DUP2 PUSH2 0xCB8 JUMP JUMPDEST SWAP3 SWAP2 POP POP JUMP JUMPDEST PUSH1 0x0 DUP2 CALLDATALOAD SWAP1 POP PUSH2 0x892 DUP2 PUSH2 0xCCF JUMP JUMPDEST SWAP3 SWAP2 POP POP JUMP JUMPDEST PUSH1 0x0 PUSH1 0x20 DUP3 DUP5 SUB SLT ISZERO PUSH2 0x8AE JUMPI PUSH2 0x8AD PUSH2 0xCA2 JUMP JUMPDEST JUMPDEST PUSH1 0x0 PUSH2 0x8BC DUP5 DUP3 DUP6 ADD PUSH2 0x86E JUMP JUMPDEST SWAP2 POP POP SWAP3 SWAP2 POP POP JUMP JUMPDEST PUSH1 0x0 DUP1 PUSH1 0x40 DUP4 DUP6 SUB SLT ISZERO PUSH2 0x8DC JUMPI PUSH2 0x8DB PUSH2 0xCA2 JUMP JUMPDEST JUMPDEST PUSH1 0x0 PUSH2 0x8EA DUP6 DUP3 DUP7 ADD PUSH2 0x86E JUMP JUMPDEST SWAP3 POP POP PUSH1 0x20 PUSH2 0x8FB DUP6 DUP3 DUP7 ADD PUSH2 0x86E JUMP JUMPDEST SWAP2 POP POP SWAP3 POP SWAP3 SWAP1 POP JUMP JUMPDEST PUSH1 0x0 DUP1 PUSH1 0x0 PUSH1 0x60 DUP5 DUP7 SUB SLT ISZERO PUSH2 0x91E JUMPI PUSH2 0x91D PUSH2 0xCA2 JUMP JUMPDEST JUMPDEST PUSH1 0x0 PUSH2 0x92C DUP7 DUP3 DUP8 ADD PUSH2 0x86E JUMP JUMPDEST SWAP4 POP POP PUSH1 0x20 PUSH2 0x93D DUP7 DUP3 DUP8 ADD PUSH2 0x86E JUMP JUMPDEST SWAP3 POP POP PUSH1 0x40 PUSH2 0x94E DUP7 DUP3 DUP8 ADD PUSH2 0x883 JUMP JUMPDEST SWAP2 POP POP SWAP3 POP SWAP3 POP SWAP3 JUMP JUMPDEST PUSH1 0x0 DUP1 PUSH1 0x40 DUP4 DUP6 SUB SLT ISZERO PUSH2 0x96F JUMPI PUSH2 0x96E PUSH2 0xCA2 JUMP JUMPDEST JUMPDEST PUSH1 0x0 PUSH2 0x97D DUP6 DUP3 DUP7 ADD PUSH2 0x86E JUMP JUMPDEST SWAP3 POP POP PUSH1 0x20 PUSH2 0x98E DUP6 DUP3 DUP7 ADD PUSH2 0x883 JUMP JUMPDEST SWAP2 POP POP SWAP3 POP SWAP3 SWAP1 POP JUMP JUMPDEST PUSH1 0x0 PUSH1 0x20 DUP3 DUP5 SUB SLT ISZERO PUSH2 0x9AE JUMPI PUSH2 0x9AD PUSH2 0xCA2 JUMP JUMPDEST JUMPDEST PUSH1 0x0 PUSH2 0x9BC DUP5 DUP3 DUP6 ADD PUSH2 0x883 JUMP JUMPDEST SWAP2 POP POP SWAP3 SWAP2 POP POP JUMP JUMPDEST PUSH2 0x9CE DUP2 PUSH2 0xB8A JUMP JUMPDEST DUP3 MSTORE POP POP JUMP JUMPDEST PUSH2 0x9DD DUP2 PUSH2 0xB9C JUMP JUMPDEST DUP3 MSTORE POP POP JUMP JUMPDEST PUSH1 0x0 PUSH2 0x9EE DUP3 PUSH2 0xAE4 JUMP JUMPDEST PUSH2 0x9F8 DUP2 DUP6 PUSH2 0xAEF JUMP JUMPDEST SWAP4 POP PUSH2 0xA08 DUP2 DUP6 PUSH1 0x20 DUP7 ADD PUSH2 0xBDF JUMP JUMPDEST PUSH2 0xA11 DUP2 PUSH2 0xCA7 JUMP JUMPDEST DUP5 ADD SWAP2 POP POP SWAP3 SWAP2 POP POP JUMP JUMPDEST PUSH2 0xA25 DUP2 PUSH2 0xBC8 JUMP JUMPDEST DUP3 MSTORE POP POP JUMP JUMPDEST PUSH2 0xA34 DUP2 PUSH2 0xBD2 JUMP JUMPDEST DUP3 MSTORE POP POP JUMP JUMPDEST PUSH1 0x0 PUSH1 0x60 DUP3 ADD SWAP1 POP PUSH2 0xA4F PUSH1 0x0 DUP4 ADD DUP7 PUSH2 0x9C5 JUMP JUMPDEST PUSH2 0xA5C PUSH1 0x20 DUP4 ADD DUP6 PUSH2 0x9C5 JUMP JUMPDEST PUSH2 0xA69 PUSH1 0x40 DUP4 ADD DUP5 PUSH2 0xA1C JUMP JUMPDEST SWAP5 SWAP4 POP POP POP POP JUMP JUMPDEST PUSH1 0x0 PUSH1 0x20 DUP3 ADD SWAP1 POP PUSH2 0xA86 PUSH1 0x0 DUP4 ADD DUP5 PUSH2 0x9D4 JUMP JUMPDEST SWAP3 SWAP2 POP POP JUMP JUMPDEST PUSH1 0x0 PUSH1 0x20 DUP3 ADD SWAP1 POP DUP2 DUP2 SUB PUSH1 0x0 DUP4 ADD MSTORE PUSH2 0xAA6 DUP2 DUP5 PUSH2 0x9E3 JUMP JUMPDEST SWAP1 POP SWAP3 SWAP2 POP POP JUMP JUMPDEST PUSH1 0x0 PUSH1 0x20 DUP3 ADD SWAP1 POP PUSH2 0xAC3 PUSH1 0x0 DUP4 ADD DUP5 PUSH2 0xA1C JUMP JUMPDEST SWAP3 SWAP2 POP POP JUMP JUMPDEST PUSH1 0x0 PUSH1 0x20 DUP3 ADD SWAP1 POP PUSH2 0xADE PUSH1 0x0 DUP4 ADD DUP5 PUSH2 0xA2B JUMP JUMPDEST SWAP3 SWAP2 POP POP JUMP JUMPDEST PUSH1 0x0 DUP2 MLOAD SWAP1 POP SWAP2 SWAP1 POP JUMP JUMPDEST PUSH1 0x0 DUP3 DUP3 MSTORE PUSH1 0x20 DUP3 ADD SWAP1 POP SWAP3 SWAP2 POP POP JUMP JUMPDEST PUSH1 0x0 PUSH2 0xB0B DUP3 PUSH2 0xBC8 JUMP JUMPDEST SWAP2 POP PUSH2 0xB16 DUP4 PUSH2 0xBC8 JUMP JUMPDEST SWAP3 POP DUP3 PUSH32 0xFFFFFFFFFFFFFFFFFFFFFFFFFFFFFFFFFFFFFFFFFFFFFFFFFFFFFFFFFFFFFFFF SUB DUP3 GT ISZERO PUSH2 0xB4B JUMPI PUSH2 0xB4A PUSH2 0xC44 JUMP JUMPDEST JUMPDEST DUP3 DUP3 ADD SWAP1 POP SWAP3 SWAP2 POP POP JUMP JUMPDEST PUSH1 0x0 PUSH2 0xB61 DUP3 PUSH2 0xBC8 JUMP JUMPDEST SWAP2 POP PUSH2 0xB6C DUP4 PUSH2 0xBC8 JUMP JUMPDEST SWAP3 POP DUP3 DUP3 LT ISZERO PUSH2 0xB7F JUMPI PUSH2 0xB7E PUSH2 0xC44 JUMP JUMPDEST JUMPDEST DUP3 DUP3 SUB SWAP1 POP SWAP3 SWAP2 POP POP JUMP JUMPDEST PUSH1 0x0 PUSH2 0xB95 DUP3 PUSH2 0xBA8 JUMP JUMPDEST SWAP1 POP SWAP2 SWAP1 POP JUMP JUMPDEST PUSH1 0x0 DUP2 ISZERO ISZERO SWAP1 POP SWAP2 SWAP1 POP JUMP JUMPDEST PUSH1 0x0 PUSH20 0xFFFFFFFFFFFFFFFFFFFFFFFFFFFFFFFFFFFFFFFF DUP3 AND SWAP1 POP SWAP2 SWAP1 POP JUMP JUMPDEST PUSH1 0x0 DUP2 SWAP1 POP SWAP2 SWAP1 POP JUMP JUMPDEST PUSH1 0x0 PUSH1 0xFF DUP3 AND SWAP1 POP SWAP2 SWAP1 POP JUMP JUMPDEST PUSH1 0x0 JUMPDEST DUP4 DUP2 LT ISZERO PUSH2 0xBFD JUMPI DUP1 DUP3 ADD MLOAD DUP2 DUP5 ADD MSTORE PUSH1 0x20 DUP2 ADD SWAP1 POP PUSH2 0xBE2 JUMP JUMPDEST DUP4 DUP2 GT ISZERO PUSH2 0xC0C JUMPI PUSH1 0x0 DUP5 DUP5 ADD MSTORE JUMPDEST POP POP POP POP JUMP JUMPDEST PUSH1 0x0 PUSH1 0x2 DUP3 DIV SWAP1 POP PUSH1 0x1 DUP3 AND DUP1 PUSH2 0xC2A JUMPI PUSH1 0x7F DUP3 AND SWAP2 POP JUMPDEST PUSH1 0x20 DUP3 LT DUP2 EQ ISZERO PUSH2 0xC3E JUMPI PUSH2 0xC3D PUSH2 0xC73 JUMP JUMPDEST JUMPDEST POP SWAP2 SWAP1 POP JUMP JUMPDEST PUSH32 0x4E487B7100000000000000000000000000000000000000000000000000000000 PUSH1 0x0 MSTORE PUSH1 0x11 PUSH1 0x4 MSTORE PUSH1 0x24 PUSH1 0x0 REVERT JUMPDEST PUSH32 0x4E487B7100000000000000000000000000000000000000000000000000000000 PUSH1 0x0 MSTORE PUSH1 0x22 PUSH1 0x4 MSTORE PUSH1 0x24 PUSH1 0x0 REVERT JUMPDEST PUSH1 0x0 DUP1 REVERT JUMPDEST PUSH1 0x0 PUSH1 0x1F NOT PUSH1 0x1F DUP4 ADD AND SWAP1 POP SWAP2 SWAP1 POP JUMP JUMPDEST PUSH2 0xCC1 DUP2 PUSH2 0xB8A JUMP JUMPDEST DUP2 EQ PUSH2 0xCCC JUMPI PUSH1 0x0 DUP1 REVERT JUMPDEST POP JUMP JUMPDEST PUSH2 0xCD8 DUP2 PUSH2 0xBC8 JUMP JUMPDEST DUP2 EQ PUSH2 0xCE3 JUMPI PUSH1 0x0 DUP1 REVERT JUMPDEST POP JUMP INVALID LOG2 PUSH5 0x6970667358 0x22 SLT KECCAK256 CALLDATACOPY LOG2 0xE 0xA6 0xC4 PUSH30 0x68AFE863B8219CE9019FDC65B8FFEECAC6E8E2290DDD17BA7FA464736F6C PUSH4 0x43000807 STOP CALLER "
				},
				"gasEstimates": {
					"creation": {
						"codeDepositCost": "671200",
						"executionCost": "infinite",
						"totalCost": "infinite"
					},
					"external": {
						"allowance(address,address)": "infinite",
						"approval(address,uint256)": "infinite",
						"balanceOf(address)": "2814",
						"burn(uint256)": "infinite",
						"decimals()": "2538",
						"mint(uint256)": "infinite",
						"name()": "infinite",
						"symbol()": "infinite",
						"totalSupply()": "2452",
						"transfer(address,uint256)": "infinite",
						"transferFrom(address,address,uint256)": "infinite"
					}
				},
				"methodIdentifiers": {
					"allowance(address,address)": "dd62ed3e",
					"approval(address,uint256)": "75247a58",
					"balanceOf(address)": "70a08231",
					"burn(uint256)": "42966c68",
					"decimals()": "313ce567",
					"mint(uint256)": "a0712d68",
					"name()": "06fdde03",
					"symbol()": "95d89b41",
					"totalSupply()": "18160ddd",
					"transfer(address,uint256)": "a9059cbb",
					"transferFrom(address,address,uint256)": "23b872dd"
				}
			},
			"storageLayout": {
				"storage": [
					{
						"astId": 7,
						"contract": "token协议/ERC20/contracts/ERC20.sol:ERC20",
						"label": "totalSupply",
						"offset": 0,
						"slot": "0",
						"type": "t_uint256"
					},
					{
						"astId": 12,
						"contract": "token协议/ERC20/contracts/ERC20.sol:ERC20",
						"label": "balanceOf",
						"offset": 0,
						"slot": "1",
						"type": "t_mapping(t_address,t_uint256)"
					},
					{
						"astId": 19,
						"contract": "token协议/ERC20/contracts/ERC20.sol:ERC20",
						"label": "allowance",
						"offset": 0,
						"slot": "2",
						"type": "t_mapping(t_address,t_mapping(t_address,t_uint256))"
					},
					{
						"astId": 23,
						"contract": "token协议/ERC20/contracts/ERC20.sol:ERC20",
						"label": "name",
						"offset": 0,
						"slot": "3",
						"type": "t_string_storage"
					},
					{
						"astId": 27,
						"contract": "token协议/ERC20/contracts/ERC20.sol:ERC20",
						"label": "symbol",
						"offset": 0,
						"slot": "4",
						"type": "t_string_storage"
					},
					{
						"astId": 31,
						"contract": "token协议/ERC20/contracts/ERC20.sol:ERC20",
						"label": "decimals",
						"offset": 0,
						"slot": "5",
						"type": "t_uint8"
					}
				],
				"types": {
					"t_address": {
						"encoding": "inplace",
						"label": "address",
						"numberOfBytes": "20"
					},
					"t_mapping(t_address,t_mapping(t_address,t_uint256))": {
						"encoding": "mapping",
						"key": "t_address",
						"label": "mapping(address => mapping(address => uint256))",
						"numberOfBytes": "32",
						"value": "t_mapping(t_address,t_uint256)"
					},
					"t_mapping(t_address,t_uint256)": {
						"encoding": "mapping",
						"key": "t_address",
						"label": "mapping(address => uint256)",
						"numberOfBytes": "32",
						"value": "t_uint256"
					},
					"t_string_storage": {
						"encoding": "bytes",
						"label": "string",
						"numberOfBytes": "32"
					},
					"t_uint256": {
						"encoding": "inplace",
						"label": "uint256",
						"numberOfBytes": "32"
					},
					"t_uint8": {
						"encoding": "inplace",
						"label": "uint8",
						"numberOfBytes": "1"
					}
				}
			},
			"userdoc": {
				"kind": "user",
				"methods": {},
				"version": 1
			}
		}
	}
}