{
	"code/Airdrop.sol": {
		"Airdrop": {
			"abi": [
				{
					"inputs": [
						{
							"internalType": "uint256[]",
							"name": "amounts",
							"type": "uint256[]"
						}
					],
					"name": "getSum",
					"outputs": [
						{
							"internalType": "uint256",
							"name": "sum",
							"type": "uint256"
						}
					],
					"stateMutability": "pure",
					"type": "function"
				},
				{
					"inputs": [
						{
							"internalType": "address payable[]",
							"name": "_address",
							"type": "address[]"
						},
						{
							"internalType": "uint256[]",
							"name": "_amounts",
							"type": "uint256[]"
						}
					],
					"name": "multiTransferETH",
					"outputs": [],
					"stateMutability": "payable",
					"type": "function"
				},
				{
					"inputs": [
						{
							"internalType": "address",
							"name": "_token",
							"type": "address"
						},
						{
							"internalType": "address[]",
							"name": "_address",
							"type": "address[]"
						},
						{
							"internalType": "uint256[]",
							"name": "_amounts",
							"type": "uint256[]"
						}
					],
					"name": "multiTransferToken",
					"outputs": [],
					"stateMutability": "nonpayable",
					"type": "function"
				},
				{
					"inputs": [
						{
							"internalType": "address",
							"name": "_to",
							"type": "address"
						}
					],
					"name": "withdrawFromFailList",
					"outputs": [],
					"stateMutability": "nonpayable",
					"type": "function"
				}
			],
			"devdoc": {
				"kind": "dev",
				"methods": {},
				"version": 1
			},
			"evm": {
				"assembly": "    /* \"code/Airdrop.sol\":88:2000  contract Airdrop{... */\n  mstore(0x40, 0x80)\n  callvalue\n  dup1\n  iszero\n  tag_1\n  jumpi\n  0x00\n  dup1\n  revert\ntag_1:\n  pop\n  dataSize(sub_0)\n  dup1\n  dataOffset(sub_0)\n  0x00\n  codecopy\n  0x00\n  return\nstop\n\nsub_0: assembly {\n        /* \"code/Airdrop.sol\":88:2000  contract Airdrop{... */\n      mstore(0x40, 0x80)\n      jumpi(tag_1, lt(calldatasize, 0x04))\n      shr(0xe0, calldataload(0x00))\n      dup1\n      0x41ed24a2\n      eq\n      tag_2\n      jumpi\n      dup1\n      0x77988cf8\n      eq\n      tag_3\n      jumpi\n      dup1\n      0xacacd8ee\n      eq\n      tag_4\n      jumpi\n      dup1\n      0xccb8c1e0\n      eq\n      tag_5\n      jumpi\n    tag_1:\n      0x00\n      dup1\n      revert\n        /* \"code/Airdrop.sol\":200:830  function multiTransferToken(... */\n    tag_2:\n      callvalue\n      dup1\n      iszero\n      tag_6\n      jumpi\n      0x00\n      dup1\n      revert\n    tag_6:\n      pop\n      tag_7\n      0x04\n      dup1\n      calldatasize\n      sub\n      dup2\n      add\n      swap1\n      tag_8\n      swap2\n      swap1\n      tag_9\n      jump\t// in\n    tag_8:\n      tag_10\n      jump\t// in\n    tag_7:\n      stop\n        /* \"code/Airdrop.sol\":870:1427  function multiTransferETH(... */\n    tag_3:\n      tag_11\n      0x04\n      dup1\n      calldatasize\n      sub\n      dup2\n      add\n      swap1\n      tag_12\n      swap2\n      swap1\n      tag_13\n      jump\t// in\n    tag_12:\n      tag_14\n      jump\t// in\n    tag_11:\n      stop\n        /* \"code/Airdrop.sol\":1481:1806  function withdrawFromFailList(address _to)public {... */\n    tag_4:\n      callvalue\n      dup1\n      iszero\n      tag_15\n      jumpi\n      0x00\n      dup1\n      revert\n    tag_15:\n      pop\n      tag_16\n      0x04\n      dup1\n      calldatasize\n      sub\n      dup2\n      add\n      swap1\n      tag_17\n      swap2\n      swap1\n      tag_18\n      jump\t// in\n    tag_17:\n      tag_19\n      jump\t// in\n    tag_16:\n      stop\n        /* \"code/Airdrop.sol\":1818:1997  function getSum(uint256[]calldata amounts)public pure returns (uint sum){... */\n    tag_5:\n      callvalue\n      dup1\n      iszero\n      tag_20\n      jumpi\n      0x00\n      dup1\n      revert\n    tag_20:\n      pop\n      tag_21\n      0x04\n      dup1\n      calldatasize\n      sub\n      dup2\n      add\n      swap1\n      tag_22\n      swap2\n      swap1\n      tag_23\n      jump\t// in\n    tag_22:\n      tag_24\n      jump\t// in\n    tag_21:\n      mload(0x40)\n      tag_25\n      swap2\n      swap1\n      tag_26\n      jump\t// in\n    tag_25:\n      mload(0x40)\n      dup1\n      swap2\n      sub\n      swap1\n      return\n        /* \"code/Airdrop.sol\":200:830  function multiTransferToken(... */\n    tag_10:\n        /* \"code/Airdrop.sol\":379:387  _amounts */\n      dup2\n      dup2\n        /* \"code/Airdrop.sol\":379:394  _amounts.length */\n      swap1\n      pop\n        /* \"code/Airdrop.sol\":362:370  _address */\n      dup5\n      dup5\n        /* \"code/Airdrop.sol\":362:377  _address.length */\n      swap1\n      pop\n        /* \"code/Airdrop.sol\":362:394  _address.length==_amounts.length */\n      eq\n        /* \"code/Airdrop.sol\":354:416  require(_address.length==_amounts.length,\"length not conrect\") */\n      tag_28\n      jumpi\n      mload(0x40)\n      0x08c379a000000000000000000000000000000000000000000000000000000000\n      dup2\n      mstore\n      0x04\n      add\n      tag_29\n      swap1\n      tag_30\n      jump\t// in\n    tag_29:\n      mload(0x40)\n      dup1\n      swap2\n      sub\n      swap1\n      revert\n    tag_28:\n        /* \"code/Airdrop.sol\":481:493  IERC20 token */\n      0x00\n        /* \"code/Airdrop.sol\":503:509  _token */\n      dup6\n        /* \"code/Airdrop.sol\":481:510  IERC20 token = IERC20(_token) */\n      swap1\n      pop\n        /* \"code/Airdrop.sol\":521:536  uint _amountSum */\n      0x00\n        /* \"code/Airdrop.sol\":539:555  getSum(_amounts) */\n      tag_31\n        /* \"code/Airdrop.sol\":546:554  _amounts */\n      dup5\n      dup5\n        /* \"code/Airdrop.sol\":539:545  getSum */\n      tag_24\n        /* \"code/Airdrop.sol\":539:555  getSum(_amounts) */\n      jump\t// in\n    tag_31:\n        /* \"code/Airdrop.sol\":521:555  uint _amountSum = getSum(_amounts) */\n      swap1\n      pop\n        /* \"code/Airdrop.sol\":632:642  _amountSum */\n      dup1\n        /* \"code/Airdrop.sol\":588:593  token */\n      dup3\n        /* \"code/Airdrop.sol\":588:603  token.allowance */\n      0xffffffffffffffffffffffffffffffffffffffff\n      and\n      0xdd62ed3e\n        /* \"code/Airdrop.sol\":604:614  msg.sender */\n      caller\n        /* \"code/Airdrop.sol\":624:628  this */\n      address\n        /* \"code/Airdrop.sol\":588:630  token.allowance(msg.sender, address(this)) */\n      mload(0x40)\n      dup4\n      0xffffffff\n      and\n      0xe0\n      shl\n      dup2\n      mstore\n      0x04\n      add\n      tag_32\n      swap3\n      swap2\n      swap1\n      tag_33\n      jump\t// in\n    tag_32:\n      0x20\n      mload(0x40)\n      dup1\n      dup4\n      sub\n      dup2\n      dup7\n      gas\n      staticcall\n      iszero\n      dup1\n      iszero\n      tag_35\n      jumpi\n      returndatasize\n      0x00\n      dup1\n      returndatacopy\n      revert(0x00, returndatasize)\n    tag_35:\n      pop\n      pop\n      pop\n      pop\n      mload(0x40)\n      returndatasize\n      not(0x1f)\n      0x1f\n      dup3\n      add\n      and\n      dup3\n      add\n      dup1\n      0x40\n      mstore\n      pop\n      dup2\n      add\n      swap1\n      tag_36\n      swap2\n      swap1\n      tag_37\n      jump\t// in\n    tag_36:\n        /* \"code/Airdrop.sol\":588:642  token.allowance(msg.sender, address(this))> _amountSum */\n      gt\n        /* \"code/Airdrop.sol\":566:694  require(... */\n      tag_38\n      jumpi\n      mload(0x40)\n      0x08c379a000000000000000000000000000000000000000000000000000000000\n      dup2\n      mstore\n      0x04\n      add\n      tag_39\n      swap1\n      tag_40\n      jump\t// in\n    tag_39:\n      mload(0x40)\n      dup1\n      swap2\n      sub\n      swap1\n      revert\n    tag_38:\n        /* \"code/Airdrop.sol\":709:715  uint i */\n      0x00\n        /* \"code/Airdrop.sol\":705:823  for(uint i =0;i<_address.length;i++){... */\n    tag_41:\n        /* \"code/Airdrop.sol\":721:729  _address */\n      dup7\n      dup7\n        /* \"code/Airdrop.sol\":721:736  _address.length */\n      swap1\n      pop\n        /* \"code/Airdrop.sol\":719:720  i */\n      dup2\n        /* \"code/Airdrop.sol\":719:736  i<_address.length */\n      lt\n        /* \"code/Airdrop.sol\":705:823  for(uint i =0;i<_address.length;i++){... */\n      iszero\n      tag_42\n      jumpi\n        /* \"code/Airdrop.sol\":756:761  token */\n      dup3\n        /* \"code/Airdrop.sol\":756:774  token.transferFrom */\n      0xffffffffffffffffffffffffffffffffffffffff\n      and\n      0x23b872dd\n        /* \"code/Airdrop.sol\":775:785  msg.sender */\n      caller\n        /* \"code/Airdrop.sol\":787:795  _address */\n      dup10\n      dup10\n        /* \"code/Airdrop.sol\":796:797  i */\n      dup6\n        /* \"code/Airdrop.sol\":787:798  _address[i] */\n      dup2\n      dup2\n      lt\n      tag_44\n      jumpi\n      tag_45\n      tag_46\n      jump\t// in\n    tag_45:\n    tag_44:\n      swap1\n      pop\n      0x20\n      mul\n      add\n      0x20\n      dup2\n      add\n      swap1\n      tag_47\n      swap2\n      swap1\n      tag_18\n      jump\t// in\n    tag_47:\n        /* \"code/Airdrop.sol\":799:807  _amounts */\n      dup9\n      dup9\n        /* \"code/Airdrop.sol\":808:809  i */\n      dup7\n        /* \"code/Airdrop.sol\":799:810  _amounts[i] */\n      dup2\n      dup2\n      lt\n      tag_48\n      jumpi\n      tag_49\n      tag_46\n      jump\t// in\n    tag_49:\n    tag_48:\n      swap1\n      pop\n      0x20\n      mul\n      add\n      calldataload\n        /* \"code/Airdrop.sol\":756:811  token.transferFrom(msg.sender, _address[i],_amounts[i]) */\n      mload(0x40)\n      dup5\n      0xffffffff\n      and\n      0xe0\n      shl\n      dup2\n      mstore\n      0x04\n      add\n      tag_50\n      swap4\n      swap3\n      swap2\n      swap1\n      tag_51\n      jump\t// in\n    tag_50:\n      0x20\n      mload(0x40)\n      dup1\n      dup4\n      sub\n      dup2\n      0x00\n      dup8\n      gas\n      call\n      iszero\n      dup1\n      iszero\n      tag_53\n      jumpi\n      returndatasize\n      0x00\n      dup1\n      returndatacopy\n      revert(0x00, returndatasize)\n    tag_53:\n      pop\n      pop\n      pop\n      pop\n      mload(0x40)\n      returndatasize\n      not(0x1f)\n      0x1f\n      dup3\n      add\n      and\n      dup3\n      add\n      dup1\n      0x40\n      mstore\n      pop\n      dup2\n      add\n      swap1\n      tag_54\n      swap2\n      swap1\n      tag_55\n      jump\t// in\n    tag_54:\n      pop\n        /* \"code/Airdrop.sol\":737:740  i++ */\n      dup1\n      dup1\n      tag_56\n      swap1\n      tag_57\n      jump\t// in\n    tag_56:\n      swap2\n      pop\n      pop\n        /* \"code/Airdrop.sol\":705:823  for(uint i =0;i<_address.length;i++){... */\n      jump(tag_41)\n    tag_42:\n      pop\n        /* \"code/Airdrop.sol\":343:830  {... */\n      pop\n      pop\n        /* \"code/Airdrop.sol\":200:830  function multiTransferToken(... */\n      pop\n      pop\n      pop\n      pop\n      pop\n      jump\t// out\n        /* \"code/Airdrop.sol\":870:1427  function multiTransferETH(... */\n    tag_14:\n        /* \"code/Airdrop.sol\":1036:1044  _amounts */\n      dup2\n      dup2\n        /* \"code/Airdrop.sol\":1036:1051  _amounts.length */\n      swap1\n      pop\n        /* \"code/Airdrop.sol\":1017:1025  _address */\n      dup5\n      dup5\n        /* \"code/Airdrop.sol\":1017:1032  _address.length */\n      swap1\n      pop\n        /* \"code/Airdrop.sol\":1017:1051  _address.length == _amounts.length */\n      eq\n        /* \"code/Airdrop.sol\":1009:1071  require(_address.length == _amounts.length,\"lentgh not equal\") */\n      tag_59\n      jumpi\n      mload(0x40)\n      0x08c379a000000000000000000000000000000000000000000000000000000000\n      dup2\n      mstore\n      0x04\n      add\n      tag_60\n      swap1\n      tag_61\n      jump\t// in\n    tag_60:\n      mload(0x40)\n      dup1\n      swap2\n      sub\n      swap1\n      revert\n    tag_59:\n        /* \"code/Airdrop.sol\":1082:1098  uint _amountsSum */\n      0x00\n        /* \"code/Airdrop.sol\":1101:1117  getSum(_amounts) */\n      tag_62\n        /* \"code/Airdrop.sol\":1108:1116  _amounts */\n      dup4\n      dup4\n        /* \"code/Airdrop.sol\":1101:1107  getSum */\n      tag_24\n        /* \"code/Airdrop.sol\":1101:1117  getSum(_amounts) */\n      jump\t// in\n    tag_62:\n        /* \"code/Airdrop.sol\":1082:1117  uint _amountsSum = getSum(_amounts) */\n      swap1\n      pop\n        /* \"code/Airdrop.sol\":1149:1160  _amountsSum */\n      dup1\n        /* \"code/Airdrop.sol\":1136:1145  msg.value */\n      callvalue\n        /* \"code/Airdrop.sol\":1136:1160  msg.value == _amountsSum */\n      eq\n        /* \"code/Airdrop.sol\":1128:1185  require(msg.value == _amountsSum,\"transfer amount error\") */\n      tag_63\n      jumpi\n      mload(0x40)\n      0x08c379a000000000000000000000000000000000000000000000000000000000\n      dup2\n      mstore\n      0x04\n      add\n      tag_64\n      swap1\n      tag_65\n      jump\t// in\n    tag_64:\n      mload(0x40)\n      dup1\n      swap2\n      sub\n      swap1\n      revert\n    tag_63:\n        /* \"code/Airdrop.sol\":1200:1206  uint i */\n      0x00\n        /* \"code/Airdrop.sol\":1196:1420  for(uint i =0;i<_address.length;i++){... */\n    tag_66:\n        /* \"code/Airdrop.sol\":1212:1220  _address */\n      dup6\n      dup6\n        /* \"code/Airdrop.sol\":1212:1227  _address.length */\n      swap1\n      pop\n        /* \"code/Airdrop.sol\":1210:1211  i */\n      dup2\n        /* \"code/Airdrop.sol\":1210:1227  i<_address.length */\n      lt\n        /* \"code/Airdrop.sol\":1196:1420  for(uint i =0;i<_address.length;i++){... */\n      iszero\n      tag_67\n      jumpi\n        /* \"code/Airdrop.sol\":1248:1260  bool success */\n      0x00\n        /* \"code/Airdrop.sol\":1265:1273  _address */\n      dup7\n      dup7\n        /* \"code/Airdrop.sol\":1274:1275  i */\n      dup4\n        /* \"code/Airdrop.sol\":1265:1276  _address[i] */\n      dup2\n      dup2\n      lt\n      tag_69\n      jumpi\n      tag_70\n      tag_46\n      jump\t// in\n    tag_70:\n    tag_69:\n      swap1\n      pop\n      0x20\n      mul\n      add\n      0x20\n      dup2\n      add\n      swap1\n      tag_71\n      swap2\n      swap1\n      tag_72\n      jump\t// in\n    tag_71:\n        /* \"code/Airdrop.sol\":1265:1281  _address[i].call */\n      0xffffffffffffffffffffffffffffffffffffffff\n      and\n        /* \"code/Airdrop.sol\":1288:1296  _amounts */\n      dup6\n      dup6\n        /* \"code/Airdrop.sol\":1297:1298  i */\n      dup5\n        /* \"code/Airdrop.sol\":1288:1299  _amounts[i] */\n      dup2\n      dup2\n      lt\n      tag_73\n      jumpi\n      tag_74\n      tag_46\n      jump\t// in\n    tag_74:\n    tag_73:\n      swap1\n      pop\n      0x20\n      mul\n      add\n      calldataload\n        /* \"code/Airdrop.sol\":1265:1304  _address[i].call{value:_amounts[i]}(\"\") */\n      mload(0x40)\n      tag_75\n      swap1\n      tag_76\n      jump\t// in\n    tag_75:\n      0x00\n      mload(0x40)\n      dup1\n      dup4\n      sub\n      dup2\n      dup6\n      dup8\n      gas\n      call\n      swap3\n      pop\n      pop\n      pop\n      returndatasize\n      dup1\n      0x00\n      dup2\n      eq\n      tag_79\n      jumpi\n      mload(0x40)\n      swap2\n      pop\n      and(add(returndatasize, 0x3f), not(0x1f))\n      dup3\n      add\n      0x40\n      mstore\n      returndatasize\n      dup3\n      mstore\n      returndatasize\n      0x00\n      0x20\n      dup5\n      add\n      returndatacopy\n      jump(tag_78)\n    tag_79:\n      0x60\n      swap2\n      pop\n    tag_78:\n      pop\n        /* \"code/Airdrop.sol\":1247:1304  (bool success,) = _address[i].call{value:_amounts[i]}(\"\") */\n      pop\n      swap1\n      pop\n        /* \"code/Airdrop.sol\":1323:1330  success */\n      dup1\n        /* \"code/Airdrop.sol\":1319:1409  if(!success){... */\n      tag_80\n      jumpi\n        /* \"code/Airdrop.sol\":1382:1390  _amounts */\n      dup5\n      dup5\n        /* \"code/Airdrop.sol\":1391:1392  i */\n      dup4\n        /* \"code/Airdrop.sol\":1382:1393  _amounts[i] */\n      dup2\n      dup2\n      lt\n      tag_81\n      jumpi\n      tag_82\n      tag_46\n      jump\t// in\n    tag_82:\n    tag_81:\n      swap1\n      pop\n      0x20\n      mul\n      add\n      calldataload\n        /* \"code/Airdrop.sol\":1350:1366  failTransferList */\n      0x00\n        /* \"code/Airdrop.sol\":1350:1379  failTransferList[_address[i]] */\n      dup1\n        /* \"code/Airdrop.sol\":1367:1375  _address */\n      dup10\n      dup10\n        /* \"code/Airdrop.sol\":1376:1377  i */\n      dup7\n        /* \"code/Airdrop.sol\":1367:1378  _address[i] */\n      dup2\n      dup2\n      lt\n      tag_83\n      jumpi\n      tag_84\n      tag_46\n      jump\t// in\n    tag_84:\n    tag_83:\n      swap1\n      pop\n      0x20\n      mul\n      add\n      0x20\n      dup2\n      add\n      swap1\n      tag_85\n      swap2\n      swap1\n      tag_72\n      jump\t// in\n    tag_85:\n        /* \"code/Airdrop.sol\":1350:1379  failTransferList[_address[i]] */\n      0xffffffffffffffffffffffffffffffffffffffff\n      and\n      0xffffffffffffffffffffffffffffffffffffffff\n      and\n      dup2\n      mstore\n      0x20\n      add\n      swap1\n      dup2\n      mstore\n      0x20\n      add\n      0x00\n      keccak256\n        /* \"code/Airdrop.sol\":1350:1393  failTransferList[_address[i]] = _amounts[i] */\n      dup2\n      swap1\n      sstore\n      pop\n        /* \"code/Airdrop.sol\":1319:1409  if(!success){... */\n    tag_80:\n        /* \"code/Airdrop.sol\":1232:1420  {... */\n      pop\n        /* \"code/Airdrop.sol\":1228:1231  i++ */\n      dup1\n      dup1\n      tag_86\n      swap1\n      tag_57\n      jump\t// in\n    tag_86:\n      swap2\n      pop\n      pop\n        /* \"code/Airdrop.sol\":1196:1420  for(uint i =0;i<_address.length;i++){... */\n      jump(tag_66)\n    tag_67:\n      pop\n        /* \"code/Airdrop.sol\":998:1427  {... */\n      pop\n        /* \"code/Airdrop.sol\":870:1427  function multiTransferETH(... */\n      pop\n      pop\n      pop\n      pop\n      jump\t// out\n        /* \"code/Airdrop.sol\":1481:1806  function withdrawFromFailList(address _to)public {... */\n    tag_19:\n        /* \"code/Airdrop.sol\":1541:1556  uint failAmount */\n      0x00\n        /* \"code/Airdrop.sol\":1559:1575  failTransferList */\n      dup1\n        /* \"code/Airdrop.sol\":1559:1587  failTransferList[msg.sender] */\n      0x00\n        /* \"code/Airdrop.sol\":1576:1586  msg.sender */\n      caller\n        /* \"code/Airdrop.sol\":1559:1587  failTransferList[msg.sender] */\n      0xffffffffffffffffffffffffffffffffffffffff\n      and\n      0xffffffffffffffffffffffffffffffffffffffff\n      and\n      dup2\n      mstore\n      0x20\n      add\n      swap1\n      dup2\n      mstore\n      0x20\n      add\n      0x00\n      keccak256\n      sload\n        /* \"code/Airdrop.sol\":1541:1587  uint failAmount = failTransferList[msg.sender] */\n      swap1\n      pop\n        /* \"code/Airdrop.sol\":1619:1620  0 */\n      0x00\n        /* \"code/Airdrop.sol\":1606:1616  failAmount */\n      dup2\n        /* \"code/Airdrop.sol\":1606:1620  failAmount > 0 */\n      gt\n        /* \"code/Airdrop.sol\":1598:1650  require(failAmount > 0,\"you are not in failed list\") */\n      tag_88\n      jumpi\n      mload(0x40)\n      0x08c379a000000000000000000000000000000000000000000000000000000000\n      dup2\n      mstore\n      0x04\n      add\n      tag_89\n      swap1\n      tag_90\n      jump\t// in\n    tag_89:\n      mload(0x40)\n      dup1\n      swap2\n      sub\n      swap1\n      revert\n    tag_88:\n        /* \"code/Airdrop.sol\":1690:1691  0 */\n      0x00\n        /* \"code/Airdrop.sol\":1661:1677  failTransferList */\n      dup1\n        /* \"code/Airdrop.sol\":1661:1689  failTransferList[msg.sender] */\n      0x00\n        /* \"code/Airdrop.sol\":1678:1688  msg.sender */\n      caller\n        /* \"code/Airdrop.sol\":1661:1689  failTransferList[msg.sender] */\n      0xffffffffffffffffffffffffffffffffffffffff\n      and\n      0xffffffffffffffffffffffffffffffffffffffff\n      and\n      dup2\n      mstore\n      0x20\n      add\n      swap1\n      dup2\n      mstore\n      0x20\n      add\n      0x00\n      keccak256\n        /* \"code/Airdrop.sol\":1661:1691  failTransferList[msg.sender]=0 */\n      dup2\n      swap1\n      sstore\n      pop\n        /* \"code/Airdrop.sol\":1703:1715  bool success */\n      0x00\n        /* \"code/Airdrop.sol\":1722:1725  _to */\n      dup3\n        /* \"code/Airdrop.sol\":1722:1730  _to.call */\n      0xffffffffffffffffffffffffffffffffffffffff\n      and\n        /* \"code/Airdrop.sol\":1737:1747  failAmount */\n      dup3\n        /* \"code/Airdrop.sol\":1722:1752  _to.call{value:failAmount}(\"\") */\n      mload(0x40)\n      tag_91\n      swap1\n      tag_76\n      jump\t// in\n    tag_91:\n      0x00\n      mload(0x40)\n      dup1\n      dup4\n      sub\n      dup2\n      dup6\n      dup8\n      gas\n      call\n      swap3\n      pop\n      pop\n      pop\n      returndatasize\n      dup1\n      0x00\n      dup2\n      eq\n      tag_94\n      jumpi\n      mload(0x40)\n      swap2\n      pop\n      and(add(returndatasize, 0x3f), not(0x1f))\n      dup3\n      add\n      0x40\n      mstore\n      returndatasize\n      dup3\n      mstore\n      returndatasize\n      0x00\n      0x20\n      dup5\n      add\n      returndatacopy\n      jump(tag_93)\n    tag_94:\n      0x60\n      swap2\n      pop\n    tag_93:\n      pop\n        /* \"code/Airdrop.sol\":1702:1752  (bool success , ) = _to.call{value:failAmount}(\"\") */\n      pop\n      swap1\n      pop\n        /* \"code/Airdrop.sol\":1772:1779  success */\n      dup1\n        /* \"code/Airdrop.sol\":1771:1779  !success */\n      iszero\n        /* \"code/Airdrop.sol\":1763:1798  require(!success,\"call eth failed\") */\n      tag_95\n      jumpi\n      mload(0x40)\n      0x08c379a000000000000000000000000000000000000000000000000000000000\n      dup2\n      mstore\n      0x04\n      add\n      tag_96\n      swap1\n      tag_97\n      jump\t// in\n    tag_96:\n      mload(0x40)\n      dup1\n      swap2\n      sub\n      swap1\n      revert\n    tag_95:\n        /* \"code/Airdrop.sol\":1530:1806  {... */\n      pop\n      pop\n        /* \"code/Airdrop.sol\":1481:1806  function withdrawFromFailList(address _to)public {... */\n      pop\n      jump\t// out\n        /* \"code/Airdrop.sol\":1818:1997  function getSum(uint256[]calldata amounts)public pure returns (uint sum){... */\n    tag_24:\n        /* \"code/Airdrop.sol\":1881:1889  uint sum */\n      0x00\n        /* \"code/Airdrop.sol\":1909:1915  uint i */\n      dup1\n        /* \"code/Airdrop.sol\":1916:1917  0 */\n      0x00\n        /* \"code/Airdrop.sol\":1909:1917  uint i=0 */\n      swap1\n      pop\n        /* \"code/Airdrop.sol\":1905:1990  for(uint i=0;i<amounts.length;i++){... */\n    tag_99:\n        /* \"code/Airdrop.sol\":1920:1927  amounts */\n      dup4\n      dup4\n        /* \"code/Airdrop.sol\":1920:1934  amounts.length */\n      swap1\n      pop\n        /* \"code/Airdrop.sol\":1918:1919  i */\n      dup2\n        /* \"code/Airdrop.sol\":1918:1934  i<amounts.length */\n      lt\n        /* \"code/Airdrop.sol\":1905:1990  for(uint i=0;i<amounts.length;i++){... */\n      iszero\n      tag_100\n      jumpi\n        /* \"code/Airdrop.sol\":1964:1971  amounts */\n      dup4\n      dup4\n        /* \"code/Airdrop.sol\":1972:1973  i */\n      dup3\n        /* \"code/Airdrop.sol\":1964:1974  amounts[i] */\n      dup2\n      dup2\n      lt\n      tag_102\n      jumpi\n      tag_103\n      tag_46\n      jump\t// in\n    tag_103:\n    tag_102:\n      swap1\n      pop\n      0x20\n      mul\n      add\n      calldataload\n        /* \"code/Airdrop.sol\":1958:1974  sum +=amounts[i] */\n      dup3\n      tag_104\n      swap2\n      swap1\n      tag_105\n      jump\t// in\n    tag_104:\n      swap2\n      pop\n        /* \"code/Airdrop.sol\":1935:1938  i++ */\n      dup1\n      dup1\n      tag_106\n      swap1\n      tag_57\n      jump\t// in\n    tag_106:\n      swap2\n      pop\n      pop\n        /* \"code/Airdrop.sol\":1905:1990  for(uint i=0;i<amounts.length;i++){... */\n      jump(tag_99)\n    tag_100:\n      pop\n        /* \"code/Airdrop.sol\":1818:1997  function getSum(uint256[]calldata amounts)public pure returns (uint sum){... */\n      swap3\n      swap2\n      pop\n      pop\n      jump\t// out\n        /* \"#utility.yul\":88:205   */\n    tag_108:\n        /* \"#utility.yul\":197:198   */\n      0x00\n        /* \"#utility.yul\":194:195   */\n      dup1\n        /* \"#utility.yul\":187:199   */\n      revert\n        /* \"#utility.yul\":211:328   */\n    tag_109:\n        /* \"#utility.yul\":320:321   */\n      0x00\n        /* \"#utility.yul\":317:318   */\n      dup1\n        /* \"#utility.yul\":310:322   */\n      revert\n        /* \"#utility.yul\":334:460   */\n    tag_110:\n        /* \"#utility.yul\":371:378   */\n      0x00\n        /* \"#utility.yul\":411:453   */\n      0xffffffffffffffffffffffffffffffffffffffff\n        /* \"#utility.yul\":404:409   */\n      dup3\n        /* \"#utility.yul\":400:454   */\n      and\n        /* \"#utility.yul\":389:454   */\n      swap1\n      pop\n        /* \"#utility.yul\":334:460   */\n      swap2\n      swap1\n      pop\n      jump\t// out\n        /* \"#utility.yul\":466:562   */\n    tag_111:\n        /* \"#utility.yul\":503:510   */\n      0x00\n        /* \"#utility.yul\":532:556   */\n      tag_154\n        /* \"#utility.yul\":550:555   */\n      dup3\n        /* \"#utility.yul\":532:556   */\n      tag_110\n      jump\t// in\n    tag_154:\n        /* \"#utility.yul\":521:556   */\n      swap1\n      pop\n        /* \"#utility.yul\":466:562   */\n      swap2\n      swap1\n      pop\n      jump\t// out\n        /* \"#utility.yul\":568:690   */\n    tag_112:\n        /* \"#utility.yul\":641:665   */\n      tag_156\n        /* \"#utility.yul\":659:664   */\n      dup2\n        /* \"#utility.yul\":641:665   */\n      tag_111\n      jump\t// in\n    tag_156:\n        /* \"#utility.yul\":634:639   */\n      dup2\n        /* \"#utility.yul\":631:666   */\n      eq\n        /* \"#utility.yul\":621:684   */\n      tag_157\n      jumpi\n        /* \"#utility.yul\":680:681   */\n      0x00\n        /* \"#utility.yul\":677:678   */\n      dup1\n        /* \"#utility.yul\":670:682   */\n      revert\n        /* \"#utility.yul\":621:684   */\n    tag_157:\n        /* \"#utility.yul\":568:690   */\n      pop\n      jump\t// out\n        /* \"#utility.yul\":696:835   */\n    tag_113:\n        /* \"#utility.yul\":742:747   */\n      0x00\n        /* \"#utility.yul\":780:786   */\n      dup2\n        /* \"#utility.yul\":767:787   */\n      calldataload\n        /* \"#utility.yul\":758:787   */\n      swap1\n      pop\n        /* \"#utility.yul\":796:829   */\n      tag_159\n        /* \"#utility.yul\":823:828   */\n      dup2\n        /* \"#utility.yul\":796:829   */\n      tag_112\n      jump\t// in\n    tag_159:\n        /* \"#utility.yul\":696:835   */\n      swap3\n      swap2\n      pop\n      pop\n      jump\t// out\n        /* \"#utility.yul\":841:958   */\n    tag_114:\n        /* \"#utility.yul\":950:951   */\n      0x00\n        /* \"#utility.yul\":947:948   */\n      dup1\n        /* \"#utility.yul\":940:952   */\n      revert\n        /* \"#utility.yul\":964:1081   */\n    tag_115:\n        /* \"#utility.yul\":1073:1074   */\n      0x00\n        /* \"#utility.yul\":1070:1071   */\n      dup1\n        /* \"#utility.yul\":1063:1075   */\n      revert\n        /* \"#utility.yul\":1087:1204   */\n    tag_116:\n        /* \"#utility.yul\":1196:1197   */\n      0x00\n        /* \"#utility.yul\":1193:1194   */\n      dup1\n        /* \"#utility.yul\":1186:1198   */\n      revert\n        /* \"#utility.yul\":1227:1795   */\n    tag_117:\n        /* \"#utility.yul\":1300:1308   */\n      0x00\n        /* \"#utility.yul\":1310:1316   */\n      dup1\n        /* \"#utility.yul\":1360:1363   */\n      dup4\n        /* \"#utility.yul\":1353:1357   */\n      0x1f\n        /* \"#utility.yul\":1345:1351   */\n      dup5\n        /* \"#utility.yul\":1341:1358   */\n      add\n        /* \"#utility.yul\":1337:1364   */\n      slt\n        /* \"#utility.yul\":1327:1449   */\n      tag_164\n      jumpi\n        /* \"#utility.yul\":1368:1447   */\n      tag_165\n      tag_114\n      jump\t// in\n    tag_165:\n        /* \"#utility.yul\":1327:1449   */\n    tag_164:\n        /* \"#utility.yul\":1481:1487   */\n      dup3\n        /* \"#utility.yul\":1468:1488   */\n      calldataload\n        /* \"#utility.yul\":1458:1488   */\n      swap1\n      pop\n        /* \"#utility.yul\":1511:1529   */\n      0xffffffffffffffff\n        /* \"#utility.yul\":1503:1509   */\n      dup2\n        /* \"#utility.yul\":1500:1530   */\n      gt\n        /* \"#utility.yul\":1497:1614   */\n      iszero\n      tag_166\n      jumpi\n        /* \"#utility.yul\":1533:1612   */\n      tag_167\n      tag_115\n      jump\t// in\n    tag_167:\n        /* \"#utility.yul\":1497:1614   */\n    tag_166:\n        /* \"#utility.yul\":1647:1651   */\n      0x20\n        /* \"#utility.yul\":1639:1645   */\n      dup4\n        /* \"#utility.yul\":1635:1652   */\n      add\n        /* \"#utility.yul\":1623:1652   */\n      swap2\n      pop\n        /* \"#utility.yul\":1701:1704   */\n      dup4\n        /* \"#utility.yul\":1693:1697   */\n      0x20\n        /* \"#utility.yul\":1685:1691   */\n      dup3\n        /* \"#utility.yul\":1681:1698   */\n      mul\n        /* \"#utility.yul\":1671:1679   */\n      dup4\n        /* \"#utility.yul\":1667:1699   */\n      add\n        /* \"#utility.yul\":1664:1705   */\n      gt\n        /* \"#utility.yul\":1661:1789   */\n      iszero\n      tag_168\n      jumpi\n        /* \"#utility.yul\":1708:1787   */\n      tag_169\n      tag_116\n      jump\t// in\n    tag_169:\n        /* \"#utility.yul\":1661:1789   */\n    tag_168:\n        /* \"#utility.yul\":1227:1795   */\n      swap3\n      pop\n      swap3\n      swap1\n      pop\n      jump\t// out\n        /* \"#utility.yul\":1818:2386   */\n    tag_118:\n        /* \"#utility.yul\":1891:1899   */\n      0x00\n        /* \"#utility.yul\":1901:1907   */\n      dup1\n        /* \"#utility.yul\":1951:1954   */\n      dup4\n        /* \"#utility.yul\":1944:1948   */\n      0x1f\n        /* \"#utility.yul\":1936:1942   */\n      dup5\n        /* \"#utility.yul\":1932:1949   */\n      add\n        /* \"#utility.yul\":1928:1955   */\n      slt\n        /* \"#utility.yul\":1918:2040   */\n      tag_171\n      jumpi\n        /* \"#utility.yul\":1959:2038   */\n      tag_172\n      tag_114\n      jump\t// in\n    tag_172:\n        /* \"#utility.yul\":1918:2040   */\n    tag_171:\n        /* \"#utility.yul\":2072:2078   */\n      dup3\n        /* \"#utility.yul\":2059:2079   */\n      calldataload\n        /* \"#utility.yul\":2049:2079   */\n      swap1\n      pop\n        /* \"#utility.yul\":2102:2120   */\n      0xffffffffffffffff\n        /* \"#utility.yul\":2094:2100   */\n      dup2\n        /* \"#utility.yul\":2091:2121   */\n      gt\n        /* \"#utility.yul\":2088:2205   */\n      iszero\n      tag_173\n      jumpi\n        /* \"#utility.yul\":2124:2203   */\n      tag_174\n      tag_115\n      jump\t// in\n    tag_174:\n        /* \"#utility.yul\":2088:2205   */\n    tag_173:\n        /* \"#utility.yul\":2238:2242   */\n      0x20\n        /* \"#utility.yul\":2230:2236   */\n      dup4\n        /* \"#utility.yul\":2226:2243   */\n      add\n        /* \"#utility.yul\":2214:2243   */\n      swap2\n      pop\n        /* \"#utility.yul\":2292:2295   */\n      dup4\n        /* \"#utility.yul\":2284:2288   */\n      0x20\n        /* \"#utility.yul\":2276:2282   */\n      dup3\n        /* \"#utility.yul\":2272:2289   */\n      mul\n        /* \"#utility.yul\":2262:2270   */\n      dup4\n        /* \"#utility.yul\":2258:2290   */\n      add\n        /* \"#utility.yul\":2255:2296   */\n      gt\n        /* \"#utility.yul\":2252:2380   */\n      iszero\n      tag_175\n      jumpi\n        /* \"#utility.yul\":2299:2378   */\n      tag_176\n      tag_116\n      jump\t// in\n    tag_176:\n        /* \"#utility.yul\":2252:2380   */\n    tag_175:\n        /* \"#utility.yul\":1818:2386   */\n      swap3\n      pop\n      swap3\n      swap1\n      pop\n      jump\t// out\n        /* \"#utility.yul\":2392:3471   */\n    tag_9:\n        /* \"#utility.yul\":2523:2529   */\n      0x00\n        /* \"#utility.yul\":2531:2537   */\n      dup1\n        /* \"#utility.yul\":2539:2545   */\n      0x00\n        /* \"#utility.yul\":2547:2553   */\n      dup1\n        /* \"#utility.yul\":2555:2561   */\n      0x00\n        /* \"#utility.yul\":2604:2606   */\n      0x60\n        /* \"#utility.yul\":2592:2601   */\n      dup7\n        /* \"#utility.yul\":2583:2590   */\n      dup9\n        /* \"#utility.yul\":2579:2602   */\n      sub\n        /* \"#utility.yul\":2575:2607   */\n      slt\n        /* \"#utility.yul\":2572:2691   */\n      iszero\n      tag_178\n      jumpi\n        /* \"#utility.yul\":2610:2689   */\n      tag_179\n      tag_108\n      jump\t// in\n    tag_179:\n        /* \"#utility.yul\":2572:2691   */\n    tag_178:\n        /* \"#utility.yul\":2730:2731   */\n      0x00\n        /* \"#utility.yul\":2755:2808   */\n      tag_180\n        /* \"#utility.yul\":2800:2807   */\n      dup9\n        /* \"#utility.yul\":2791:2797   */\n      dup3\n        /* \"#utility.yul\":2780:2789   */\n      dup10\n        /* \"#utility.yul\":2776:2798   */\n      add\n        /* \"#utility.yul\":2755:2808   */\n      tag_113\n      jump\t// in\n    tag_180:\n        /* \"#utility.yul\":2745:2808   */\n      swap6\n      pop\n        /* \"#utility.yul\":2701:2818   */\n      pop\n        /* \"#utility.yul\":2885:2887   */\n      0x20\n        /* \"#utility.yul\":2874:2883   */\n      dup7\n        /* \"#utility.yul\":2870:2888   */\n      add\n        /* \"#utility.yul\":2857:2889   */\n      calldataload\n        /* \"#utility.yul\":2916:2934   */\n      0xffffffffffffffff\n        /* \"#utility.yul\":2908:2914   */\n      dup2\n        /* \"#utility.yul\":2905:2935   */\n      gt\n        /* \"#utility.yul\":2902:3019   */\n      iszero\n      tag_181\n      jumpi\n        /* \"#utility.yul\":2938:3017   */\n      tag_182\n      tag_109\n      jump\t// in\n    tag_182:\n        /* \"#utility.yul\":2902:3019   */\n    tag_181:\n        /* \"#utility.yul\":3051:3131   */\n      tag_183\n        /* \"#utility.yul\":3123:3130   */\n      dup9\n        /* \"#utility.yul\":3114:3120   */\n      dup3\n        /* \"#utility.yul\":3103:3112   */\n      dup10\n        /* \"#utility.yul\":3099:3121   */\n      add\n        /* \"#utility.yul\":3051:3131   */\n      tag_117\n      jump\t// in\n    tag_183:\n        /* \"#utility.yul\":3033:3131   */\n      swap5\n      pop\n      swap5\n      pop\n        /* \"#utility.yul\":2828:3141   */\n      pop\n        /* \"#utility.yul\":3208:3210   */\n      0x40\n        /* \"#utility.yul\":3197:3206   */\n      dup7\n        /* \"#utility.yul\":3193:3211   */\n      add\n        /* \"#utility.yul\":3180:3212   */\n      calldataload\n        /* \"#utility.yul\":3239:3257   */\n      0xffffffffffffffff\n        /* \"#utility.yul\":3231:3237   */\n      dup2\n        /* \"#utility.yul\":3228:3258   */\n      gt\n        /* \"#utility.yul\":3225:3342   */\n      iszero\n      tag_184\n      jumpi\n        /* \"#utility.yul\":3261:3340   */\n      tag_185\n      tag_109\n      jump\t// in\n    tag_185:\n        /* \"#utility.yul\":3225:3342   */\n    tag_184:\n        /* \"#utility.yul\":3374:3454   */\n      tag_186\n        /* \"#utility.yul\":3446:3453   */\n      dup9\n        /* \"#utility.yul\":3437:3443   */\n      dup3\n        /* \"#utility.yul\":3426:3435   */\n      dup10\n        /* \"#utility.yul\":3422:3444   */\n      add\n        /* \"#utility.yul\":3374:3454   */\n      tag_118\n      jump\t// in\n    tag_186:\n        /* \"#utility.yul\":3356:3454   */\n      swap3\n      pop\n      swap3\n      pop\n        /* \"#utility.yul\":3151:3464   */\n      pop\n        /* \"#utility.yul\":2392:3471   */\n      swap3\n      swap6\n      pop\n      swap3\n      swap6\n      swap1\n      swap4\n      pop\n      jump\t// out\n        /* \"#utility.yul\":3502:4078   */\n    tag_119:\n        /* \"#utility.yul\":3583:3591   */\n      0x00\n        /* \"#utility.yul\":3593:3599   */\n      dup1\n        /* \"#utility.yul\":3643:3646   */\n      dup4\n        /* \"#utility.yul\":3636:3640   */\n      0x1f\n        /* \"#utility.yul\":3628:3634   */\n      dup5\n        /* \"#utility.yul\":3624:3641   */\n      add\n        /* \"#utility.yul\":3620:3647   */\n      slt\n        /* \"#utility.yul\":3610:3732   */\n      tag_188\n      jumpi\n        /* \"#utility.yul\":3651:3730   */\n      tag_189\n      tag_114\n      jump\t// in\n    tag_189:\n        /* \"#utility.yul\":3610:3732   */\n    tag_188:\n        /* \"#utility.yul\":3764:3770   */\n      dup3\n        /* \"#utility.yul\":3751:3771   */\n      calldataload\n        /* \"#utility.yul\":3741:3771   */\n      swap1\n      pop\n        /* \"#utility.yul\":3794:3812   */\n      0xffffffffffffffff\n        /* \"#utility.yul\":3786:3792   */\n      dup2\n        /* \"#utility.yul\":3783:3813   */\n      gt\n        /* \"#utility.yul\":3780:3897   */\n      iszero\n      tag_190\n      jumpi\n        /* \"#utility.yul\":3816:3895   */\n      tag_191\n      tag_115\n      jump\t// in\n    tag_191:\n        /* \"#utility.yul\":3780:3897   */\n    tag_190:\n        /* \"#utility.yul\":3930:3934   */\n      0x20\n        /* \"#utility.yul\":3922:3928   */\n      dup4\n        /* \"#utility.yul\":3918:3935   */\n      add\n        /* \"#utility.yul\":3906:3935   */\n      swap2\n      pop\n        /* \"#utility.yul\":3984:3987   */\n      dup4\n        /* \"#utility.yul\":3976:3980   */\n      0x20\n        /* \"#utility.yul\":3968:3974   */\n      dup3\n        /* \"#utility.yul\":3964:3981   */\n      mul\n        /* \"#utility.yul\":3954:3962   */\n      dup4\n        /* \"#utility.yul\":3950:3982   */\n      add\n        /* \"#utility.yul\":3947:3988   */\n      gt\n        /* \"#utility.yul\":3944:4072   */\n      iszero\n      tag_192\n      jumpi\n        /* \"#utility.yul\":3991:4070   */\n      tag_193\n      tag_116\n      jump\t// in\n    tag_193:\n        /* \"#utility.yul\":3944:4072   */\n    tag_192:\n        /* \"#utility.yul\":3502:4078   */\n      swap3\n      pop\n      swap3\n      swap1\n      pop\n      jump\t// out\n        /* \"#utility.yul\":4084:5034   */\n    tag_13:\n        /* \"#utility.yul\":4214:4220   */\n      0x00\n        /* \"#utility.yul\":4222:4228   */\n      dup1\n        /* \"#utility.yul\":4230:4236   */\n      0x00\n        /* \"#utility.yul\":4238:4244   */\n      dup1\n        /* \"#utility.yul\":4287:4289   */\n      0x40\n        /* \"#utility.yul\":4275:4284   */\n      dup6\n        /* \"#utility.yul\":4266:4273   */\n      dup8\n        /* \"#utility.yul\":4262:4285   */\n      sub\n        /* \"#utility.yul\":4258:4290   */\n      slt\n        /* \"#utility.yul\":4255:4374   */\n      iszero\n      tag_195\n      jumpi\n        /* \"#utility.yul\":4293:4372   */\n      tag_196\n      tag_108\n      jump\t// in\n    tag_196:\n        /* \"#utility.yul\":4255:4374   */\n    tag_195:\n        /* \"#utility.yul\":4441:4442   */\n      0x00\n        /* \"#utility.yul\":4430:4439   */\n      dup6\n        /* \"#utility.yul\":4426:4443   */\n      add\n        /* \"#utility.yul\":4413:4444   */\n      calldataload\n        /* \"#utility.yul\":4471:4489   */\n      0xffffffffffffffff\n        /* \"#utility.yul\":4463:4469   */\n      dup2\n        /* \"#utility.yul\":4460:4490   */\n      gt\n        /* \"#utility.yul\":4457:4574   */\n      iszero\n      tag_197\n      jumpi\n        /* \"#utility.yul\":4493:4572   */\n      tag_198\n      tag_109\n      jump\t// in\n    tag_198:\n        /* \"#utility.yul\":4457:4574   */\n    tag_197:\n        /* \"#utility.yul\":4606:4694   */\n      tag_199\n        /* \"#utility.yul\":4686:4693   */\n      dup8\n        /* \"#utility.yul\":4677:4683   */\n      dup3\n        /* \"#utility.yul\":4666:4675   */\n      dup9\n        /* \"#utility.yul\":4662:4684   */\n      add\n        /* \"#utility.yul\":4606:4694   */\n      tag_119\n      jump\t// in\n    tag_199:\n        /* \"#utility.yul\":4588:4694   */\n      swap5\n      pop\n      swap5\n      pop\n        /* \"#utility.yul\":4384:4704   */\n      pop\n        /* \"#utility.yul\":4771:4773   */\n      0x20\n        /* \"#utility.yul\":4760:4769   */\n      dup6\n        /* \"#utility.yul\":4756:4774   */\n      add\n        /* \"#utility.yul\":4743:4775   */\n      calldataload\n        /* \"#utility.yul\":4802:4820   */\n      0xffffffffffffffff\n        /* \"#utility.yul\":4794:4800   */\n      dup2\n        /* \"#utility.yul\":4791:4821   */\n      gt\n        /* \"#utility.yul\":4788:4905   */\n      iszero\n      tag_200\n      jumpi\n        /* \"#utility.yul\":4824:4903   */\n      tag_201\n      tag_109\n      jump\t// in\n    tag_201:\n        /* \"#utility.yul\":4788:4905   */\n    tag_200:\n        /* \"#utility.yul\":4937:5017   */\n      tag_202\n        /* \"#utility.yul\":5009:5016   */\n      dup8\n        /* \"#utility.yul\":5000:5006   */\n      dup3\n        /* \"#utility.yul\":4989:4998   */\n      dup9\n        /* \"#utility.yul\":4985:5007   */\n      add\n        /* \"#utility.yul\":4937:5017   */\n      tag_118\n      jump\t// in\n    tag_202:\n        /* \"#utility.yul\":4919:5017   */\n      swap3\n      pop\n      swap3\n      pop\n        /* \"#utility.yul\":4714:5027   */\n      pop\n        /* \"#utility.yul\":4084:5034   */\n      swap3\n      swap6\n      swap2\n      swap5\n      pop\n      swap3\n      pop\n      jump\t// out\n        /* \"#utility.yul\":5040:5369   */\n    tag_18:\n        /* \"#utility.yul\":5099:5105   */\n      0x00\n        /* \"#utility.yul\":5148:5150   */\n      0x20\n        /* \"#utility.yul\":5136:5145   */\n      dup3\n        /* \"#utility.yul\":5127:5134   */\n      dup5\n        /* \"#utility.yul\":5123:5146   */\n      sub\n        /* \"#utility.yul\":5119:5151   */\n      slt\n        /* \"#utility.yul\":5116:5235   */\n      iszero\n      tag_204\n      jumpi\n        /* \"#utility.yul\":5154:5233   */\n      tag_205\n      tag_108\n      jump\t// in\n    tag_205:\n        /* \"#utility.yul\":5116:5235   */\n    tag_204:\n        /* \"#utility.yul\":5274:5275   */\n      0x00\n        /* \"#utility.yul\":5299:5352   */\n      tag_206\n        /* \"#utility.yul\":5344:5351   */\n      dup5\n        /* \"#utility.yul\":5335:5341   */\n      dup3\n        /* \"#utility.yul\":5324:5333   */\n      dup6\n        /* \"#utility.yul\":5320:5342   */\n      add\n        /* \"#utility.yul\":5299:5352   */\n      tag_113\n      jump\t// in\n    tag_206:\n        /* \"#utility.yul\":5289:5352   */\n      swap2\n      pop\n        /* \"#utility.yul\":5245:5362   */\n      pop\n        /* \"#utility.yul\":5040:5369   */\n      swap3\n      swap2\n      pop\n      pop\n      jump\t// out\n        /* \"#utility.yul\":5375:5934   */\n    tag_23:\n        /* \"#utility.yul\":5461:5467   */\n      0x00\n        /* \"#utility.yul\":5469:5475   */\n      dup1\n        /* \"#utility.yul\":5518:5520   */\n      0x20\n        /* \"#utility.yul\":5506:5515   */\n      dup4\n        /* \"#utility.yul\":5497:5504   */\n      dup6\n        /* \"#utility.yul\":5493:5516   */\n      sub\n        /* \"#utility.yul\":5489:5521   */\n      slt\n        /* \"#utility.yul\":5486:5605   */\n      iszero\n      tag_208\n      jumpi\n        /* \"#utility.yul\":5524:5603   */\n      tag_209\n      tag_108\n      jump\t// in\n    tag_209:\n        /* \"#utility.yul\":5486:5605   */\n    tag_208:\n        /* \"#utility.yul\":5672:5673   */\n      0x00\n        /* \"#utility.yul\":5661:5670   */\n      dup4\n        /* \"#utility.yul\":5657:5674   */\n      add\n        /* \"#utility.yul\":5644:5675   */\n      calldataload\n        /* \"#utility.yul\":5702:5720   */\n      0xffffffffffffffff\n        /* \"#utility.yul\":5694:5700   */\n      dup2\n        /* \"#utility.yul\":5691:5721   */\n      gt\n        /* \"#utility.yul\":5688:5805   */\n      iszero\n      tag_210\n      jumpi\n        /* \"#utility.yul\":5724:5803   */\n      tag_211\n      tag_109\n      jump\t// in\n    tag_211:\n        /* \"#utility.yul\":5688:5805   */\n    tag_210:\n        /* \"#utility.yul\":5837:5917   */\n      tag_212\n        /* \"#utility.yul\":5909:5916   */\n      dup6\n        /* \"#utility.yul\":5900:5906   */\n      dup3\n        /* \"#utility.yul\":5889:5898   */\n      dup7\n        /* \"#utility.yul\":5885:5907   */\n      add\n        /* \"#utility.yul\":5837:5917   */\n      tag_118\n      jump\t// in\n    tag_212:\n        /* \"#utility.yul\":5819:5917   */\n      swap3\n      pop\n      swap3\n      pop\n        /* \"#utility.yul\":5615:5927   */\n      pop\n        /* \"#utility.yul\":5375:5934   */\n      swap3\n      pop\n      swap3\n      swap1\n      pop\n      jump\t// out\n        /* \"#utility.yul\":5940:6017   */\n    tag_120:\n        /* \"#utility.yul\":5977:5984   */\n      0x00\n        /* \"#utility.yul\":6006:6011   */\n      dup2\n        /* \"#utility.yul\":5995:6011   */\n      swap1\n      pop\n        /* \"#utility.yul\":5940:6017   */\n      swap2\n      swap1\n      pop\n      jump\t// out\n        /* \"#utility.yul\":6023:6141   */\n    tag_121:\n        /* \"#utility.yul\":6110:6134   */\n      tag_215\n        /* \"#utility.yul\":6128:6133   */\n      dup2\n        /* \"#utility.yul\":6110:6134   */\n      tag_120\n      jump\t// in\n    tag_215:\n        /* \"#utility.yul\":6105:6108   */\n      dup3\n        /* \"#utility.yul\":6098:6135   */\n      mstore\n        /* \"#utility.yul\":6023:6141   */\n      pop\n      pop\n      jump\t// out\n        /* \"#utility.yul\":6147:6369   */\n    tag_26:\n        /* \"#utility.yul\":6240:6244   */\n      0x00\n        /* \"#utility.yul\":6278:6280   */\n      0x20\n        /* \"#utility.yul\":6267:6276   */\n      dup3\n        /* \"#utility.yul\":6263:6281   */\n      add\n        /* \"#utility.yul\":6255:6281   */\n      swap1\n      pop\n        /* \"#utility.yul\":6291:6362   */\n      tag_217\n        /* \"#utility.yul\":6359:6360   */\n      0x00\n        /* \"#utility.yul\":6348:6357   */\n      dup4\n        /* \"#utility.yul\":6344:6361   */\n      add\n        /* \"#utility.yul\":6335:6341   */\n      dup5\n        /* \"#utility.yul\":6291:6362   */\n      tag_121\n      jump\t// in\n    tag_217:\n        /* \"#utility.yul\":6147:6369   */\n      swap3\n      swap2\n      pop\n      pop\n      jump\t// out\n        /* \"#utility.yul\":6375:6544   */\n    tag_122:\n        /* \"#utility.yul\":6459:6470   */\n      0x00\n        /* \"#utility.yul\":6493:6499   */\n      dup3\n        /* \"#utility.yul\":6488:6491   */\n      dup3\n        /* \"#utility.yul\":6481:6500   */\n      mstore\n        /* \"#utility.yul\":6533:6537   */\n      0x20\n        /* \"#utility.yul\":6528:6531   */\n      dup3\n        /* \"#utility.yul\":6524:6538   */\n      add\n        /* \"#utility.yul\":6509:6538   */\n      swap1\n      pop\n        /* \"#utility.yul\":6375:6544   */\n      swap3\n      swap2\n      pop\n      pop\n      jump\t// out\n        /* \"#utility.yul\":6550:6718   */\n    tag_123:\n        /* \"#utility.yul\":6690:6710   */\n      0x6c656e677468206e6f7420636f6e726563740000000000000000000000000000\n        /* \"#utility.yul\":6686:6687   */\n      0x00\n        /* \"#utility.yul\":6678:6684   */\n      dup3\n        /* \"#utility.yul\":6674:6688   */\n      add\n        /* \"#utility.yul\":6667:6711   */\n      mstore\n        /* \"#utility.yul\":6550:6718   */\n      pop\n      jump\t// out\n        /* \"#utility.yul\":6724:7090   */\n    tag_124:\n        /* \"#utility.yul\":6866:6869   */\n      0x00\n        /* \"#utility.yul\":6887:6954   */\n      tag_221\n        /* \"#utility.yul\":6951:6953   */\n      0x12\n        /* \"#utility.yul\":6946:6949   */\n      dup4\n        /* \"#utility.yul\":6887:6954   */\n      tag_122\n      jump\t// in\n    tag_221:\n        /* \"#utility.yul\":6880:6954   */\n      swap2\n      pop\n        /* \"#utility.yul\":6963:7056   */\n      tag_222\n        /* \"#utility.yul\":7052:7055   */\n      dup3\n        /* \"#utility.yul\":6963:7056   */\n      tag_123\n      jump\t// in\n    tag_222:\n        /* \"#utility.yul\":7081:7083   */\n      0x20\n        /* \"#utility.yul\":7076:7079   */\n      dup3\n        /* \"#utility.yul\":7072:7084   */\n      add\n        /* \"#utility.yul\":7065:7084   */\n      swap1\n      pop\n        /* \"#utility.yul\":6724:7090   */\n      swap2\n      swap1\n      pop\n      jump\t// out\n        /* \"#utility.yul\":7096:7515   */\n    tag_30:\n        /* \"#utility.yul\":7262:7266   */\n      0x00\n        /* \"#utility.yul\":7300:7302   */\n      0x20\n        /* \"#utility.yul\":7289:7298   */\n      dup3\n        /* \"#utility.yul\":7285:7303   */\n      add\n        /* \"#utility.yul\":7277:7303   */\n      swap1\n      pop\n        /* \"#utility.yul\":7349:7358   */\n      dup2\n        /* \"#utility.yul\":7343:7347   */\n      dup2\n        /* \"#utility.yul\":7339:7359   */\n      sub\n        /* \"#utility.yul\":7335:7336   */\n      0x00\n        /* \"#utility.yul\":7324:7333   */\n      dup4\n        /* \"#utility.yul\":7320:7337   */\n      add\n        /* \"#utility.yul\":7313:7360   */\n      mstore\n        /* \"#utility.yul\":7377:7508   */\n      tag_224\n        /* \"#utility.yul\":7503:7507   */\n      dup2\n        /* \"#utility.yul\":7377:7508   */\n      tag_124\n      jump\t// in\n    tag_224:\n        /* \"#utility.yul\":7369:7508   */\n      swap1\n      pop\n        /* \"#utility.yul\":7096:7515   */\n      swap2\n      swap1\n      pop\n      jump\t// out\n        /* \"#utility.yul\":7521:7639   */\n    tag_125:\n        /* \"#utility.yul\":7608:7632   */\n      tag_226\n        /* \"#utility.yul\":7626:7631   */\n      dup2\n        /* \"#utility.yul\":7608:7632   */\n      tag_111\n      jump\t// in\n    tag_226:\n        /* \"#utility.yul\":7603:7606   */\n      dup3\n        /* \"#utility.yul\":7596:7633   */\n      mstore\n        /* \"#utility.yul\":7521:7639   */\n      pop\n      pop\n      jump\t// out\n        /* \"#utility.yul\":7645:7977   */\n    tag_33:\n        /* \"#utility.yul\":7766:7770   */\n      0x00\n        /* \"#utility.yul\":7804:7806   */\n      0x40\n        /* \"#utility.yul\":7793:7802   */\n      dup3\n        /* \"#utility.yul\":7789:7807   */\n      add\n        /* \"#utility.yul\":7781:7807   */\n      swap1\n      pop\n        /* \"#utility.yul\":7817:7888   */\n      tag_228\n        /* \"#utility.yul\":7885:7886   */\n      0x00\n        /* \"#utility.yul\":7874:7883   */\n      dup4\n        /* \"#utility.yul\":7870:7887   */\n      add\n        /* \"#utility.yul\":7861:7867   */\n      dup6\n        /* \"#utility.yul\":7817:7888   */\n      tag_125\n      jump\t// in\n    tag_228:\n        /* \"#utility.yul\":7898:7970   */\n      tag_229\n        /* \"#utility.yul\":7966:7968   */\n      0x20\n        /* \"#utility.yul\":7955:7964   */\n      dup4\n        /* \"#utility.yul\":7951:7969   */\n      add\n        /* \"#utility.yul\":7942:7948   */\n      dup5\n        /* \"#utility.yul\":7898:7970   */\n      tag_125\n      jump\t// in\n    tag_229:\n        /* \"#utility.yul\":7645:7977   */\n      swap4\n      swap3\n      pop\n      pop\n      pop\n      jump\t// out\n        /* \"#utility.yul\":7983:8105   */\n    tag_126:\n        /* \"#utility.yul\":8056:8080   */\n      tag_231\n        /* \"#utility.yul\":8074:8079   */\n      dup2\n        /* \"#utility.yul\":8056:8080   */\n      tag_120\n      jump\t// in\n    tag_231:\n        /* \"#utility.yul\":8049:8054   */\n      dup2\n        /* \"#utility.yul\":8046:8081   */\n      eq\n        /* \"#utility.yul\":8036:8099   */\n      tag_232\n      jumpi\n        /* \"#utility.yul\":8095:8096   */\n      0x00\n        /* \"#utility.yul\":8092:8093   */\n      dup1\n        /* \"#utility.yul\":8085:8097   */\n      revert\n        /* \"#utility.yul\":8036:8099   */\n    tag_232:\n        /* \"#utility.yul\":7983:8105   */\n      pop\n      jump\t// out\n        /* \"#utility.yul\":8111:8254   */\n    tag_127:\n        /* \"#utility.yul\":8168:8173   */\n      0x00\n        /* \"#utility.yul\":8199:8205   */\n      dup2\n        /* \"#utility.yul\":8193:8206   */\n      mload\n        /* \"#utility.yul\":8184:8206   */\n      swap1\n      pop\n        /* \"#utility.yul\":8215:8248   */\n      tag_234\n        /* \"#utility.yul\":8242:8247   */\n      dup2\n        /* \"#utility.yul\":8215:8248   */\n      tag_126\n      jump\t// in\n    tag_234:\n        /* \"#utility.yul\":8111:8254   */\n      swap3\n      swap2\n      pop\n      pop\n      jump\t// out\n        /* \"#utility.yul\":8260:8611   */\n    tag_37:\n        /* \"#utility.yul\":8330:8336   */\n      0x00\n        /* \"#utility.yul\":8379:8381   */\n      0x20\n        /* \"#utility.yul\":8367:8376   */\n      dup3\n        /* \"#utility.yul\":8358:8365   */\n      dup5\n        /* \"#utility.yul\":8354:8377   */\n      sub\n        /* \"#utility.yul\":8350:8382   */\n      slt\n        /* \"#utility.yul\":8347:8466   */\n      iszero\n      tag_236\n      jumpi\n        /* \"#utility.yul\":8385:8464   */\n      tag_237\n      tag_108\n      jump\t// in\n    tag_237:\n        /* \"#utility.yul\":8347:8466   */\n    tag_236:\n        /* \"#utility.yul\":8505:8506   */\n      0x00\n        /* \"#utility.yul\":8530:8594   */\n      tag_238\n        /* \"#utility.yul\":8586:8593   */\n      dup5\n        /* \"#utility.yul\":8577:8583   */\n      dup3\n        /* \"#utility.yul\":8566:8575   */\n      dup6\n        /* \"#utility.yul\":8562:8584   */\n      add\n        /* \"#utility.yul\":8530:8594   */\n      tag_127\n      jump\t// in\n    tag_238:\n        /* \"#utility.yul\":8520:8594   */\n      swap2\n      pop\n        /* \"#utility.yul\":8476:8604   */\n      pop\n        /* \"#utility.yul\":8260:8611   */\n      swap3\n      swap2\n      pop\n      pop\n      jump\t// out\n        /* \"#utility.yul\":8617:8791   */\n    tag_128:\n        /* \"#utility.yul\":8757:8783   */\n      0x6e65656420617070726f766520657263323020746f6b656e0000000000000000\n        /* \"#utility.yul\":8753:8754   */\n      0x00\n        /* \"#utility.yul\":8745:8751   */\n      dup3\n        /* \"#utility.yul\":8741:8755   */\n      add\n        /* \"#utility.yul\":8734:8784   */\n      mstore\n        /* \"#utility.yul\":8617:8791   */\n      pop\n      jump\t// out\n        /* \"#utility.yul\":8797:9163   */\n    tag_129:\n        /* \"#utility.yul\":8939:8942   */\n      0x00\n        /* \"#utility.yul\":8960:9027   */\n      tag_241\n        /* \"#utility.yul\":9024:9026   */\n      0x18\n        /* \"#utility.yul\":9019:9022   */\n      dup4\n        /* \"#utility.yul\":8960:9027   */\n      tag_122\n      jump\t// in\n    tag_241:\n        /* \"#utility.yul\":8953:9027   */\n      swap2\n      pop\n        /* \"#utility.yul\":9036:9129   */\n      tag_242\n        /* \"#utility.yul\":9125:9128   */\n      dup3\n        /* \"#utility.yul\":9036:9129   */\n      tag_128\n      jump\t// in\n    tag_242:\n        /* \"#utility.yul\":9154:9156   */\n      0x20\n        /* \"#utility.yul\":9149:9152   */\n      dup3\n        /* \"#utility.yul\":9145:9157   */\n      add\n        /* \"#utility.yul\":9138:9157   */\n      swap1\n      pop\n        /* \"#utility.yul\":8797:9163   */\n      swap2\n      swap1\n      pop\n      jump\t// out\n        /* \"#utility.yul\":9169:9588   */\n    tag_40:\n        /* \"#utility.yul\":9335:9339   */\n      0x00\n        /* \"#utility.yul\":9373:9375   */\n      0x20\n        /* \"#utility.yul\":9362:9371   */\n      dup3\n        /* \"#utility.yul\":9358:9376   */\n      add\n        /* \"#utility.yul\":9350:9376   */\n      swap1\n      pop\n        /* \"#utility.yul\":9422:9431   */\n      dup2\n        /* \"#utility.yul\":9416:9420   */\n      dup2\n        /* \"#utility.yul\":9412:9432   */\n      sub\n        /* \"#utility.yul\":9408:9409   */\n      0x00\n        /* \"#utility.yul\":9397:9406   */\n      dup4\n        /* \"#utility.yul\":9393:9410   */\n      add\n        /* \"#utility.yul\":9386:9433   */\n      mstore\n        /* \"#utility.yul\":9450:9581   */\n      tag_244\n        /* \"#utility.yul\":9576:9580   */\n      dup2\n        /* \"#utility.yul\":9450:9581   */\n      tag_129\n      jump\t// in\n    tag_244:\n        /* \"#utility.yul\":9442:9581   */\n      swap1\n      pop\n        /* \"#utility.yul\":9169:9588   */\n      swap2\n      swap1\n      pop\n      jump\t// out\n        /* \"#utility.yul\":9594:9774   */\n    tag_46:\n        /* \"#utility.yul\":9642:9719   */\n      0x4e487b7100000000000000000000000000000000000000000000000000000000\n        /* \"#utility.yul\":9639:9640   */\n      0x00\n        /* \"#utility.yul\":9632:9720   */\n      mstore\n        /* \"#utility.yul\":9739:9743   */\n      0x32\n        /* \"#utility.yul\":9736:9737   */\n      0x04\n        /* \"#utility.yul\":9729:9744   */\n      mstore\n        /* \"#utility.yul\":9763:9767   */\n      0x24\n        /* \"#utility.yul\":9760:9761   */\n      0x00\n        /* \"#utility.yul\":9753:9768   */\n      revert\n        /* \"#utility.yul\":9780:10222   */\n    tag_51:\n        /* \"#utility.yul\":9929:9933   */\n      0x00\n        /* \"#utility.yul\":9967:9969   */\n      0x60\n        /* \"#utility.yul\":9956:9965   */\n      dup3\n        /* \"#utility.yul\":9952:9970   */\n      add\n        /* \"#utility.yul\":9944:9970   */\n      swap1\n      pop\n        /* \"#utility.yul\":9980:10051   */\n      tag_247\n        /* \"#utility.yul\":10048:10049   */\n      0x00\n        /* \"#utility.yul\":10037:10046   */\n      dup4\n        /* \"#utility.yul\":10033:10050   */\n      add\n        /* \"#utility.yul\":10024:10030   */\n      dup7\n        /* \"#utility.yul\":9980:10051   */\n      tag_125\n      jump\t// in\n    tag_247:\n        /* \"#utility.yul\":10061:10133   */\n      tag_248\n        /* \"#utility.yul\":10129:10131   */\n      0x20\n        /* \"#utility.yul\":10118:10127   */\n      dup4\n        /* \"#utility.yul\":10114:10132   */\n      add\n        /* \"#utility.yul\":10105:10111   */\n      dup6\n        /* \"#utility.yul\":10061:10133   */\n      tag_125\n      jump\t// in\n    tag_248:\n        /* \"#utility.yul\":10143:10215   */\n      tag_249\n        /* \"#utility.yul\":10211:10213   */\n      0x40\n        /* \"#utility.yul\":10200:10209   */\n      dup4\n        /* \"#utility.yul\":10196:10214   */\n      add\n        /* \"#utility.yul\":10187:10193   */\n      dup5\n        /* \"#utility.yul\":10143:10215   */\n      tag_121\n      jump\t// in\n    tag_249:\n        /* \"#utility.yul\":9780:10222   */\n      swap5\n      swap4\n      pop\n      pop\n      pop\n      pop\n      jump\t// out\n        /* \"#utility.yul\":10228:10318   */\n    tag_130:\n        /* \"#utility.yul\":10262:10269   */\n      0x00\n        /* \"#utility.yul\":10305:10310   */\n      dup2\n        /* \"#utility.yul\":10298:10311   */\n      iszero\n        /* \"#utility.yul\":10291:10312   */\n      iszero\n        /* \"#utility.yul\":10280:10312   */\n      swap1\n      pop\n        /* \"#utility.yul\":10228:10318   */\n      swap2\n      swap1\n      pop\n      jump\t// out\n        /* \"#utility.yul\":10324:10440   */\n    tag_131:\n        /* \"#utility.yul\":10394:10415   */\n      tag_252\n        /* \"#utility.yul\":10409:10414   */\n      dup2\n        /* \"#utility.yul\":10394:10415   */\n      tag_130\n      jump\t// in\n    tag_252:\n        /* \"#utility.yul\":10387:10392   */\n      dup2\n        /* \"#utility.yul\":10384:10416   */\n      eq\n        /* \"#utility.yul\":10374:10434   */\n      tag_253\n      jumpi\n        /* \"#utility.yul\":10430:10431   */\n      0x00\n        /* \"#utility.yul\":10427:10428   */\n      dup1\n        /* \"#utility.yul\":10420:10432   */\n      revert\n        /* \"#utility.yul\":10374:10434   */\n    tag_253:\n        /* \"#utility.yul\":10324:10440   */\n      pop\n      jump\t// out\n        /* \"#utility.yul\":10446:10583   */\n    tag_132:\n        /* \"#utility.yul\":10500:10505   */\n      0x00\n        /* \"#utility.yul\":10531:10537   */\n      dup2\n        /* \"#utility.yul\":10525:10538   */\n      mload\n        /* \"#utility.yul\":10516:10538   */\n      swap1\n      pop\n        /* \"#utility.yul\":10547:10577   */\n      tag_255\n        /* \"#utility.yul\":10571:10576   */\n      dup2\n        /* \"#utility.yul\":10547:10577   */\n      tag_131\n      jump\t// in\n    tag_255:\n        /* \"#utility.yul\":10446:10583   */\n      swap3\n      swap2\n      pop\n      pop\n      jump\t// out\n        /* \"#utility.yul\":10589:10934   */\n    tag_55:\n        /* \"#utility.yul\":10656:10662   */\n      0x00\n        /* \"#utility.yul\":10705:10707   */\n      0x20\n        /* \"#utility.yul\":10693:10702   */\n      dup3\n        /* \"#utility.yul\":10684:10691   */\n      dup5\n        /* \"#utility.yul\":10680:10703   */\n      sub\n        /* \"#utility.yul\":10676:10708   */\n      slt\n        /* \"#utility.yul\":10673:10792   */\n      iszero\n      tag_257\n      jumpi\n        /* \"#utility.yul\":10711:10790   */\n      tag_258\n      tag_108\n      jump\t// in\n    tag_258:\n        /* \"#utility.yul\":10673:10792   */\n    tag_257:\n        /* \"#utility.yul\":10831:10832   */\n      0x00\n        /* \"#utility.yul\":10856:10917   */\n      tag_259\n        /* \"#utility.yul\":10909:10916   */\n      dup5\n        /* \"#utility.yul\":10900:10906   */\n      dup3\n        /* \"#utility.yul\":10889:10898   */\n      dup6\n        /* \"#utility.yul\":10885:10907   */\n      add\n        /* \"#utility.yul\":10856:10917   */\n      tag_132\n      jump\t// in\n    tag_259:\n        /* \"#utility.yul\":10846:10917   */\n      swap2\n      pop\n        /* \"#utility.yul\":10802:10927   */\n      pop\n        /* \"#utility.yul\":10589:10934   */\n      swap3\n      swap2\n      pop\n      pop\n      jump\t// out\n        /* \"#utility.yul\":10940:11120   */\n    tag_133:\n        /* \"#utility.yul\":10988:11065   */\n      0x4e487b7100000000000000000000000000000000000000000000000000000000\n        /* \"#utility.yul\":10985:10986   */\n      0x00\n        /* \"#utility.yul\":10978:11066   */\n      mstore\n        /* \"#utility.yul\":11085:11089   */\n      0x11\n        /* \"#utility.yul\":11082:11083   */\n      0x04\n        /* \"#utility.yul\":11075:11090   */\n      mstore\n        /* \"#utility.yul\":11109:11113   */\n      0x24\n        /* \"#utility.yul\":11106:11107   */\n      0x00\n        /* \"#utility.yul\":11099:11114   */\n      revert\n        /* \"#utility.yul\":11126:11359   */\n    tag_57:\n        /* \"#utility.yul\":11165:11168   */\n      0x00\n        /* \"#utility.yul\":11188:11212   */\n      tag_262\n        /* \"#utility.yul\":11206:11211   */\n      dup3\n        /* \"#utility.yul\":11188:11212   */\n      tag_120\n      jump\t// in\n    tag_262:\n        /* \"#utility.yul\":11179:11212   */\n      swap2\n      pop\n        /* \"#utility.yul\":11234:11300   */\n      0xffffffffffffffffffffffffffffffffffffffffffffffffffffffffffffffff\n        /* \"#utility.yul\":11227:11232   */\n      dup3\n        /* \"#utility.yul\":11224:11301   */\n      sub\n        /* \"#utility.yul\":11221:11324   */\n      tag_263\n      jumpi\n        /* \"#utility.yul\":11304:11322   */\n      tag_264\n      tag_133\n      jump\t// in\n    tag_264:\n        /* \"#utility.yul\":11221:11324   */\n    tag_263:\n        /* \"#utility.yul\":11351:11352   */\n      0x01\n        /* \"#utility.yul\":11344:11349   */\n      dup3\n        /* \"#utility.yul\":11340:11353   */\n      add\n        /* \"#utility.yul\":11333:11353   */\n      swap1\n      pop\n        /* \"#utility.yul\":11126:11359   */\n      swap2\n      swap1\n      pop\n      jump\t// out\n        /* \"#utility.yul\":11365:11531   */\n    tag_134:\n        /* \"#utility.yul\":11505:11523   */\n      0x6c656e746768206e6f7420657175616c00000000000000000000000000000000\n        /* \"#utility.yul\":11501:11502   */\n      0x00\n        /* \"#utility.yul\":11493:11499   */\n      dup3\n        /* \"#utility.yul\":11489:11503   */\n      add\n        /* \"#utility.yul\":11482:11524   */\n      mstore\n        /* \"#utility.yul\":11365:11531   */\n      pop\n      jump\t// out\n        /* \"#utility.yul\":11537:11903   */\n    tag_135:\n        /* \"#utility.yul\":11679:11682   */\n      0x00\n        /* \"#utility.yul\":11700:11767   */\n      tag_267\n        /* \"#utility.yul\":11764:11766   */\n      0x10\n        /* \"#utility.yul\":11759:11762   */\n      dup4\n        /* \"#utility.yul\":11700:11767   */\n      tag_122\n      jump\t// in\n    tag_267:\n        /* \"#utility.yul\":11693:11767   */\n      swap2\n      pop\n        /* \"#utility.yul\":11776:11869   */\n      tag_268\n        /* \"#utility.yul\":11865:11868   */\n      dup3\n        /* \"#utility.yul\":11776:11869   */\n      tag_134\n      jump\t// in\n    tag_268:\n        /* \"#utility.yul\":11894:11896   */\n      0x20\n        /* \"#utility.yul\":11889:11892   */\n      dup3\n        /* \"#utility.yul\":11885:11897   */\n      add\n        /* \"#utility.yul\":11878:11897   */\n      swap1\n      pop\n        /* \"#utility.yul\":11537:11903   */\n      swap2\n      swap1\n      pop\n      jump\t// out\n        /* \"#utility.yul\":11909:12328   */\n    tag_61:\n        /* \"#utility.yul\":12075:12079   */\n      0x00\n        /* \"#utility.yul\":12113:12115   */\n      0x20\n        /* \"#utility.yul\":12102:12111   */\n      dup3\n        /* \"#utility.yul\":12098:12116   */\n      add\n        /* \"#utility.yul\":12090:12116   */\n      swap1\n      pop\n        /* \"#utility.yul\":12162:12171   */\n      dup2\n        /* \"#utility.yul\":12156:12160   */\n      dup2\n        /* \"#utility.yul\":12152:12172   */\n      sub\n        /* \"#utility.yul\":12148:12149   */\n      0x00\n        /* \"#utility.yul\":12137:12146   */\n      dup4\n        /* \"#utility.yul\":12133:12150   */\n      add\n        /* \"#utility.yul\":12126:12173   */\n      mstore\n        /* \"#utility.yul\":12190:12321   */\n      tag_270\n        /* \"#utility.yul\":12316:12320   */\n      dup2\n        /* \"#utility.yul\":12190:12321   */\n      tag_135\n      jump\t// in\n    tag_270:\n        /* \"#utility.yul\":12182:12321   */\n      swap1\n      pop\n        /* \"#utility.yul\":11909:12328   */\n      swap2\n      swap1\n      pop\n      jump\t// out\n        /* \"#utility.yul\":12334:12505   */\n    tag_136:\n        /* \"#utility.yul\":12474:12497   */\n      0x7472616e7366657220616d6f756e74206572726f720000000000000000000000\n        /* \"#utility.yul\":12470:12471   */\n      0x00\n        /* \"#utility.yul\":12462:12468   */\n      dup3\n        /* \"#utility.yul\":12458:12472   */\n      add\n        /* \"#utility.yul\":12451:12498   */\n      mstore\n        /* \"#utility.yul\":12334:12505   */\n      pop\n      jump\t// out\n        /* \"#utility.yul\":12511:12877   */\n    tag_137:\n        /* \"#utility.yul\":12653:12656   */\n      0x00\n        /* \"#utility.yul\":12674:12741   */\n      tag_273\n        /* \"#utility.yul\":12738:12740   */\n      0x15\n        /* \"#utility.yul\":12733:12736   */\n      dup4\n        /* \"#utility.yul\":12674:12741   */\n      tag_122\n      jump\t// in\n    tag_273:\n        /* \"#utility.yul\":12667:12741   */\n      swap2\n      pop\n        /* \"#utility.yul\":12750:12843   */\n      tag_274\n        /* \"#utility.yul\":12839:12842   */\n      dup3\n        /* \"#utility.yul\":12750:12843   */\n      tag_136\n      jump\t// in\n    tag_274:\n        /* \"#utility.yul\":12868:12870   */\n      0x20\n        /* \"#utility.yul\":12863:12866   */\n      dup3\n        /* \"#utility.yul\":12859:12871   */\n      add\n        /* \"#utility.yul\":12852:12871   */\n      swap1\n      pop\n        /* \"#utility.yul\":12511:12877   */\n      swap2\n      swap1\n      pop\n      jump\t// out\n        /* \"#utility.yul\":12883:13302   */\n    tag_65:\n        /* \"#utility.yul\":13049:13053   */\n      0x00\n        /* \"#utility.yul\":13087:13089   */\n      0x20\n        /* \"#utility.yul\":13076:13085   */\n      dup3\n        /* \"#utility.yul\":13072:13090   */\n      add\n        /* \"#utility.yul\":13064:13090   */\n      swap1\n      pop\n        /* \"#utility.yul\":13136:13145   */\n      dup2\n        /* \"#utility.yul\":13130:13134   */\n      dup2\n        /* \"#utility.yul\":13126:13146   */\n      sub\n        /* \"#utility.yul\":13122:13123   */\n      0x00\n        /* \"#utility.yul\":13111:13120   */\n      dup4\n        /* \"#utility.yul\":13107:13124   */\n      add\n        /* \"#utility.yul\":13100:13147   */\n      mstore\n        /* \"#utility.yul\":13164:13295   */\n      tag_276\n        /* \"#utility.yul\":13290:13294   */\n      dup2\n        /* \"#utility.yul\":13164:13295   */\n      tag_137\n      jump\t// in\n    tag_276:\n        /* \"#utility.yul\":13156:13295   */\n      swap1\n      pop\n        /* \"#utility.yul\":12883:13302   */\n      swap2\n      swap1\n      pop\n      jump\t// out\n        /* \"#utility.yul\":13308:13412   */\n    tag_138:\n        /* \"#utility.yul\":13353:13360   */\n      0x00\n        /* \"#utility.yul\":13382:13406   */\n      tag_278\n        /* \"#utility.yul\":13400:13405   */\n      dup3\n        /* \"#utility.yul\":13382:13406   */\n      tag_110\n      jump\t// in\n    tag_278:\n        /* \"#utility.yul\":13371:13406   */\n      swap1\n      pop\n        /* \"#utility.yul\":13308:13412   */\n      swap2\n      swap1\n      pop\n      jump\t// out\n        /* \"#utility.yul\":13418:13556   */\n    tag_139:\n        /* \"#utility.yul\":13499:13531   */\n      tag_280\n        /* \"#utility.yul\":13525:13530   */\n      dup2\n        /* \"#utility.yul\":13499:13531   */\n      tag_138\n      jump\t// in\n    tag_280:\n        /* \"#utility.yul\":13492:13497   */\n      dup2\n        /* \"#utility.yul\":13489:13532   */\n      eq\n        /* \"#utility.yul\":13479:13550   */\n      tag_281\n      jumpi\n        /* \"#utility.yul\":13546:13547   */\n      0x00\n        /* \"#utility.yul\":13543:13544   */\n      dup1\n        /* \"#utility.yul\":13536:13548   */\n      revert\n        /* \"#utility.yul\":13479:13550   */\n    tag_281:\n        /* \"#utility.yul\":13418:13556   */\n      pop\n      jump\t// out\n        /* \"#utility.yul\":13562:13717   */\n    tag_140:\n        /* \"#utility.yul\":13616:13621   */\n      0x00\n        /* \"#utility.yul\":13654:13660   */\n      dup2\n        /* \"#utility.yul\":13641:13661   */\n      calldataload\n        /* \"#utility.yul\":13632:13661   */\n      swap1\n      pop\n        /* \"#utility.yul\":13670:13711   */\n      tag_283\n        /* \"#utility.yul\":13705:13710   */\n      dup2\n        /* \"#utility.yul\":13670:13711   */\n      tag_139\n      jump\t// in\n    tag_283:\n        /* \"#utility.yul\":13562:13717   */\n      swap3\n      swap2\n      pop\n      pop\n      jump\t// out\n        /* \"#utility.yul\":13723:14068   */\n    tag_72:\n        /* \"#utility.yul\":13790:13796   */\n      0x00\n        /* \"#utility.yul\":13839:13841   */\n      0x20\n        /* \"#utility.yul\":13827:13836   */\n      dup3\n        /* \"#utility.yul\":13818:13825   */\n      dup5\n        /* \"#utility.yul\":13814:13837   */\n      sub\n        /* \"#utility.yul\":13810:13842   */\n      slt\n        /* \"#utility.yul\":13807:13926   */\n      iszero\n      tag_285\n      jumpi\n        /* \"#utility.yul\":13845:13924   */\n      tag_286\n      tag_108\n      jump\t// in\n    tag_286:\n        /* \"#utility.yul\":13807:13926   */\n    tag_285:\n        /* \"#utility.yul\":13965:13966   */\n      0x00\n        /* \"#utility.yul\":13990:14051   */\n      tag_287\n        /* \"#utility.yul\":14043:14050   */\n      dup5\n        /* \"#utility.yul\":14034:14040   */\n      dup3\n        /* \"#utility.yul\":14023:14032   */\n      dup6\n        /* \"#utility.yul\":14019:14041   */\n      add\n        /* \"#utility.yul\":13990:14051   */\n      tag_140\n      jump\t// in\n    tag_287:\n        /* \"#utility.yul\":13980:14051   */\n      swap2\n      pop\n        /* \"#utility.yul\":13936:14061   */\n      pop\n        /* \"#utility.yul\":13723:14068   */\n      swap3\n      swap2\n      pop\n      pop\n      jump\t// out\n        /* \"#utility.yul\":14074:14221   */\n    tag_141:\n        /* \"#utility.yul\":14175:14186   */\n      0x00\n        /* \"#utility.yul\":14212:14215   */\n      dup2\n        /* \"#utility.yul\":14197:14215   */\n      swap1\n      pop\n        /* \"#utility.yul\":14074:14221   */\n      swap3\n      swap2\n      pop\n      pop\n      jump\t// out\n        /* \"#utility.yul\":14227:14341   */\n    tag_142:\n      pop\n      jump\t// out\n        /* \"#utility.yul\":14347:14745   */\n    tag_143:\n        /* \"#utility.yul\":14506:14509   */\n      0x00\n        /* \"#utility.yul\":14527:14610   */\n      tag_291\n        /* \"#utility.yul\":14608:14609   */\n      0x00\n        /* \"#utility.yul\":14603:14606   */\n      dup4\n        /* \"#utility.yul\":14527:14610   */\n      tag_141\n      jump\t// in\n    tag_291:\n        /* \"#utility.yul\":14520:14610   */\n      swap2\n      pop\n        /* \"#utility.yul\":14619:14712   */\n      tag_292\n        /* \"#utility.yul\":14708:14711   */\n      dup3\n        /* \"#utility.yul\":14619:14712   */\n      tag_142\n      jump\t// in\n    tag_292:\n        /* \"#utility.yul\":14737:14738   */\n      0x00\n        /* \"#utility.yul\":14732:14735   */\n      dup3\n        /* \"#utility.yul\":14728:14739   */\n      add\n        /* \"#utility.yul\":14721:14739   */\n      swap1\n      pop\n        /* \"#utility.yul\":14347:14745   */\n      swap2\n      swap1\n      pop\n      jump\t// out\n        /* \"#utility.yul\":14751:15130   */\n    tag_76:\n        /* \"#utility.yul\":14935:14938   */\n      0x00\n        /* \"#utility.yul\":14957:15104   */\n      tag_294\n        /* \"#utility.yul\":15100:15103   */\n      dup3\n        /* \"#utility.yul\":14957:15104   */\n      tag_143\n      jump\t// in\n    tag_294:\n        /* \"#utility.yul\":14950:15104   */\n      swap2\n      pop\n        /* \"#utility.yul\":15121:15124   */\n      dup2\n        /* \"#utility.yul\":15114:15124   */\n      swap1\n      pop\n        /* \"#utility.yul\":14751:15130   */\n      swap2\n      swap1\n      pop\n      jump\t// out\n        /* \"#utility.yul\":15136:15312   */\n    tag_144:\n        /* \"#utility.yul\":15276:15304   */\n      0x796f7520617265206e6f7420696e206661696c6564206c697374000000000000\n        /* \"#utility.yul\":15272:15273   */\n      0x00\n        /* \"#utility.yul\":15264:15270   */\n      dup3\n        /* \"#utility.yul\":15260:15274   */\n      add\n        /* \"#utility.yul\":15253:15305   */\n      mstore\n        /* \"#utility.yul\":15136:15312   */\n      pop\n      jump\t// out\n        /* \"#utility.yul\":15318:15684   */\n    tag_145:\n        /* \"#utility.yul\":15460:15463   */\n      0x00\n        /* \"#utility.yul\":15481:15548   */\n      tag_297\n        /* \"#utility.yul\":15545:15547   */\n      0x1a\n        /* \"#utility.yul\":15540:15543   */\n      dup4\n        /* \"#utility.yul\":15481:15548   */\n      tag_122\n      jump\t// in\n    tag_297:\n        /* \"#utility.yul\":15474:15548   */\n      swap2\n      pop\n        /* \"#utility.yul\":15557:15650   */\n      tag_298\n        /* \"#utility.yul\":15646:15649   */\n      dup3\n        /* \"#utility.yul\":15557:15650   */\n      tag_144\n      jump\t// in\n    tag_298:\n        /* \"#utility.yul\":15675:15677   */\n      0x20\n        /* \"#utility.yul\":15670:15673   */\n      dup3\n        /* \"#utility.yul\":15666:15678   */\n      add\n        /* \"#utility.yul\":15659:15678   */\n      swap1\n      pop\n        /* \"#utility.yul\":15318:15684   */\n      swap2\n      swap1\n      pop\n      jump\t// out\n        /* \"#utility.yul\":15690:16109   */\n    tag_90:\n        /* \"#utility.yul\":15856:15860   */\n      0x00\n        /* \"#utility.yul\":15894:15896   */\n      0x20\n        /* \"#utility.yul\":15883:15892   */\n      dup3\n        /* \"#utility.yul\":15879:15897   */\n      add\n        /* \"#utility.yul\":15871:15897   */\n      swap1\n      pop\n        /* \"#utility.yul\":15943:15952   */\n      dup2\n        /* \"#utility.yul\":15937:15941   */\n      dup2\n        /* \"#utility.yul\":15933:15953   */\n      sub\n        /* \"#utility.yul\":15929:15930   */\n      0x00\n        /* \"#utility.yul\":15918:15927   */\n      dup4\n        /* \"#utility.yul\":15914:15931   */\n      add\n        /* \"#utility.yul\":15907:15954   */\n      mstore\n        /* \"#utility.yul\":15971:16102   */\n      tag_300\n        /* \"#utility.yul\":16097:16101   */\n      dup2\n        /* \"#utility.yul\":15971:16102   */\n      tag_145\n      jump\t// in\n    tag_300:\n        /* \"#utility.yul\":15963:16102   */\n      swap1\n      pop\n        /* \"#utility.yul\":15690:16109   */\n      swap2\n      swap1\n      pop\n      jump\t// out\n        /* \"#utility.yul\":16115:16280   */\n    tag_146:\n        /* \"#utility.yul\":16255:16272   */\n      0x63616c6c20657468206661696c65640000000000000000000000000000000000\n        /* \"#utility.yul\":16251:16252   */\n      0x00\n        /* \"#utility.yul\":16243:16249   */\n      dup3\n        /* \"#utility.yul\":16239:16253   */\n      add\n        /* \"#utility.yul\":16232:16273   */\n      mstore\n        /* \"#utility.yul\":16115:16280   */\n      pop\n      jump\t// out\n        /* \"#utility.yul\":16286:16652   */\n    tag_147:\n        /* \"#utility.yul\":16428:16431   */\n      0x00\n        /* \"#utility.yul\":16449:16516   */\n      tag_303\n        /* \"#utility.yul\":16513:16515   */\n      0x0f\n        /* \"#utility.yul\":16508:16511   */\n      dup4\n        /* \"#utility.yul\":16449:16516   */\n      tag_122\n      jump\t// in\n    tag_303:\n        /* \"#utility.yul\":16442:16516   */\n      swap2\n      pop\n        /* \"#utility.yul\":16525:16618   */\n      tag_304\n        /* \"#utility.yul\":16614:16617   */\n      dup3\n        /* \"#utility.yul\":16525:16618   */\n      tag_146\n      jump\t// in\n    tag_304:\n        /* \"#utility.yul\":16643:16645   */\n      0x20\n        /* \"#utility.yul\":16638:16641   */\n      dup3\n        /* \"#utility.yul\":16634:16646   */\n      add\n        /* \"#utility.yul\":16627:16646   */\n      swap1\n      pop\n        /* \"#utility.yul\":16286:16652   */\n      swap2\n      swap1\n      pop\n      jump\t// out\n        /* \"#utility.yul\":16658:17077   */\n    tag_97:\n        /* \"#utility.yul\":16824:16828   */\n      0x00\n        /* \"#utility.yul\":16862:16864   */\n      0x20\n        /* \"#utility.yul\":16851:16860   */\n      dup3\n        /* \"#utility.yul\":16847:16865   */\n      add\n        /* \"#utility.yul\":16839:16865   */\n      swap1\n      pop\n        /* \"#utility.yul\":16911:16920   */\n      dup2\n        /* \"#utility.yul\":16905:16909   */\n      dup2\n        /* \"#utility.yul\":16901:16921   */\n      sub\n        /* \"#utility.yul\":16897:16898   */\n      0x00\n        /* \"#utility.yul\":16886:16895   */\n      dup4\n        /* \"#utility.yul\":16882:16899   */\n      add\n        /* \"#utility.yul\":16875:16922   */\n      mstore\n        /* \"#utility.yul\":16939:17070   */\n      tag_306\n        /* \"#utility.yul\":17065:17069   */\n      dup2\n        /* \"#utility.yul\":16939:17070   */\n      tag_147\n      jump\t// in\n    tag_306:\n        /* \"#utility.yul\":16931:17070   */\n      swap1\n      pop\n        /* \"#utility.yul\":16658:17077   */\n      swap2\n      swap1\n      pop\n      jump\t// out\n        /* \"#utility.yul\":17083:17274   */\n    tag_105:\n        /* \"#utility.yul\":17123:17126   */\n      0x00\n        /* \"#utility.yul\":17142:17162   */\n      tag_308\n        /* \"#utility.yul\":17160:17161   */\n      dup3\n        /* \"#utility.yul\":17142:17162   */\n      tag_120\n      jump\t// in\n    tag_308:\n        /* \"#utility.yul\":17137:17162   */\n      swap2\n      pop\n        /* \"#utility.yul\":17176:17196   */\n      tag_309\n        /* \"#utility.yul\":17194:17195   */\n      dup4\n        /* \"#utility.yul\":17176:17196   */\n      tag_120\n      jump\t// in\n    tag_309:\n        /* \"#utility.yul\":17171:17196   */\n      swap3\n      pop\n        /* \"#utility.yul\":17219:17220   */\n      dup3\n        /* \"#utility.yul\":17216:17217   */\n      dup3\n        /* \"#utility.yul\":17212:17221   */\n      add\n        /* \"#utility.yul\":17205:17221   */\n      swap1\n      pop\n        /* \"#utility.yul\":17240:17243   */\n      dup1\n        /* \"#utility.yul\":17237:17238   */\n      dup3\n        /* \"#utility.yul\":17234:17244   */\n      gt\n        /* \"#utility.yul\":17231:17267   */\n      iszero\n      tag_310\n      jumpi\n        /* \"#utility.yul\":17247:17265   */\n      tag_311\n      tag_133\n      jump\t// in\n    tag_311:\n        /* \"#utility.yul\":17231:17267   */\n    tag_310:\n        /* \"#utility.yul\":17083:17274   */\n      swap3\n      swap2\n      pop\n      pop\n      jump\t// out\n\n    auxdata: 0xa264697066735822122094aa20b0eba7b11128be47eefe48d25ab2e978c992fe1e7d12c1fd8b021b722664736f6c63430008120033\n}\n",
				"bytecode": {
					"linkReferences": {},
					"object": "608060405234801561001057600080fd5b50610f7e806100206000396000f3fe60806040526004361061003f5760003560e01c806341ed24a21461004457806377988cf81461006d578063acacd8ee14610089578063ccb8c1e0146100b2575b600080fd5b34801561005057600080fd5b5061006b600480360381019061006691906107dd565b6100ef565b005b610087600480360381019061008291906108c8565b6102f3565b005b34801561009557600080fd5b506100b060048036038101906100ab9190610949565b6104ea565b005b3480156100be57600080fd5b506100d960048036038101906100d49190610976565b610666565b6040516100e691906109dc565b60405180910390f35b818190508484905014610137576040517f08c379a000000000000000000000000000000000000000000000000000000000815260040161012e90610a54565b60405180910390fd5b600085905060006101488484610666565b9050808273ffffffffffffffffffffffffffffffffffffffff1663dd62ed3e33306040518363ffffffff1660e01b8152600401610186929190610a83565b602060405180830381865afa1580156101a3573d6000803e3d6000fd5b505050506040513d601f19601f820116820180604052508101906101c79190610ad8565b11610207576040517f08c379a00000000000000000000000000000000000000000000000000000000081526004016101fe90610b51565b60405180910390fd5b60005b868690508110156102e9578273ffffffffffffffffffffffffffffffffffffffff166323b872dd3389898581811061024557610244610b71565b5b905060200201602081019061025a9190610949565b88888681811061026d5761026c610b71565b5b905060200201356040518463ffffffff1660e01b815260040161029293929190610ba0565b6020604051808303816000875af11580156102b1573d6000803e3d6000fd5b505050506040513d601f19601f820116820180604052508101906102d59190610c0f565b5080806102e190610c6b565b91505061020a565b5050505050505050565b81819050848490501461033b576040517f08c379a000000000000000000000000000000000000000000000000000000000815260040161033290610cff565b60405180910390fd5b60006103478383610666565b905080341461038b576040517f08c379a000000000000000000000000000000000000000000000000000000000815260040161038290610d6b565b60405180910390fd5b60005b858590508110156104e25760008686838181106103ae576103ad610b71565b5b90506020020160208101906103c39190610dc9565b73ffffffffffffffffffffffffffffffffffffffff168585848181106103ec576103eb610b71565b5b905060200201356040516103ff90610e27565b60006040518083038185875af1925050503d806000811461043c576040519150601f19603f3d011682016040523d82523d6000602084013e610441565b606091505b50509050806104ce5784848381811061045d5761045c610b71565b5b9050602002013560008089898681811061047a57610479610b71565b5b905060200201602081019061048f9190610dc9565b73ffffffffffffffffffffffffffffffffffffffff1673ffffffffffffffffffffffffffffffffffffffff168152602001908152602001600020819055505b5080806104da90610c6b565b91505061038e565b505050505050565b60008060003373ffffffffffffffffffffffffffffffffffffffff1673ffffffffffffffffffffffffffffffffffffffff16815260200190815260200160002054905060008111610570576040517f08c379a000000000000000000000000000000000000000000000000000000000815260040161056790610e88565b60405180910390fd5b60008060003373ffffffffffffffffffffffffffffffffffffffff1673ffffffffffffffffffffffffffffffffffffffff1681526020019081526020016000208190555060008273ffffffffffffffffffffffffffffffffffffffff16826040516105da90610e27565b60006040518083038185875af1925050503d8060008114610617576040519150601f19603f3d011682016040523d82523d6000602084013e61061c565b606091505b505090508015610661576040517f08c379a000000000000000000000000000000000000000000000000000000000815260040161065890610ef4565b60405180910390fd5b505050565b600080600090505b838390508110156106b35783838281811061068c5761068b610b71565b5b905060200201358261069e9190610f14565b915080806106ab90610c6b565b91505061066e565b5092915050565b600080fd5b600080fd5b600073ffffffffffffffffffffffffffffffffffffffff82169050919050565b60006106ef826106c4565b9050919050565b6106ff816106e4565b811461070a57600080fd5b50565b60008135905061071c816106f6565b92915050565b600080fd5b600080fd5b600080fd5b60008083601f84011261074757610746610722565b5b8235905067ffffffffffffffff81111561076457610763610727565b5b6020830191508360208202830111156107805761077f61072c565b5b9250929050565b60008083601f84011261079d5761079c610722565b5b8235905067ffffffffffffffff8111156107ba576107b9610727565b5b6020830191508360208202830111156107d6576107d561072c565b5b9250929050565b6000806000806000606086880312156107f9576107f86106ba565b5b60006108078882890161070d565b955050602086013567ffffffffffffffff811115610828576108276106bf565b5b61083488828901610731565b9450945050604086013567ffffffffffffffff811115610857576108566106bf565b5b61086388828901610787565b92509250509295509295909350565b60008083601f84011261088857610887610722565b5b8235905067ffffffffffffffff8111156108a5576108a4610727565b5b6020830191508360208202830111156108c1576108c061072c565b5b9250929050565b600080600080604085870312156108e2576108e16106ba565b5b600085013567ffffffffffffffff811115610900576108ff6106bf565b5b61090c87828801610872565b9450945050602085013567ffffffffffffffff81111561092f5761092e6106bf565b5b61093b87828801610787565b925092505092959194509250565b60006020828403121561095f5761095e6106ba565b5b600061096d8482850161070d565b91505092915050565b6000806020838503121561098d5761098c6106ba565b5b600083013567ffffffffffffffff8111156109ab576109aa6106bf565b5b6109b785828601610787565b92509250509250929050565b6000819050919050565b6109d6816109c3565b82525050565b60006020820190506109f160008301846109cd565b92915050565b600082825260208201905092915050565b7f6c656e677468206e6f7420636f6e726563740000000000000000000000000000600082015250565b6000610a3e6012836109f7565b9150610a4982610a08565b602082019050919050565b60006020820190508181036000830152610a6d81610a31565b9050919050565b610a7d816106e4565b82525050565b6000604082019050610a986000830185610a74565b610aa56020830184610a74565b9392505050565b610ab5816109c3565b8114610ac057600080fd5b50565b600081519050610ad281610aac565b92915050565b600060208284031215610aee57610aed6106ba565b5b6000610afc84828501610ac3565b91505092915050565b7f6e65656420617070726f766520657263323020746f6b656e0000000000000000600082015250565b6000610b3b6018836109f7565b9150610b4682610b05565b602082019050919050565b60006020820190508181036000830152610b6a81610b2e565b9050919050565b7f4e487b7100000000000000000000000000000000000000000000000000000000600052603260045260246000fd5b6000606082019050610bb56000830186610a74565b610bc26020830185610a74565b610bcf60408301846109cd565b949350505050565b60008115159050919050565b610bec81610bd7565b8114610bf757600080fd5b50565b600081519050610c0981610be3565b92915050565b600060208284031215610c2557610c246106ba565b5b6000610c3384828501610bfa565b91505092915050565b7f4e487b7100000000000000000000000000000000000000000000000000000000600052601160045260246000fd5b6000610c76826109c3565b91507fffffffffffffffffffffffffffffffffffffffffffffffffffffffffffffffff8203610ca857610ca7610c3c565b5b600182019050919050565b7f6c656e746768206e6f7420657175616c00000000000000000000000000000000600082015250565b6000610ce96010836109f7565b9150610cf482610cb3565b602082019050919050565b60006020820190508181036000830152610d1881610cdc565b9050919050565b7f7472616e7366657220616d6f756e74206572726f720000000000000000000000600082015250565b6000610d556015836109f7565b9150610d6082610d1f565b602082019050919050565b60006020820190508181036000830152610d8481610d48565b9050919050565b6000610d96826106c4565b9050919050565b610da681610d8b565b8114610db157600080fd5b50565b600081359050610dc381610d9d565b92915050565b600060208284031215610ddf57610dde6106ba565b5b6000610ded84828501610db4565b91505092915050565b600081905092915050565b50565b6000610e11600083610df6565b9150610e1c82610e01565b600082019050919050565b6000610e3282610e04565b9150819050919050565b7f796f7520617265206e6f7420696e206661696c6564206c697374000000000000600082015250565b6000610e72601a836109f7565b9150610e7d82610e3c565b602082019050919050565b60006020820190508181036000830152610ea181610e65565b9050919050565b7f63616c6c20657468206661696c65640000000000000000000000000000000000600082015250565b6000610ede600f836109f7565b9150610ee982610ea8565b602082019050919050565b60006020820190508181036000830152610f0d81610ed1565b9050919050565b6000610f1f826109c3565b9150610f2a836109c3565b9250828201905080821115610f4257610f41610c3c565b5b9291505056fea264697066735822122094aa20b0eba7b11128be47eefe48d25ab2e978c992fe1e7d12c1fd8b021b722664736f6c63430008120033",
					"opcodes": "PUSH1 0x80 PUSH1 0x40 MSTORE CALLVALUE DUP1 ISZERO PUSH2 0x10 JUMPI PUSH1 0x0 DUP1 REVERT JUMPDEST POP PUSH2 0xF7E DUP1 PUSH2 0x20 PUSH1 0x0 CODECOPY PUSH1 0x0 RETURN INVALID PUSH1 0x80 PUSH1 0x40 MSTORE PUSH1 0x4 CALLDATASIZE LT PUSH2 0x3F JUMPI PUSH1 0x0 CALLDATALOAD PUSH1 0xE0 SHR DUP1 PUSH4 0x41ED24A2 EQ PUSH2 0x44 JUMPI DUP1 PUSH4 0x77988CF8 EQ PUSH2 0x6D JUMPI DUP1 PUSH4 0xACACD8EE EQ PUSH2 0x89 JUMPI DUP1 PUSH4 0xCCB8C1E0 EQ PUSH2 0xB2 JUMPI JUMPDEST PUSH1 0x0 DUP1 REVERT JUMPDEST CALLVALUE DUP1 ISZERO PUSH2 0x50 JUMPI PUSH1 0x0 DUP1 REVERT JUMPDEST POP PUSH2 0x6B PUSH1 0x4 DUP1 CALLDATASIZE SUB DUP2 ADD SWAP1 PUSH2 0x66 SWAP2 SWAP1 PUSH2 0x7DD JUMP JUMPDEST PUSH2 0xEF JUMP JUMPDEST STOP JUMPDEST PUSH2 0x87 PUSH1 0x4 DUP1 CALLDATASIZE SUB DUP2 ADD SWAP1 PUSH2 0x82 SWAP2 SWAP1 PUSH2 0x8C8 JUMP JUMPDEST PUSH2 0x2F3 JUMP JUMPDEST STOP JUMPDEST CALLVALUE DUP1 ISZERO PUSH2 0x95 JUMPI PUSH1 0x0 DUP1 REVERT JUMPDEST POP PUSH2 0xB0 PUSH1 0x4 DUP1 CALLDATASIZE SUB DUP2 ADD SWAP1 PUSH2 0xAB SWAP2 SWAP1 PUSH2 0x949 JUMP JUMPDEST PUSH2 0x4EA JUMP JUMPDEST STOP JUMPDEST CALLVALUE DUP1 ISZERO PUSH2 0xBE JUMPI PUSH1 0x0 DUP1 REVERT JUMPDEST POP PUSH2 0xD9 PUSH1 0x4 DUP1 CALLDATASIZE SUB DUP2 ADD SWAP1 PUSH2 0xD4 SWAP2 SWAP1 PUSH2 0x976 JUMP JUMPDEST PUSH2 0x666 JUMP JUMPDEST PUSH1 0x40 MLOAD PUSH2 0xE6 SWAP2 SWAP1 PUSH2 0x9DC JUMP JUMPDEST PUSH1 0x40 MLOAD DUP1 SWAP2 SUB SWAP1 RETURN JUMPDEST DUP2 DUP2 SWAP1 POP DUP5 DUP5 SWAP1 POP EQ PUSH2 0x137 JUMPI PUSH1 0x40 MLOAD PUSH32 0x8C379A000000000000000000000000000000000000000000000000000000000 DUP2 MSTORE PUSH1 0x4 ADD PUSH2 0x12E SWAP1 PUSH2 0xA54 JUMP JUMPDEST PUSH1 0x40 MLOAD DUP1 SWAP2 SUB SWAP1 REVERT JUMPDEST PUSH1 0x0 DUP6 SWAP1 POP PUSH1 0x0 PUSH2 0x148 DUP5 DUP5 PUSH2 0x666 JUMP JUMPDEST SWAP1 POP DUP1 DUP3 PUSH20 0xFFFFFFFFFFFFFFFFFFFFFFFFFFFFFFFFFFFFFFFF AND PUSH4 0xDD62ED3E CALLER ADDRESS PUSH1 0x40 MLOAD DUP4 PUSH4 0xFFFFFFFF AND PUSH1 0xE0 SHL DUP2 MSTORE PUSH1 0x4 ADD PUSH2 0x186 SWAP3 SWAP2 SWAP1 PUSH2 0xA83 JUMP JUMPDEST PUSH1 0x20 PUSH1 0x40 MLOAD DUP1 DUP4 SUB DUP2 DUP7 GAS STATICCALL ISZERO DUP1 ISZERO PUSH2 0x1A3 JUMPI RETURNDATASIZE PUSH1 0x0 DUP1 RETURNDATACOPY RETURNDATASIZE PUSH1 0x0 REVERT JUMPDEST POP POP POP POP PUSH1 0x40 MLOAD RETURNDATASIZE PUSH1 0x1F NOT PUSH1 0x1F DUP3 ADD AND DUP3 ADD DUP1 PUSH1 0x40 MSTORE POP DUP2 ADD SWAP1 PUSH2 0x1C7 SWAP2 SWAP1 PUSH2 0xAD8 JUMP JUMPDEST GT PUSH2 0x207 JUMPI PUSH1 0x40 MLOAD PUSH32 0x8C379A000000000000000000000000000000000000000000000000000000000 DUP2 MSTORE PUSH1 0x4 ADD PUSH2 0x1FE SWAP1 PUSH2 0xB51 JUMP JUMPDEST PUSH1 0x40 MLOAD DUP1 SWAP2 SUB SWAP1 REVERT JUMPDEST PUSH1 0x0 JUMPDEST DUP7 DUP7 SWAP1 POP DUP2 LT ISZERO PUSH2 0x2E9 JUMPI DUP3 PUSH20 0xFFFFFFFFFFFFFFFFFFFFFFFFFFFFFFFFFFFFFFFF AND PUSH4 0x23B872DD CALLER DUP10 DUP10 DUP6 DUP2 DUP2 LT PUSH2 0x245 JUMPI PUSH2 0x244 PUSH2 0xB71 JUMP JUMPDEST JUMPDEST SWAP1 POP PUSH1 0x20 MUL ADD PUSH1 0x20 DUP2 ADD SWAP1 PUSH2 0x25A SWAP2 SWAP1 PUSH2 0x949 JUMP JUMPDEST DUP9 DUP9 DUP7 DUP2 DUP2 LT PUSH2 0x26D JUMPI PUSH2 0x26C PUSH2 0xB71 JUMP JUMPDEST JUMPDEST SWAP1 POP PUSH1 0x20 MUL ADD CALLDATALOAD PUSH1 0x40 MLOAD DUP5 PUSH4 0xFFFFFFFF AND PUSH1 0xE0 SHL DUP2 MSTORE PUSH1 0x4 ADD PUSH2 0x292 SWAP4 SWAP3 SWAP2 SWAP1 PUSH2 0xBA0 JUMP JUMPDEST PUSH1 0x20 PUSH1 0x40 MLOAD DUP1 DUP4 SUB DUP2 PUSH1 0x0 DUP8 GAS CALL ISZERO DUP1 ISZERO PUSH2 0x2B1 JUMPI RETURNDATASIZE PUSH1 0x0 DUP1 RETURNDATACOPY RETURNDATASIZE PUSH1 0x0 REVERT JUMPDEST POP POP POP POP PUSH1 0x40 MLOAD RETURNDATASIZE PUSH1 0x1F NOT PUSH1 0x1F DUP3 ADD AND DUP3 ADD DUP1 PUSH1 0x40 MSTORE POP DUP2 ADD SWAP1 PUSH2 0x2D5 SWAP2 SWAP1 PUSH2 0xC0F JUMP JUMPDEST POP DUP1 DUP1 PUSH2 0x2E1 SWAP1 PUSH2 0xC6B JUMP JUMPDEST SWAP2 POP POP PUSH2 0x20A JUMP JUMPDEST POP POP POP POP POP POP POP POP JUMP JUMPDEST DUP2 DUP2 SWAP1 POP DUP5 DUP5 SWAP1 POP EQ PUSH2 0x33B JUMPI PUSH1 0x40 MLOAD PUSH32 0x8C379A000000000000000000000000000000000000000000000000000000000 DUP2 MSTORE PUSH1 0x4 ADD PUSH2 0x332 SWAP1 PUSH2 0xCFF JUMP JUMPDEST PUSH1 0x40 MLOAD DUP1 SWAP2 SUB SWAP1 REVERT JUMPDEST PUSH1 0x0 PUSH2 0x347 DUP4 DUP4 PUSH2 0x666 JUMP JUMPDEST SWAP1 POP DUP1 CALLVALUE EQ PUSH2 0x38B JUMPI PUSH1 0x40 MLOAD PUSH32 0x8C379A000000000000000000000000000000000000000000000000000000000 DUP2 MSTORE PUSH1 0x4 ADD PUSH2 0x382 SWAP1 PUSH2 0xD6B JUMP JUMPDEST PUSH1 0x40 MLOAD DUP1 SWAP2 SUB SWAP1 REVERT JUMPDEST PUSH1 0x0 JUMPDEST DUP6 DUP6 SWAP1 POP DUP2 LT ISZERO PUSH2 0x4E2 JUMPI PUSH1 0x0 DUP7 DUP7 DUP4 DUP2 DUP2 LT PUSH2 0x3AE JUMPI PUSH2 0x3AD PUSH2 0xB71 JUMP JUMPDEST JUMPDEST SWAP1 POP PUSH1 0x20 MUL ADD PUSH1 0x20 DUP2 ADD SWAP1 PUSH2 0x3C3 SWAP2 SWAP1 PUSH2 0xDC9 JUMP JUMPDEST PUSH20 0xFFFFFFFFFFFFFFFFFFFFFFFFFFFFFFFFFFFFFFFF AND DUP6 DUP6 DUP5 DUP2 DUP2 LT PUSH2 0x3EC JUMPI PUSH2 0x3EB PUSH2 0xB71 JUMP JUMPDEST JUMPDEST SWAP1 POP PUSH1 0x20 MUL ADD CALLDATALOAD PUSH1 0x40 MLOAD PUSH2 0x3FF SWAP1 PUSH2 0xE27 JUMP JUMPDEST PUSH1 0x0 PUSH1 0x40 MLOAD DUP1 DUP4 SUB DUP2 DUP6 DUP8 GAS CALL SWAP3 POP POP POP RETURNDATASIZE DUP1 PUSH1 0x0 DUP2 EQ PUSH2 0x43C JUMPI PUSH1 0x40 MLOAD SWAP2 POP PUSH1 0x1F NOT PUSH1 0x3F RETURNDATASIZE ADD AND DUP3 ADD PUSH1 0x40 MSTORE RETURNDATASIZE DUP3 MSTORE RETURNDATASIZE PUSH1 0x0 PUSH1 0x20 DUP5 ADD RETURNDATACOPY PUSH2 0x441 JUMP JUMPDEST PUSH1 0x60 SWAP2 POP JUMPDEST POP POP SWAP1 POP DUP1 PUSH2 0x4CE JUMPI DUP5 DUP5 DUP4 DUP2 DUP2 LT PUSH2 0x45D JUMPI PUSH2 0x45C PUSH2 0xB71 JUMP JUMPDEST JUMPDEST SWAP1 POP PUSH1 0x20 MUL ADD CALLDATALOAD PUSH1 0x0 DUP1 DUP10 DUP10 DUP7 DUP2 DUP2 LT PUSH2 0x47A JUMPI PUSH2 0x479 PUSH2 0xB71 JUMP JUMPDEST JUMPDEST SWAP1 POP PUSH1 0x20 MUL ADD PUSH1 0x20 DUP2 ADD SWAP1 PUSH2 0x48F SWAP2 SWAP1 PUSH2 0xDC9 JUMP JUMPDEST PUSH20 0xFFFFFFFFFFFFFFFFFFFFFFFFFFFFFFFFFFFFFFFF AND PUSH20 0xFFFFFFFFFFFFFFFFFFFFFFFFFFFFFFFFFFFFFFFF AND DUP2 MSTORE PUSH1 0x20 ADD SWAP1 DUP2 MSTORE PUSH1 0x20 ADD PUSH1 0x0 KECCAK256 DUP2 SWAP1 SSTORE POP JUMPDEST POP DUP1 DUP1 PUSH2 0x4DA SWAP1 PUSH2 0xC6B JUMP JUMPDEST SWAP2 POP POP PUSH2 0x38E JUMP JUMPDEST POP POP POP POP POP POP JUMP JUMPDEST PUSH1 0x0 DUP1 PUSH1 0x0 CALLER PUSH20 0xFFFFFFFFFFFFFFFFFFFFFFFFFFFFFFFFFFFFFFFF AND PUSH20 0xFFFFFFFFFFFFFFFFFFFFFFFFFFFFFFFFFFFFFFFF AND DUP2 MSTORE PUSH1 0x20 ADD SWAP1 DUP2 MSTORE PUSH1 0x20 ADD PUSH1 0x0 KECCAK256 SLOAD SWAP1 POP PUSH1 0x0 DUP2 GT PUSH2 0x570 JUMPI PUSH1 0x40 MLOAD PUSH32 0x8C379A000000000000000000000000000000000000000000000000000000000 DUP2 MSTORE PUSH1 0x4 ADD PUSH2 0x567 SWAP1 PUSH2 0xE88 JUMP JUMPDEST PUSH1 0x40 MLOAD DUP1 SWAP2 SUB SWAP1 REVERT JUMPDEST PUSH1 0x0 DUP1 PUSH1 0x0 CALLER PUSH20 0xFFFFFFFFFFFFFFFFFFFFFFFFFFFFFFFFFFFFFFFF AND PUSH20 0xFFFFFFFFFFFFFFFFFFFFFFFFFFFFFFFFFFFFFFFF AND DUP2 MSTORE PUSH1 0x20 ADD SWAP1 DUP2 MSTORE PUSH1 0x20 ADD PUSH1 0x0 KECCAK256 DUP2 SWAP1 SSTORE POP PUSH1 0x0 DUP3 PUSH20 0xFFFFFFFFFFFFFFFFFFFFFFFFFFFFFFFFFFFFFFFF AND DUP3 PUSH1 0x40 MLOAD PUSH2 0x5DA SWAP1 PUSH2 0xE27 JUMP JUMPDEST PUSH1 0x0 PUSH1 0x40 MLOAD DUP1 DUP4 SUB DUP2 DUP6 DUP8 GAS CALL SWAP3 POP POP POP RETURNDATASIZE DUP1 PUSH1 0x0 DUP2 EQ PUSH2 0x617 JUMPI PUSH1 0x40 MLOAD SWAP2 POP PUSH1 0x1F NOT PUSH1 0x3F RETURNDATASIZE ADD AND DUP3 ADD PUSH1 0x40 MSTORE RETURNDATASIZE DUP3 MSTORE RETURNDATASIZE PUSH1 0x0 PUSH1 0x20 DUP5 ADD RETURNDATACOPY PUSH2 0x61C JUMP JUMPDEST PUSH1 0x60 SWAP2 POP JUMPDEST POP POP SWAP1 POP DUP1 ISZERO PUSH2 0x661 JUMPI PUSH1 0x40 MLOAD PUSH32 0x8C379A000000000000000000000000000000000000000000000000000000000 DUP2 MSTORE PUSH1 0x4 ADD PUSH2 0x658 SWAP1 PUSH2 0xEF4 JUMP JUMPDEST PUSH1 0x40 MLOAD DUP1 SWAP2 SUB SWAP1 REVERT JUMPDEST POP POP POP JUMP JUMPDEST PUSH1 0x0 DUP1 PUSH1 0x0 SWAP1 POP JUMPDEST DUP4 DUP4 SWAP1 POP DUP2 LT ISZERO PUSH2 0x6B3 JUMPI DUP4 DUP4 DUP3 DUP2 DUP2 LT PUSH2 0x68C JUMPI PUSH2 0x68B PUSH2 0xB71 JUMP JUMPDEST JUMPDEST SWAP1 POP PUSH1 0x20 MUL ADD CALLDATALOAD DUP3 PUSH2 0x69E SWAP2 SWAP1 PUSH2 0xF14 JUMP JUMPDEST SWAP2 POP DUP1 DUP1 PUSH2 0x6AB SWAP1 PUSH2 0xC6B JUMP JUMPDEST SWAP2 POP POP PUSH2 0x66E JUMP JUMPDEST POP SWAP3 SWAP2 POP POP JUMP JUMPDEST PUSH1 0x0 DUP1 REVERT JUMPDEST PUSH1 0x0 DUP1 REVERT JUMPDEST PUSH1 0x0 PUSH20 0xFFFFFFFFFFFFFFFFFFFFFFFFFFFFFFFFFFFFFFFF DUP3 AND SWAP1 POP SWAP2 SWAP1 POP JUMP JUMPDEST PUSH1 0x0 PUSH2 0x6EF DUP3 PUSH2 0x6C4 JUMP JUMPDEST SWAP1 POP SWAP2 SWAP1 POP JUMP JUMPDEST PUSH2 0x6FF DUP2 PUSH2 0x6E4 JUMP JUMPDEST DUP2 EQ PUSH2 0x70A JUMPI PUSH1 0x0 DUP1 REVERT JUMPDEST POP JUMP JUMPDEST PUSH1 0x0 DUP2 CALLDATALOAD SWAP1 POP PUSH2 0x71C DUP2 PUSH2 0x6F6 JUMP JUMPDEST SWAP3 SWAP2 POP POP JUMP JUMPDEST PUSH1 0x0 DUP1 REVERT JUMPDEST PUSH1 0x0 DUP1 REVERT JUMPDEST PUSH1 0x0 DUP1 REVERT JUMPDEST PUSH1 0x0 DUP1 DUP4 PUSH1 0x1F DUP5 ADD SLT PUSH2 0x747 JUMPI PUSH2 0x746 PUSH2 0x722 JUMP JUMPDEST JUMPDEST DUP3 CALLDATALOAD SWAP1 POP PUSH8 0xFFFFFFFFFFFFFFFF DUP2 GT ISZERO PUSH2 0x764 JUMPI PUSH2 0x763 PUSH2 0x727 JUMP JUMPDEST JUMPDEST PUSH1 0x20 DUP4 ADD SWAP2 POP DUP4 PUSH1 0x20 DUP3 MUL DUP4 ADD GT ISZERO PUSH2 0x780 JUMPI PUSH2 0x77F PUSH2 0x72C JUMP JUMPDEST JUMPDEST SWAP3 POP SWAP3 SWAP1 POP JUMP JUMPDEST PUSH1 0x0 DUP1 DUP4 PUSH1 0x1F DUP5 ADD SLT PUSH2 0x79D JUMPI PUSH2 0x79C PUSH2 0x722 JUMP JUMPDEST JUMPDEST DUP3 CALLDATALOAD SWAP1 POP PUSH8 0xFFFFFFFFFFFFFFFF DUP2 GT ISZERO PUSH2 0x7BA JUMPI PUSH2 0x7B9 PUSH2 0x727 JUMP JUMPDEST JUMPDEST PUSH1 0x20 DUP4 ADD SWAP2 POP DUP4 PUSH1 0x20 DUP3 MUL DUP4 ADD GT ISZERO PUSH2 0x7D6 JUMPI PUSH2 0x7D5 PUSH2 0x72C JUMP JUMPDEST JUMPDEST SWAP3 POP SWAP3 SWAP1 POP JUMP JUMPDEST PUSH1 0x0 DUP1 PUSH1 0x0 DUP1 PUSH1 0x0 PUSH1 0x60 DUP7 DUP9 SUB SLT ISZERO PUSH2 0x7F9 JUMPI PUSH2 0x7F8 PUSH2 0x6BA JUMP JUMPDEST JUMPDEST PUSH1 0x0 PUSH2 0x807 DUP9 DUP3 DUP10 ADD PUSH2 0x70D JUMP JUMPDEST SWAP6 POP POP PUSH1 0x20 DUP7 ADD CALLDATALOAD PUSH8 0xFFFFFFFFFFFFFFFF DUP2 GT ISZERO PUSH2 0x828 JUMPI PUSH2 0x827 PUSH2 0x6BF JUMP JUMPDEST JUMPDEST PUSH2 0x834 DUP9 DUP3 DUP10 ADD PUSH2 0x731 JUMP JUMPDEST SWAP5 POP SWAP5 POP POP PUSH1 0x40 DUP7 ADD CALLDATALOAD PUSH8 0xFFFFFFFFFFFFFFFF DUP2 GT ISZERO PUSH2 0x857 JUMPI PUSH2 0x856 PUSH2 0x6BF JUMP JUMPDEST JUMPDEST PUSH2 0x863 DUP9 DUP3 DUP10 ADD PUSH2 0x787 JUMP JUMPDEST SWAP3 POP SWAP3 POP POP SWAP3 SWAP6 POP SWAP3 SWAP6 SWAP1 SWAP4 POP JUMP JUMPDEST PUSH1 0x0 DUP1 DUP4 PUSH1 0x1F DUP5 ADD SLT PUSH2 0x888 JUMPI PUSH2 0x887 PUSH2 0x722 JUMP JUMPDEST JUMPDEST DUP3 CALLDATALOAD SWAP1 POP PUSH8 0xFFFFFFFFFFFFFFFF DUP2 GT ISZERO PUSH2 0x8A5 JUMPI PUSH2 0x8A4 PUSH2 0x727 JUMP JUMPDEST JUMPDEST PUSH1 0x20 DUP4 ADD SWAP2 POP DUP4 PUSH1 0x20 DUP3 MUL DUP4 ADD GT ISZERO PUSH2 0x8C1 JUMPI PUSH2 0x8C0 PUSH2 0x72C JUMP JUMPDEST JUMPDEST SWAP3 POP SWAP3 SWAP1 POP JUMP JUMPDEST PUSH1 0x0 DUP1 PUSH1 0x0 DUP1 PUSH1 0x40 DUP6 DUP8 SUB SLT ISZERO PUSH2 0x8E2 JUMPI PUSH2 0x8E1 PUSH2 0x6BA JUMP JUMPDEST JUMPDEST PUSH1 0x0 DUP6 ADD CALLDATALOAD PUSH8 0xFFFFFFFFFFFFFFFF DUP2 GT ISZERO PUSH2 0x900 JUMPI PUSH2 0x8FF PUSH2 0x6BF JUMP JUMPDEST JUMPDEST PUSH2 0x90C DUP8 DUP3 DUP9 ADD PUSH2 0x872 JUMP JUMPDEST SWAP5 POP SWAP5 POP POP PUSH1 0x20 DUP6 ADD CALLDATALOAD PUSH8 0xFFFFFFFFFFFFFFFF DUP2 GT ISZERO PUSH2 0x92F JUMPI PUSH2 0x92E PUSH2 0x6BF JUMP JUMPDEST JUMPDEST PUSH2 0x93B DUP8 DUP3 DUP9 ADD PUSH2 0x787 JUMP JUMPDEST SWAP3 POP SWAP3 POP POP SWAP3 SWAP6 SWAP2 SWAP5 POP SWAP3 POP JUMP JUMPDEST PUSH1 0x0 PUSH1 0x20 DUP3 DUP5 SUB SLT ISZERO PUSH2 0x95F JUMPI PUSH2 0x95E PUSH2 0x6BA JUMP JUMPDEST JUMPDEST PUSH1 0x0 PUSH2 0x96D DUP5 DUP3 DUP6 ADD PUSH2 0x70D JUMP JUMPDEST SWAP2 POP POP SWAP3 SWAP2 POP POP JUMP JUMPDEST PUSH1 0x0 DUP1 PUSH1 0x20 DUP4 DUP6 SUB SLT ISZERO PUSH2 0x98D JUMPI PUSH2 0x98C PUSH2 0x6BA JUMP JUMPDEST JUMPDEST PUSH1 0x0 DUP4 ADD CALLDATALOAD PUSH8 0xFFFFFFFFFFFFFFFF DUP2 GT ISZERO PUSH2 0x9AB JUMPI PUSH2 0x9AA PUSH2 0x6BF JUMP JUMPDEST JUMPDEST PUSH2 0x9B7 DUP6 DUP3 DUP7 ADD PUSH2 0x787 JUMP JUMPDEST SWAP3 POP SWAP3 POP POP SWAP3 POP SWAP3 SWAP1 POP JUMP JUMPDEST PUSH1 0x0 DUP2 SWAP1 POP SWAP2 SWAP1 POP JUMP JUMPDEST PUSH2 0x9D6 DUP2 PUSH2 0x9C3 JUMP JUMPDEST DUP3 MSTORE POP POP JUMP JUMPDEST PUSH1 0x0 PUSH1 0x20 DUP3 ADD SWAP1 POP PUSH2 0x9F1 PUSH1 0x0 DUP4 ADD DUP5 PUSH2 0x9CD JUMP JUMPDEST SWAP3 SWAP2 POP POP JUMP JUMPDEST PUSH1 0x0 DUP3 DUP3 MSTORE PUSH1 0x20 DUP3 ADD SWAP1 POP SWAP3 SWAP2 POP POP JUMP JUMPDEST PUSH32 0x6C656E677468206E6F7420636F6E726563740000000000000000000000000000 PUSH1 0x0 DUP3 ADD MSTORE POP JUMP JUMPDEST PUSH1 0x0 PUSH2 0xA3E PUSH1 0x12 DUP4 PUSH2 0x9F7 JUMP JUMPDEST SWAP2 POP PUSH2 0xA49 DUP3 PUSH2 0xA08 JUMP JUMPDEST PUSH1 0x20 DUP3 ADD SWAP1 POP SWAP2 SWAP1 POP JUMP JUMPDEST PUSH1 0x0 PUSH1 0x20 DUP3 ADD SWAP1 POP DUP2 DUP2 SUB PUSH1 0x0 DUP4 ADD MSTORE PUSH2 0xA6D DUP2 PUSH2 0xA31 JUMP JUMPDEST SWAP1 POP SWAP2 SWAP1 POP JUMP JUMPDEST PUSH2 0xA7D DUP2 PUSH2 0x6E4 JUMP JUMPDEST DUP3 MSTORE POP POP JUMP JUMPDEST PUSH1 0x0 PUSH1 0x40 DUP3 ADD SWAP1 POP PUSH2 0xA98 PUSH1 0x0 DUP4 ADD DUP6 PUSH2 0xA74 JUMP JUMPDEST PUSH2 0xAA5 PUSH1 0x20 DUP4 ADD DUP5 PUSH2 0xA74 JUMP JUMPDEST SWAP4 SWAP3 POP POP POP JUMP JUMPDEST PUSH2 0xAB5 DUP2 PUSH2 0x9C3 JUMP JUMPDEST DUP2 EQ PUSH2 0xAC0 JUMPI PUSH1 0x0 DUP1 REVERT JUMPDEST POP JUMP JUMPDEST PUSH1 0x0 DUP2 MLOAD SWAP1 POP PUSH2 0xAD2 DUP2 PUSH2 0xAAC JUMP JUMPDEST SWAP3 SWAP2 POP POP JUMP JUMPDEST PUSH1 0x0 PUSH1 0x20 DUP3 DUP5 SUB SLT ISZERO PUSH2 0xAEE JUMPI PUSH2 0xAED PUSH2 0x6BA JUMP JUMPDEST JUMPDEST PUSH1 0x0 PUSH2 0xAFC DUP5 DUP3 DUP6 ADD PUSH2 0xAC3 JUMP JUMPDEST SWAP2 POP POP SWAP3 SWAP2 POP POP JUMP JUMPDEST PUSH32 0x6E65656420617070726F766520657263323020746F6B656E0000000000000000 PUSH1 0x0 DUP3 ADD MSTORE POP JUMP JUMPDEST PUSH1 0x0 PUSH2 0xB3B PUSH1 0x18 DUP4 PUSH2 0x9F7 JUMP JUMPDEST SWAP2 POP PUSH2 0xB46 DUP3 PUSH2 0xB05 JUMP JUMPDEST PUSH1 0x20 DUP3 ADD SWAP1 POP SWAP2 SWAP1 POP JUMP JUMPDEST PUSH1 0x0 PUSH1 0x20 DUP3 ADD SWAP1 POP DUP2 DUP2 SUB PUSH1 0x0 DUP4 ADD MSTORE PUSH2 0xB6A DUP2 PUSH2 0xB2E JUMP JUMPDEST SWAP1 POP SWAP2 SWAP1 POP JUMP JUMPDEST PUSH32 0x4E487B7100000000000000000000000000000000000000000000000000000000 PUSH1 0x0 MSTORE PUSH1 0x32 PUSH1 0x4 MSTORE PUSH1 0x24 PUSH1 0x0 REVERT JUMPDEST PUSH1 0x0 PUSH1 0x60 DUP3 ADD SWAP1 POP PUSH2 0xBB5 PUSH1 0x0 DUP4 ADD DUP7 PUSH2 0xA74 JUMP JUMPDEST PUSH2 0xBC2 PUSH1 0x20 DUP4 ADD DUP6 PUSH2 0xA74 JUMP JUMPDEST PUSH2 0xBCF PUSH1 0x40 DUP4 ADD DUP5 PUSH2 0x9CD JUMP JUMPDEST SWAP5 SWAP4 POP POP POP POP JUMP JUMPDEST PUSH1 0x0 DUP2 ISZERO ISZERO SWAP1 POP SWAP2 SWAP1 POP JUMP JUMPDEST PUSH2 0xBEC DUP2 PUSH2 0xBD7 JUMP JUMPDEST DUP2 EQ PUSH2 0xBF7 JUMPI PUSH1 0x0 DUP1 REVERT JUMPDEST POP JUMP JUMPDEST PUSH1 0x0 DUP2 MLOAD SWAP1 POP PUSH2 0xC09 DUP2 PUSH2 0xBE3 JUMP JUMPDEST SWAP3 SWAP2 POP POP JUMP JUMPDEST PUSH1 0x0 PUSH1 0x20 DUP3 DUP5 SUB SLT ISZERO PUSH2 0xC25 JUMPI PUSH2 0xC24 PUSH2 0x6BA JUMP JUMPDEST JUMPDEST PUSH1 0x0 PUSH2 0xC33 DUP5 DUP3 DUP6 ADD PUSH2 0xBFA JUMP JUMPDEST SWAP2 POP POP SWAP3 SWAP2 POP POP JUMP JUMPDEST PUSH32 0x4E487B7100000000000000000000000000000000000000000000000000000000 PUSH1 0x0 MSTORE PUSH1 0x11 PUSH1 0x4 MSTORE PUSH1 0x24 PUSH1 0x0 REVERT JUMPDEST PUSH1 0x0 PUSH2 0xC76 DUP3 PUSH2 0x9C3 JUMP JUMPDEST SWAP2 POP PUSH32 0xFFFFFFFFFFFFFFFFFFFFFFFFFFFFFFFFFFFFFFFFFFFFFFFFFFFFFFFFFFFFFFFF DUP3 SUB PUSH2 0xCA8 JUMPI PUSH2 0xCA7 PUSH2 0xC3C JUMP JUMPDEST JUMPDEST PUSH1 0x1 DUP3 ADD SWAP1 POP SWAP2 SWAP1 POP JUMP JUMPDEST PUSH32 0x6C656E746768206E6F7420657175616C00000000000000000000000000000000 PUSH1 0x0 DUP3 ADD MSTORE POP JUMP JUMPDEST PUSH1 0x0 PUSH2 0xCE9 PUSH1 0x10 DUP4 PUSH2 0x9F7 JUMP JUMPDEST SWAP2 POP PUSH2 0xCF4 DUP3 PUSH2 0xCB3 JUMP JUMPDEST PUSH1 0x20 DUP3 ADD SWAP1 POP SWAP2 SWAP1 POP JUMP JUMPDEST PUSH1 0x0 PUSH1 0x20 DUP3 ADD SWAP1 POP DUP2 DUP2 SUB PUSH1 0x0 DUP4 ADD MSTORE PUSH2 0xD18 DUP2 PUSH2 0xCDC JUMP JUMPDEST SWAP1 POP SWAP2 SWAP1 POP JUMP JUMPDEST PUSH32 0x7472616E7366657220616D6F756E74206572726F720000000000000000000000 PUSH1 0x0 DUP3 ADD MSTORE POP JUMP JUMPDEST PUSH1 0x0 PUSH2 0xD55 PUSH1 0x15 DUP4 PUSH2 0x9F7 JUMP JUMPDEST SWAP2 POP PUSH2 0xD60 DUP3 PUSH2 0xD1F JUMP JUMPDEST PUSH1 0x20 DUP3 ADD SWAP1 POP SWAP2 SWAP1 POP JUMP JUMPDEST PUSH1 0x0 PUSH1 0x20 DUP3 ADD SWAP1 POP DUP2 DUP2 SUB PUSH1 0x0 DUP4 ADD MSTORE PUSH2 0xD84 DUP2 PUSH2 0xD48 JUMP JUMPDEST SWAP1 POP SWAP2 SWAP1 POP JUMP JUMPDEST PUSH1 0x0 PUSH2 0xD96 DUP3 PUSH2 0x6C4 JUMP JUMPDEST SWAP1 POP SWAP2 SWAP1 POP JUMP JUMPDEST PUSH2 0xDA6 DUP2 PUSH2 0xD8B JUMP JUMPDEST DUP2 EQ PUSH2 0xDB1 JUMPI PUSH1 0x0 DUP1 REVERT JUMPDEST POP JUMP JUMPDEST PUSH1 0x0 DUP2 CALLDATALOAD SWAP1 POP PUSH2 0xDC3 DUP2 PUSH2 0xD9D JUMP JUMPDEST SWAP3 SWAP2 POP POP JUMP JUMPDEST PUSH1 0x0 PUSH1 0x20 DUP3 DUP5 SUB SLT ISZERO PUSH2 0xDDF JUMPI PUSH2 0xDDE PUSH2 0x6BA JUMP JUMPDEST JUMPDEST PUSH1 0x0 PUSH2 0xDED DUP5 DUP3 DUP6 ADD PUSH2 0xDB4 JUMP JUMPDEST SWAP2 POP POP SWAP3 SWAP2 POP POP JUMP JUMPDEST PUSH1 0x0 DUP2 SWAP1 POP SWAP3 SWAP2 POP POP JUMP JUMPDEST POP JUMP JUMPDEST PUSH1 0x0 PUSH2 0xE11 PUSH1 0x0 DUP4 PUSH2 0xDF6 JUMP JUMPDEST SWAP2 POP PUSH2 0xE1C DUP3 PUSH2 0xE01 JUMP JUMPDEST PUSH1 0x0 DUP3 ADD SWAP1 POP SWAP2 SWAP1 POP JUMP JUMPDEST PUSH1 0x0 PUSH2 0xE32 DUP3 PUSH2 0xE04 JUMP JUMPDEST SWAP2 POP DUP2 SWAP1 POP SWAP2 SWAP1 POP JUMP JUMPDEST PUSH32 0x796F7520617265206E6F7420696E206661696C6564206C697374000000000000 PUSH1 0x0 DUP3 ADD MSTORE POP JUMP JUMPDEST PUSH1 0x0 PUSH2 0xE72 PUSH1 0x1A DUP4 PUSH2 0x9F7 JUMP JUMPDEST SWAP2 POP PUSH2 0xE7D DUP3 PUSH2 0xE3C JUMP JUMPDEST PUSH1 0x20 DUP3 ADD SWAP1 POP SWAP2 SWAP1 POP JUMP JUMPDEST PUSH1 0x0 PUSH1 0x20 DUP3 ADD SWAP1 POP DUP2 DUP2 SUB PUSH1 0x0 DUP4 ADD MSTORE PUSH2 0xEA1 DUP2 PUSH2 0xE65 JUMP JUMPDEST SWAP1 POP SWAP2 SWAP1 POP JUMP JUMPDEST PUSH32 0x63616C6C20657468206661696C65640000000000000000000000000000000000 PUSH1 0x0 DUP3 ADD MSTORE POP JUMP JUMPDEST PUSH1 0x0 PUSH2 0xEDE PUSH1 0xF DUP4 PUSH2 0x9F7 JUMP JUMPDEST SWAP2 POP PUSH2 0xEE9 DUP3 PUSH2 0xEA8 JUMP JUMPDEST PUSH1 0x20 DUP3 ADD SWAP1 POP SWAP2 SWAP1 POP JUMP JUMPDEST PUSH1 0x0 PUSH1 0x20 DUP3 ADD SWAP1 POP DUP2 DUP2 SUB PUSH1 0x0 DUP4 ADD MSTORE PUSH2 0xF0D DUP2 PUSH2 0xED1 JUMP JUMPDEST SWAP1 POP SWAP2 SWAP1 POP JUMP JUMPDEST PUSH1 0x0 PUSH2 0xF1F DUP3 PUSH2 0x9C3 JUMP JUMPDEST SWAP2 POP PUSH2 0xF2A DUP4 PUSH2 0x9C3 JUMP JUMPDEST SWAP3 POP DUP3 DUP3 ADD SWAP1 POP DUP1 DUP3 GT ISZERO PUSH2 0xF42 JUMPI PUSH2 0xF41 PUSH2 0xC3C JUMP JUMPDEST JUMPDEST SWAP3 SWAP2 POP POP JUMP INVALID LOG2 PUSH5 0x6970667358 0x22 SLT KECCAK256 SWAP5 0xAA KECCAK256 0xB0 0xEB 0xA7 0xB1 GT 0x28 0xBE SELFBALANCE 0xEE INVALID BASEFEE 0xD2 GAS 0xB2 0xE9 PUSH25 0xC992FE1E7D12C1FD8B021B722664736F6C6343000812003300 "
				},
				"gasEstimates": {
					"creation": {
						"codeDepositCost": "793200",
						"executionCost": "825",
						"totalCost": "794025"
					},
					"external": {
						"getSum(uint256[])": "infinite",
						"multiTransferETH(address[],uint256[])": "infinite",
						"multiTransferToken(address,address[],uint256[])": "infinite",
						"withdrawFromFailList(address)": "infinite"
					}
				},
				"methodIdentifiers": {
					"getSum(uint256[])": "ccb8c1e0",
					"multiTransferETH(address[],uint256[])": "77988cf8",
					"multiTransferToken(address,address[],uint256[])": "41ed24a2",
					"withdrawFromFailList(address)": "acacd8ee"
				}
			},
			"storageLayout": {
				"storage": [
					{
						"astId": 6,
						"contract": "code/Airdrop.sol:Airdrop",
						"label": "failTransferList",
						"offset": 0,
						"slot": "0",
						"type": "t_mapping(t_address,t_uint256)"
					}
				],
				"types": {
					"t_address": {
						"encoding": "inplace",
						"label": "address",
						"numberOfBytes": "20"
					},
					"t_mapping(t_address,t_uint256)": {
						"encoding": "mapping",
						"key": "t_address",
						"label": "mapping(address => uint256)",
						"numberOfBytes": "32",
						"value": "t_uint256"
					},
					"t_uint256": {
						"encoding": "inplace",
						"label": "uint256",
						"numberOfBytes": "32"
					}
				}
			},
			"userdoc": {
				"kind": "user",
				"methods": {
					"multiTransferETH(address[],uint256[])": {
						"notice": "向多个地址转账ETH"
					}
				},
				"version": 1
			}
		}
	}
}