{
	"data": {
		"bytecode": {
			"linkReferences": {},
			"object": "60806040523480156200001157600080fd5b50604051620032d0380380620032d08339818101604052810190620000379190620001a3565b818181600090805190602001906200005192919062000075565b5080600190805190602001906200006a92919062000075565b5050505050620003ac565b8280546200008390620002bd565b90600052602060002090601f016020900481019282620000a75760008555620000f3565b82601f10620000c257805160ff1916838001178555620000f3565b82800160010185558215620000f3579182015b82811115620000f2578251825591602001919060010190620000d5565b5b50905062000102919062000106565b5090565b5b808211156200012157600081600090555060010162000107565b5090565b60006200013c620001368462000251565b62000228565b9050828152602081018484840111156200015b576200015a6200038c565b5b6200016884828562000287565b509392505050565b600082601f83011262000188576200018762000387565b5b81516200019a84826020860162000125565b91505092915050565b60008060408385031215620001bd57620001bc62000396565b5b600083015167ffffffffffffffff811115620001de57620001dd62000391565b5b620001ec8582860162000170565b925050602083015167ffffffffffffffff81111562000210576200020f62000391565b5b6200021e8582860162000170565b9150509250929050565b60006200023462000247565b9050620002428282620002f3565b919050565b6000604051905090565b600067ffffffffffffffff8211156200026f576200026e62000358565b5b6200027a826200039b565b9050602081019050919050565b60005b83811015620002a75780820151818401526020810190506200028a565b83811115620002b7576000848401525b50505050565b60006002820490506001821680620002d657607f821691505b60208210811415620002ed57620002ec62000329565b5b50919050565b620002fe826200039b565b810181811067ffffffffffffffff8211171562000320576200031f62000358565b5b80604052505050565b7f4e487b7100000000000000000000000000000000000000000000000000000000600052602260045260246000fd5b7f4e487b7100000000000000000000000000000000000000000000000000000000600052604160045260246000fd5b600080fd5b600080fd5b600080fd5b600080fd5b6000601f19601f8301169050919050565b612f1480620003bc6000396000f3fe608060405234801561001057600080fd5b50600436106101215760003560e01c806342842e0e116100ad57806395d89b411161007157806395d89b411461032c578063a22cb4651461034a578063b88d4fde14610366578063c87b56dd14610382578063e985e9c5146103b257610121565b806342842e0e1461026457806342966c68146102805780634f6ccce71461029c5780636352211e146102cc57806370a08231146102fc57610121565b806318160ddd116100f457806318160ddd146101c057806323b872dd146101de5780632f745c59146101fa5780633eaaf86b1461022a57806340c10f191461024857610121565b806301ffc9a71461012657806306fdde0314610156578063081812fc14610174578063095ea7b3146101a4575b600080fd5b610140600480360381019061013b9190612247565b6103e2565b60405161014d91906125f0565b60405180910390f35b61015e6104c4565b60405161016b919061260b565b60405180910390f35b61018e600480360381019061018991906122a1565b610556565b60405161019b9190612589565b60405180910390f35b6101be60048036038101906101b99190612207565b61059c565b005b6101c86106b4565b6040516101d591906127cd565b60405180910390f35b6101f860048036038101906101f391906120f1565b6106cd565b005b610214600480360381019061020f9190612207565b61072d565b60405161022191906127cd565b60405180910390f35b61023261079c565b60405161023f91906127cd565b60405180910390f35b610262600480360381019061025d9190612207565b6107a2565b005b61027e600480360381019061027991906120f1565b610957565b005b61029a600480360381019061029591906122a1565b610977565b005b6102b660048036038101906102b191906122a1565b610c50565b6040516102c391906127cd565b60405180910390f35b6102e660048036038101906102e191906122a1565b610c86565b6040516102f39190612589565b60405180910390f35b61031660048036038101906103119190612084565b610d0d565b60405161032391906127cd565b60405180910390f35b610334610dc5565b604051610341919061260b565b60405180910390f35b610364600480360381019061035f91906121c7565b610e57565b005b610380600480360381019061037b9190612144565b610e6d565b005b61039c600480360381019061039791906122a1565b610ecf565b6040516103a9919061260b565b60405180910390f35b6103cc60048036038101906103c791906120b1565b610f37565b6040516103d991906125f0565b60405180910390f35b60007f80ac58cd000000000000000000000000000000000000000000000000000000007bffffffffffffffffffffffffffffffffffffffffffffffffffffffff1916827bffffffffffffffffffffffffffffffffffffffffffffffffffffffff191614806104ad57507f5b5e139f000000000000000000000000000000000000000000000000000000007bffffffffffffffffffffffffffffffffffffffffffffffffffffffff1916827bffffffffffffffffffffffffffffffffffffffffffffffffffffffff1916145b806104bd57506104bc82610fcb565b5b9050919050565b6060600080546104d3906129c1565b80601f01602080910402602001604051908101604052809291908181526020018280546104ff906129c1565b801561054c5780601f106105215761010080835404028352916020019161054c565b820191906000526020600020905b81548152906001019060200180831161052f57829003601f168201915b5050505050905090565b600061056182611035565b6004600083815260200190815260200160002060009054906101000a900473ffffffffffffffffffffffffffffffffffffffff169050919050565b60006105a782610c86565b90508073ffffffffffffffffffffffffffffffffffffffff168373ffffffffffffffffffffffffffffffffffffffff161415610618576040517f08c379a000000000000000000000000000000000000000000000000000000000815260040161060f9061278d565b60405180910390fd5b8073ffffffffffffffffffffffffffffffffffffffff16610637611080565b73ffffffffffffffffffffffffffffffffffffffff161480610666575061066581610660611080565b610f37565b5b6106a5576040517f08c379a000000000000000000000000000000000000000000000000000000000815260040161069c906127ad565b60405180910390fd5b6106af8383611088565b505050565b600060016009805490506106c891906128d7565b905090565b6106de6106d8611080565b82611141565b61071d576040517f08c379a00000000000000000000000000000000000000000000000000000000081526004016107149061262d565b60405180910390fd5b6107288383836111d6565b505050565b600061073883610d0d565b821061074357600080fd5b600760008473ffffffffffffffffffffffffffffffffffffffff1673ffffffffffffffffffffffffffffffffffffffff168152602001908152602001600020600083815260200190815260200160002054905092915050565b60065481565b600073ffffffffffffffffffffffffffffffffffffffff168273ffffffffffffffffffffffffffffffffffffffff161415610812576040517f08c379a00000000000000000000000000000000000000000000000000000000081526004016108099061270d565b60405180910390fd5b61081c82826114d0565b600061082783610d0d565b905081600760008573ffffffffffffffffffffffffffffffffffffffff1673ffffffffffffffffffffffffffffffffffffffff168152602001908152602001600020600083815260200190815260200160002081905550806008600084815260200190815260200160002081905550600980549050600a60008481526020019081526020016000208190555060098290806001815401808255809150506001900390600052602060002001600090919091909150556001600660008282546108ef9190612881565b92505081905550818373ffffffffffffffffffffffffffffffffffffffff16600073ffffffffffffffffffffffffffffffffffffffff167fddf252ad1be2c89b69c2b068fc378daa952ba7f163c4a11628f55a4df523b3ef60405160405180910390a4505050565b61097283838360405180602001604052806000815250610e6d565b505050565b6000610982826116ee565b90503373ffffffffffffffffffffffffffffffffffffffff168173ffffffffffffffffffffffffffffffffffffffff16146109f2576040517f08c379a00000000000000000000000000000000000000000000000000000000081526004016109e9906126ad565b60405180910390fd5b6109fb8261172b565b600160066000828254610a0e91906128d7565b9250508190555060006001610a2283610d0d565b610a2c91906128d7565b9050600060086000858152602001908152602001600020549050818114610b11576000600760008573ffffffffffffffffffffffffffffffffffffffff1673ffffffffffffffffffffffffffffffffffffffff168152602001908152602001600020600084815260200190815260200160002054905080600760008673ffffffffffffffffffffffffffffffffffffffff1673ffffffffffffffffffffffffffffffffffffffff168152602001908152602001600020600084815260200190815260200160002081905550816008600083815260200190815260200160002081905550505b6008600085815260200190815260200160002060009055600760008473ffffffffffffffffffffffffffffffffffffffff1673ffffffffffffffffffffffffffffffffffffffff16815260200190815260200160002060008381526020019081526020016000206000905560006001600980549050610b9091906128d7565b90506000600a6000878152602001908152602001600020549050600060098381548110610bc057610bbf612ae0565b5b906000526020600020015490508060098381548110610be257610be1612ae0565b5b906000526020600020018190555081600a600083815260200190815260200160002081905550600a6000888152602001908152602001600020600090556009805480610c3157610c30612ab1565b5b6001900381819060005260206000200160009055905550505050505050565b60006006548210610c6057600080fd5b60098281548110610c7457610c73612ae0565b5b90600052602060002001549050919050565b600080610c92836116ee565b9050600073ffffffffffffffffffffffffffffffffffffffff168173ffffffffffffffffffffffffffffffffffffffff161415610d04576040517f08c379a0000000000000000000000000000000000000000000000000000000008152600401610cfb9061276d565b60405180910390fd5b80915050919050565b60008073ffffffffffffffffffffffffffffffffffffffff168273ffffffffffffffffffffffffffffffffffffffff161415610d7e576040517f08c379a0000000000000000000000000000000000000000000000000000000008152600401610d759061272d565b60405180910390fd5b600360008373ffffffffffffffffffffffffffffffffffffffff1673ffffffffffffffffffffffffffffffffffffffff168152602001908152602001600020549050919050565b606060018054610dd4906129c1565b80601f0160208091040260200160405190810160405280929190818152602001828054610e00906129c1565b8015610e4d5780601f10610e2257610100808354040283529160200191610e4d565b820191906000526020600020905b815481529060010190602001808311610e3057829003601f168201915b5050505050905090565b610e69610e62611080565b8383611879565b5050565b610e7e610e78611080565b83611141565b610ebd576040517f08c379a0000000000000000000000000000000000000000000000000000000008152600401610eb49061262d565b60405180910390fd5b610ec9848484846119e6565b50505050565b6060610eda82611035565b6000610ee4611a42565b90506000815111610f045760405180602001604052806000815250610f2f565b80610f0e84611a59565b604051602001610f1f929190612565565b6040516020818303038152906040525b915050919050565b6000600560008473ffffffffffffffffffffffffffffffffffffffff1673ffffffffffffffffffffffffffffffffffffffff16815260200190815260200160002060008373ffffffffffffffffffffffffffffffffffffffff1673ffffffffffffffffffffffffffffffffffffffff16815260200190815260200160002060009054906101000a900460ff16905092915050565b60007f01ffc9a7000000000000000000000000000000000000000000000000000000007bffffffffffffffffffffffffffffffffffffffffffffffffffffffff1916827bffffffffffffffffffffffffffffffffffffffffffffffffffffffff1916149050919050565b61103e81611b31565b61107d576040517f08c379a00000000000000000000000000000000000000000000000000000000081526004016110749061276d565b60405180910390fd5b50565b600033905090565b816004600083815260200190815260200160002060006101000a81548173ffffffffffffffffffffffffffffffffffffffff021916908373ffffffffffffffffffffffffffffffffffffffff160217905550808273ffffffffffffffffffffffffffffffffffffffff166110fb83610c86565b73ffffffffffffffffffffffffffffffffffffffff167f8c5be1e5ebec7d5bd14f71427d1e84f3dd0314c0f7b2291e5b200ac8c7c3b92560405160405180910390a45050565b60008061114d83610c86565b90508073ffffffffffffffffffffffffffffffffffffffff168473ffffffffffffffffffffffffffffffffffffffff16148061118f575061118e8185610f37565b5b806111cd57508373ffffffffffffffffffffffffffffffffffffffff166111b584610556565b73ffffffffffffffffffffffffffffffffffffffff16145b91505092915050565b8273ffffffffffffffffffffffffffffffffffffffff166111f682610c86565b73ffffffffffffffffffffffffffffffffffffffff161461124c576040517f08c379a00000000000000000000000000000000000000000000000000000000081526004016112439061266d565b60405180910390fd5b600073ffffffffffffffffffffffffffffffffffffffff168273ffffffffffffffffffffffffffffffffffffffff1614156112bc576040517f08c379a00000000000000000000000000000000000000000000000000000000081526004016112b3906126cd565b60405180910390fd5b6112c98383836001611b72565b8273ffffffffffffffffffffffffffffffffffffffff166112e982610c86565b73ffffffffffffffffffffffffffffffffffffffff161461133f576040517f08c379a00000000000000000000000000000000000000000000000000000000081526004016113369061266d565b60405180910390fd5b6004600082815260200190815260200160002060006101000a81549073ffffffffffffffffffffffffffffffffffffffff02191690556001600360008573ffffffffffffffffffffffffffffffffffffffff1673ffffffffffffffffffffffffffffffffffffffff168152602001908152602001600020600082825403925050819055506001600360008473ffffffffffffffffffffffffffffffffffffffff1673ffffffffffffffffffffffffffffffffffffffff16815260200190815260200160002060008282540192505081905550816002600083815260200190815260200160002060006101000a81548173ffffffffffffffffffffffffffffffffffffffff021916908373ffffffffffffffffffffffffffffffffffffffff160217905550808273ffffffffffffffffffffffffffffffffffffffff168473ffffffffffffffffffffffffffffffffffffffff167fddf252ad1be2c89b69c2b068fc378daa952ba7f163c4a11628f55a4df523b3ef60405160405180910390a46114cb8383836001611c98565b505050565b600073ffffffffffffffffffffffffffffffffffffffff168273ffffffffffffffffffffffffffffffffffffffff161415611540576040517f08c379a00000000000000000000000000000000000000000000000000000000081526004016115379061274d565b60405180910390fd5b61154981611b31565b15611589576040517f08c379a00000000000000000000000000000000000000000000000000000000081526004016115809061268d565b60405180910390fd5b611597600083836001611b72565b6115a081611b31565b156115e0576040517f08c379a00000000000000000000000000000000000000000000000000000000081526004016115d79061268d565b60405180910390fd5b6001600360008473ffffffffffffffffffffffffffffffffffffffff1673ffffffffffffffffffffffffffffffffffffffff16815260200190815260200160002060008282540192505081905550816002600083815260200190815260200160002060006101000a81548173ffffffffffffffffffffffffffffffffffffffff021916908373ffffffffffffffffffffffffffffffffffffffff160217905550808273ffffffffffffffffffffffffffffffffffffffff16600073ffffffffffffffffffffffffffffffffffffffff167fddf252ad1be2c89b69c2b068fc378daa952ba7f163c4a11628f55a4df523b3ef60405160405180910390a46116ea600083836001611c98565b5050565b60006002600083815260200190815260200160002060009054906101000a900473ffffffffffffffffffffffffffffffffffffffff169050919050565b600061173682610c86565b9050611746816000846001611b72565b61174f82610c86565b90506004600083815260200190815260200160002060006101000a81549073ffffffffffffffffffffffffffffffffffffffff02191690556001600360008373ffffffffffffffffffffffffffffffffffffffff1673ffffffffffffffffffffffffffffffffffffffff168152602001908152602001600020600082825403925050819055506002600083815260200190815260200160002060006101000a81549073ffffffffffffffffffffffffffffffffffffffff021916905581600073ffffffffffffffffffffffffffffffffffffffff168273ffffffffffffffffffffffffffffffffffffffff167fddf252ad1be2c89b69c2b068fc378daa952ba7f163c4a11628f55a4df523b3ef60405160405180910390a4611875816000846001611c98565b5050565b8173ffffffffffffffffffffffffffffffffffffffff168373ffffffffffffffffffffffffffffffffffffffff1614156118e8576040517f08c379a00000000000000000000000000000000000000000000000000000000081526004016118df906126ed565b60405180910390fd5b80600560008573ffffffffffffffffffffffffffffffffffffffff1673ffffffffffffffffffffffffffffffffffffffff16815260200190815260200160002060008473ffffffffffffffffffffffffffffffffffffffff1673ffffffffffffffffffffffffffffffffffffffff16815260200190815260200160002060006101000a81548160ff0219169083151502179055508173ffffffffffffffffffffffffffffffffffffffff168373ffffffffffffffffffffffffffffffffffffffff167f17307eab39ab6107e8899845ad3d59bd9653f200f220920489ca2b5937696c31836040516119d991906125f0565b60405180910390a3505050565b6119f18484846111d6565b6119fd84848484611c9e565b611a3c576040517f08c379a0000000000000000000000000000000000000000000000000000000008152600401611a339061264d565b60405180910390fd5b50505050565b606060405180602001604052806000815250905090565b606060006001611a6884611e35565b01905060008167ffffffffffffffff811115611a8757611a86612b0f565b5b6040519080825280601f01601f191660200182016040528015611ab95781602001600182028036833780820191505090505b509050600082602001820190505b600115611b26578080600190039150507f3031323334353637383961626364656600000000000000000000000000000000600a86061a8153600a8581611b1057611b0f612a53565b5b0494506000851415611b2157611b26565b611ac7565b819350505050919050565b60008073ffffffffffffffffffffffffffffffffffffffff16611b53836116ee565b73ffffffffffffffffffffffffffffffffffffffff1614159050919050565b6001811115611c9257600073ffffffffffffffffffffffffffffffffffffffff168473ffffffffffffffffffffffffffffffffffffffff1614611c065780600360008673ffffffffffffffffffffffffffffffffffffffff1673ffffffffffffffffffffffffffffffffffffffff1681526020019081526020016000206000828254611bfe91906128d7565b925050819055505b600073ffffffffffffffffffffffffffffffffffffffff168373ffffffffffffffffffffffffffffffffffffffff1614611c915780600360008573ffffffffffffffffffffffffffffffffffffffff1673ffffffffffffffffffffffffffffffffffffffff1681526020019081526020016000206000828254611c899190612881565b925050819055505b5b50505050565b50505050565b6000611cbf8473ffffffffffffffffffffffffffffffffffffffff16611f88565b15611e28578373ffffffffffffffffffffffffffffffffffffffff1663150b7a02611ce8611080565b8786866040518563ffffffff1660e01b8152600401611d0a94939291906125a4565b602060405180830381600087803b158015611d2457600080fd5b505af1925050508015611d5557506040513d601f19601f82011682018060405250810190611d529190612274565b60015b611dd8573d8060008114611d85576040519150601f19603f3d011682016040523d82523d6000602084013e611d8a565b606091505b50600081511415611dd0576040517f08c379a0000000000000000000000000000000000000000000000000000000008152600401611dc79061264d565b60405180910390fd5b805181602001fd5b63150b7a0260e01b7bffffffffffffffffffffffffffffffffffffffffffffffffffffffff1916817bffffffffffffffffffffffffffffffffffffffffffffffffffffffff191614915050611e2d565b600190505b949350505050565b600080600090507a184f03e93ff9f4daa797ed6e38ed64bf6a1f0100000000000000008310611e93577a184f03e93ff9f4daa797ed6e38ed64bf6a1f0100000000000000008381611e8957611e88612a53565b5b0492506040810190505b6d04ee2d6d415b85acef81000000008310611ed0576d04ee2d6d415b85acef81000000008381611ec657611ec5612a53565b5b0492506020810190505b662386f26fc100008310611eff57662386f26fc100008381611ef557611ef4612a53565b5b0492506010810190505b6305f5e1008310611f28576305f5e1008381611f1e57611f1d612a53565b5b0492506008810190505b6127108310611f4d576127108381611f4357611f42612a53565b5b0492506004810190505b60648310611f705760648381611f6657611f65612a53565b5b0492506002810190505b600a8310611f7f576001810190505b80915050919050565b6000808273ffffffffffffffffffffffffffffffffffffffff163b119050919050565b6000611fbe611fb98461280d565b6127e8565b905082815260208101848484011115611fda57611fd9612b43565b5b611fe584828561297f565b509392505050565b600081359050611ffc81612e82565b92915050565b60008135905061201181612e99565b92915050565b60008135905061202681612eb0565b92915050565b60008151905061203b81612eb0565b92915050565b600082601f83011261205657612055612b3e565b5b8135612066848260208601611fab565b91505092915050565b60008135905061207e81612ec7565b92915050565b60006020828403121561209a57612099612b4d565b5b60006120a884828501611fed565b91505092915050565b600080604083850312156120c8576120c7612b4d565b5b60006120d685828601611fed565b92505060206120e785828601611fed565b9150509250929050565b60008060006060848603121561210a57612109612b4d565b5b600061211886828701611fed565b935050602061212986828701611fed565b925050604061213a8682870161206f565b9150509250925092565b6000806000806080858703121561215e5761215d612b4d565b5b600061216c87828801611fed565b945050602061217d87828801611fed565b935050604061218e8782880161206f565b925050606085013567ffffffffffffffff8111156121af576121ae612b48565b5b6121bb87828801612041565b91505092959194509250565b600080604083850312156121de576121dd612b4d565b5b60006121ec85828601611fed565b92505060206121fd85828601612002565b9150509250929050565b6000806040838503121561221e5761221d612b4d565b5b600061222c85828601611fed565b925050602061223d8582860161206f565b9150509250929050565b60006020828403121561225d5761225c612b4d565b5b600061226b84828501612017565b91505092915050565b60006020828403121561228a57612289612b4d565b5b60006122988482850161202c565b91505092915050565b6000602082840312156122b7576122b6612b4d565b5b60006122c58482850161206f565b91505092915050565b6122d78161290b565b82525050565b6122e68161291d565b82525050565b60006122f78261283e565b6123018185612854565b935061231181856020860161298e565b61231a81612b52565b840191505092915050565b600061233082612849565b61233a8185612865565b935061234a81856020860161298e565b61235381612b52565b840191505092915050565b600061236982612849565b6123738185612876565b935061238381856020860161298e565b80840191505092915050565b600061239c602d83612865565b91506123a782612b63565b604082019050919050565b60006123bf603283612865565b91506123ca82612bb2565b604082019050919050565b60006123e2602583612865565b91506123ed82612c01565b604082019050919050565b6000612405601c83612865565b915061241082612c50565b602082019050919050565b6000612428601783612865565b915061243382612c79565b602082019050919050565b600061244b602483612865565b915061245682612ca2565b604082019050919050565b600061246e601983612865565b915061247982612cf1565b602082019050919050565b6000612491601483612865565b915061249c82612d1a565b602082019050919050565b60006124b4602983612865565b91506124bf82612d43565b604082019050919050565b60006124d7602083612865565b91506124e282612d92565b602082019050919050565b60006124fa601883612865565b915061250582612dbb565b602082019050919050565b600061251d602183612865565b915061252882612de4565b604082019050919050565b6000612540603d83612865565b915061254b82612e33565b604082019050919050565b61255f81612975565b82525050565b6000612571828561235e565b915061257d828461235e565b91508190509392505050565b600060208201905061259e60008301846122ce565b92915050565b60006080820190506125b960008301876122ce565b6125c660208301866122ce565b6125d36040830185612556565b81810360608301526125e581846122ec565b905095945050505050565b600060208201905061260560008301846122dd565b92915050565b600060208201905081810360008301526126258184612325565b905092915050565b600060208201905081810360008301526126468161238f565b9050919050565b60006020820190508181036000830152612666816123b2565b9050919050565b60006020820190508181036000830152612686816123d5565b9050919050565b600060208201905081810360008301526126a6816123f8565b9050919050565b600060208201905081810360008301526126c68161241b565b9050919050565b600060208201905081810360008301526126e68161243e565b9050919050565b6000602082019050818103600083015261270681612461565b9050919050565b6000602082019050818103600083015261272681612484565b9050919050565b60006020820190508181036000830152612746816124a7565b9050919050565b60006020820190508181036000830152612766816124ca565b9050919050565b60006020820190508181036000830152612786816124ed565b9050919050565b600060208201905081810360008301526127a681612510565b9050919050565b600060208201905081810360008301526127c681612533565b9050919050565b60006020820190506127e26000830184612556565b92915050565b60006127f2612803565b90506127fe82826129f3565b919050565b6000604051905090565b600067ffffffffffffffff82111561282857612827612b0f565b5b61283182612b52565b9050602081019050919050565b600081519050919050565b600081519050919050565b600082825260208201905092915050565b600082825260208201905092915050565b600081905092915050565b600061288c82612975565b915061289783612975565b9250827fffffffffffffffffffffffffffffffffffffffffffffffffffffffffffffffff038211156128cc576128cb612a24565b5b828201905092915050565b60006128e282612975565b91506128ed83612975565b925082821015612900576128ff612a24565b5b828203905092915050565b600061291682612955565b9050919050565b60008115159050919050565b60007fffffffff0000000000000000000000000000000000000000000000000000000082169050919050565b600073ffffffffffffffffffffffffffffffffffffffff82169050919050565b6000819050919050565b82818337600083830152505050565b60005b838110156129ac578082015181840152602081019050612991565b838111156129bb576000848401525b50505050565b600060028204905060018216806129d957607f821691505b602082108114156129ed576129ec612a82565b5b50919050565b6129fc82612b52565b810181811067ffffffffffffffff82111715612a1b57612a1a612b0f565b5b80604052505050565b7f4e487b7100000000000000000000000000000000000000000000000000000000600052601160045260246000fd5b7f4e487b7100000000000000000000000000000000000000000000000000000000600052601260045260246000fd5b7f4e487b7100000000000000000000000000000000000000000000000000000000600052602260045260246000fd5b7f4e487b7100000000000000000000000000000000000000000000000000000000600052603160045260246000fd5b7f4e487b7100000000000000000000000000000000000000000000000000000000600052603260045260246000fd5b7f4e487b7100000000000000000000000000000000000000000000000000000000600052604160045260246000fd5b600080fd5b600080fd5b600080fd5b600080fd5b6000601f19601f8301169050919050565b7f4552433732313a2063616c6c6572206973206e6f7420746f6b656e206f776e6560008201527f72206f7220617070726f76656400000000000000000000000000000000000000602082015250565b7f4552433732313a207472616e7366657220746f206e6f6e20455243373231526560008201527f63656976657220696d706c656d656e7465720000000000000000000000000000602082015250565b7f4552433732313a207472616e736665722066726f6d20696e636f72726563742060008201527f6f776e6572000000000000000000000000000000000000000000000000000000602082015250565b7f4552433732313a20746f6b656e20616c7265616479206d696e74656400000000600082015250565b7f6f6e6c79206f776e65722063616e206275726e206e6674000000000000000000600082015250565b7f4552433732313a207472616e7366657220746f20746865207a65726f2061646460008201527f7265737300000000000000000000000000000000000000000000000000000000602082015250565b7f4552433732313a20617070726f766520746f2063616c6c657200000000000000600082015250565b7f6d696e7420746f207a65726f2061646472657373000000000000000000000000600082015250565b7f4552433732313a2061646472657373207a65726f206973206e6f74206120766160008201527f6c6964206f776e65720000000000000000000000000000000000000000000000602082015250565b7f4552433732313a206d696e7420746f20746865207a65726f2061646472657373600082015250565b7f4552433732313a20696e76616c696420746f6b656e2049440000000000000000600082015250565b7f4552433732313a20617070726f76616c20746f2063757272656e74206f776e6560008201527f7200000000000000000000000000000000000000000000000000000000000000602082015250565b7f4552433732313a20617070726f76652063616c6c6572206973206e6f7420746f60008201527f6b656e206f776e6572206f7220617070726f76656420666f7220616c6c000000602082015250565b612e8b8161290b565b8114612e9657600080fd5b50565b612ea28161291d565b8114612ead57600080fd5b50565b612eb981612929565b8114612ec457600080fd5b50565b612ed081612975565b8114612edb57600080fd5b5056fea2646970667358221220ed1e8154f20e5747f31e2982a0d049b782f3608bb3c8c58f96bedb69f1f5b5aa64736f6c63430008070033",
			"opcodes": "PUSH1 0x80 PUSH1 0x40 MSTORE CALLVALUE DUP1 ISZERO PUSH3 0x11 JUMPI PUSH1 0x0 DUP1 REVERT JUMPDEST POP PUSH1 0x40 MLOAD PUSH3 0x32D0 CODESIZE SUB DUP1 PUSH3 0x32D0 DUP4 CODECOPY DUP2 DUP2 ADD PUSH1 0x40 MSTORE DUP2 ADD SWAP1 PUSH3 0x37 SWAP2 SWAP1 PUSH3 0x1A3 JUMP JUMPDEST DUP2 DUP2 DUP2 PUSH1 0x0 SWAP1 DUP1 MLOAD SWAP1 PUSH1 0x20 ADD SWAP1 PUSH3 0x51 SWAP3 SWAP2 SWAP1 PUSH3 0x75 JUMP JUMPDEST POP DUP1 PUSH1 0x1 SWAP1 DUP1 MLOAD SWAP1 PUSH1 0x20 ADD SWAP1 PUSH3 0x6A SWAP3 SWAP2 SWAP1 PUSH3 0x75 JUMP JUMPDEST POP POP POP POP POP PUSH3 0x3AC JUMP JUMPDEST DUP3 DUP1 SLOAD PUSH3 0x83 SWAP1 PUSH3 0x2BD JUMP JUMPDEST SWAP1 PUSH1 0x0 MSTORE PUSH1 0x20 PUSH1 0x0 KECCAK256 SWAP1 PUSH1 0x1F ADD PUSH1 0x20 SWAP1 DIV DUP2 ADD SWAP3 DUP3 PUSH3 0xA7 JUMPI PUSH1 0x0 DUP6 SSTORE PUSH3 0xF3 JUMP JUMPDEST DUP3 PUSH1 0x1F LT PUSH3 0xC2 JUMPI DUP1 MLOAD PUSH1 0xFF NOT AND DUP4 DUP1 ADD OR DUP6 SSTORE PUSH3 0xF3 JUMP JUMPDEST DUP3 DUP1 ADD PUSH1 0x1 ADD DUP6 SSTORE DUP3 ISZERO PUSH3 0xF3 JUMPI SWAP2 DUP3 ADD JUMPDEST DUP3 DUP2 GT ISZERO PUSH3 0xF2 JUMPI DUP3 MLOAD DUP3 SSTORE SWAP2 PUSH1 0x20 ADD SWAP2 SWAP1 PUSH1 0x1 ADD SWAP1 PUSH3 0xD5 JUMP JUMPDEST JUMPDEST POP SWAP1 POP PUSH3 0x102 SWAP2 SWAP1 PUSH3 0x106 JUMP JUMPDEST POP SWAP1 JUMP JUMPDEST JUMPDEST DUP1 DUP3 GT ISZERO PUSH3 0x121 JUMPI PUSH1 0x0 DUP2 PUSH1 0x0 SWAP1 SSTORE POP PUSH1 0x1 ADD PUSH3 0x107 JUMP JUMPDEST POP SWAP1 JUMP JUMPDEST PUSH1 0x0 PUSH3 0x13C PUSH3 0x136 DUP5 PUSH3 0x251 JUMP JUMPDEST PUSH3 0x228 JUMP JUMPDEST SWAP1 POP DUP3 DUP2 MSTORE PUSH1 0x20 DUP2 ADD DUP5 DUP5 DUP5 ADD GT ISZERO PUSH3 0x15B JUMPI PUSH3 0x15A PUSH3 0x38C JUMP JUMPDEST JUMPDEST PUSH3 0x168 DUP5 DUP3 DUP6 PUSH3 0x287 JUMP JUMPDEST POP SWAP4 SWAP3 POP POP POP JUMP JUMPDEST PUSH1 0x0 DUP3 PUSH1 0x1F DUP4 ADD SLT PUSH3 0x188 JUMPI PUSH3 0x187 PUSH3 0x387 JUMP JUMPDEST JUMPDEST DUP2 MLOAD PUSH3 0x19A DUP5 DUP3 PUSH1 0x20 DUP7 ADD PUSH3 0x125 JUMP JUMPDEST SWAP2 POP POP SWAP3 SWAP2 POP POP JUMP JUMPDEST PUSH1 0x0 DUP1 PUSH1 0x40 DUP4 DUP6 SUB SLT ISZERO PUSH3 0x1BD JUMPI PUSH3 0x1BC PUSH3 0x396 JUMP JUMPDEST JUMPDEST PUSH1 0x0 DUP4 ADD MLOAD PUSH8 0xFFFFFFFFFFFFFFFF DUP2 GT ISZERO PUSH3 0x1DE JUMPI PUSH3 0x1DD PUSH3 0x391 JUMP JUMPDEST JUMPDEST PUSH3 0x1EC DUP6 DUP3 DUP7 ADD PUSH3 0x170 JUMP JUMPDEST SWAP3 POP POP PUSH1 0x20 DUP4 ADD MLOAD PUSH8 0xFFFFFFFFFFFFFFFF DUP2 GT ISZERO PUSH3 0x210 JUMPI PUSH3 0x20F PUSH3 0x391 JUMP JUMPDEST JUMPDEST PUSH3 0x21E DUP6 DUP3 DUP7 ADD PUSH3 0x170 JUMP JUMPDEST SWAP2 POP POP SWAP3 POP SWAP3 SWAP1 POP JUMP JUMPDEST PUSH1 0x0 PUSH3 0x234 PUSH3 0x247 JUMP JUMPDEST SWAP1 POP PUSH3 0x242 DUP3 DUP3 PUSH3 0x2F3 JUMP JUMPDEST SWAP2 SWAP1 POP JUMP JUMPDEST PUSH1 0x0 PUSH1 0x40 MLOAD SWAP1 POP SWAP1 JUMP JUMPDEST PUSH1 0x0 PUSH8 0xFFFFFFFFFFFFFFFF DUP3 GT ISZERO PUSH3 0x26F JUMPI PUSH3 0x26E PUSH3 0x358 JUMP JUMPDEST JUMPDEST PUSH3 0x27A DUP3 PUSH3 0x39B JUMP JUMPDEST SWAP1 POP PUSH1 0x20 DUP2 ADD SWAP1 POP SWAP2 SWAP1 POP JUMP JUMPDEST PUSH1 0x0 JUMPDEST DUP4 DUP2 LT ISZERO PUSH3 0x2A7 JUMPI DUP1 DUP3 ADD MLOAD DUP2 DUP5 ADD MSTORE PUSH1 0x20 DUP2 ADD SWAP1 POP PUSH3 0x28A JUMP JUMPDEST DUP4 DUP2 GT ISZERO PUSH3 0x2B7 JUMPI PUSH1 0x0 DUP5 DUP5 ADD MSTORE JUMPDEST POP POP POP POP JUMP JUMPDEST PUSH1 0x0 PUSH1 0x2 DUP3 DIV SWAP1 POP PUSH1 0x1 DUP3 AND DUP1 PUSH3 0x2D6 JUMPI PUSH1 0x7F DUP3 AND SWAP2 POP JUMPDEST PUSH1 0x20 DUP3 LT DUP2 EQ ISZERO PUSH3 0x2ED JUMPI PUSH3 0x2EC PUSH3 0x329 JUMP JUMPDEST JUMPDEST POP SWAP2 SWAP1 POP JUMP JUMPDEST PUSH3 0x2FE DUP3 PUSH3 0x39B JUMP JUMPDEST DUP2 ADD DUP2 DUP2 LT PUSH8 0xFFFFFFFFFFFFFFFF DUP3 GT OR ISZERO PUSH3 0x320 JUMPI PUSH3 0x31F PUSH3 0x358 JUMP JUMPDEST JUMPDEST DUP1 PUSH1 0x40 MSTORE POP POP POP JUMP JUMPDEST PUSH32 0x4E487B7100000000000000000000000000000000000000000000000000000000 PUSH1 0x0 MSTORE PUSH1 0x22 PUSH1 0x4 MSTORE PUSH1 0x24 PUSH1 0x0 REVERT JUMPDEST PUSH32 0x4E487B7100000000000000000000000000000000000000000000000000000000 PUSH1 0x0 MSTORE PUSH1 0x41 PUSH1 0x4 MSTORE PUSH1 0x24 PUSH1 0x0 REVERT JUMPDEST PUSH1 0x0 DUP1 REVERT JUMPDEST PUSH1 0x0 DUP1 REVERT JUMPDEST PUSH1 0x0 DUP1 REVERT JUMPDEST PUSH1 0x0 DUP1 REVERT JUMPDEST PUSH1 0x0 PUSH1 0x1F NOT PUSH1 0x1F DUP4 ADD AND SWAP1 POP SWAP2 SWAP1 POP JUMP JUMPDEST PUSH2 0x2F14 DUP1 PUSH3 0x3BC PUSH1 0x0 CODECOPY PUSH1 0x0 RETURN INVALID PUSH1 0x80 PUSH1 0x40 MSTORE CALLVALUE DUP1 ISZERO PUSH2 0x10 JUMPI PUSH1 0x0 DUP1 REVERT JUMPDEST POP PUSH1 0x4 CALLDATASIZE LT PUSH2 0x121 JUMPI PUSH1 0x0 CALLDATALOAD PUSH1 0xE0 SHR DUP1 PUSH4 0x42842E0E GT PUSH2 0xAD JUMPI DUP1 PUSH4 0x95D89B41 GT PUSH2 0x71 JUMPI DUP1 PUSH4 0x95D89B41 EQ PUSH2 0x32C JUMPI DUP1 PUSH4 0xA22CB465 EQ PUSH2 0x34A JUMPI DUP1 PUSH4 0xB88D4FDE EQ PUSH2 0x366 JUMPI DUP1 PUSH4 0xC87B56DD EQ PUSH2 0x382 JUMPI DUP1 PUSH4 0xE985E9C5 EQ PUSH2 0x3B2 JUMPI PUSH2 0x121 JUMP JUMPDEST DUP1 PUSH4 0x42842E0E EQ PUSH2 0x264 JUMPI DUP1 PUSH4 0x42966C68 EQ PUSH2 0x280 JUMPI DUP1 PUSH4 0x4F6CCCE7 EQ PUSH2 0x29C JUMPI DUP1 PUSH4 0x6352211E EQ PUSH2 0x2CC JUMPI DUP1 PUSH4 0x70A08231 EQ PUSH2 0x2FC JUMPI PUSH2 0x121 JUMP JUMPDEST DUP1 PUSH4 0x18160DDD GT PUSH2 0xF4 JUMPI DUP1 PUSH4 0x18160DDD EQ PUSH2 0x1C0 JUMPI DUP1 PUSH4 0x23B872DD EQ PUSH2 0x1DE JUMPI DUP1 PUSH4 0x2F745C59 EQ PUSH2 0x1FA JUMPI DUP1 PUSH4 0x3EAAF86B EQ PUSH2 0x22A JUMPI DUP1 PUSH4 0x40C10F19 EQ PUSH2 0x248 JUMPI PUSH2 0x121 JUMP JUMPDEST DUP1 PUSH4 0x1FFC9A7 EQ PUSH2 0x126 JUMPI DUP1 PUSH4 0x6FDDE03 EQ PUSH2 0x156 JUMPI DUP1 PUSH4 0x81812FC EQ PUSH2 0x174 JUMPI DUP1 PUSH4 0x95EA7B3 EQ PUSH2 0x1A4 JUMPI JUMPDEST PUSH1 0x0 DUP1 REVERT JUMPDEST PUSH2 0x140 PUSH1 0x4 DUP1 CALLDATASIZE SUB DUP2 ADD SWAP1 PUSH2 0x13B SWAP2 SWAP1 PUSH2 0x2247 JUMP JUMPDEST PUSH2 0x3E2 JUMP JUMPDEST PUSH1 0x40 MLOAD PUSH2 0x14D SWAP2 SWAP1 PUSH2 0x25F0 JUMP JUMPDEST PUSH1 0x40 MLOAD DUP1 SWAP2 SUB SWAP1 RETURN JUMPDEST PUSH2 0x15E PUSH2 0x4C4 JUMP JUMPDEST PUSH1 0x40 MLOAD PUSH2 0x16B SWAP2 SWAP1 PUSH2 0x260B JUMP JUMPDEST PUSH1 0x40 MLOAD DUP1 SWAP2 SUB SWAP1 RETURN JUMPDEST PUSH2 0x18E PUSH1 0x4 DUP1 CALLDATASIZE SUB DUP2 ADD SWAP1 PUSH2 0x189 SWAP2 SWAP1 PUSH2 0x22A1 JUMP JUMPDEST PUSH2 0x556 JUMP JUMPDEST PUSH1 0x40 MLOAD PUSH2 0x19B SWAP2 SWAP1 PUSH2 0x2589 JUMP JUMPDEST PUSH1 0x40 MLOAD DUP1 SWAP2 SUB SWAP1 RETURN JUMPDEST PUSH2 0x1BE PUSH1 0x4 DUP1 CALLDATASIZE SUB DUP2 ADD SWAP1 PUSH2 0x1B9 SWAP2 SWAP1 PUSH2 0x2207 JUMP JUMPDEST PUSH2 0x59C JUMP JUMPDEST STOP JUMPDEST PUSH2 0x1C8 PUSH2 0x6B4 JUMP JUMPDEST PUSH1 0x40 MLOAD PUSH2 0x1D5 SWAP2 SWAP1 PUSH2 0x27CD JUMP JUMPDEST PUSH1 0x40 MLOAD DUP1 SWAP2 SUB SWAP1 RETURN JUMPDEST PUSH2 0x1F8 PUSH1 0x4 DUP1 CALLDATASIZE SUB DUP2 ADD SWAP1 PUSH2 0x1F3 SWAP2 SWAP1 PUSH2 0x20F1 JUMP JUMPDEST PUSH2 0x6CD JUMP JUMPDEST STOP JUMPDEST PUSH2 0x214 PUSH1 0x4 DUP1 CALLDATASIZE SUB DUP2 ADD SWAP1 PUSH2 0x20F SWAP2 SWAP1 PUSH2 0x2207 JUMP JUMPDEST PUSH2 0x72D JUMP JUMPDEST PUSH1 0x40 MLOAD PUSH2 0x221 SWAP2 SWAP1 PUSH2 0x27CD JUMP JUMPDEST PUSH1 0x40 MLOAD DUP1 SWAP2 SUB SWAP1 RETURN JUMPDEST PUSH2 0x232 PUSH2 0x79C JUMP JUMPDEST PUSH1 0x40 MLOAD PUSH2 0x23F SWAP2 SWAP1 PUSH2 0x27CD JUMP JUMPDEST PUSH1 0x40 MLOAD DUP1 SWAP2 SUB SWAP1 RETURN JUMPDEST PUSH2 0x262 PUSH1 0x4 DUP1 CALLDATASIZE SUB DUP2 ADD SWAP1 PUSH2 0x25D SWAP2 SWAP1 PUSH2 0x2207 JUMP JUMPDEST PUSH2 0x7A2 JUMP JUMPDEST STOP JUMPDEST PUSH2 0x27E PUSH1 0x4 DUP1 CALLDATASIZE SUB DUP2 ADD SWAP1 PUSH2 0x279 SWAP2 SWAP1 PUSH2 0x20F1 JUMP JUMPDEST PUSH2 0x957 JUMP JUMPDEST STOP JUMPDEST PUSH2 0x29A PUSH1 0x4 DUP1 CALLDATASIZE SUB DUP2 ADD SWAP1 PUSH2 0x295 SWAP2 SWAP1 PUSH2 0x22A1 JUMP JUMPDEST PUSH2 0x977 JUMP JUMPDEST STOP JUMPDEST PUSH2 0x2B6 PUSH1 0x4 DUP1 CALLDATASIZE SUB DUP2 ADD SWAP1 PUSH2 0x2B1 SWAP2 SWAP1 PUSH2 0x22A1 JUMP JUMPDEST PUSH2 0xC50 JUMP JUMPDEST PUSH1 0x40 MLOAD PUSH2 0x2C3 SWAP2 SWAP1 PUSH2 0x27CD JUMP JUMPDEST PUSH1 0x40 MLOAD DUP1 SWAP2 SUB SWAP1 RETURN JUMPDEST PUSH2 0x2E6 PUSH1 0x4 DUP1 CALLDATASIZE SUB DUP2 ADD SWAP1 PUSH2 0x2E1 SWAP2 SWAP1 PUSH2 0x22A1 JUMP JUMPDEST PUSH2 0xC86 JUMP JUMPDEST PUSH1 0x40 MLOAD PUSH2 0x2F3 SWAP2 SWAP1 PUSH2 0x2589 JUMP JUMPDEST PUSH1 0x40 MLOAD DUP1 SWAP2 SUB SWAP1 RETURN JUMPDEST PUSH2 0x316 PUSH1 0x4 DUP1 CALLDATASIZE SUB DUP2 ADD SWAP1 PUSH2 0x311 SWAP2 SWAP1 PUSH2 0x2084 JUMP JUMPDEST PUSH2 0xD0D JUMP JUMPDEST PUSH1 0x40 MLOAD PUSH2 0x323 SWAP2 SWAP1 PUSH2 0x27CD JUMP JUMPDEST PUSH1 0x40 MLOAD DUP1 SWAP2 SUB SWAP1 RETURN JUMPDEST PUSH2 0x334 PUSH2 0xDC5 JUMP JUMPDEST PUSH1 0x40 MLOAD PUSH2 0x341 SWAP2 SWAP1 PUSH2 0x260B JUMP JUMPDEST PUSH1 0x40 MLOAD DUP1 SWAP2 SUB SWAP1 RETURN JUMPDEST PUSH2 0x364 PUSH1 0x4 DUP1 CALLDATASIZE SUB DUP2 ADD SWAP1 PUSH2 0x35F SWAP2 SWAP1 PUSH2 0x21C7 JUMP JUMPDEST PUSH2 0xE57 JUMP JUMPDEST STOP JUMPDEST PUSH2 0x380 PUSH1 0x4 DUP1 CALLDATASIZE SUB DUP2 ADD SWAP1 PUSH2 0x37B SWAP2 SWAP1 PUSH2 0x2144 JUMP JUMPDEST PUSH2 0xE6D JUMP JUMPDEST STOP JUMPDEST PUSH2 0x39C PUSH1 0x4 DUP1 CALLDATASIZE SUB DUP2 ADD SWAP1 PUSH2 0x397 SWAP2 SWAP1 PUSH2 0x22A1 JUMP JUMPDEST PUSH2 0xECF JUMP JUMPDEST PUSH1 0x40 MLOAD PUSH2 0x3A9 SWAP2 SWAP1 PUSH2 0x260B JUMP JUMPDEST PUSH1 0x40 MLOAD DUP1 SWAP2 SUB SWAP1 RETURN JUMPDEST PUSH2 0x3CC PUSH1 0x4 DUP1 CALLDATASIZE SUB DUP2 ADD SWAP1 PUSH2 0x3C7 SWAP2 SWAP1 PUSH2 0x20B1 JUMP JUMPDEST PUSH2 0xF37 JUMP JUMPDEST PUSH1 0x40 MLOAD PUSH2 0x3D9 SWAP2 SWAP1 PUSH2 0x25F0 JUMP JUMPDEST PUSH1 0x40 MLOAD DUP1 SWAP2 SUB SWAP1 RETURN JUMPDEST PUSH1 0x0 PUSH32 0x80AC58CD00000000000000000000000000000000000000000000000000000000 PUSH28 0xFFFFFFFFFFFFFFFFFFFFFFFFFFFFFFFFFFFFFFFFFFFFFFFFFFFFFFFF NOT AND DUP3 PUSH28 0xFFFFFFFFFFFFFFFFFFFFFFFFFFFFFFFFFFFFFFFFFFFFFFFFFFFFFFFF NOT AND EQ DUP1 PUSH2 0x4AD JUMPI POP PUSH32 0x5B5E139F00000000000000000000000000000000000000000000000000000000 PUSH28 0xFFFFFFFFFFFFFFFFFFFFFFFFFFFFFFFFFFFFFFFFFFFFFFFFFFFFFFFF NOT AND DUP3 PUSH28 0xFFFFFFFFFFFFFFFFFFFFFFFFFFFFFFFFFFFFFFFFFFFFFFFFFFFFFFFF NOT AND EQ JUMPDEST DUP1 PUSH2 0x4BD JUMPI POP PUSH2 0x4BC DUP3 PUSH2 0xFCB JUMP JUMPDEST JUMPDEST SWAP1 POP SWAP2 SWAP1 POP JUMP JUMPDEST PUSH1 0x60 PUSH1 0x0 DUP1 SLOAD PUSH2 0x4D3 SWAP1 PUSH2 0x29C1 JUMP JUMPDEST DUP1 PUSH1 0x1F ADD PUSH1 0x20 DUP1 SWAP2 DIV MUL PUSH1 0x20 ADD PUSH1 0x40 MLOAD SWAP1 DUP2 ADD PUSH1 0x40 MSTORE DUP1 SWAP3 SWAP2 SWAP1 DUP2 DUP2 MSTORE PUSH1 0x20 ADD DUP3 DUP1 SLOAD PUSH2 0x4FF SWAP1 PUSH2 0x29C1 JUMP JUMPDEST DUP1 ISZERO PUSH2 0x54C JUMPI DUP1 PUSH1 0x1F LT PUSH2 0x521 JUMPI PUSH2 0x100 DUP1 DUP4 SLOAD DIV MUL DUP4 MSTORE SWAP2 PUSH1 0x20 ADD SWAP2 PUSH2 0x54C JUMP JUMPDEST DUP3 ADD SWAP2 SWAP1 PUSH1 0x0 MSTORE PUSH1 0x20 PUSH1 0x0 KECCAK256 SWAP1 JUMPDEST DUP2 SLOAD DUP2 MSTORE SWAP1 PUSH1 0x1 ADD SWAP1 PUSH1 0x20 ADD DUP1 DUP4 GT PUSH2 0x52F JUMPI DUP3 SWAP1 SUB PUSH1 0x1F AND DUP3 ADD SWAP2 JUMPDEST POP POP POP POP POP SWAP1 POP SWAP1 JUMP JUMPDEST PUSH1 0x0 PUSH2 0x561 DUP3 PUSH2 0x1035 JUMP JUMPDEST PUSH1 0x4 PUSH1 0x0 DUP4 DUP2 MSTORE PUSH1 0x20 ADD SWAP1 DUP2 MSTORE PUSH1 0x20 ADD PUSH1 0x0 KECCAK256 PUSH1 0x0 SWAP1 SLOAD SWAP1 PUSH2 0x100 EXP SWAP1 DIV PUSH20 0xFFFFFFFFFFFFFFFFFFFFFFFFFFFFFFFFFFFFFFFF AND SWAP1 POP SWAP2 SWAP1 POP JUMP JUMPDEST PUSH1 0x0 PUSH2 0x5A7 DUP3 PUSH2 0xC86 JUMP JUMPDEST SWAP1 POP DUP1 PUSH20 0xFFFFFFFFFFFFFFFFFFFFFFFFFFFFFFFFFFFFFFFF AND DUP4 PUSH20 0xFFFFFFFFFFFFFFFFFFFFFFFFFFFFFFFFFFFFFFFF AND EQ ISZERO PUSH2 0x618 JUMPI PUSH1 0x40 MLOAD PUSH32 0x8C379A000000000000000000000000000000000000000000000000000000000 DUP2 MSTORE PUSH1 0x4 ADD PUSH2 0x60F SWAP1 PUSH2 0x278D JUMP JUMPDEST PUSH1 0x40 MLOAD DUP1 SWAP2 SUB SWAP1 REVERT JUMPDEST DUP1 PUSH20 0xFFFFFFFFFFFFFFFFFFFFFFFFFFFFFFFFFFFFFFFF AND PUSH2 0x637 PUSH2 0x1080 JUMP JUMPDEST PUSH20 0xFFFFFFFFFFFFFFFFFFFFFFFFFFFFFFFFFFFFFFFF AND EQ DUP1 PUSH2 0x666 JUMPI POP PUSH2 0x665 DUP2 PUSH2 0x660 PUSH2 0x1080 JUMP JUMPDEST PUSH2 0xF37 JUMP JUMPDEST JUMPDEST PUSH2 0x6A5 JUMPI PUSH1 0x40 MLOAD PUSH32 0x8C379A000000000000000000000000000000000000000000000000000000000 DUP2 MSTORE PUSH1 0x4 ADD PUSH2 0x69C SWAP1 PUSH2 0x27AD JUMP JUMPDEST PUSH1 0x40 MLOAD DUP1 SWAP2 SUB SWAP1 REVERT JUMPDEST PUSH2 0x6AF DUP4 DUP4 PUSH2 0x1088 JUMP JUMPDEST POP POP POP JUMP JUMPDEST PUSH1 0x0 PUSH1 0x1 PUSH1 0x9 DUP1 SLOAD SWAP1 POP PUSH2 0x6C8 SWAP2 SWAP1 PUSH2 0x28D7 JUMP JUMPDEST SWAP1 POP SWAP1 JUMP JUMPDEST PUSH2 0x6DE PUSH2 0x6D8 PUSH2 0x1080 JUMP JUMPDEST DUP3 PUSH2 0x1141 JUMP JUMPDEST PUSH2 0x71D JUMPI PUSH1 0x40 MLOAD PUSH32 0x8C379A000000000000000000000000000000000000000000000000000000000 DUP2 MSTORE PUSH1 0x4 ADD PUSH2 0x714 SWAP1 PUSH2 0x262D JUMP JUMPDEST PUSH1 0x40 MLOAD DUP1 SWAP2 SUB SWAP1 REVERT JUMPDEST PUSH2 0x728 DUP4 DUP4 DUP4 PUSH2 0x11D6 JUMP JUMPDEST POP POP POP JUMP JUMPDEST PUSH1 0x0 PUSH2 0x738 DUP4 PUSH2 0xD0D JUMP JUMPDEST DUP3 LT PUSH2 0x743 JUMPI PUSH1 0x0 DUP1 REVERT JUMPDEST PUSH1 0x7 PUSH1 0x0 DUP5 PUSH20 0xFFFFFFFFFFFFFFFFFFFFFFFFFFFFFFFFFFFFFFFF AND PUSH20 0xFFFFFFFFFFFFFFFFFFFFFFFFFFFFFFFFFFFFFFFF AND DUP2 MSTORE PUSH1 0x20 ADD SWAP1 DUP2 MSTORE PUSH1 0x20 ADD PUSH1 0x0 KECCAK256 PUSH1 0x0 DUP4 DUP2 MSTORE PUSH1 0x20 ADD SWAP1 DUP2 MSTORE PUSH1 0x20 ADD PUSH1 0x0 KECCAK256 SLOAD SWAP1 POP SWAP3 SWAP2 POP POP JUMP JUMPDEST PUSH1 0x6 SLOAD DUP2 JUMP JUMPDEST PUSH1 0x0 PUSH20 0xFFFFFFFFFFFFFFFFFFFFFFFFFFFFFFFFFFFFFFFF AND DUP3 PUSH20 0xFFFFFFFFFFFFFFFFFFFFFFFFFFFFFFFFFFFFFFFF AND EQ ISZERO PUSH2 0x812 JUMPI PUSH1 0x40 MLOAD PUSH32 0x8C379A000000000000000000000000000000000000000000000000000000000 DUP2 MSTORE PUSH1 0x4 ADD PUSH2 0x809 SWAP1 PUSH2 0x270D JUMP JUMPDEST PUSH1 0x40 MLOAD DUP1 SWAP2 SUB SWAP1 REVERT JUMPDEST PUSH2 0x81C DUP3 DUP3 PUSH2 0x14D0 JUMP JUMPDEST PUSH1 0x0 PUSH2 0x827 DUP4 PUSH2 0xD0D JUMP JUMPDEST SWAP1 POP DUP2 PUSH1 0x7 PUSH1 0x0 DUP6 PUSH20 0xFFFFFFFFFFFFFFFFFFFFFFFFFFFFFFFFFFFFFFFF AND PUSH20 0xFFFFFFFFFFFFFFFFFFFFFFFFFFFFFFFFFFFFFFFF AND DUP2 MSTORE PUSH1 0x20 ADD SWAP1 DUP2 MSTORE PUSH1 0x20 ADD PUSH1 0x0 KECCAK256 PUSH1 0x0 DUP4 DUP2 MSTORE PUSH1 0x20 ADD SWAP1 DUP2 MSTORE PUSH1 0x20 ADD PUSH1 0x0 KECCAK256 DUP2 SWAP1 SSTORE POP DUP1 PUSH1 0x8 PUSH1 0x0 DUP5 DUP2 MSTORE PUSH1 0x20 ADD SWAP1 DUP2 MSTORE PUSH1 0x20 ADD PUSH1 0x0 KECCAK256 DUP2 SWAP1 SSTORE POP PUSH1 0x9 DUP1 SLOAD SWAP1 POP PUSH1 0xA PUSH1 0x0 DUP5 DUP2 MSTORE PUSH1 0x20 ADD SWAP1 DUP2 MSTORE PUSH1 0x20 ADD PUSH1 0x0 KECCAK256 DUP2 SWAP1 SSTORE POP PUSH1 0x9 DUP3 SWAP1 DUP1 PUSH1 0x1 DUP2 SLOAD ADD DUP1 DUP3 SSTORE DUP1 SWAP2 POP POP PUSH1 0x1 SWAP1 SUB SWAP1 PUSH1 0x0 MSTORE PUSH1 0x20 PUSH1 0x0 KECCAK256 ADD PUSH1 0x0 SWAP1 SWAP2 SWAP1 SWAP2 SWAP1 SWAP2 POP SSTORE PUSH1 0x1 PUSH1 0x6 PUSH1 0x0 DUP3 DUP3 SLOAD PUSH2 0x8EF SWAP2 SWAP1 PUSH2 0x2881 JUMP JUMPDEST SWAP3 POP POP DUP2 SWAP1 SSTORE POP DUP2 DUP4 PUSH20 0xFFFFFFFFFFFFFFFFFFFFFFFFFFFFFFFFFFFFFFFF AND PUSH1 0x0 PUSH20 0xFFFFFFFFFFFFFFFFFFFFFFFFFFFFFFFFFFFFFFFF AND PUSH32 0xDDF252AD1BE2C89B69C2B068FC378DAA952BA7F163C4A11628F55A4DF523B3EF PUSH1 0x40 MLOAD PUSH1 0x40 MLOAD DUP1 SWAP2 SUB SWAP1 LOG4 POP POP POP JUMP JUMPDEST PUSH2 0x972 DUP4 DUP4 DUP4 PUSH1 0x40 MLOAD DUP1 PUSH1 0x20 ADD PUSH1 0x40 MSTORE DUP1 PUSH1 0x0 DUP2 MSTORE POP PUSH2 0xE6D JUMP JUMPDEST POP POP POP JUMP JUMPDEST PUSH1 0x0 PUSH2 0x982 DUP3 PUSH2 0x16EE JUMP JUMPDEST SWAP1 POP CALLER PUSH20 0xFFFFFFFFFFFFFFFFFFFFFFFFFFFFFFFFFFFFFFFF AND DUP2 PUSH20 0xFFFFFFFFFFFFFFFFFFFFFFFFFFFFFFFFFFFFFFFF AND EQ PUSH2 0x9F2 JUMPI PUSH1 0x40 MLOAD PUSH32 0x8C379A000000000000000000000000000000000000000000000000000000000 DUP2 MSTORE PUSH1 0x4 ADD PUSH2 0x9E9 SWAP1 PUSH2 0x26AD JUMP JUMPDEST PUSH1 0x40 MLOAD DUP1 SWAP2 SUB SWAP1 REVERT JUMPDEST PUSH2 0x9FB DUP3 PUSH2 0x172B JUMP JUMPDEST PUSH1 0x1 PUSH1 0x6 PUSH1 0x0 DUP3 DUP3 SLOAD PUSH2 0xA0E SWAP2 SWAP1 PUSH2 0x28D7 JUMP JUMPDEST SWAP3 POP POP DUP2 SWAP1 SSTORE POP PUSH1 0x0 PUSH1 0x1 PUSH2 0xA22 DUP4 PUSH2 0xD0D JUMP JUMPDEST PUSH2 0xA2C SWAP2 SWAP1 PUSH2 0x28D7 JUMP JUMPDEST SWAP1 POP PUSH1 0x0 PUSH1 0x8 PUSH1 0x0 DUP6 DUP2 MSTORE PUSH1 0x20 ADD SWAP1 DUP2 MSTORE PUSH1 0x20 ADD PUSH1 0x0 KECCAK256 SLOAD SWAP1 POP DUP2 DUP2 EQ PUSH2 0xB11 JUMPI PUSH1 0x0 PUSH1 0x7 PUSH1 0x0 DUP6 PUSH20 0xFFFFFFFFFFFFFFFFFFFFFFFFFFFFFFFFFFFFFFFF AND PUSH20 0xFFFFFFFFFFFFFFFFFFFFFFFFFFFFFFFFFFFFFFFF AND DUP2 MSTORE PUSH1 0x20 ADD SWAP1 DUP2 MSTORE PUSH1 0x20 ADD PUSH1 0x0 KECCAK256 PUSH1 0x0 DUP5 DUP2 MSTORE PUSH1 0x20 ADD SWAP1 DUP2 MSTORE PUSH1 0x20 ADD PUSH1 0x0 KECCAK256 SLOAD SWAP1 POP DUP1 PUSH1 0x7 PUSH1 0x0 DUP7 PUSH20 0xFFFFFFFFFFFFFFFFFFFFFFFFFFFFFFFFFFFFFFFF AND PUSH20 0xFFFFFFFFFFFFFFFFFFFFFFFFFFFFFFFFFFFFFFFF AND DUP2 MSTORE PUSH1 0x20 ADD SWAP1 DUP2 MSTORE PUSH1 0x20 ADD PUSH1 0x0 KECCAK256 PUSH1 0x0 DUP5 DUP2 MSTORE PUSH1 0x20 ADD SWAP1 DUP2 MSTORE PUSH1 0x20 ADD PUSH1 0x0 KECCAK256 DUP2 SWAP1 SSTORE POP DUP2 PUSH1 0x8 PUSH1 0x0 DUP4 DUP2 MSTORE PUSH1 0x20 ADD SWAP1 DUP2 MSTORE PUSH1 0x20 ADD PUSH1 0x0 KECCAK256 DUP2 SWAP1 SSTORE POP POP JUMPDEST PUSH1 0x8 PUSH1 0x0 DUP6 DUP2 MSTORE PUSH1 0x20 ADD SWAP1 DUP2 MSTORE PUSH1 0x20 ADD PUSH1 0x0 KECCAK256 PUSH1 0x0 SWAP1 SSTORE PUSH1 0x7 PUSH1 0x0 DUP5 PUSH20 0xFFFFFFFFFFFFFFFFFFFFFFFFFFFFFFFFFFFFFFFF AND PUSH20 0xFFFFFFFFFFFFFFFFFFFFFFFFFFFFFFFFFFFFFFFF AND DUP2 MSTORE PUSH1 0x20 ADD SWAP1 DUP2 MSTORE PUSH1 0x20 ADD PUSH1 0x0 KECCAK256 PUSH1 0x0 DUP4 DUP2 MSTORE PUSH1 0x20 ADD SWAP1 DUP2 MSTORE PUSH1 0x20 ADD PUSH1 0x0 KECCAK256 PUSH1 0x0 SWAP1 SSTORE PUSH1 0x0 PUSH1 0x1 PUSH1 0x9 DUP1 SLOAD SWAP1 POP PUSH2 0xB90 SWAP2 SWAP1 PUSH2 0x28D7 JUMP JUMPDEST SWAP1 POP PUSH1 0x0 PUSH1 0xA PUSH1 0x0 DUP8 DUP2 MSTORE PUSH1 0x20 ADD SWAP1 DUP2 MSTORE PUSH1 0x20 ADD PUSH1 0x0 KECCAK256 SLOAD SWAP1 POP PUSH1 0x0 PUSH1 0x9 DUP4 DUP2 SLOAD DUP2 LT PUSH2 0xBC0 JUMPI PUSH2 0xBBF PUSH2 0x2AE0 JUMP JUMPDEST JUMPDEST SWAP1 PUSH1 0x0 MSTORE PUSH1 0x20 PUSH1 0x0 KECCAK256 ADD SLOAD SWAP1 POP DUP1 PUSH1 0x9 DUP4 DUP2 SLOAD DUP2 LT PUSH2 0xBE2 JUMPI PUSH2 0xBE1 PUSH2 0x2AE0 JUMP JUMPDEST JUMPDEST SWAP1 PUSH1 0x0 MSTORE PUSH1 0x20 PUSH1 0x0 KECCAK256 ADD DUP2 SWAP1 SSTORE POP DUP2 PUSH1 0xA PUSH1 0x0 DUP4 DUP2 MSTORE PUSH1 0x20 ADD SWAP1 DUP2 MSTORE PUSH1 0x20 ADD PUSH1 0x0 KECCAK256 DUP2 SWAP1 SSTORE POP PUSH1 0xA PUSH1 0x0 DUP9 DUP2 MSTORE PUSH1 0x20 ADD SWAP1 DUP2 MSTORE PUSH1 0x20 ADD PUSH1 0x0 KECCAK256 PUSH1 0x0 SWAP1 SSTORE PUSH1 0x9 DUP1 SLOAD DUP1 PUSH2 0xC31 JUMPI PUSH2 0xC30 PUSH2 0x2AB1 JUMP JUMPDEST JUMPDEST PUSH1 0x1 SWAP1 SUB DUP2 DUP2 SWAP1 PUSH1 0x0 MSTORE PUSH1 0x20 PUSH1 0x0 KECCAK256 ADD PUSH1 0x0 SWAP1 SSTORE SWAP1 SSTORE POP POP POP POP POP POP POP JUMP JUMPDEST PUSH1 0x0 PUSH1 0x6 SLOAD DUP3 LT PUSH2 0xC60 JUMPI PUSH1 0x0 DUP1 REVERT JUMPDEST PUSH1 0x9 DUP3 DUP2 SLOAD DUP2 LT PUSH2 0xC74 JUMPI PUSH2 0xC73 PUSH2 0x2AE0 JUMP JUMPDEST JUMPDEST SWAP1 PUSH1 0x0 MSTORE PUSH1 0x20 PUSH1 0x0 KECCAK256 ADD SLOAD SWAP1 POP SWAP2 SWAP1 POP JUMP JUMPDEST PUSH1 0x0 DUP1 PUSH2 0xC92 DUP4 PUSH2 0x16EE JUMP JUMPDEST SWAP1 POP PUSH1 0x0 PUSH20 0xFFFFFFFFFFFFFFFFFFFFFFFFFFFFFFFFFFFFFFFF AND DUP2 PUSH20 0xFFFFFFFFFFFFFFFFFFFFFFFFFFFFFFFFFFFFFFFF AND EQ ISZERO PUSH2 0xD04 JUMPI PUSH1 0x40 MLOAD PUSH32 0x8C379A000000000000000000000000000000000000000000000000000000000 DUP2 MSTORE PUSH1 0x4 ADD PUSH2 0xCFB SWAP1 PUSH2 0x276D JUMP JUMPDEST PUSH1 0x40 MLOAD DUP1 SWAP2 SUB SWAP1 REVERT JUMPDEST DUP1 SWAP2 POP POP SWAP2 SWAP1 POP JUMP JUMPDEST PUSH1 0x0 DUP1 PUSH20 0xFFFFFFFFFFFFFFFFFFFFFFFFFFFFFFFFFFFFFFFF AND DUP3 PUSH20 0xFFFFFFFFFFFFFFFFFFFFFFFFFFFFFFFFFFFFFFFF AND EQ ISZERO PUSH2 0xD7E JUMPI PUSH1 0x40 MLOAD PUSH32 0x8C379A000000000000000000000000000000000000000000000000000000000 DUP2 MSTORE PUSH1 0x4 ADD PUSH2 0xD75 SWAP1 PUSH2 0x272D JUMP JUMPDEST PUSH1 0x40 MLOAD DUP1 SWAP2 SUB SWAP1 REVERT JUMPDEST PUSH1 0x3 PUSH1 0x0 DUP4 PUSH20 0xFFFFFFFFFFFFFFFFFFFFFFFFFFFFFFFFFFFFFFFF AND PUSH20 0xFFFFFFFFFFFFFFFFFFFFFFFFFFFFFFFFFFFFFFFF AND DUP2 MSTORE PUSH1 0x20 ADD SWAP1 DUP2 MSTORE PUSH1 0x20 ADD PUSH1 0x0 KECCAK256 SLOAD SWAP1 POP SWAP2 SWAP1 POP JUMP JUMPDEST PUSH1 0x60 PUSH1 0x1 DUP1 SLOAD PUSH2 0xDD4 SWAP1 PUSH2 0x29C1 JUMP JUMPDEST DUP1 PUSH1 0x1F ADD PUSH1 0x20 DUP1 SWAP2 DIV MUL PUSH1 0x20 ADD PUSH1 0x40 MLOAD SWAP1 DUP2 ADD PUSH1 0x40 MSTORE DUP1 SWAP3 SWAP2 SWAP1 DUP2 DUP2 MSTORE PUSH1 0x20 ADD DUP3 DUP1 SLOAD PUSH2 0xE00 SWAP1 PUSH2 0x29C1 JUMP JUMPDEST DUP1 ISZERO PUSH2 0xE4D JUMPI DUP1 PUSH1 0x1F LT PUSH2 0xE22 JUMPI PUSH2 0x100 DUP1 DUP4 SLOAD DIV MUL DUP4 MSTORE SWAP2 PUSH1 0x20 ADD SWAP2 PUSH2 0xE4D JUMP JUMPDEST DUP3 ADD SWAP2 SWAP1 PUSH1 0x0 MSTORE PUSH1 0x20 PUSH1 0x0 KECCAK256 SWAP1 JUMPDEST DUP2 SLOAD DUP2 MSTORE SWAP1 PUSH1 0x1 ADD SWAP1 PUSH1 0x20 ADD DUP1 DUP4 GT PUSH2 0xE30 JUMPI DUP3 SWAP1 SUB PUSH1 0x1F AND DUP3 ADD SWAP2 JUMPDEST POP POP POP POP POP SWAP1 POP SWAP1 JUMP JUMPDEST PUSH2 0xE69 PUSH2 0xE62 PUSH2 0x1080 JUMP JUMPDEST DUP4 DUP4 PUSH2 0x1879 JUMP JUMPDEST POP POP JUMP JUMPDEST PUSH2 0xE7E PUSH2 0xE78 PUSH2 0x1080 JUMP JUMPDEST DUP4 PUSH2 0x1141 JUMP JUMPDEST PUSH2 0xEBD JUMPI PUSH1 0x40 MLOAD PUSH32 0x8C379A000000000000000000000000000000000000000000000000000000000 DUP2 MSTORE PUSH1 0x4 ADD PUSH2 0xEB4 SWAP1 PUSH2 0x262D JUMP JUMPDEST PUSH1 0x40 MLOAD DUP1 SWAP2 SUB SWAP1 REVERT JUMPDEST PUSH2 0xEC9 DUP5 DUP5 DUP5 DUP5 PUSH2 0x19E6 JUMP JUMPDEST POP POP POP POP JUMP JUMPDEST PUSH1 0x60 PUSH2 0xEDA DUP3 PUSH2 0x1035 JUMP JUMPDEST PUSH1 0x0 PUSH2 0xEE4 PUSH2 0x1A42 JUMP JUMPDEST SWAP1 POP PUSH1 0x0 DUP2 MLOAD GT PUSH2 0xF04 JUMPI PUSH1 0x40 MLOAD DUP1 PUSH1 0x20 ADD PUSH1 0x40 MSTORE DUP1 PUSH1 0x0 DUP2 MSTORE POP PUSH2 0xF2F JUMP JUMPDEST DUP1 PUSH2 0xF0E DUP5 PUSH2 0x1A59 JUMP JUMPDEST PUSH1 0x40 MLOAD PUSH1 0x20 ADD PUSH2 0xF1F SWAP3 SWAP2 SWAP1 PUSH2 0x2565 JUMP JUMPDEST PUSH1 0x40 MLOAD PUSH1 0x20 DUP2 DUP4 SUB SUB DUP2 MSTORE SWAP1 PUSH1 0x40 MSTORE JUMPDEST SWAP2 POP POP SWAP2 SWAP1 POP JUMP JUMPDEST PUSH1 0x0 PUSH1 0x5 PUSH1 0x0 DUP5 PUSH20 0xFFFFFFFFFFFFFFFFFFFFFFFFFFFFFFFFFFFFFFFF AND PUSH20 0xFFFFFFFFFFFFFFFFFFFFFFFFFFFFFFFFFFFFFFFF AND DUP2 MSTORE PUSH1 0x20 ADD SWAP1 DUP2 MSTORE PUSH1 0x20 ADD PUSH1 0x0 KECCAK256 PUSH1 0x0 DUP4 PUSH20 0xFFFFFFFFFFFFFFFFFFFFFFFFFFFFFFFFFFFFFFFF AND PUSH20 0xFFFFFFFFFFFFFFFFFFFFFFFFFFFFFFFFFFFFFFFF AND DUP2 MSTORE PUSH1 0x20 ADD SWAP1 DUP2 MSTORE PUSH1 0x20 ADD PUSH1 0x0 KECCAK256 PUSH1 0x0 SWAP1 SLOAD SWAP1 PUSH2 0x100 EXP SWAP1 DIV PUSH1 0xFF AND SWAP1 POP SWAP3 SWAP2 POP POP JUMP JUMPDEST PUSH1 0x0 PUSH32 0x1FFC9A700000000000000000000000000000000000000000000000000000000 PUSH28 0xFFFFFFFFFFFFFFFFFFFFFFFFFFFFFFFFFFFFFFFFFFFFFFFFFFFFFFFF NOT AND DUP3 PUSH28 0xFFFFFFFFFFFFFFFFFFFFFFFFFFFFFFFFFFFFFFFFFFFFFFFFFFFFFFFF NOT AND EQ SWAP1 POP SWAP2 SWAP1 POP JUMP JUMPDEST PUSH2 0x103E DUP2 PUSH2 0x1B31 JUMP JUMPDEST PUSH2 0x107D JUMPI PUSH1 0x40 MLOAD PUSH32 0x8C379A000000000000000000000000000000000000000000000000000000000 DUP2 MSTORE PUSH1 0x4 ADD PUSH2 0x1074 SWAP1 PUSH2 0x276D JUMP JUMPDEST PUSH1 0x40 MLOAD DUP1 SWAP2 SUB SWAP1 REVERT JUMPDEST POP JUMP JUMPDEST PUSH1 0x0 CALLER SWAP1 POP SWAP1 JUMP JUMPDEST DUP2 PUSH1 0x4 PUSH1 0x0 DUP4 DUP2 MSTORE PUSH1 0x20 ADD SWAP1 DUP2 MSTORE PUSH1 0x20 ADD PUSH1 0x0 KECCAK256 PUSH1 0x0 PUSH2 0x100 EXP DUP2 SLOAD DUP2 PUSH20 0xFFFFFFFFFFFFFFFFFFFFFFFFFFFFFFFFFFFFFFFF MUL NOT AND SWAP1 DUP4 PUSH20 0xFFFFFFFFFFFFFFFFFFFFFFFFFFFFFFFFFFFFFFFF AND MUL OR SWAP1 SSTORE POP DUP1 DUP3 PUSH20 0xFFFFFFFFFFFFFFFFFFFFFFFFFFFFFFFFFFFFFFFF AND PUSH2 0x10FB DUP4 PUSH2 0xC86 JUMP JUMPDEST PUSH20 0xFFFFFFFFFFFFFFFFFFFFFFFFFFFFFFFFFFFFFFFF AND PUSH32 0x8C5BE1E5EBEC7D5BD14F71427D1E84F3DD0314C0F7B2291E5B200AC8C7C3B925 PUSH1 0x40 MLOAD PUSH1 0x40 MLOAD DUP1 SWAP2 SUB SWAP1 LOG4 POP POP JUMP JUMPDEST PUSH1 0x0 DUP1 PUSH2 0x114D DUP4 PUSH2 0xC86 JUMP JUMPDEST SWAP1 POP DUP1 PUSH20 0xFFFFFFFFFFFFFFFFFFFFFFFFFFFFFFFFFFFFFFFF AND DUP5 PUSH20 0xFFFFFFFFFFFFFFFFFFFFFFFFFFFFFFFFFFFFFFFF AND EQ DUP1 PUSH2 0x118F JUMPI POP PUSH2 0x118E DUP2 DUP6 PUSH2 0xF37 JUMP JUMPDEST JUMPDEST DUP1 PUSH2 0x11CD JUMPI POP DUP4 PUSH20 0xFFFFFFFFFFFFFFFFFFFFFFFFFFFFFFFFFFFFFFFF AND PUSH2 0x11B5 DUP5 PUSH2 0x556 JUMP JUMPDEST PUSH20 0xFFFFFFFFFFFFFFFFFFFFFFFFFFFFFFFFFFFFFFFF AND EQ JUMPDEST SWAP2 POP POP SWAP3 SWAP2 POP POP JUMP JUMPDEST DUP3 PUSH20 0xFFFFFFFFFFFFFFFFFFFFFFFFFFFFFFFFFFFFFFFF AND PUSH2 0x11F6 DUP3 PUSH2 0xC86 JUMP JUMPDEST PUSH20 0xFFFFFFFFFFFFFFFFFFFFFFFFFFFFFFFFFFFFFFFF AND EQ PUSH2 0x124C JUMPI PUSH1 0x40 MLOAD PUSH32 0x8C379A000000000000000000000000000000000000000000000000000000000 DUP2 MSTORE PUSH1 0x4 ADD PUSH2 0x1243 SWAP1 PUSH2 0x266D JUMP JUMPDEST PUSH1 0x40 MLOAD DUP1 SWAP2 SUB SWAP1 REVERT JUMPDEST PUSH1 0x0 PUSH20 0xFFFFFFFFFFFFFFFFFFFFFFFFFFFFFFFFFFFFFFFF AND DUP3 PUSH20 0xFFFFFFFFFFFFFFFFFFFFFFFFFFFFFFFFFFFFFFFF AND EQ ISZERO PUSH2 0x12BC JUMPI PUSH1 0x40 MLOAD PUSH32 0x8C379A000000000000000000000000000000000000000000000000000000000 DUP2 MSTORE PUSH1 0x4 ADD PUSH2 0x12B3 SWAP1 PUSH2 0x26CD JUMP JUMPDEST PUSH1 0x40 MLOAD DUP1 SWAP2 SUB SWAP1 REVERT JUMPDEST PUSH2 0x12C9 DUP4 DUP4 DUP4 PUSH1 0x1 PUSH2 0x1B72 JUMP JUMPDEST DUP3 PUSH20 0xFFFFFFFFFFFFFFFFFFFFFFFFFFFFFFFFFFFFFFFF AND PUSH2 0x12E9 DUP3 PUSH2 0xC86 JUMP JUMPDEST PUSH20 0xFFFFFFFFFFFFFFFFFFFFFFFFFFFFFFFFFFFFFFFF AND EQ PUSH2 0x133F JUMPI PUSH1 0x40 MLOAD PUSH32 0x8C379A000000000000000000000000000000000000000000000000000000000 DUP2 MSTORE PUSH1 0x4 ADD PUSH2 0x1336 SWAP1 PUSH2 0x266D JUMP JUMPDEST PUSH1 0x40 MLOAD DUP1 SWAP2 SUB SWAP1 REVERT JUMPDEST PUSH1 0x4 PUSH1 0x0 DUP3 DUP2 MSTORE PUSH1 0x20 ADD SWAP1 DUP2 MSTORE PUSH1 0x20 ADD PUSH1 0x0 KECCAK256 PUSH1 0x0 PUSH2 0x100 EXP DUP2 SLOAD SWAP1 PUSH20 0xFFFFFFFFFFFFFFFFFFFFFFFFFFFFFFFFFFFFFFFF MUL NOT AND SWAP1 SSTORE PUSH1 0x1 PUSH1 0x3 PUSH1 0x0 DUP6 PUSH20 0xFFFFFFFFFFFFFFFFFFFFFFFFFFFFFFFFFFFFFFFF AND PUSH20 0xFFFFFFFFFFFFFFFFFFFFFFFFFFFFFFFFFFFFFFFF AND DUP2 MSTORE PUSH1 0x20 ADD SWAP1 DUP2 MSTORE PUSH1 0x20 ADD PUSH1 0x0 KECCAK256 PUSH1 0x0 DUP3 DUP3 SLOAD SUB SWAP3 POP POP DUP2 SWAP1 SSTORE POP PUSH1 0x1 PUSH1 0x3 PUSH1 0x0 DUP5 PUSH20 0xFFFFFFFFFFFFFFFFFFFFFFFFFFFFFFFFFFFFFFFF AND PUSH20 0xFFFFFFFFFFFFFFFFFFFFFFFFFFFFFFFFFFFFFFFF AND DUP2 MSTORE PUSH1 0x20 ADD SWAP1 DUP2 MSTORE PUSH1 0x20 ADD PUSH1 0x0 KECCAK256 PUSH1 0x0 DUP3 DUP3 SLOAD ADD SWAP3 POP POP DUP2 SWAP1 SSTORE POP DUP2 PUSH1 0x2 PUSH1 0x0 DUP4 DUP2 MSTORE PUSH1 0x20 ADD SWAP1 DUP2 MSTORE PUSH1 0x20 ADD PUSH1 0x0 KECCAK256 PUSH1 0x0 PUSH2 0x100 EXP DUP2 SLOAD DUP2 PUSH20 0xFFFFFFFFFFFFFFFFFFFFFFFFFFFFFFFFFFFFFFFF MUL NOT AND SWAP1 DUP4 PUSH20 0xFFFFFFFFFFFFFFFFFFFFFFFFFFFFFFFFFFFFFFFF AND MUL OR SWAP1 SSTORE POP DUP1 DUP3 PUSH20 0xFFFFFFFFFFFFFFFFFFFFFFFFFFFFFFFFFFFFFFFF AND DUP5 PUSH20 0xFFFFFFFFFFFFFFFFFFFFFFFFFFFFFFFFFFFFFFFF AND PUSH32 0xDDF252AD1BE2C89B69C2B068FC378DAA952BA7F163C4A11628F55A4DF523B3EF PUSH1 0x40 MLOAD PUSH1 0x40 MLOAD DUP1 SWAP2 SUB SWAP1 LOG4 PUSH2 0x14CB DUP4 DUP4 DUP4 PUSH1 0x1 PUSH2 0x1C98 JUMP JUMPDEST POP POP POP JUMP JUMPDEST PUSH1 0x0 PUSH20 0xFFFFFFFFFFFFFFFFFFFFFFFFFFFFFFFFFFFFFFFF AND DUP3 PUSH20 0xFFFFFFFFFFFFFFFFFFFFFFFFFFFFFFFFFFFFFFFF AND EQ ISZERO PUSH2 0x1540 JUMPI PUSH1 0x40 MLOAD PUSH32 0x8C379A000000000000000000000000000000000000000000000000000000000 DUP2 MSTORE PUSH1 0x4 ADD PUSH2 0x1537 SWAP1 PUSH2 0x274D JUMP JUMPDEST PUSH1 0x40 MLOAD DUP1 SWAP2 SUB SWAP1 REVERT JUMPDEST PUSH2 0x1549 DUP2 PUSH2 0x1B31 JUMP JUMPDEST ISZERO PUSH2 0x1589 JUMPI PUSH1 0x40 MLOAD PUSH32 0x8C379A000000000000000000000000000000000000000000000000000000000 DUP2 MSTORE PUSH1 0x4 ADD PUSH2 0x1580 SWAP1 PUSH2 0x268D JUMP JUMPDEST PUSH1 0x40 MLOAD DUP1 SWAP2 SUB SWAP1 REVERT JUMPDEST PUSH2 0x1597 PUSH1 0x0 DUP4 DUP4 PUSH1 0x1 PUSH2 0x1B72 JUMP JUMPDEST PUSH2 0x15A0 DUP2 PUSH2 0x1B31 JUMP JUMPDEST ISZERO PUSH2 0x15E0 JUMPI PUSH1 0x40 MLOAD PUSH32 0x8C379A000000000000000000000000000000000000000000000000000000000 DUP2 MSTORE PUSH1 0x4 ADD PUSH2 0x15D7 SWAP1 PUSH2 0x268D JUMP JUMPDEST PUSH1 0x40 MLOAD DUP1 SWAP2 SUB SWAP1 REVERT JUMPDEST PUSH1 0x1 PUSH1 0x3 PUSH1 0x0 DUP5 PUSH20 0xFFFFFFFFFFFFFFFFFFFFFFFFFFFFFFFFFFFFFFFF AND PUSH20 0xFFFFFFFFFFFFFFFFFFFFFFFFFFFFFFFFFFFFFFFF AND DUP2 MSTORE PUSH1 0x20 ADD SWAP1 DUP2 MSTORE PUSH1 0x20 ADD PUSH1 0x0 KECCAK256 PUSH1 0x0 DUP3 DUP3 SLOAD ADD SWAP3 POP POP DUP2 SWAP1 SSTORE POP DUP2 PUSH1 0x2 PUSH1 0x0 DUP4 DUP2 MSTORE PUSH1 0x20 ADD SWAP1 DUP2 MSTORE PUSH1 0x20 ADD PUSH1 0x0 KECCAK256 PUSH1 0x0 PUSH2 0x100 EXP DUP2 SLOAD DUP2 PUSH20 0xFFFFFFFFFFFFFFFFFFFFFFFFFFFFFFFFFFFFFFFF MUL NOT AND SWAP1 DUP4 PUSH20 0xFFFFFFFFFFFFFFFFFFFFFFFFFFFFFFFFFFFFFFFF AND MUL OR SWAP1 SSTORE POP DUP1 DUP3 PUSH20 0xFFFFFFFFFFFFFFFFFFFFFFFFFFFFFFFFFFFFFFFF AND PUSH1 0x0 PUSH20 0xFFFFFFFFFFFFFFFFFFFFFFFFFFFFFFFFFFFFFFFF AND PUSH32 0xDDF252AD1BE2C89B69C2B068FC378DAA952BA7F163C4A11628F55A4DF523B3EF PUSH1 0x40 MLOAD PUSH1 0x40 MLOAD DUP1 SWAP2 SUB SWAP1 LOG4 PUSH2 0x16EA PUSH1 0x0 DUP4 DUP4 PUSH1 0x1 PUSH2 0x1C98 JUMP JUMPDEST POP POP JUMP JUMPDEST PUSH1 0x0 PUSH1 0x2 PUSH1 0x0 DUP4 DUP2 MSTORE PUSH1 0x20 ADD SWAP1 DUP2 MSTORE PUSH1 0x20 ADD PUSH1 0x0 KECCAK256 PUSH1 0x0 SWAP1 SLOAD SWAP1 PUSH2 0x100 EXP SWAP1 DIV PUSH20 0xFFFFFFFFFFFFFFFFFFFFFFFFFFFFFFFFFFFFFFFF AND SWAP1 POP SWAP2 SWAP1 POP JUMP JUMPDEST PUSH1 0x0 PUSH2 0x1736 DUP3 PUSH2 0xC86 JUMP JUMPDEST SWAP1 POP PUSH2 0x1746 DUP2 PUSH1 0x0 DUP5 PUSH1 0x1 PUSH2 0x1B72 JUMP JUMPDEST PUSH2 0x174F DUP3 PUSH2 0xC86 JUMP JUMPDEST SWAP1 POP PUSH1 0x4 PUSH1 0x0 DUP4 DUP2 MSTORE PUSH1 0x20 ADD SWAP1 DUP2 MSTORE PUSH1 0x20 ADD PUSH1 0x0 KECCAK256 PUSH1 0x0 PUSH2 0x100 EXP DUP2 SLOAD SWAP1 PUSH20 0xFFFFFFFFFFFFFFFFFFFFFFFFFFFFFFFFFFFFFFFF MUL NOT AND SWAP1 SSTORE PUSH1 0x1 PUSH1 0x3 PUSH1 0x0 DUP4 PUSH20 0xFFFFFFFFFFFFFFFFFFFFFFFFFFFFFFFFFFFFFFFF AND PUSH20 0xFFFFFFFFFFFFFFFFFFFFFFFFFFFFFFFFFFFFFFFF AND DUP2 MSTORE PUSH1 0x20 ADD SWAP1 DUP2 MSTORE PUSH1 0x20 ADD PUSH1 0x0 KECCAK256 PUSH1 0x0 DUP3 DUP3 SLOAD SUB SWAP3 POP POP DUP2 SWAP1 SSTORE POP PUSH1 0x2 PUSH1 0x0 DUP4 DUP2 MSTORE PUSH1 0x20 ADD SWAP1 DUP2 MSTORE PUSH1 0x20 ADD PUSH1 0x0 KECCAK256 PUSH1 0x0 PUSH2 0x100 EXP DUP2 SLOAD SWAP1 PUSH20 0xFFFFFFFFFFFFFFFFFFFFFFFFFFFFFFFFFFFFFFFF MUL NOT AND SWAP1 SSTORE DUP2 PUSH1 0x0 PUSH20 0xFFFFFFFFFFFFFFFFFFFFFFFFFFFFFFFFFFFFFFFF AND DUP3 PUSH20 0xFFFFFFFFFFFFFFFFFFFFFFFFFFFFFFFFFFFFFFFF AND PUSH32 0xDDF252AD1BE2C89B69C2B068FC378DAA952BA7F163C4A11628F55A4DF523B3EF PUSH1 0x40 MLOAD PUSH1 0x40 MLOAD DUP1 SWAP2 SUB SWAP1 LOG4 PUSH2 0x1875 DUP2 PUSH1 0x0 DUP5 PUSH1 0x1 PUSH2 0x1C98 JUMP JUMPDEST POP POP JUMP JUMPDEST DUP2 PUSH20 0xFFFFFFFFFFFFFFFFFFFFFFFFFFFFFFFFFFFFFFFF AND DUP4 PUSH20 0xFFFFFFFFFFFFFFFFFFFFFFFFFFFFFFFFFFFFFFFF AND EQ ISZERO PUSH2 0x18E8 JUMPI PUSH1 0x40 MLOAD PUSH32 0x8C379A000000000000000000000000000000000000000000000000000000000 DUP2 MSTORE PUSH1 0x4 ADD PUSH2 0x18DF SWAP1 PUSH2 0x26ED JUMP JUMPDEST PUSH1 0x40 MLOAD DUP1 SWAP2 SUB SWAP1 REVERT JUMPDEST DUP1 PUSH1 0x5 PUSH1 0x0 DUP6 PUSH20 0xFFFFFFFFFFFFFFFFFFFFFFFFFFFFFFFFFFFFFFFF AND PUSH20 0xFFFFFFFFFFFFFFFFFFFFFFFFFFFFFFFFFFFFFFFF AND DUP2 MSTORE PUSH1 0x20 ADD SWAP1 DUP2 MSTORE PUSH1 0x20 ADD PUSH1 0x0 KECCAK256 PUSH1 0x0 DUP5 PUSH20 0xFFFFFFFFFFFFFFFFFFFFFFFFFFFFFFFFFFFFFFFF AND PUSH20 0xFFFFFFFFFFFFFFFFFFFFFFFFFFFFFFFFFFFFFFFF AND DUP2 MSTORE PUSH1 0x20 ADD SWAP1 DUP2 MSTORE PUSH1 0x20 ADD PUSH1 0x0 KECCAK256 PUSH1 0x0 PUSH2 0x100 EXP DUP2 SLOAD DUP2 PUSH1 0xFF MUL NOT AND SWAP1 DUP4 ISZERO ISZERO MUL OR SWAP1 SSTORE POP DUP2 PUSH20 0xFFFFFFFFFFFFFFFFFFFFFFFFFFFFFFFFFFFFFFFF AND DUP4 PUSH20 0xFFFFFFFFFFFFFFFFFFFFFFFFFFFFFFFFFFFFFFFF AND PUSH32 0x17307EAB39AB6107E8899845AD3D59BD9653F200F220920489CA2B5937696C31 DUP4 PUSH1 0x40 MLOAD PUSH2 0x19D9 SWAP2 SWAP1 PUSH2 0x25F0 JUMP JUMPDEST PUSH1 0x40 MLOAD DUP1 SWAP2 SUB SWAP1 LOG3 POP POP POP JUMP JUMPDEST PUSH2 0x19F1 DUP5 DUP5 DUP5 PUSH2 0x11D6 JUMP JUMPDEST PUSH2 0x19FD DUP5 DUP5 DUP5 DUP5 PUSH2 0x1C9E JUMP JUMPDEST PUSH2 0x1A3C JUMPI PUSH1 0x40 MLOAD PUSH32 0x8C379A000000000000000000000000000000000000000000000000000000000 DUP2 MSTORE PUSH1 0x4 ADD PUSH2 0x1A33 SWAP1 PUSH2 0x264D JUMP JUMPDEST PUSH1 0x40 MLOAD DUP1 SWAP2 SUB SWAP1 REVERT JUMPDEST POP POP POP POP JUMP JUMPDEST PUSH1 0x60 PUSH1 0x40 MLOAD DUP1 PUSH1 0x20 ADD PUSH1 0x40 MSTORE DUP1 PUSH1 0x0 DUP2 MSTORE POP SWAP1 POP SWAP1 JUMP JUMPDEST PUSH1 0x60 PUSH1 0x0 PUSH1 0x1 PUSH2 0x1A68 DUP5 PUSH2 0x1E35 JUMP JUMPDEST ADD SWAP1 POP PUSH1 0x0 DUP2 PUSH8 0xFFFFFFFFFFFFFFFF DUP2 GT ISZERO PUSH2 0x1A87 JUMPI PUSH2 0x1A86 PUSH2 0x2B0F JUMP JUMPDEST JUMPDEST PUSH1 0x40 MLOAD SWAP1 DUP1 DUP3 MSTORE DUP1 PUSH1 0x1F ADD PUSH1 0x1F NOT AND PUSH1 0x20 ADD DUP3 ADD PUSH1 0x40 MSTORE DUP1 ISZERO PUSH2 0x1AB9 JUMPI DUP2 PUSH1 0x20 ADD PUSH1 0x1 DUP3 MUL DUP1 CALLDATASIZE DUP4 CALLDATACOPY DUP1 DUP3 ADD SWAP2 POP POP SWAP1 POP JUMPDEST POP SWAP1 POP PUSH1 0x0 DUP3 PUSH1 0x20 ADD DUP3 ADD SWAP1 POP JUMPDEST PUSH1 0x1 ISZERO PUSH2 0x1B26 JUMPI DUP1 DUP1 PUSH1 0x1 SWAP1 SUB SWAP2 POP POP PUSH32 0x3031323334353637383961626364656600000000000000000000000000000000 PUSH1 0xA DUP7 MOD BYTE DUP2 MSTORE8 PUSH1 0xA DUP6 DUP2 PUSH2 0x1B10 JUMPI PUSH2 0x1B0F PUSH2 0x2A53 JUMP JUMPDEST JUMPDEST DIV SWAP5 POP PUSH1 0x0 DUP6 EQ ISZERO PUSH2 0x1B21 JUMPI PUSH2 0x1B26 JUMP JUMPDEST PUSH2 0x1AC7 JUMP JUMPDEST DUP2 SWAP4 POP POP POP POP SWAP2 SWAP1 POP JUMP JUMPDEST PUSH1 0x0 DUP1 PUSH20 0xFFFFFFFFFFFFFFFFFFFFFFFFFFFFFFFFFFFFFFFF AND PUSH2 0x1B53 DUP4 PUSH2 0x16EE JUMP JUMPDEST PUSH20 0xFFFFFFFFFFFFFFFFFFFFFFFFFFFFFFFFFFFFFFFF AND EQ ISZERO SWAP1 POP SWAP2 SWAP1 POP JUMP JUMPDEST PUSH1 0x1 DUP2 GT ISZERO PUSH2 0x1C92 JUMPI PUSH1 0x0 PUSH20 0xFFFFFFFFFFFFFFFFFFFFFFFFFFFFFFFFFFFFFFFF AND DUP5 PUSH20 0xFFFFFFFFFFFFFFFFFFFFFFFFFFFFFFFFFFFFFFFF AND EQ PUSH2 0x1C06 JUMPI DUP1 PUSH1 0x3 PUSH1 0x0 DUP7 PUSH20 0xFFFFFFFFFFFFFFFFFFFFFFFFFFFFFFFFFFFFFFFF AND PUSH20 0xFFFFFFFFFFFFFFFFFFFFFFFFFFFFFFFFFFFFFFFF AND DUP2 MSTORE PUSH1 0x20 ADD SWAP1 DUP2 MSTORE PUSH1 0x20 ADD PUSH1 0x0 KECCAK256 PUSH1 0x0 DUP3 DUP3 SLOAD PUSH2 0x1BFE SWAP2 SWAP1 PUSH2 0x28D7 JUMP JUMPDEST SWAP3 POP POP DUP2 SWAP1 SSTORE POP JUMPDEST PUSH1 0x0 PUSH20 0xFFFFFFFFFFFFFFFFFFFFFFFFFFFFFFFFFFFFFFFF AND DUP4 PUSH20 0xFFFFFFFFFFFFFFFFFFFFFFFFFFFFFFFFFFFFFFFF AND EQ PUSH2 0x1C91 JUMPI DUP1 PUSH1 0x3 PUSH1 0x0 DUP6 PUSH20 0xFFFFFFFFFFFFFFFFFFFFFFFFFFFFFFFFFFFFFFFF AND PUSH20 0xFFFFFFFFFFFFFFFFFFFFFFFFFFFFFFFFFFFFFFFF AND DUP2 MSTORE PUSH1 0x20 ADD SWAP1 DUP2 MSTORE PUSH1 0x20 ADD PUSH1 0x0 KECCAK256 PUSH1 0x0 DUP3 DUP3 SLOAD PUSH2 0x1C89 SWAP2 SWAP1 PUSH2 0x2881 JUMP JUMPDEST SWAP3 POP POP DUP2 SWAP1 SSTORE POP JUMPDEST JUMPDEST POP POP POP POP JUMP JUMPDEST POP POP POP POP JUMP JUMPDEST PUSH1 0x0 PUSH2 0x1CBF DUP5 PUSH20 0xFFFFFFFFFFFFFFFFFFFFFFFFFFFFFFFFFFFFFFFF AND PUSH2 0x1F88 JUMP JUMPDEST ISZERO PUSH2 0x1E28 JUMPI DUP4 PUSH20 0xFFFFFFFFFFFFFFFFFFFFFFFFFFFFFFFFFFFFFFFF AND PUSH4 0x150B7A02 PUSH2 0x1CE8 PUSH2 0x1080 JUMP JUMPDEST DUP8 DUP7 DUP7 PUSH1 0x40 MLOAD DUP6 PUSH4 0xFFFFFFFF AND PUSH1 0xE0 SHL DUP2 MSTORE PUSH1 0x4 ADD PUSH2 0x1D0A SWAP5 SWAP4 SWAP3 SWAP2 SWAP1 PUSH2 0x25A4 JUMP JUMPDEST PUSH1 0x20 PUSH1 0x40 MLOAD DUP1 DUP4 SUB DUP2 PUSH1 0x0 DUP8 DUP1 EXTCODESIZE ISZERO DUP1 ISZERO PUSH2 0x1D24 JUMPI PUSH1 0x0 DUP1 REVERT JUMPDEST POP GAS CALL SWAP3 POP POP POP DUP1 ISZERO PUSH2 0x1D55 JUMPI POP PUSH1 0x40 MLOAD RETURNDATASIZE PUSH1 0x1F NOT PUSH1 0x1F DUP3 ADD AND DUP3 ADD DUP1 PUSH1 0x40 MSTORE POP DUP2 ADD SWAP1 PUSH2 0x1D52 SWAP2 SWAP1 PUSH2 0x2274 JUMP JUMPDEST PUSH1 0x1 JUMPDEST PUSH2 0x1DD8 JUMPI RETURNDATASIZE DUP1 PUSH1 0x0 DUP2 EQ PUSH2 0x1D85 JUMPI PUSH1 0x40 MLOAD SWAP2 POP PUSH1 0x1F NOT PUSH1 0x3F RETURNDATASIZE ADD AND DUP3 ADD PUSH1 0x40 MSTORE RETURNDATASIZE DUP3 MSTORE RETURNDATASIZE PUSH1 0x0 PUSH1 0x20 DUP5 ADD RETURNDATACOPY PUSH2 0x1D8A JUMP JUMPDEST PUSH1 0x60 SWAP2 POP JUMPDEST POP PUSH1 0x0 DUP2 MLOAD EQ ISZERO PUSH2 0x1DD0 JUMPI PUSH1 0x40 MLOAD PUSH32 0x8C379A000000000000000000000000000000000000000000000000000000000 DUP2 MSTORE PUSH1 0x4 ADD PUSH2 0x1DC7 SWAP1 PUSH2 0x264D JUMP JUMPDEST PUSH1 0x40 MLOAD DUP1 SWAP2 SUB SWAP1 REVERT JUMPDEST DUP1 MLOAD DUP2 PUSH1 0x20 ADD REVERT JUMPDEST PUSH4 0x150B7A02 PUSH1 0xE0 SHL PUSH28 0xFFFFFFFFFFFFFFFFFFFFFFFFFFFFFFFFFFFFFFFFFFFFFFFFFFFFFFFF NOT AND DUP2 PUSH28 0xFFFFFFFFFFFFFFFFFFFFFFFFFFFFFFFFFFFFFFFFFFFFFFFFFFFFFFFF NOT AND EQ SWAP2 POP POP PUSH2 0x1E2D JUMP JUMPDEST PUSH1 0x1 SWAP1 POP JUMPDEST SWAP5 SWAP4 POP POP POP POP JUMP JUMPDEST PUSH1 0x0 DUP1 PUSH1 0x0 SWAP1 POP PUSH27 0x184F03E93FF9F4DAA797ED6E38ED64BF6A1F010000000000000000 DUP4 LT PUSH2 0x1E93 JUMPI PUSH27 0x184F03E93FF9F4DAA797ED6E38ED64BF6A1F010000000000000000 DUP4 DUP2 PUSH2 0x1E89 JUMPI PUSH2 0x1E88 PUSH2 0x2A53 JUMP JUMPDEST JUMPDEST DIV SWAP3 POP PUSH1 0x40 DUP2 ADD SWAP1 POP JUMPDEST PUSH14 0x4EE2D6D415B85ACEF8100000000 DUP4 LT PUSH2 0x1ED0 JUMPI PUSH14 0x4EE2D6D415B85ACEF8100000000 DUP4 DUP2 PUSH2 0x1EC6 JUMPI PUSH2 0x1EC5 PUSH2 0x2A53 JUMP JUMPDEST JUMPDEST DIV SWAP3 POP PUSH1 0x20 DUP2 ADD SWAP1 POP JUMPDEST PUSH7 0x2386F26FC10000 DUP4 LT PUSH2 0x1EFF JUMPI PUSH7 0x2386F26FC10000 DUP4 DUP2 PUSH2 0x1EF5 JUMPI PUSH2 0x1EF4 PUSH2 0x2A53 JUMP JUMPDEST JUMPDEST DIV SWAP3 POP PUSH1 0x10 DUP2 ADD SWAP1 POP JUMPDEST PUSH4 0x5F5E100 DUP4 LT PUSH2 0x1F28 JUMPI PUSH4 0x5F5E100 DUP4 DUP2 PUSH2 0x1F1E JUMPI PUSH2 0x1F1D PUSH2 0x2A53 JUMP JUMPDEST JUMPDEST DIV SWAP3 POP PUSH1 0x8 DUP2 ADD SWAP1 POP JUMPDEST PUSH2 0x2710 DUP4 LT PUSH2 0x1F4D JUMPI PUSH2 0x2710 DUP4 DUP2 PUSH2 0x1F43 JUMPI PUSH2 0x1F42 PUSH2 0x2A53 JUMP JUMPDEST JUMPDEST DIV SWAP3 POP PUSH1 0x4 DUP2 ADD SWAP1 POP JUMPDEST PUSH1 0x64 DUP4 LT PUSH2 0x1F70 JUMPI PUSH1 0x64 DUP4 DUP2 PUSH2 0x1F66 JUMPI PUSH2 0x1F65 PUSH2 0x2A53 JUMP JUMPDEST JUMPDEST DIV SWAP3 POP PUSH1 0x2 DUP2 ADD SWAP1 POP JUMPDEST PUSH1 0xA DUP4 LT PUSH2 0x1F7F JUMPI PUSH1 0x1 DUP2 ADD SWAP1 POP JUMPDEST DUP1 SWAP2 POP POP SWAP2 SWAP1 POP JUMP JUMPDEST PUSH1 0x0 DUP1 DUP3 PUSH20 0xFFFFFFFFFFFFFFFFFFFFFFFFFFFFFFFFFFFFFFFF AND EXTCODESIZE GT SWAP1 POP SWAP2 SWAP1 POP JUMP JUMPDEST PUSH1 0x0 PUSH2 0x1FBE PUSH2 0x1FB9 DUP5 PUSH2 0x280D JUMP JUMPDEST PUSH2 0x27E8 JUMP JUMPDEST SWAP1 POP DUP3 DUP2 MSTORE PUSH1 0x20 DUP2 ADD DUP5 DUP5 DUP5 ADD GT ISZERO PUSH2 0x1FDA JUMPI PUSH2 0x1FD9 PUSH2 0x2B43 JUMP JUMPDEST JUMPDEST PUSH2 0x1FE5 DUP5 DUP3 DUP6 PUSH2 0x297F JUMP JUMPDEST POP SWAP4 SWAP3 POP POP POP JUMP JUMPDEST PUSH1 0x0 DUP2 CALLDATALOAD SWAP1 POP PUSH2 0x1FFC DUP2 PUSH2 0x2E82 JUMP JUMPDEST SWAP3 SWAP2 POP POP JUMP JUMPDEST PUSH1 0x0 DUP2 CALLDATALOAD SWAP1 POP PUSH2 0x2011 DUP2 PUSH2 0x2E99 JUMP JUMPDEST SWAP3 SWAP2 POP POP JUMP JUMPDEST PUSH1 0x0 DUP2 CALLDATALOAD SWAP1 POP PUSH2 0x2026 DUP2 PUSH2 0x2EB0 JUMP JUMPDEST SWAP3 SWAP2 POP POP JUMP JUMPDEST PUSH1 0x0 DUP2 MLOAD SWAP1 POP PUSH2 0x203B DUP2 PUSH2 0x2EB0 JUMP JUMPDEST SWAP3 SWAP2 POP POP JUMP JUMPDEST PUSH1 0x0 DUP3 PUSH1 0x1F DUP4 ADD SLT PUSH2 0x2056 JUMPI PUSH2 0x2055 PUSH2 0x2B3E JUMP JUMPDEST JUMPDEST DUP2 CALLDATALOAD PUSH2 0x2066 DUP5 DUP3 PUSH1 0x20 DUP7 ADD PUSH2 0x1FAB JUMP JUMPDEST SWAP2 POP POP SWAP3 SWAP2 POP POP JUMP JUMPDEST PUSH1 0x0 DUP2 CALLDATALOAD SWAP1 POP PUSH2 0x207E DUP2 PUSH2 0x2EC7 JUMP JUMPDEST SWAP3 SWAP2 POP POP JUMP JUMPDEST PUSH1 0x0 PUSH1 0x20 DUP3 DUP5 SUB SLT ISZERO PUSH2 0x209A JUMPI PUSH2 0x2099 PUSH2 0x2B4D JUMP JUMPDEST JUMPDEST PUSH1 0x0 PUSH2 0x20A8 DUP5 DUP3 DUP6 ADD PUSH2 0x1FED JUMP JUMPDEST SWAP2 POP POP SWAP3 SWAP2 POP POP JUMP JUMPDEST PUSH1 0x0 DUP1 PUSH1 0x40 DUP4 DUP6 SUB SLT ISZERO PUSH2 0x20C8 JUMPI PUSH2 0x20C7 PUSH2 0x2B4D JUMP JUMPDEST JUMPDEST PUSH1 0x0 PUSH2 0x20D6 DUP6 DUP3 DUP7 ADD PUSH2 0x1FED JUMP JUMPDEST SWAP3 POP POP PUSH1 0x20 PUSH2 0x20E7 DUP6 DUP3 DUP7 ADD PUSH2 0x1FED JUMP JUMPDEST SWAP2 POP POP SWAP3 POP SWAP3 SWAP1 POP JUMP JUMPDEST PUSH1 0x0 DUP1 PUSH1 0x0 PUSH1 0x60 DUP5 DUP7 SUB SLT ISZERO PUSH2 0x210A JUMPI PUSH2 0x2109 PUSH2 0x2B4D JUMP JUMPDEST JUMPDEST PUSH1 0x0 PUSH2 0x2118 DUP7 DUP3 DUP8 ADD PUSH2 0x1FED JUMP JUMPDEST SWAP4 POP POP PUSH1 0x20 PUSH2 0x2129 DUP7 DUP3 DUP8 ADD PUSH2 0x1FED JUMP JUMPDEST SWAP3 POP POP PUSH1 0x40 PUSH2 0x213A DUP7 DUP3 DUP8 ADD PUSH2 0x206F JUMP JUMPDEST SWAP2 POP POP SWAP3 POP SWAP3 POP SWAP3 JUMP JUMPDEST PUSH1 0x0 DUP1 PUSH1 0x0 DUP1 PUSH1 0x80 DUP6 DUP8 SUB SLT ISZERO PUSH2 0x215E JUMPI PUSH2 0x215D PUSH2 0x2B4D JUMP JUMPDEST JUMPDEST PUSH1 0x0 PUSH2 0x216C DUP8 DUP3 DUP9 ADD PUSH2 0x1FED JUMP JUMPDEST SWAP5 POP POP PUSH1 0x20 PUSH2 0x217D DUP8 DUP3 DUP9 ADD PUSH2 0x1FED JUMP JUMPDEST SWAP4 POP POP PUSH1 0x40 PUSH2 0x218E DUP8 DUP3 DUP9 ADD PUSH2 0x206F JUMP JUMPDEST SWAP3 POP POP PUSH1 0x60 DUP6 ADD CALLDATALOAD PUSH8 0xFFFFFFFFFFFFFFFF DUP2 GT ISZERO PUSH2 0x21AF JUMPI PUSH2 0x21AE PUSH2 0x2B48 JUMP JUMPDEST JUMPDEST PUSH2 0x21BB DUP8 DUP3 DUP9 ADD PUSH2 0x2041 JUMP JUMPDEST SWAP2 POP POP SWAP3 SWAP6 SWAP2 SWAP5 POP SWAP3 POP JUMP JUMPDEST PUSH1 0x0 DUP1 PUSH1 0x40 DUP4 DUP6 SUB SLT ISZERO PUSH2 0x21DE JUMPI PUSH2 0x21DD PUSH2 0x2B4D JUMP JUMPDEST JUMPDEST PUSH1 0x0 PUSH2 0x21EC DUP6 DUP3 DUP7 ADD PUSH2 0x1FED JUMP JUMPDEST SWAP3 POP POP PUSH1 0x20 PUSH2 0x21FD DUP6 DUP3 DUP7 ADD PUSH2 0x2002 JUMP JUMPDEST SWAP2 POP POP SWAP3 POP SWAP3 SWAP1 POP JUMP JUMPDEST PUSH1 0x0 DUP1 PUSH1 0x40 DUP4 DUP6 SUB SLT ISZERO PUSH2 0x221E JUMPI PUSH2 0x221D PUSH2 0x2B4D JUMP JUMPDEST JUMPDEST PUSH1 0x0 PUSH2 0x222C DUP6 DUP3 DUP7 ADD PUSH2 0x1FED JUMP JUMPDEST SWAP3 POP POP PUSH1 0x20 PUSH2 0x223D DUP6 DUP3 DUP7 ADD PUSH2 0x206F JUMP JUMPDEST SWAP2 POP POP SWAP3 POP SWAP3 SWAP1 POP JUMP JUMPDEST PUSH1 0x0 PUSH1 0x20 DUP3 DUP5 SUB SLT ISZERO PUSH2 0x225D JUMPI PUSH2 0x225C PUSH2 0x2B4D JUMP JUMPDEST JUMPDEST PUSH1 0x0 PUSH2 0x226B DUP5 DUP3 DUP6 ADD PUSH2 0x2017 JUMP JUMPDEST SWAP2 POP POP SWAP3 SWAP2 POP POP JUMP JUMPDEST PUSH1 0x0 PUSH1 0x20 DUP3 DUP5 SUB SLT ISZERO PUSH2 0x228A JUMPI PUSH2 0x2289 PUSH2 0x2B4D JUMP JUMPDEST JUMPDEST PUSH1 0x0 PUSH2 0x2298 DUP5 DUP3 DUP6 ADD PUSH2 0x202C JUMP JUMPDEST SWAP2 POP POP SWAP3 SWAP2 POP POP JUMP JUMPDEST PUSH1 0x0 PUSH1 0x20 DUP3 DUP5 SUB SLT ISZERO PUSH2 0x22B7 JUMPI PUSH2 0x22B6 PUSH2 0x2B4D JUMP JUMPDEST JUMPDEST PUSH1 0x0 PUSH2 0x22C5 DUP5 DUP3 DUP6 ADD PUSH2 0x206F JUMP JUMPDEST SWAP2 POP POP SWAP3 SWAP2 POP POP JUMP JUMPDEST PUSH2 0x22D7 DUP2 PUSH2 0x290B JUMP JUMPDEST DUP3 MSTORE POP POP JUMP JUMPDEST PUSH2 0x22E6 DUP2 PUSH2 0x291D JUMP JUMPDEST DUP3 MSTORE POP POP JUMP JUMPDEST PUSH1 0x0 PUSH2 0x22F7 DUP3 PUSH2 0x283E JUMP JUMPDEST PUSH2 0x2301 DUP2 DUP6 PUSH2 0x2854 JUMP JUMPDEST SWAP4 POP PUSH2 0x2311 DUP2 DUP6 PUSH1 0x20 DUP7 ADD PUSH2 0x298E JUMP JUMPDEST PUSH2 0x231A DUP2 PUSH2 0x2B52 JUMP JUMPDEST DUP5 ADD SWAP2 POP POP SWAP3 SWAP2 POP POP JUMP JUMPDEST PUSH1 0x0 PUSH2 0x2330 DUP3 PUSH2 0x2849 JUMP JUMPDEST PUSH2 0x233A DUP2 DUP6 PUSH2 0x2865 JUMP JUMPDEST SWAP4 POP PUSH2 0x234A DUP2 DUP6 PUSH1 0x20 DUP7 ADD PUSH2 0x298E JUMP JUMPDEST PUSH2 0x2353 DUP2 PUSH2 0x2B52 JUMP JUMPDEST DUP5 ADD SWAP2 POP POP SWAP3 SWAP2 POP POP JUMP JUMPDEST PUSH1 0x0 PUSH2 0x2369 DUP3 PUSH2 0x2849 JUMP JUMPDEST PUSH2 0x2373 DUP2 DUP6 PUSH2 0x2876 JUMP JUMPDEST SWAP4 POP PUSH2 0x2383 DUP2 DUP6 PUSH1 0x20 DUP7 ADD PUSH2 0x298E JUMP JUMPDEST DUP1 DUP5 ADD SWAP2 POP POP SWAP3 SWAP2 POP POP JUMP JUMPDEST PUSH1 0x0 PUSH2 0x239C PUSH1 0x2D DUP4 PUSH2 0x2865 JUMP JUMPDEST SWAP2 POP PUSH2 0x23A7 DUP3 PUSH2 0x2B63 JUMP JUMPDEST PUSH1 0x40 DUP3 ADD SWAP1 POP SWAP2 SWAP1 POP JUMP JUMPDEST PUSH1 0x0 PUSH2 0x23BF PUSH1 0x32 DUP4 PUSH2 0x2865 JUMP JUMPDEST SWAP2 POP PUSH2 0x23CA DUP3 PUSH2 0x2BB2 JUMP JUMPDEST PUSH1 0x40 DUP3 ADD SWAP1 POP SWAP2 SWAP1 POP JUMP JUMPDEST PUSH1 0x0 PUSH2 0x23E2 PUSH1 0x25 DUP4 PUSH2 0x2865 JUMP JUMPDEST SWAP2 POP PUSH2 0x23ED DUP3 PUSH2 0x2C01 JUMP JUMPDEST PUSH1 0x40 DUP3 ADD SWAP1 POP SWAP2 SWAP1 POP JUMP JUMPDEST PUSH1 0x0 PUSH2 0x2405 PUSH1 0x1C DUP4 PUSH2 0x2865 JUMP JUMPDEST SWAP2 POP PUSH2 0x2410 DUP3 PUSH2 0x2C50 JUMP JUMPDEST PUSH1 0x20 DUP3 ADD SWAP1 POP SWAP2 SWAP1 POP JUMP JUMPDEST PUSH1 0x0 PUSH2 0x2428 PUSH1 0x17 DUP4 PUSH2 0x2865 JUMP JUMPDEST SWAP2 POP PUSH2 0x2433 DUP3 PUSH2 0x2C79 JUMP JUMPDEST PUSH1 0x20 DUP3 ADD SWAP1 POP SWAP2 SWAP1 POP JUMP JUMPDEST PUSH1 0x0 PUSH2 0x244B PUSH1 0x24 DUP4 PUSH2 0x2865 JUMP JUMPDEST SWAP2 POP PUSH2 0x2456 DUP3 PUSH2 0x2CA2 JUMP JUMPDEST PUSH1 0x40 DUP3 ADD SWAP1 POP SWAP2 SWAP1 POP JUMP JUMPDEST PUSH1 0x0 PUSH2 0x246E PUSH1 0x19 DUP4 PUSH2 0x2865 JUMP JUMPDEST SWAP2 POP PUSH2 0x2479 DUP3 PUSH2 0x2CF1 JUMP JUMPDEST PUSH1 0x20 DUP3 ADD SWAP1 POP SWAP2 SWAP1 POP JUMP JUMPDEST PUSH1 0x0 PUSH2 0x2491 PUSH1 0x14 DUP4 PUSH2 0x2865 JUMP JUMPDEST SWAP2 POP PUSH2 0x249C DUP3 PUSH2 0x2D1A JUMP JUMPDEST PUSH1 0x20 DUP3 ADD SWAP1 POP SWAP2 SWAP1 POP JUMP JUMPDEST PUSH1 0x0 PUSH2 0x24B4 PUSH1 0x29 DUP4 PUSH2 0x2865 JUMP JUMPDEST SWAP2 POP PUSH2 0x24BF DUP3 PUSH2 0x2D43 JUMP JUMPDEST PUSH1 0x40 DUP3 ADD SWAP1 POP SWAP2 SWAP1 POP JUMP JUMPDEST PUSH1 0x0 PUSH2 0x24D7 PUSH1 0x20 DUP4 PUSH2 0x2865 JUMP JUMPDEST SWAP2 POP PUSH2 0x24E2 DUP3 PUSH2 0x2D92 JUMP JUMPDEST PUSH1 0x20 DUP3 ADD SWAP1 POP SWAP2 SWAP1 POP JUMP JUMPDEST PUSH1 0x0 PUSH2 0x24FA PUSH1 0x18 DUP4 PUSH2 0x2865 JUMP JUMPDEST SWAP2 POP PUSH2 0x2505 DUP3 PUSH2 0x2DBB JUMP JUMPDEST PUSH1 0x20 DUP3 ADD SWAP1 POP SWAP2 SWAP1 POP JUMP JUMPDEST PUSH1 0x0 PUSH2 0x251D PUSH1 0x21 DUP4 PUSH2 0x2865 JUMP JUMPDEST SWAP2 POP PUSH2 0x2528 DUP3 PUSH2 0x2DE4 JUMP JUMPDEST PUSH1 0x40 DUP3 ADD SWAP1 POP SWAP2 SWAP1 POP JUMP JUMPDEST PUSH1 0x0 PUSH2 0x2540 PUSH1 0x3D DUP4 PUSH2 0x2865 JUMP JUMPDEST SWAP2 POP PUSH2 0x254B DUP3 PUSH2 0x2E33 JUMP JUMPDEST PUSH1 0x40 DUP3 ADD SWAP1 POP SWAP2 SWAP1 POP JUMP JUMPDEST PUSH2 0x255F DUP2 PUSH2 0x2975 JUMP JUMPDEST DUP3 MSTORE POP POP JUMP JUMPDEST PUSH1 0x0 PUSH2 0x2571 DUP3 DUP6 PUSH2 0x235E JUMP JUMPDEST SWAP2 POP PUSH2 0x257D DUP3 DUP5 PUSH2 0x235E JUMP JUMPDEST SWAP2 POP DUP2 SWAP1 POP SWAP4 SWAP3 POP POP POP JUMP JUMPDEST PUSH1 0x0 PUSH1 0x20 DUP3 ADD SWAP1 POP PUSH2 0x259E PUSH1 0x0 DUP4 ADD DUP5 PUSH2 0x22CE JUMP JUMPDEST SWAP3 SWAP2 POP POP JUMP JUMPDEST PUSH1 0x0 PUSH1 0x80 DUP3 ADD SWAP1 POP PUSH2 0x25B9 PUSH1 0x0 DUP4 ADD DUP8 PUSH2 0x22CE JUMP JUMPDEST PUSH2 0x25C6 PUSH1 0x20 DUP4 ADD DUP7 PUSH2 0x22CE JUMP JUMPDEST PUSH2 0x25D3 PUSH1 0x40 DUP4 ADD DUP6 PUSH2 0x2556 JUMP JUMPDEST DUP2 DUP2 SUB PUSH1 0x60 DUP4 ADD MSTORE PUSH2 0x25E5 DUP2 DUP5 PUSH2 0x22EC JUMP JUMPDEST SWAP1 POP SWAP6 SWAP5 POP POP POP POP POP JUMP JUMPDEST PUSH1 0x0 PUSH1 0x20 DUP3 ADD SWAP1 POP PUSH2 0x2605 PUSH1 0x0 DUP4 ADD DUP5 PUSH2 0x22DD JUMP JUMPDEST SWAP3 SWAP2 POP POP JUMP JUMPDEST PUSH1 0x0 PUSH1 0x20 DUP3 ADD SWAP1 POP DUP2 DUP2 SUB PUSH1 0x0 DUP4 ADD MSTORE PUSH2 0x2625 DUP2 DUP5 PUSH2 0x2325 JUMP JUMPDEST SWAP1 POP SWAP3 SWAP2 POP POP JUMP JUMPDEST PUSH1 0x0 PUSH1 0x20 DUP3 ADD SWAP1 POP DUP2 DUP2 SUB PUSH1 0x0 DUP4 ADD MSTORE PUSH2 0x2646 DUP2 PUSH2 0x238F JUMP JUMPDEST SWAP1 POP SWAP2 SWAP1 POP JUMP JUMPDEST PUSH1 0x0 PUSH1 0x20 DUP3 ADD SWAP1 POP DUP2 DUP2 SUB PUSH1 0x0 DUP4 ADD MSTORE PUSH2 0x2666 DUP2 PUSH2 0x23B2 JUMP JUMPDEST SWAP1 POP SWAP2 SWAP1 POP JUMP JUMPDEST PUSH1 0x0 PUSH1 0x20 DUP3 ADD SWAP1 POP DUP2 DUP2 SUB PUSH1 0x0 DUP4 ADD MSTORE PUSH2 0x2686 DUP2 PUSH2 0x23D5 JUMP JUMPDEST SWAP1 POP SWAP2 SWAP1 POP JUMP JUMPDEST PUSH1 0x0 PUSH1 0x20 DUP3 ADD SWAP1 POP DUP2 DUP2 SUB PUSH1 0x0 DUP4 ADD MSTORE PUSH2 0x26A6 DUP2 PUSH2 0x23F8 JUMP JUMPDEST SWAP1 POP SWAP2 SWAP1 POP JUMP JUMPDEST PUSH1 0x0 PUSH1 0x20 DUP3 ADD SWAP1 POP DUP2 DUP2 SUB PUSH1 0x0 DUP4 ADD MSTORE PUSH2 0x26C6 DUP2 PUSH2 0x241B JUMP JUMPDEST SWAP1 POP SWAP2 SWAP1 POP JUMP JUMPDEST PUSH1 0x0 PUSH1 0x20 DUP3 ADD SWAP1 POP DUP2 DUP2 SUB PUSH1 0x0 DUP4 ADD MSTORE PUSH2 0x26E6 DUP2 PUSH2 0x243E JUMP JUMPDEST SWAP1 POP SWAP2 SWAP1 POP JUMP JUMPDEST PUSH1 0x0 PUSH1 0x20 DUP3 ADD SWAP1 POP DUP2 DUP2 SUB PUSH1 0x0 DUP4 ADD MSTORE PUSH2 0x2706 DUP2 PUSH2 0x2461 JUMP JUMPDEST SWAP1 POP SWAP2 SWAP1 POP JUMP JUMPDEST PUSH1 0x0 PUSH1 0x20 DUP3 ADD SWAP1 POP DUP2 DUP2 SUB PUSH1 0x0 DUP4 ADD MSTORE PUSH2 0x2726 DUP2 PUSH2 0x2484 JUMP JUMPDEST SWAP1 POP SWAP2 SWAP1 POP JUMP JUMPDEST PUSH1 0x0 PUSH1 0x20 DUP3 ADD SWAP1 POP DUP2 DUP2 SUB PUSH1 0x0 DUP4 ADD MSTORE PUSH2 0x2746 DUP2 PUSH2 0x24A7 JUMP JUMPDEST SWAP1 POP SWAP2 SWAP1 POP JUMP JUMPDEST PUSH1 0x0 PUSH1 0x20 DUP3 ADD SWAP1 POP DUP2 DUP2 SUB PUSH1 0x0 DUP4 ADD MSTORE PUSH2 0x2766 DUP2 PUSH2 0x24CA JUMP JUMPDEST SWAP1 POP SWAP2 SWAP1 POP JUMP JUMPDEST PUSH1 0x0 PUSH1 0x20 DUP3 ADD SWAP1 POP DUP2 DUP2 SUB PUSH1 0x0 DUP4 ADD MSTORE PUSH2 0x2786 DUP2 PUSH2 0x24ED JUMP JUMPDEST SWAP1 POP SWAP2 SWAP1 POP JUMP JUMPDEST PUSH1 0x0 PUSH1 0x20 DUP3 ADD SWAP1 POP DUP2 DUP2 SUB PUSH1 0x0 DUP4 ADD MSTORE PUSH2 0x27A6 DUP2 PUSH2 0x2510 JUMP JUMPDEST SWAP1 POP SWAP2 SWAP1 POP JUMP JUMPDEST PUSH1 0x0 PUSH1 0x20 DUP3 ADD SWAP1 POP DUP2 DUP2 SUB PUSH1 0x0 DUP4 ADD MSTORE PUSH2 0x27C6 DUP2 PUSH2 0x2533 JUMP JUMPDEST SWAP1 POP SWAP2 SWAP1 POP JUMP JUMPDEST PUSH1 0x0 PUSH1 0x20 DUP3 ADD SWAP1 POP PUSH2 0x27E2 PUSH1 0x0 DUP4 ADD DUP5 PUSH2 0x2556 JUMP JUMPDEST SWAP3 SWAP2 POP POP JUMP JUMPDEST PUSH1 0x0 PUSH2 0x27F2 PUSH2 0x2803 JUMP JUMPDEST SWAP1 POP PUSH2 0x27FE DUP3 DUP3 PUSH2 0x29F3 JUMP JUMPDEST SWAP2 SWAP1 POP JUMP JUMPDEST PUSH1 0x0 PUSH1 0x40 MLOAD SWAP1 POP SWAP1 JUMP JUMPDEST PUSH1 0x0 PUSH8 0xFFFFFFFFFFFFFFFF DUP3 GT ISZERO PUSH2 0x2828 JUMPI PUSH2 0x2827 PUSH2 0x2B0F JUMP JUMPDEST JUMPDEST PUSH2 0x2831 DUP3 PUSH2 0x2B52 JUMP JUMPDEST SWAP1 POP PUSH1 0x20 DUP2 ADD SWAP1 POP SWAP2 SWAP1 POP JUMP JUMPDEST PUSH1 0x0 DUP2 MLOAD SWAP1 POP SWAP2 SWAP1 POP JUMP JUMPDEST PUSH1 0x0 DUP2 MLOAD SWAP1 POP SWAP2 SWAP1 POP JUMP JUMPDEST PUSH1 0x0 DUP3 DUP3 MSTORE PUSH1 0x20 DUP3 ADD SWAP1 POP SWAP3 SWAP2 POP POP JUMP JUMPDEST PUSH1 0x0 DUP3 DUP3 MSTORE PUSH1 0x20 DUP3 ADD SWAP1 POP SWAP3 SWAP2 POP POP JUMP JUMPDEST PUSH1 0x0 DUP2 SWAP1 POP SWAP3 SWAP2 POP POP JUMP JUMPDEST PUSH1 0x0 PUSH2 0x288C DUP3 PUSH2 0x2975 JUMP JUMPDEST SWAP2 POP PUSH2 0x2897 DUP4 PUSH2 0x2975 JUMP JUMPDEST SWAP3 POP DUP3 PUSH32 0xFFFFFFFFFFFFFFFFFFFFFFFFFFFFFFFFFFFFFFFFFFFFFFFFFFFFFFFFFFFFFFFF SUB DUP3 GT ISZERO PUSH2 0x28CC JUMPI PUSH2 0x28CB PUSH2 0x2A24 JUMP JUMPDEST JUMPDEST DUP3 DUP3 ADD SWAP1 POP SWAP3 SWAP2 POP POP JUMP JUMPDEST PUSH1 0x0 PUSH2 0x28E2 DUP3 PUSH2 0x2975 JUMP JUMPDEST SWAP2 POP PUSH2 0x28ED DUP4 PUSH2 0x2975 JUMP JUMPDEST SWAP3 POP DUP3 DUP3 LT ISZERO PUSH2 0x2900 JUMPI PUSH2 0x28FF PUSH2 0x2A24 JUMP JUMPDEST JUMPDEST DUP3 DUP3 SUB SWAP1 POP SWAP3 SWAP2 POP POP JUMP JUMPDEST PUSH1 0x0 PUSH2 0x2916 DUP3 PUSH2 0x2955 JUMP JUMPDEST SWAP1 POP SWAP2 SWAP1 POP JUMP JUMPDEST PUSH1 0x0 DUP2 ISZERO ISZERO SWAP1 POP SWAP2 SWAP1 POP JUMP JUMPDEST PUSH1 0x0 PUSH32 0xFFFFFFFF00000000000000000000000000000000000000000000000000000000 DUP3 AND SWAP1 POP SWAP2 SWAP1 POP JUMP JUMPDEST PUSH1 0x0 PUSH20 0xFFFFFFFFFFFFFFFFFFFFFFFFFFFFFFFFFFFFFFFF DUP3 AND SWAP1 POP SWAP2 SWAP1 POP JUMP JUMPDEST PUSH1 0x0 DUP2 SWAP1 POP SWAP2 SWAP1 POP JUMP JUMPDEST DUP3 DUP2 DUP4 CALLDATACOPY PUSH1 0x0 DUP4 DUP4 ADD MSTORE POP POP POP JUMP JUMPDEST PUSH1 0x0 JUMPDEST DUP4 DUP2 LT ISZERO PUSH2 0x29AC JUMPI DUP1 DUP3 ADD MLOAD DUP2 DUP5 ADD MSTORE PUSH1 0x20 DUP2 ADD SWAP1 POP PUSH2 0x2991 JUMP JUMPDEST DUP4 DUP2 GT ISZERO PUSH2 0x29BB JUMPI PUSH1 0x0 DUP5 DUP5 ADD MSTORE JUMPDEST POP POP POP POP JUMP JUMPDEST PUSH1 0x0 PUSH1 0x2 DUP3 DIV SWAP1 POP PUSH1 0x1 DUP3 AND DUP1 PUSH2 0x29D9 JUMPI PUSH1 0x7F DUP3 AND SWAP2 POP JUMPDEST PUSH1 0x20 DUP3 LT DUP2 EQ ISZERO PUSH2 0x29ED JUMPI PUSH2 0x29EC PUSH2 0x2A82 JUMP JUMPDEST JUMPDEST POP SWAP2 SWAP1 POP JUMP JUMPDEST PUSH2 0x29FC DUP3 PUSH2 0x2B52 JUMP JUMPDEST DUP2 ADD DUP2 DUP2 LT PUSH8 0xFFFFFFFFFFFFFFFF DUP3 GT OR ISZERO PUSH2 0x2A1B JUMPI PUSH2 0x2A1A PUSH2 0x2B0F JUMP JUMPDEST JUMPDEST DUP1 PUSH1 0x40 MSTORE POP POP POP JUMP JUMPDEST PUSH32 0x4E487B7100000000000000000000000000000000000000000000000000000000 PUSH1 0x0 MSTORE PUSH1 0x11 PUSH1 0x4 MSTORE PUSH1 0x24 PUSH1 0x0 REVERT JUMPDEST PUSH32 0x4E487B7100000000000000000000000000000000000000000000000000000000 PUSH1 0x0 MSTORE PUSH1 0x12 PUSH1 0x4 MSTORE PUSH1 0x24 PUSH1 0x0 REVERT JUMPDEST PUSH32 0x4E487B7100000000000000000000000000000000000000000000000000000000 PUSH1 0x0 MSTORE PUSH1 0x22 PUSH1 0x4 MSTORE PUSH1 0x24 PUSH1 0x0 REVERT JUMPDEST PUSH32 0x4E487B7100000000000000000000000000000000000000000000000000000000 PUSH1 0x0 MSTORE PUSH1 0x31 PUSH1 0x4 MSTORE PUSH1 0x24 PUSH1 0x0 REVERT JUMPDEST PUSH32 0x4E487B7100000000000000000000000000000000000000000000000000000000 PUSH1 0x0 MSTORE PUSH1 0x32 PUSH1 0x4 MSTORE PUSH1 0x24 PUSH1 0x0 REVERT JUMPDEST PUSH32 0x4E487B7100000000000000000000000000000000000000000000000000000000 PUSH1 0x0 MSTORE PUSH1 0x41 PUSH1 0x4 MSTORE PUSH1 0x24 PUSH1 0x0 REVERT JUMPDEST PUSH1 0x0 DUP1 REVERT JUMPDEST PUSH1 0x0 DUP1 REVERT JUMPDEST PUSH1 0x0 DUP1 REVERT JUMPDEST PUSH1 0x0 DUP1 REVERT JUMPDEST PUSH1 0x0 PUSH1 0x1F NOT PUSH1 0x1F DUP4 ADD AND SWAP1 POP SWAP2 SWAP1 POP JUMP JUMPDEST PUSH32 0x4552433732313A2063616C6C6572206973206E6F7420746F6B656E206F776E65 PUSH1 0x0 DUP3 ADD MSTORE PUSH32 0x72206F7220617070726F76656400000000000000000000000000000000000000 PUSH1 0x20 DUP3 ADD MSTORE POP JUMP JUMPDEST PUSH32 0x4552433732313A207472616E7366657220746F206E6F6E204552433732315265 PUSH1 0x0 DUP3 ADD MSTORE PUSH32 0x63656976657220696D706C656D656E7465720000000000000000000000000000 PUSH1 0x20 DUP3 ADD MSTORE POP JUMP JUMPDEST PUSH32 0x4552433732313A207472616E736665722066726F6D20696E636F727265637420 PUSH1 0x0 DUP3 ADD MSTORE PUSH32 0x6F776E6572000000000000000000000000000000000000000000000000000000 PUSH1 0x20 DUP3 ADD MSTORE POP JUMP JUMPDEST PUSH32 0x4552433732313A20746F6B656E20616C7265616479206D696E74656400000000 PUSH1 0x0 DUP3 ADD MSTORE POP JUMP JUMPDEST PUSH32 0x6F6E6C79206F776E65722063616E206275726E206E6674000000000000000000 PUSH1 0x0 DUP3 ADD MSTORE POP JUMP JUMPDEST PUSH32 0x4552433732313A207472616E7366657220746F20746865207A65726F20616464 PUSH1 0x0 DUP3 ADD MSTORE PUSH32 0x7265737300000000000000000000000000000000000000000000000000000000 PUSH1 0x20 DUP3 ADD MSTORE POP JUMP JUMPDEST PUSH32 0x4552433732313A20617070726F766520746F2063616C6C657200000000000000 PUSH1 0x0 DUP3 ADD MSTORE POP JUMP JUMPDEST PUSH32 0x6D696E7420746F207A65726F2061646472657373000000000000000000000000 PUSH1 0x0 DUP3 ADD MSTORE POP JUMP JUMPDEST PUSH32 0x4552433732313A2061646472657373207A65726F206973206E6F742061207661 PUSH1 0x0 DUP3 ADD MSTORE PUSH32 0x6C6964206F776E65720000000000000000000000000000000000000000000000 PUSH1 0x20 DUP3 ADD MSTORE POP JUMP JUMPDEST PUSH32 0x4552433732313A206D696E7420746F20746865207A65726F2061646472657373 PUSH1 0x0 DUP3 ADD MSTORE POP JUMP JUMPDEST PUSH32 0x4552433732313A20696E76616C696420746F6B656E2049440000000000000000 PUSH1 0x0 DUP3 ADD MSTORE POP JUMP JUMPDEST PUSH32 0x4552433732313A20617070726F76616C20746F2063757272656E74206F776E65 PUSH1 0x0 DUP3 ADD MSTORE PUSH32 0x7200000000000000000000000000000000000000000000000000000000000000 PUSH1 0x20 DUP3 ADD MSTORE POP JUMP JUMPDEST PUSH32 0x4552433732313A20617070726F76652063616C6C6572206973206E6F7420746F PUSH1 0x0 DUP3 ADD MSTORE PUSH32 0x6B656E206F776E6572206F7220617070726F76656420666F7220616C6C000000 PUSH1 0x20 DUP3 ADD MSTORE POP JUMP JUMPDEST PUSH2 0x2E8B DUP2 PUSH2 0x290B JUMP JUMPDEST DUP2 EQ PUSH2 0x2E96 JUMPI PUSH1 0x0 DUP1 REVERT JUMPDEST POP JUMP JUMPDEST PUSH2 0x2EA2 DUP2 PUSH2 0x291D JUMP JUMPDEST DUP2 EQ PUSH2 0x2EAD JUMPI PUSH1 0x0 DUP1 REVERT JUMPDEST POP JUMP JUMPDEST PUSH2 0x2EB9 DUP2 PUSH2 0x2929 JUMP JUMPDEST DUP2 EQ PUSH2 0x2EC4 JUMPI PUSH1 0x0 DUP1 REVERT JUMPDEST POP JUMP JUMPDEST PUSH2 0x2ED0 DUP2 PUSH2 0x2975 JUMP JUMPDEST DUP2 EQ PUSH2 0x2EDB JUMPI PUSH1 0x0 DUP1 REVERT JUMPDEST POP JUMP INVALID LOG2 PUSH5 0x6970667358 0x22 SLT KECCAK256 0xED 0x1E DUP2 SLOAD CALLCODE 0xE JUMPI SELFBALANCE RETURN 0x1E 0x29 DUP3 LOG0 0xD0 0x49 0xB7 DUP3 RETURN PUSH1 0x8B 0xB3 0xC8 0xC5 DUP16 SWAP7 0xBE 0xDB PUSH10 0xF1F5B5AA64736F6C6343 STOP ADDMOD SMOD STOP CALLER "
		},
		"gasEstimates": {
			"creation": {
				"codeDepositCost": "2410400",
				"executionCost": "infinite",
				"totalCost": "infinite"
			},
			"external": {
				"_totalSupply()": "2518",
				"approve(address,uint256)": "infinite",
				"balanceOf(address)": "2990",
				"burn(uint256)": "infinite",
				"getApproved(uint256)": "5300",
				"isApprovedForAll(address,address)": "infinite",
				"mint(address,uint256)": "infinite",
				"name()": "infinite",
				"ownerOf(uint256)": "3091",
				"safeTransferFrom(address,address,uint256)": "infinite",
				"safeTransferFrom(address,address,uint256,bytes)": "infinite",
				"setApprovalForAll(address,bool)": "infinite",
				"supportsInterface(bytes4)": "797",
				"symbol()": "infinite",
				"tokenByIndex(uint256)": "infinite",
				"tokenOfOwnerByIndex(address,uint256)": "infinite",
				"tokenURI(uint256)": "3489",
				"totalSupply()": "infinite",
				"transferFrom(address,address,uint256)": "infinite"
			}
		},
		"methodIdentifiers": {
			"_totalSupply()": "3eaaf86b",
			"approve(address,uint256)": "095ea7b3",
			"balanceOf(address)": "70a08231",
			"burn(uint256)": "42966c68",
			"getApproved(uint256)": "081812fc",
			"isApprovedForAll(address,address)": "e985e9c5",
			"mint(address,uint256)": "40c10f19",
			"name()": "06fdde03",
			"ownerOf(uint256)": "6352211e",
			"safeTransferFrom(address,address,uint256)": "42842e0e",
			"safeTransferFrom(address,address,uint256,bytes)": "b88d4fde",
			"setApprovalForAll(address,bool)": "a22cb465",
			"supportsInterface(bytes4)": "01ffc9a7",
			"symbol()": "95d89b41",
			"tokenByIndex(uint256)": "4f6ccce7",
			"tokenOfOwnerByIndex(address,uint256)": "2f745c59",
			"tokenURI(uint256)": "c87b56dd",
			"totalSupply()": "18160ddd",
			"transferFrom(address,address,uint256)": "23b872dd"
		}
	},
	"abi": [
		{
			"inputs": [
				{
					"internalType": "string",
					"name": "name",
					"type": "string"
				},
				{
					"internalType": "string",
					"name": "symbol",
					"type": "string"
				}
			],
			"stateMutability": "nonpayable",
			"type": "constructor"
		},
		{
			"anonymous": false,
			"inputs": [
				{
					"indexed": true,
					"internalType": "address",
					"name": "owner",
					"type": "address"
				},
				{
					"indexed": true,
					"internalType": "address",
					"name": "approved",
					"type": "address"
				},
				{
					"indexed": true,
					"internalType": "uint256",
					"name": "tokenId",
					"type": "uint256"
				}
			],
			"name": "Approval",
			"type": "event"
		},
		{
			"anonymous": false,
			"inputs": [
				{
					"indexed": true,
					"internalType": "address",
					"name": "owner",
					"type": "address"
				},
				{
					"indexed": true,
					"internalType": "address",
					"name": "operator",
					"type": "address"
				},
				{
					"indexed": false,
					"internalType": "bool",
					"name": "approved",
					"type": "bool"
				}
			],
			"name": "ApprovalForAll",
			"type": "event"
		},
		{
			"anonymous": false,
			"inputs": [
				{
					"indexed": true,
					"internalType": "address",
					"name": "from",
					"type": "address"
				},
				{
					"indexed": true,
					"internalType": "address",
					"name": "to",
					"type": "address"
				},
				{
					"indexed": true,
					"internalType": "uint256",
					"name": "tokenId",
					"type": "uint256"
				}
			],
			"name": "Transfer",
			"type": "event"
		},
		{
			"inputs": [],
			"name": "_totalSupply",
			"outputs": [
				{
					"internalType": "uint256",
					"name": "",
					"type": "uint256"
				}
			],
			"stateMutability": "view",
			"type": "function"
		},
		{
			"inputs": [
				{
					"internalType": "address",
					"name": "to",
					"type": "address"
				},
				{
					"internalType": "uint256",
					"name": "tokenId",
					"type": "uint256"
				}
			],
			"name": "approve",
			"outputs": [],
			"stateMutability": "nonpayable",
			"type": "function"
		},
		{
			"inputs": [
				{
					"internalType": "address",
					"name": "owner",
					"type": "address"
				}
			],
			"name": "balanceOf",
			"outputs": [
				{
					"internalType": "uint256",
					"name": "",
					"type": "uint256"
				}
			],
			"stateMutability": "view",
			"type": "function"
		},
		{
			"inputs": [
				{
					"internalType": "uint256",
					"name": "tokenId",
					"type": "uint256"
				}
			],
			"name": "burn",
			"outputs": [],
			"stateMutability": "nonpayable",
			"type": "function"
		},
		{
			"inputs": [
				{
					"internalType": "uint256",
					"name": "tokenId",
					"type": "uint256"
				}
			],
			"name": "getApproved",
			"outputs": [
				{
					"internalType": "address",
					"name": "",
					"type": "address"
				}
			],
			"stateMutability": "view",
			"type": "function"
		},
		{
			"inputs": [
				{
					"internalType": "address",
					"name": "owner",
					"type": "address"
				},
				{
					"internalType": "address",
					"name": "operator",
					"type": "address"
				}
			],
			"name": "isApprovedForAll",
			"outputs": [
				{
					"internalType": "bool",
					"name": "",
					"type": "bool"
				}
			],
			"stateMutability": "view",
			"type": "function"
		},
		{
			"inputs": [
				{
					"internalType": "address",
					"name": "account",
					"type": "address"
				},
				{
					"internalType": "uint256",
					"name": "tokenId",
					"type": "uint256"
				}
			],
			"name": "mint",
			"outputs": [],
			"stateMutability": "nonpayable",
			"type": "function"
		},
		{
			"inputs": [],
			"name": "name",
			"outputs": [
				{
					"internalType": "string",
					"name": "",
					"type": "string"
				}
			],
			"stateMutability": "view",
			"type": "function"
		},
		{
			"inputs": [
				{
					"internalType": "uint256",
					"name": "tokenId",
					"type": "uint256"
				}
			],
			"name": "ownerOf",
			"outputs": [
				{
					"internalType": "address",
					"name": "",
					"type": "address"
				}
			],
			"stateMutability": "view",
			"type": "function"
		},
		{
			"inputs": [
				{
					"internalType": "address",
					"name": "from",
					"type": "address"
				},
				{
					"internalType": "address",
					"name": "to",
					"type": "address"
				},
				{
					"internalType": "uint256",
					"name": "tokenId",
					"type": "uint256"
				}
			],
			"name": "safeTransferFrom",
			"outputs": [],
			"stateMutability": "nonpayable",
			"type": "function"
		},
		{
			"inputs": [
				{
					"internalType": "address",
					"name": "from",
					"type": "address"
				},
				{
					"internalType": "address",
					"name": "to",
					"type": "address"
				},
				{
					"internalType": "uint256",
					"name": "tokenId",
					"type": "uint256"
				},
				{
					"internalType": "bytes",
					"name": "data",
					"type": "bytes"
				}
			],
			"name": "safeTransferFrom",
			"outputs": [],
			"stateMutability": "nonpayable",
			"type": "function"
		},
		{
			"inputs": [
				{
					"internalType": "address",
					"name": "operator",
					"type": "address"
				},
				{
					"internalType": "bool",
					"name": "approved",
					"type": "bool"
				}
			],
			"name": "setApprovalForAll",
			"outputs": [],
			"stateMutability": "nonpayable",
			"type": "function"
		},
		{
			"inputs": [
				{
					"internalType": "bytes4",
					"name": "interfaceId",
					"type": "bytes4"
				}
			],
			"name": "supportsInterface",
			"outputs": [
				{
					"internalType": "bool",
					"name": "",
					"type": "bool"
				}
			],
			"stateMutability": "view",
			"type": "function"
		},
		{
			"inputs": [],
			"name": "symbol",
			"outputs": [
				{
					"internalType": "string",
					"name": "",
					"type": "string"
				}
			],
			"stateMutability": "view",
			"type": "function"
		},
		{
			"inputs": [
				{
					"internalType": "uint256",
					"name": "index",
					"type": "uint256"
				}
			],
			"name": "tokenByIndex",
			"outputs": [
				{
					"internalType": "uint256",
					"name": "",
					"type": "uint256"
				}
			],
			"stateMutability": "view",
			"type": "function"
		},
		{
			"inputs": [
				{
					"internalType": "address",
					"name": "owner",
					"type": "address"
				},
				{
					"internalType": "uint256",
					"name": "index",
					"type": "uint256"
				}
			],
			"name": "tokenOfOwnerByIndex",
			"outputs": [
				{
					"internalType": "uint256",
					"name": "",
					"type": "uint256"
				}
			],
			"stateMutability": "view",
			"type": "function"
		},
		{
			"inputs": [
				{
					"internalType": "uint256",
					"name": "tokenId",
					"type": "uint256"
				}
			],
			"name": "tokenURI",
			"outputs": [
				{
					"internalType": "string",
					"name": "",
					"type": "string"
				}
			],
			"stateMutability": "view",
			"type": "function"
		},
		{
			"inputs": [],
			"name": "totalSupply",
			"outputs": [
				{
					"internalType": "uint256",
					"name": "",
					"type": "uint256"
				}
			],
			"stateMutability": "view",
			"type": "function"
		},
		{
			"inputs": [
				{
					"internalType": "address",
					"name": "from",
					"type": "address"
				},
				{
					"internalType": "address",
					"name": "to",
					"type": "address"
				},
				{
					"internalType": "uint256",
					"name": "tokenId",
					"type": "uint256"
				}
			],
			"name": "transferFrom",
			"outputs": [],
			"stateMutability": "nonpayable",
			"type": "function"
		}
	]
}